:100000000C9471000C9499000C9499000C94990034
:100010000C9499000C9499000C9499000C94420B48
:100020000C9499000C9499000C9499000C949900EC
:100030000C9499000C9499000C9499000C949900DC
:100040000C94A8030C9499000C9439070C946B073A
:100050000C9499000C9499000C9499000C949900BC
:100060000C9499000C9499006303080310034D034A
:100070006603260389032D30303030312D00524F76
:1000800042424F2D0000000008000201000003045E
:1000900007000000000000000001020408102040DA
:1000A0008001020408102001020408102004040446
:1000B0000404040404020202020202030303030311
:1000C0000300000000230026002900000000002596
:1000D0000028002B0000000000240027002A000256
:1000E0009B0711241FBECFEFD8E0DEBFCDBF11E0CC
:1000F000A0E0B1E0E6E2F8E102C005900D92AC3478
:10010000B107D9F722E0ACE4B1E001C01D92A63AF4
:10011000B207E1F710E0C2EED0E004C02297FE0182
:100120000E94E20BC03ED107C9F70E94DF070C9482
:10013000110C0C940000DC01ED91FC910190F08118
:10014000E02D09940F931F93CF93DF9309EB11E0F8
:10015000C0E0D0E0CE010E94090CF80181938F012C
:100160002196C233D105B1F7E9EBF1E0CF01895B0C
:10017000914021912D32D1F70196E4EAF1E0DC01C2
:10018000A754BE4F2C9101962D3211F02193F7CF39
:10019000EFE8F1E0DC01A754BE4F2C9101962D321F
:1001A00011F02193F7CFEAE7F1E0DC01A754BE4F4D
:1001B0002C912D3219F021930196F7CFC5E6D1E0AD
:1001C00081E090E00196FD01E80FF91F3197208151
:1001D000222311F02993F6CF64E371E084EA91E0E1
:1001E0000E94000C892BA9F466E371E08FE891E08E
:1001F0000E94000C892B69F466E371E08AE791E0C4
:100200000E94000C892B29F4109264011092630162
:100210002CC068E371E084EA91E00E94000C892B15
:10022000F1F466E371E08FE891E00E94000C892B05
:10023000B1F466E371E08AE791E00E94000C892B3B
:1002400019F481E090E00DC06AE371E08AE791E083
:100250000E94000C892B19F483E090E002C08FEF1C
:100260009FEF9093640180936301DF91CF911F9181
:100270000F910895EF92FF920F931F93CF93DF9307
:100280000E94A20026E040E052EC61E070E084EFC2
:1002900091E00E94D7061092620161E084E00E9422
:1002A0001D0561E082E00E941D0561E08EE00E9474
:1002B0001D0561E082E00E941D0561E083E00E946F
:1002C0001D0561E084E00E941D0561E085E00E945B
:1002D0001D0561E086E00E941D0561E087E00E9447
:1002E0001D0561E08EE00E94560508EC10E0C0E0BC
:1002F000D0E0EE24E394F12C97010C2E01C0220FE4
:100300000A94EAF741E064E082E00E94B505219694
:1003100024E630E040E050E0B80183E00E940509A7
:1003200064E670E080E090E00E94150408531F4FDF
:10033000C830D10509F720E041E064E082E0DF91B8
:10034000CF911F910F91FF90EF900C94B505CF9333
:1003500063E270E084EF91E00E949B0088E00E94DD
:100360008C05C1E0019709F0C0E089E00E948C058E
:10037000019709F4C2608AE00E948C05019709F494
:10038000C4608BE00E948C05019709F4C8608CE082
:100390000E948C05019709F4C0618DE00E948C05D4
:1003A000019709F4C0626C2F84EF91E00E947206FD
:1003B00080E00E947804C82F692F84EF91E00E94AA
:1003C00072066C2F84EF91E00E94720681E00E9419
:1003D0007804C82F692F84EF91E00E9472066C2F79
:1003E00084EF91E00E94720682E00E947804C82F98
:1003F000692F84EF91E00E9472066C2F84EF91E0E8
:100400000E94720683E00E947804C82F692F84EF4F
:1004100091E00E9472066C2F84EF91E00E947206B8
:1004200084E00E947804C82F692F84EF91E00E9435
:1004300072066C2F84EF91E00E94720685E00E94A4
:100440007804C82F692F84EF91E00E9472066C2F08
:1004500084EF91E0CF910C947206CF93DF9384EFF9
:1004600091E00E94F405892B09F46FC184EF91E0BB
:100470000E940D062091620121118FC09C0133273B
:100480002336310509F481C054F42136310509F4CD
:1004900079C00CF07AC02032310581F056C1253682
:1004A000310509F472C00CF470C02636310509F428
:1004B0006CC02736310509F468C047C16EE770E0AB
:1004C00084EF91E00E942C08809163019091640177
:1004D0008031974234F460E370E084EF91E00E9451
:1004E0009B008091630190916401883E934034F4B5
:1004F00060E370E084EF91E00E949B0080916301D3
:10050000909164018436910534F460E370E084EFE7
:1005100091E00E949B0080916301909164010A9791
:1005200034F460E370E084EF91E00E949B006091FE
:100530006301709164014AE050E084EF91E00E9411
:10054000FD0866E770E084EF91E00E942C08C5E6A4
:10055000D1E009900020E9F72197C556D140C43178
:10056000D10544F460E370E084EF91E00E949B00C9
:100570002196F5CF65E671E084EF91E0DF91CF91B0
:100580000C94510880934C0128C080934C0182E068
:100590008093620110924D01D8C0223029F59091CC
:1005A0004D01E92FF0E0E25BFE4F808381E0890F8F
:1005B00080934D0190914C01943661F028F492366D
:1005C00049F0933639F0C1C0963621F018F09736CD
:1005D00041F0BBC0882309F4B8C083E08093620176
:1005E000B4C08230D0F7B1C0233009F0AEC084323D
:1005F00009F0A9C080914C0190E0FC01E156F1099D
:10060000E730F10508F09FC0EC5CFF4F0C94E00B65
:1006100020914E0141E064E082E00E94B50553C0A4
:10062000C0914E01C0FF02C061E001C060E085E002
:100630000E945605C1FF02C061E001C060E086E093
:100640000E945605C2FF24C061E023C0C0914E0144
:10065000C0FF04C060E082E00E945605C1FF04C0F4
:1006600060E083E00E945605C2FF04C060E084E0C1
:100670000E945605C3FF04C060E085E00E94560555
:10068000C4FF04C060E086E00E945605C5FF1BC0A1
:1006900060E087E00E94560516C0E0914E01F0E050
:1006A000EE0FFF1FE050FF4F6081718124E630E0C4
:1006B00040E050E083E00E94050964E670E080E0DD
:1006C00090E00E9415040E94A7013DC0C0914E0118
:1006D000C0FF04C061E082E00E945605C1FF04C073
:1006E00061E083E00E945605C2FF04C061E084E03F
:1006F0000E945605C3FF04C061E085E00E945605D4
:10070000C4FF04C061E086E00E945605C5FFDBCF50
:100710009BCFD0914E01C0914F01D0FF05C06C2FEF
:1007200070E083E00E949504D1FF05C06C2F70E05B
:1007300085E00E949504D2FFC6CF6C2F70E086E062
:100740000E949504C0CF10926201DF91CF9108956D
:100750001F920F920FB60F9211242F933F938F93F6
:100760009F93AF93BF938091EC019091ED01A09185
:10077000EE01B091EF013091EB0123E0230F2D3713
:1007800020F40196A11DB11D05C026E8230F029695
:10079000A11DB11D2093EB018093EC019093ED011D
:1007A000A093EE01B093EF018091F0019091F101DF
:1007B000A091F201B091F3010196A11DB11D8093AA
:1007C000F0019093F101A093F201B093F301BF9176
:1007D000AF919F918F913F912F910F900FBE0F90EE
:1007E0001F9018953FB7F8948091F0019091F10116
:1007F000A091F201B091F30126B5A89B05C02F3F4F
:1008000019F00196A11DB11D3FBF6627782F892FD2
:100810009A2F620F711D811D911D42E0660F771F97
:10082000881F991F4A95D1F70895CF92DF92EF92D2
:10083000FF92CF93DF936B017C010E94F203EB01E7
:10084000C114D104E104F10489F00E949E0B0E94BE
:10085000F2036C1B7D0B683E734090F381E0C81A75
:10086000D108E108F108C851DC4FEACFDF91CF9100
:10087000FF90EF90DF90CF900895789484B58260D8
:1008800084BD84B5816084BD85B5826085BD85B534
:10089000816085BDEEE6F0E0808181608083E1E8E3
:1008A000F0E010828081826080838081816080831B
:1008B000E0E8F0E0808181608083E1EBF0E080811E
:1008C00084608083E0EBF0E0808181608083EAE7F0
:1008D000F0E0808184608083808182608083808179
:1008E000816080838081806880831092C100089538
:1008F0008E3008F08E5087702091320190E4299F4D
:1009000090011124822B80937C0080917A00806476
:1009100080937A0080917A0086FDFCCF80917800E8
:100920002091790090E0922B08951F93CF93DF934D
:10093000182FEB0161E00E941D05209711F460E083
:1009400004C0CF3FD10539F461E0812FDF91CF9111
:100950001F910C945605E12FF0E0EB57FF4FE49107
:10096000E330F9F048F4E130B9F0E230A1F584B5B4
:10097000806284BDC8BD34C0E730E9F0E83019F1C9
:10098000E43049F580918000806280938000D093AC
:100990008B00C0938A0024C084B5806884BDC7BD25
:1009A0001FC080918000806880938000D093890070
:1009B000C093880015C08091B00080688093B0001B
:1009C000C093B3000DC08091B00080628093B000EE
:1009D000C093B40005C0C038D1050CF0B5CFAFCF7F
:1009E000DF91CF911F910895833081F028F48130F9
:1009F00099F08230A1F008958730A9F08830B9F0DD
:100A00008430D1F4809180008F7D03C0809180007C
:100A10008F7780938000089584B58F7702C084B566
:100A20008F7D84BD08958091B0008F7703C0809141
:100A3000B0008F7D8093B0000895CF93DF9390E056
:100A4000FC01E756FF4F2491FC01E355FF4F8491D1
:100A5000882349F190E0880F991FFC01EB52FF4F6A
:100A6000A591B49185539F4FFC01C591D4919FB737
:100A7000611108C0F8948C91209582238C93888111
:100A800082230AC0623051F4F8948C91322F309551
:100A900083238C938881822B888304C0F8948C9163
:100AA000822B8C939FBFDF91CF9108950F931F935B
:100AB000CF93DF931F92CDB7DEB7282F30E0F90137
:100AC000EB57FF4F8491F901E756FF4F1491F9015D
:100AD000E355FF4F04910023C9F0882321F0698377
:100AE0000E94F4046981E02FF0E0EE0FFF1FE55350
:100AF000FF4FA591B4919FB7F8948C91611103C0F9
:100B00001095812301C0812B8C939FBF0F90DF91A3
:100B1000CF911F910F910895CF93DF93282F30E04D
:100B2000F901EB57FF4F8491F901E756FF4FD4913C
:100B3000F901E355FF4FC491CC2391F081110E943C
:100B4000F404EC2FF0E0EE0FFF1FEF53FF4FA591E1
:100B5000B4912C912D2381E090E021F480E002C03B
:100B600080E090E0DF91CF910895BF92CF92DF9225
:100B7000EF92FF920F931F93CF93DF93C82ED62E41
:100B8000B42EC7E0D0E0022F10E087E0E82EF12C71
:100B9000B1100AC0F701EC1BFD0BB80102C075953E
:100BA0006795EA95E2F707C0B8010C2E02C075956B
:100BB00067950A94E2F7617077278C2D0E9456059D
:100BC00061E08D2D0E94560560E08D2D0E94560536
:100BD0002197F0F6DF91CF911F910F91FF90EF9049
:100BE000DF90CF90BF900895FC01818D228D90E021
:100BF000805C9F4F821B91098F7399270895FC0198
:100C0000918D828D981731F0828DE80FF11D858DC1
:100C100090E008958FEF9FEF0895FC01918D828DF4
:100C2000981761F0828DDF01A80FB11D5D968C9140
:100C3000928D9F5F9F73928F90E008958FEF9FEF4B
:100C4000089581E997E0892B49F080E090E0892BB5
:100C500029F00E94910781110C9400000895FC0175
:100C6000848DDF01A80FB11DA35ABF4F2C91848D35
:100C700090E001968F739927848FA689B7892C936A
:100C8000A089B1898C9180648C93938D848D981305
:100C900006C00288F389E02D80818F7D80830895CE
:100CA000CF93DF93EC01888D8823C9F0EA89FB8913
:100CB000808185FD05C0A889B9898C9186FD0FC00A
:100CC0000FB607FCF5CF808185FFF2CFA889B989DF
:100CD0008C9185FFEDCFCE010E942F06E7CFDF91EB
:100CE000CF910895CF92DF92FF920F931F93CF93EE
:100CF000DF931F92CDB7DEB76C01DC015B969C9150
:100D00005B975C968C915C97981307C05096ED9119
:100D1000FC915197808185FD32C0F601038D10E072
:100D20000F5F1F4F0F731127F02EF601848DF812FD
:100D300011C00FB607FCF9CFD6015096ED91FC918A
:100D40005197808185FFF1CFC60169830E942F06EC
:100D50006981EBCF838DE80FF11DE35AFF4F60836C
:100D6000D6015B960C935B975296ED91FC9153974D
:100D700080818062808381E058968C930DC0D6017B
:100D80005696ED91FC91579760835096ED91FC91AA
:100D9000519780818064808381E090E00F90DF91A3
:100DA000CF911F910F91FF90DF90CF900895BF9248
:100DB000CF92DF92EF92FF92CF93DF93EC016A0123
:100DC0007B01B22EE889F98982E08083411581EEAA
:100DD000580761057105A1F060E079E08DE390E0CE
:100DE000A70196010E949F0B215031094109510929
:100DF0005695479537952795211580E1380798F046
:100E0000E889F989108260E874E88EE190E0A70132
:100E100096010E949F0B21503109410951095695B5
:100E2000479537952795EC85FD853083EE85FF85C1
:100E30002083188EEC89FD89B082EA89FB89808144
:100E400080618083EA89FB89808188608083EA8968
:100E5000FB89808180688083EA89FB8980818F7D1E
:100E60008083DF91CF91FF90EF90DF90CF90BF9084
:100E700008951F920F920FB60F9211242F938F9304
:100E80009F93EF93FF93E0910402F091050280811C
:100E9000E0910A02F0910B0282FD12C090818091D4
:100EA0000D028F5F8F7320910E02821751F0E09137
:100EB0000D02F0E0EC50FE4F958F80930D0201C0C3
:100EC0008081FF91EF919F918F912F910F900FBE95
:100ED0000F901F9018951F920F920FB60F9211242A
:100EE0002F933F934F935F936F937F938F939F9332
:100EF000AF93BF93EF93FF9384EF91E00E942F068F
:100F0000FF91EF91BF91AF919F918F917F916F91E1
:100F10005F914F913F912F910F900FBE0F901F90B7
:100F2000189584EF91E00E94F40521E0892B09F4E3
:100F300020E0822F08951092F7011092F60188EEBA
:100F400093E0A0E0B0E08093F8019093F901A093C2
:100F5000FA01B093FB0180E491E09093F501809356
:100F6000F40185EC90E0909301028093000284EC00
:100F700090E0909303028093020280EC90E09093C3
:100F800005028093040281EC90E090930702809325
:100F9000060282EC90E0909309028093080286ECAE
:100FA00090E090930B0280930A0210920D0210922F
:100FB0000E0210920F0210921002089508950E94DE
:100FC0003D040E94DE070E943A01C1E2D6E00E9481
:100FD0002D022097E1F30E942106F9CFCF92DF92F4
:100FE000EF92FF920F931F93CF93DF936C017A01DF
:100FF000EB01E60EF71E00E010E0CE15DF0561F014
:101000006991D601ED91FC910190F081E02DC6012E
:101010000995080F191FF1CFC801DF91CF911F91DA
:101020000F91FF90EF90DF90CF90089561157105BB
:1010300081F0DB010D900020E9F7AD01415051092D
:10104000461B570BDC01ED91FC910280F381E02DF2
:10105000099480E090E00895EF92FF920F931F9320
:10106000CF93DF938C01FB01C0E0D0E064917F015E
:101070008FEFE81AF80A662361F0D801ED91FC9130
:101080000190F081E02DC8010995C80FD91FF70123
:10109000EDCFCE01DF91CF911F910F91FF90EF9097
:1010A00008950C941608DC01ED91FC910190F081FB
:1010B000E02D09948F929F92AF92BF92CF92DF92D0
:1010C000EF92FF920F931F93CF93DF93CDB7DEB7CD
:1010D000A1970FB6F894DEBF0FBECDBF7C01C42E22
:1010E000E52FCB01D22E19A221E02D1510F02AE018
:1010F000D22E8E010F5D1F4F8D2C912CA12CB12C67
:101100006C2D7E2FA50194010E949F0B8C2DD29EE9
:1011100080191124015011098A3014F4805D01C036
:10112000895CF8018083211531054105510521F0C5
:10113000C22EE32FCA01E4CFB801C7010E941608EE
:10114000A1960FB6F894DEBF0FBECDBFDF91CF9151
:101150001F910F91FF90EF90DF90CF90BF90AF90D5
:101160009F908F900895CF92DF92EF92FF920F930E
:101170001F93CF93DF93EC016A017B0121153105A9
:1011800079F4E881F9810190F081E02D642FDF91FD
:10119000CF911F910F91FF90EF90DF90CF90099426
:1011A0002A303105E9F477FF1AC06DE20E94530836
:1011B0008C0144275527BA014C195D096E097F0936
:1011C0002AE0CE010E945A08800F911FDF91CF9133
:1011D0001F910F91FF90EF90DF90CF9008952AE03C
:1011E000B701A601CE01DF91CF911F910F91FF9022
:1011F000EF90DF90CF900C945A089A01AB016627CC
:1012000057FD6095762F0C94B3083F924F925F92F2
:101210006F927F928F929F92AF92BF92CF92DF9206
:10122000EF92FF920F931F93CF93DF9300D000D0E4
:10123000CDB7DEB78B0129013A01909133019817A0
:1012400021F09F3F09F0D3C104C0EFEDF0E03490EE
:1012500081C080933301EFEDF0E0E491EF3F09F4BA
:10126000C6C1E13031F1E23009F44BC0E11171C087
:1012700014BC15BC94B5926094BD95B5916095BDB4
:10128000282F30E0F901E355FF4FE491F0E0EE0F35
:10129000FF1FE553FF4F459154915093A102409396
:1012A000A002F901E756FF4F249120939F02312CB1
:1012B00053C010928000109281009091810098603C
:1012C0009093810090918100916090938100282FEC
:1012D00030E0F901E355FF4FE491F0E0EE0FFF1F1E
:1012E000E553FF4F4591549150939A0240939902D0
:1012F000F901E756FF4F2491209398023324339449
:101300002BC01092B0001092B1009091B00092608A
:101310009093B0009091B10091609093B100282F0C
:1013200030E0F901E355FF4FE491F0E0EE0FFF1FCD
:10133000E553FF4F4591549150939302409392028D
:10134000F901E756FF4F24912093910252E0352E88
:1013500003C03E2E37FC4BC161E00E941D054801D1
:10136000A12CB12C832D8D7F09F0C0C060E072E10B
:101370008AE790E0A50194010E94C10B29833A837A
:101380004B835C8369017A0181E0C81AD108E108C6
:10139000F1089FEFC916D104E104F10409F008F443
:1013A0009AC060E472E48FE090E0A50194010E948D
:1013B000C10B69017A01E1E0CE1AD108E108F10818
:1013C000F2E03F1219C08FEFC816D104E104F10416
:1013D00009F008F487C060E970ED83E090E0A501B2
:1013E00094010E94C10B69017A0191E0C91AD108E8
:1013F000E108F10883E001C082E0EFEFCE16D104EE
:10140000E104F10409F008F467C068E478EE81E0D3
:1014100090E0A50194010E94C10B69017A01F1E0FD
:10142000CF1AD108E108F1083320E1F082E0381248
:101430001BC09FEFC916D104E104F10409F008F4C0
:10144000D4C064E274EF80E090E0A50194010E94B2
:10145000C10B69017A01E1E0CE1AD108E108F10877
:1014600085E003C083E001C084E0FFEFCF16D10424
:10147000E104F10489F180F162E17AE780E090E033
:10148000A50194010E94C10B69017A0181E0C81A8B
:10149000D108E108F108311002C084E001C086E003
:1014A0009FEFC916D104E104F104B1F0A8F0C9809E
:1014B000DA80EB80FC809AE0F594E794D794C794A7
:1014C0009A95D1F7E1E0CE1AD108E108F10833206E
:1014D00031F087E008C081E0332011F004C085E0DE
:1014E00085BD34C082E08093B10030C060E072E11D
:1014F0008AE790E0A50194010E94C10B69017A017D
:10150000F1E0CF1AD108E108F108C114D10481E05B
:10151000E806F10488F068E478EE81E090E0A50147
:1015200094010E94C10B69017A0191E0C91AD108A6
:10153000E108F10893E001C091E0E1E03E1206C04D
:1015400080918100887F892B809381004114510410
:101550006104710471F0D801AA0FBB1FA3019201AD
:101560000E94E60B28EE33E040E050E00E949F0B23
:1015700003C02FEF3FEFA901F1E03F16A1F082E099
:10158000381619F1311033C0C7BC2093A202309332
:10159000A3024093A4025093A50280916E00826042
:1015A00080936E0024C0D0928900C092880020935E
:1015B0009B0230939C0240939D0250939E02809127
:1015C0006F00826080936F0012C0C092B3002093BE
:1015D0009402309395024093960250939702809123
:1015E000700082608093700002C084E07CCF0F9016
:1015F0000F900F900F90DF91CF911F910F91FF905F
:10160000EF90DF90CF90BF90AF909F908F907F90A2
:101610006F905F904F903F900895813039F018F0AF
:10162000823051F0089510926E00089580916F00FD
:101630008D7F80936F000895809170008D7F8093DF
:10164000700081E08093B0008091B100887F846059
:101650008093B1001092B3000895CF93C82F80916A
:1016600033018C1307C0EFEDF0E084919FEF90936E
:10167000330101C08FEF0E940D0B60E08C2FCF91E2
:101680000C9456051F920F920FB60F9211242F93B0
:101690003F934F935F936F937F938F939F93AF93FA
:1016A000BF93EF93FF938091940290919502A09144
:1016B0009602B0919702892B8A2B8B2B51F1909136
:1016C0009102E0919202F0919302808189278083B8
:1016D0008091940290919502A0919602B091970208
:1016E000181619061A061B06C4F4809194029091EC
:1016F0009502A0919602B09197020197A109B109B4
:101700008093940290939502A0939602B0939702CF
:1017100004C0809133010E942D0BFF91EF91BF9186
:10172000AF919F918F917F916F915F914F913F9179
:101730002F910F900FBE0F901F9018950895A1E262
:101740001A2EAA1BBB1BFD010DC0AA1FBB1FEE1F3B
:10175000FF1FA217B307E407F50720F0A21BB30B86
:10176000E40BF50B661F771F881F991F1A9469F702
:1017700060957095809590959B01AC01BD01CF015E
:101780000895052E97FB1EF400940E94D80B57FD78
:1017900007D00E949F0B07FC03D04EF40C94D80B8B
:1017A00050954095309521953F4F4F4F5F4F08958D
:1017B00090958095709561957F4F8F4F9F4F0895BD
:1017C000EE0FFF1F0590F491E02D09940E94F10B9C
:1017D000A59F900DB49F900DA49F800D911D112485
:1017E0000895A29FB001B39FC001A39F700D811DFA
:1017F0001124911DB29F700D811D1124911D08951A
:10180000FB01DC018D91019080190110D9F3990B36
:101810000895F999FECF92BD81BDF89A992780B5B8
:061820000895F894FFCFCB
:1018260006011501260137014A015D017201880191
:101836009F01B801D201EE010B022A024B026E0291
:101846009302BA02E40210033F037003A403DC030D
:10185600170401FF520031004C0032000000000066
:0C1866007206EE07F4050D06FF055006A3
:00000001FF
