:100000000C9472000C949A000C949A000C949A0030
:100010000C949A000C949A000C949A000C94B30BD4
:100020000C949A000C949A000C949A000C949A00E8
:100030000C949A000C949A000C949A000C949A00D8
:100040000C9418040C949A000C94B5070C94E707D0
:100050000C949A000C949A000C949A000C949A00B8
:100060000C949A000C949A00700315031D035A0314
:100070007303330396032D30303030322D00524F4E
:1000800042424F2D0000000008000201000003045E
:1000900007000000000000000001020408102040DA
:1000A0008001020408102001020408102004040446
:1000B0000404040404020202020202030303030311
:1000C0000300000000230026002900000000002596
:1000D0000028002B0000000000240027002A000256
:1000E000A901170811241FBECFEFD8E0DEBFCDBF96
:1000F00011E0A0E0B1E0E2E6FBE102C005900D9264
:10010000AE34B107D9F722E0AEE4B1E001C01D92F0
:10011000A23BB207E1F710E0C4EED0E004C02297A2
:10012000FE010E94800DC03ED107C9F70E94100C4D
:100130000C94AF0D0C940000DC01ED91FC9101904A
:10014000F081E02D09940F931F93CF93DF9305EC7B
:1001500011E0C0E0D0E0CE010E94A70DF80181932C
:100160008F012196C233D105B1F7E5ECF1E0CF0163
:10017000855C914021912D32D1F70196E0EBF1E0C1
:10018000DC01AB53BE4F2C9101962D3211F021931F
:10019000F7CFEBE9F1E0DC01AB53BE4F2C910196B8
:1001A0002D3211F02193F7CFA6E8B1E0FC01EB531B
:1001B000FE4F20812D3219F02D930196F7CFA1E744
:1001C000B1E081E090E0EF01C80FD91F28810196CE
:1001D00030ED320F3A3010F42D93F5CF66E371E035
:1001E00080EB91E00E949E0D892BA9F468E371E0F9
:1001F0008BE991E00E949E0D892B69F468E371E020
:1002000086E891E00E949E0D892B29F410927001DE
:1002100010926F012CC06AE371E080EB91E00E94C4
:100220009E0D892BF1F468E371E08BE991E00E9467
:100230009E0D892BB1F468E371E086E891E00E949D
:100240009E0D892B19F481E090E00DC06CE371E004
:1002500086E891E00E949E0D892B19F483E090E0DE
:1002600002C08FEF9FEF9093700180936F01DF9139
:10027000CF911F910F910895EF92FF920F931F93CB
:10028000CF93DF930E94A30026E040E052EC61E0B0
:1002900070E080E092E00E94530710926E0161E0EE
:1002A00084E00E94990561E082E00E94990561E086
:1002B0008EE00E94990561E082E00E94990561E06C
:1002C00083E00E94990561E084E00E94990561E065
:1002D00085E00E94990561E086E00E94990561E051
:1002E00087E00E94990561E08EE00E94D20508EC4B
:1002F00010E0C0E0D0E0EE24E394F12C97010C2E46
:1003000001C0220F0A94EAF741E064E082E00E9413
:100310003106219624E630E040E050E0B80183E069
:100320000E946F0964E670E080E090E00E94910412
:1003300008531F4FC830D10509F720E041E064E0C1
:1003400082E0DF91CF911F910F91FF90EF900C947D
:1003500031060E94620460936A0170936B0180937E
:100360006C0190936D010895CF9363E270E080E09B
:1003700092E00E949C0088E00E940806C1E001977C
:1003800009F0C0E089E00E940806019709F4C26004
:100390008AE00E940806019709F4C4608BE00E947D
:1003A0000806019709F4C8608CE00E9408060197CE
:1003B00009F4C0618DE00E940806019709F4C0624B
:1003C0006C2F80E092E00E94EE0680E00E94F40430
:1003D000C82F692F80E092E00E94EE066C2F80E02B
:1003E00092E00E94EE0681E00E94F404C82F692F7B
:1003F00080E092E00E94EE066C2F80E092E00E9486
:10040000EE0682E00E94F404C82F692F80E092E09B
:100410000E94EE066C2F80E092E00E94EE06C091F2
:1004200068016091690180E092E00E94EE066C2F05
:1004300080E092E00E94EE0684E00E94F404C82F5F
:10044000692F80E092E00E94EE066C2F80E092E03F
:100450000E94EE0685E00E94F404C82F692F80E018
:1004600092E00E94EE066C2F80E092E0CF910C9417
:10047000EE060F931F93CF93DF9380E092E00E94EC
:100480007006892B09F46EC180E092E00E94890613
:1004900020916E0121118EC09C0133272336310536
:1004A00009F480C054F42136310509F478C00CF009
:1004B00079C02032310581F055C12536310509F466
:1004C00071C00CF46FC02636310509F46BC02736B5
:1004D000310509F467C046C16EE770E080E092E044
:1004E0000E94980880916F0190917001803197422D
:1004F00034F460E370E080E092E00E949C00809120
:100500006F0190917001883E934034F460E370E095
:1005100080E092E00E949C0080916F0190917001B8
:100520008436910534F460E370E080E092E00E944C
:100530009C0080916F01909170010A9734F460E300
:1005400070E080E092E00E949C0060916F017091E9
:1005500070014AE050E080E092E00E94670966E79F
:1005600070E080E092E00E949808C1E7D1E0099035
:100570000020E9F72197C157D140C431D10544F497
:1005800060E370E080E092E00E949C002196F5CF4D
:1005900061E771E080E092E00E94BB08E3C08093D5
:1005A0004E0128C080934E0182E080936E0110922C
:1005B0004F01D8C0223029F590914F01E92FF0E08A
:1005C000E05BFE4F808381E0890F80934F01909123
:1005D0004E01943661F028F4923649F0933639F0A2
:1005E000C1C0963621F018F0973641F0BBC0882381
:1005F00009F4B8C083E080936E01B4C08230D0F7B4
:10060000B1C0233009F0AEC0843209F0A9C0809196
:100610004E0190E0FC01E156F109E730F10508F0E8
:100620009FC0EC5CFF4F0C947E0D2091500141E087
:1006300064E082E00E94310653C0C0915001C0FFC7
:1006400002C061E001C060E085E00E94D205C1FF08
:1006500002C061E001C060E086E00E94D205C2FFF6
:1006600024C061E023C0C0915001C0FF04C060E01D
:1006700082E00E94D205C1FF04C060E083E00E94D6
:10068000D205C2FF04C060E084E00E94D205C3FF2F
:1006900004C060E085E00E94D205C4FF04C060E0B1
:1006A00086E00E94D205C5FF1BC060E087E00E9483
:1006B000D20516C0E0915001F0E0EE0FFF1FEE5F93
:1006C000FE4F6081718124E630E040E050E083E03D
:1006D0000E946F0964E670E080E090E00E9491045F
:1006E0000E94B4013DC0C0915001C0FF04C061E050
:1006F00082E00E94D205C1FF04C061E083E00E9455
:10070000D205C2FF04C061E084E00E94D205C3FFAD
:1007100004C061E085E00E94D205C4FF04C061E02E
:1007200086E00E94D205C5FFDBCF9BCFD091500160
:10073000C0915101D0FF05C06C2F70E083E00E9492
:100740001105D1FF05C06C2F70E085E00E941105F6
:10075000D2FFC6CF6C2F70E086E00E941105C0CF9B
:1007600010926E010E94620400916A0110916B0167
:1007700020916C0130916D01601B710B820B930B0A
:10078000623371058105910500F581E10E94F40451
:100790009093650180936401811524E0920708F02D
:1007A00042C020916601309167012817390728F46B
:1007B000909367018093660136C0209100013091CB
:1007C00001018217930778F52AC060916601709144
:1007D00067018091000190910101681B790B80E015
:1007E00090E00E944C0C20E030E040E05FE30E948B
:1007F000DA0C0E94200C70936901609368010E94DA
:10080000620460936A0170936B0180936C01909312
:100810006D01109267011092660180E094E0909360
:10082000010180930001DF91CF911F910F910895F5
:100830001F920F920FB60F9211242F933F938F9315
:100840009F93AF93BF938091F8019091F901A0918C
:10085000FA01B091FB013091F70123E0230F2D370E
:1008600020F40196A11DB11D05C026E8230F0296B4
:10087000A11DB11D2093F7018093F8019093F90118
:10088000A093FA01B093FB018091FC019091FD01CE
:10089000A091FE01B091FF010196A11DB11D8093B1
:1008A000FC019093FD01A093FE01B093FF01BF9165
:1008B000AF919F918F913F912F910F900FBE0F900D
:1008C0001F9018952FB7F8946091F8017091F90175
:1008D0008091FA019091FB012FBF08953FB7F894E2
:1008E0008091FC019091FD01A091FE01B091FF016A
:1008F00026B5A89B05C02F3F19F00196A11DB11D7B
:100900003FBF6627782F892F9A2F620F711D811D97
:10091000911D42E0660F771F881F991F4A95D1F7F6
:100920000895CF92DF92EF92FF92CF93DF936B0106
:100930007C010E946E04EB01C114D104E104F104B6
:1009400089F00E941F0C0E946E046C1B7D0B683E98
:10095000734090F381E0C81AD108E108F108C8514A
:10096000DC4FEACFDF91CF91FF90EF90DF90CF90F7
:100970000895789484B5826084BD84B5816084BD17
:1009800085B5826085BD85B5816085BDEEE6F0E008
:10099000808181608083E1E8F0E010828081826064
:1009A0008083808181608083E0E8F0E080818160E5
:1009B0008083E1EBF0E0808184608083E0EBF0E015
:1009C000808181608083EAE7F0E0808184608083B9
:1009D0008081826080838081816080838081806863
:1009E00080831092C10008958E3008F08E50877079
:1009F0002091340190E4299F90011124822B80934F
:100A00007C0080917A00806480937A0080917A00E3
:100A100086FDFCCF809178002091790090E0922BA8
:100A200008951F93CF93DF93182FEB0161E00E948D
:100A30009905209711F460E004C0CF3FD10539F447
:100A400061E0812FDF91CF911F910C94D205E12FAE
:100A5000F0E0EB57FF4FE491E330F9F048F4E13078
:100A6000B9F0E230A1F584B5806284BDC8BD34C060
:100A7000E730E9F0E83019F1E43049F58091800081
:100A8000806280938000D0938B00C0938A0024C042
:100A900084B5806884BDC7BD1FC080918000806818
:100AA00080938000D0938900C093880015C0809106
:100AB000B00080688093B000C093B3000DC08091F7
:100AC000B00080628093B000C093B40005C0C0380D
:100AD000D1050CF0B5CFAFCFDF91CF911F91089525
:100AE000833081F028F4813099F08230A1F00895AC
:100AF0008730A9F08830B9F08430D1F4809180003B
:100B00008F7D03C0809180008F778093800008954F
:100B100084B58F7702C084B58F7D84BD08958091A0
:100B2000B0008F7703C08091B0008F7D8093B000BC
:100B30000895CF93DF9390E0FC01E756FF4F249197
:100B4000FC01E355FF4F8491882349F190E0880F21
:100B5000991FFC01EB52FF4FA591B49185539F4F14
:100B6000FC01C591D4919FB7611108C0F8948C9194
:100B7000209582238C93888182230AC0623051F4AD
:100B8000F8948C91322F309583238C938881822B1B
:100B9000888304C0F8948C91822B8C939FBFDF9143
:100BA000CF9108950F931F93CF93DF931F92CDB7EB
:100BB000DEB7282F30E0F901EB57FF4F8491F901A0
:100BC000E756FF4F1491F901E355FF4F04910023BD
:100BD000C9F0882321F069830E9470056981E02FA4
:100BE000F0E0EE0FFF1FE553FF4FA591B4919FB7C3
:100BF000F8948C91611103C01095812301C0812B61
:100C00008C939FBF0F90DF91CF911F910F9108950B
:100C1000CF93DF93282F30E0F901EB57FF4F8491FA
:100C2000F901E756FF4FD491F901E355FF4FC49105
:100C3000CC2391F081110E947005EC2FF0E0EE0FB3
:100C4000FF1FEF53FF4FA591B4912C912D2381E00D
:100C500090E021F480E002C080E090E0DF91CF914D
:100C60000895BF92CF92DF92EF92FF920F931F935E
:100C7000CF93DF93C82ED62EB42EC7E0D0E0022F3C
:100C800010E087E0E82EF12CB1100AC0F701EC1B50
:100C9000FD0BB80102C075956795EA95E2F707C0AC
:100CA000B8010C2E02C0759567950A94E2F7617041
:100CB00077278C2D0E94D20561E08D2D0E94D205F0
:100CC00060E08D2D0E94D2052197F0F6DF91CF9143
:100CD0001F910F91FF90EF90DF90CF90BF900895FC
:100CE000FC01818D228D90E0805C9F4F821B9109D9
:100CF0008F7399270895FC01918D828D981731F09B
:100D0000828DE80FF11D858D90E008958FEF9FEFA4
:100D10000895FC01918D828D981761F0828DDF011D
:100D2000A80FB11D5D968C91928D9F5F9F73928FDE
:100D300090E008958FEF9FEF08958DE098E0892B64
:100D400049F080E090E0892B29F00E940D08811184
:100D50000C9400000895FC01848DDF01A80FB11DE3
:100D6000A35ABF4F2C91848D90E001968F739927E1
:100D7000848FA689B7892C93A089B1898C918064CE
:100D80008C93938D848D981306C00288F389E02D8F
:100D900080818F7D80830895CF93DF93EC01888DD0
:100DA0008823C9F0EA89FB89808185FD05C0A8896F
:100DB000B9898C9186FD0FC00FB607FCF5CF8081F5
:100DC00085FFF2CFA889B9898C9185FFEDCFCE013F
:100DD0000E94AB06E7CFDF91CF910895CF92DF92CB
:100DE000FF920F931F93CF93DF931F92CDB7DEB780
:100DF0006C0181E0D60158968C9358975B969C9134
:100E00005B975C968C915C97981307C05096ED9118
:100E1000FC915197808185FD2EC0F601038D10E075
:100E20000F5F1F4F0F731127F02EF601848DF812FC
:100E300011C00FB607FCF9CFD6015096ED91FC9189
:100E40005197808185FFF1CFC60169830E94AB066F
:100E50006981EBCF838DE80FF11DE35AFF4F60836B
:100E6000D6015B960C935B975296ED91FC9153974C
:100E7000808180620CC0D6015696ED91FC91579707
:100E800060835096ED91FC915197808180648083BE
:100E900081E090E00F90DF91CF911F910F91FF9033
:100EA000DF90CF900895BF92CF92DF92EF92FF92A2
:100EB000CF93DF93EC016A017B01B22EE889F989B7
:100EC00082E08083411581EE580761057105A1F02C
:100ED00060E079E08DE390E0A70196010E943D0D6E
:100EE0002150310941095109569547953795279564
:100EF000211580E1380798F0E889F989108260E8C7
:100F000074E88EE190E0A70196010E943D0D21500A
:100F10003109410951095695479537952795EC8533
:100F2000FD853083EE85FF852083188EEC89FD8951
:100F3000B082EA89FB89808180618083EA89FB89AC
:100F4000808188608083EA89FB89808180688083D2
:100F5000EA89FB8980818F7D8083DF91CF91FF902B
:100F6000EF90DF90CF90BF9008951F920F920FB631
:100F70000F9211242F938F939F93EF93FF93E09100
:100F80001002F09111028081E0911602F091170297
:100F900082FD12C09081809119028F5F8F73209122
:100FA0001A02821751F0E0911902F0E0E050FE4F72
:100FB000958F8093190201C08081FF91EF919F91DD
:100FC0008F912F910F900FBE0F901F9018951F9229
:100FD0000F920FB60F9211242F933F934F935F936D
:100FE0006F937F938F939F93AF93BF93EF93FF93F1
:100FF00080E092E00E94AB06FF91EF91BF91AF912C
:101000009F918F917F916F915F914F913F912F9120
:101010000F900FBE0F901F90189580E092E00E94F5
:10102000700621E0892B09F420E0822F08951092A8
:1010300003021092020288EE93E0A0E0B0E08093F9
:10104000040290930502A0930602B093070282E483
:1010500091E0909301028093000285EC90E09093E0
:101060000D0280930C0284EC90E090930F02809329
:101070000E0280EC90E0909311028093100281ECBC
:1010800090E0909313028093120282EC90E0909390
:1010900015028093140286EC90E0909317028093DF
:1010A00016021092190210921A0210921B0210924C
:1010B0001C020895CF92DF92EF92FF920F931F933D
:1010C000CF93DF937C016A01EB0100E010E00C1587
:1010D0001D0571F06991D701ED91FC910190F081AE
:1010E000E02DC7010995892B19F00F5F1F4FEFCF36
:1010F000C801DF91CF911F910F91FF90EF90DF908A
:10110000CF9008956115710581F0DB010D900020ED
:10111000E9F7AD0141505109461B570BDC01ED9138
:10112000FC910280F381E02D099480E090E0089525
:10113000EF92FF920F931F93CF93DF938C017B016C
:10114000C0E0D0E0F701EC0FFD1F6491662359F079
:10115000F801A081B181ED91FC91C8010995892B1D
:1011600011F02196EFCFCE01DF91CF911F910F911A
:10117000FF90EF9008950C948208DC01ED91FC91B2
:101180000190F081E02D09948F929F92AF92BF92CF
:10119000CF92DF92EF92FF920F931F93CF93DF9343
:1011A000CDB7DEB7A1970FB6F894DEBF0FBECDBFA7
:1011B0007C01C42EE52FCB01D22E19A221E02D15E2
:1011C00010F02AE0D22E8E010F5D1F4F8D2C912C36
:1011D000A12CB12C6C2D7E2FA50194010E943D0DF8
:1011E0008C2DD29E80191124015011098A3014F4DB
:1011F000805D01C0895CF8018083211531054105BE
:10120000510521F0C22EE32FCA01E4CFB801C70176
:101210000E948208A1960FB6F894DEBF0FBECDBF24
:10122000DF91CF911F910F91FF90EF90DF90CF90C2
:10123000BF90AF909F908F900895CF92DF92EF92E2
:10124000FF920F931F93CF93DF93EC016A017B0111
:101250002115310579F4E881F9810190F081E02DC3
:10126000642FDF91CF911F910F91FF90EF90DF904E
:10127000CF9009942A303105E9F477FF1AC06DE266
:101280000E94BD088C0144275527BA014C195D09FD
:101290006E097F092AE0CE010E94C408800F911FC9
:1012A000DF91CF911F910F91FF90EF90DF90CF9042
:1012B00008952AE0B701A601CE01DF91CF911F91D9
:1012C0000F91FF90EF90DF90CF900C94C4089A019B
:1012D000AB01662757FD6095762F0C941D093F9250
:1012E0004F925F926F927F928F929F92AF92BF9236
:1012F000CF92DF92EF92FF920F931F93CF93DF93E2
:1013000000D000D0CDB7DEB78B0129013A01909112
:101310003501981721F09F3F09F0DAC104C0EFEDC5
:10132000F0E0349081C080933501EFEDF0E0E4917E
:10133000EF3F09F4CDC1E13031F1E23009F44BC0A7
:10134000E11171C014BC15BC94B5926094BD95B503
:10135000916095BD282F30E0F901E355FF4FE491EE
:10136000F0E0EE0FFF1FE553FF4F4591549150936E
:10137000AD024093AC02F901E756FF4F2491209350
:10138000AB02312C53C010928000109281009091DA
:10139000810098609093810090918100916090937A
:1013A0008100282F30E0F901E355FF4FE491F0E090
:1013B000EE0FFF1FE553FF4F459154915093A60246
:1013C0004093A502F901E756FF4F24912093A40210
:1013D000332433942BC01092B0001092B10090913E
:1013E000B00092609093B0009091B10091609093A2
:1013F000B100282F30E0F901E355FF4FE491F0E010
:10140000EE0FFF1FE553FF4F4591549150939F02FC
:1014100040939E02F901E756FF4F249120939D02CD
:1014200052E0352E03C03E2E37FC52C161E00E94CF
:1014300099054801A12CB12C832D8D7F09F0C7C0DF
:1014400060E072E18AE790E0A50194010E945F0DDF
:1014500029833A834B835C8369017A0181E0C81A4E
:10146000D108E108F1089FEFC916D104E104F104A5
:1014700009F008F49AC060E472E48FE090E0A501FE
:1014800094010E945F0D69017A01E1E0CE1AD10852
:10149000E108F108F2E03F1219C08FEFC816D1043D
:1014A000E104F10409F008F48AC060E970ED83E01A
:1014B00090E0A50194010E945F0D69017A0191E01D
:1014C000C91AD108E108F10883E001C082E0EFEF1A
:1014D000CE16D104E104F10409F008F467C068E411
:1014E00078EE81E090E0A50194010E945F0D690112
:1014F0007A01F1E0CF1AD108E108F1083320E1F0D8
:1015000082E038121BC09FEFC916D104E104F10438
:1015100009F008F4DBC064E274EF80E090E0A5011C
:1015200094010E945F0D69017A01E1E0CE1AD108B1
:10153000E108F10885E003C083E001C084E0FFEF2B
:10154000CF16D104E104F10489F180F162E17AE778
:1015500080E090E0A50194010E945F0D69017A018D
:1015600081E0C81AD108E108F108311002C084E016
:1015700001C086E09FEFC916D104E104F104B1F087
:10158000A8F0C980DA80EB80FC809AE0F594E794BB
:10159000D794C7949A95D1F7E1E0CE1AD108E10823
:1015A000F108332031F087E00BC081E0332011F0E7
:1015B00007C085E095B5987F982B95BD38C082E02F
:1015C0009091B100987F982B9093B10030C060E06B
:1015D00072E18AE790E0A50194010E945F0D690124
:1015E0007A01F1E0CF1AD108E108F108C114D10461
:1015F00081E0E806F10488F068E478EE81E090E0AC
:10160000A50194010E945F0D69017A0191E0C91A58
:10161000D108E108F10893E001C091E0E1E03E1259
:1016200006C080918100887F892B809381004114BE
:1016300051046104710471F0D801AA0FBB1FA3010A
:1016400092010E94840D28EE33E040E050E00E94B9
:101650003D0D03C02FEF3FEFA901F1E03F16A1F0D0
:1016600082E0381619F1311033C0C7BC2093AE02A6
:101670003093AF024093B0025093B10280916E005C
:10168000826080936E0024C0D0928900C09288004E
:101690002093A7023093A8024093A9025093AA0274
:1016A00080916F00826080936F0012C0C092B3007F
:1016B0002093A0023093A1024093A2025093A30270
:1016C0008091700082608093700002C084E078CFC7
:1016D0000F900F900F900F90DF91CF911F910F916E
:1016E000FF90EF90DF90CF90BF90AF909F908F9042
:1016F0007F906F905F904F903F900895813039F0C8
:1017000018F0823051F0089510926E000895809183
:101710006F008D7F80936F000895809170008D7FA2
:101720008093700081E08093B0008091B100887F49
:1017300084608093B1001092B3000895CF93C82FB6
:10174000809135018C1307C0EFEDF0E084919FEF9D
:101750009093350101C08FEF0E947E0B60E08C2FCB
:10176000CF910C94D2051F920F920FB60F921124B5
:101770002F933F934F935F936F937F938F939F9399
:10178000AF93BF93EF93FF938091A0029091A1023A
:10179000A091A202B091A302892B8A2B8B2B51F12D
:1017A00090919D02E0919E02F0919F028081892795
:1017B00080838091A0029091A102A091A202B09199
:1017C000A302181619061A061B06C4F48091A0027B
:1017D0009091A102A091A202B091A3020197A10948
:1017E000B1098093A0029093A102A093A202B093AA
:1017F000A30204C0809135010E949E0BFF91EF91DE
:10180000BF91AF919F918F917F916F915F914F9118
:101810003F912F910F900FBE0F901F901895089534
:101820000E94B9040E940F0C0E943C01CDE9D6E051
:101830000E9439022097E1F30E949D06F9CF089596
:1018400098D088F09F5790F0B92F9927B751A0F002
:10185000D1F0660F771F881F991F1AF0BA95C9F744
:1018600012C0B13081F09FD0B1E008959CC0672FC5
:10187000782F8827B85F39F0B93FCCF386957795F4
:101880006795B395D9F73EF49095809570956195DD
:101890007F4F8F4F9F4F0895E89409C097FB3EF408
:1018A00090958095709561957F4F8F4F9F4F9923AD
:1018B000A9F0F92F96E9BB279395F695879577952B
:1018C0006795B795F111F8CFFAF4BB0F11F460FFEB
:1018D0001BC06F5F7F4F8F4F9F4F16C0882311F043
:1018E00096E911C0772321F09EE8872F762F05C057
:1018F000662371F096E8862F70E060E02AF09A95F2
:10190000660F771F881FDAF7880F9695879597F9E6
:10191000089597F99F6780E870E060E008959FEF71
:1019200080EC089500240A94161617061806090676
:10193000089500240A941216130614060506089545
:10194000092E0394000C11F4882352F0BB0F40F4CD
:10195000BF2B11F460FF04C06F5F7F4F8F4F9F4F0D
:10196000089557FD9058440F551F59F05F3F71F08F
:101970004795880F97FB991F61F09F3F79F08795F6
:101980000895121613061406551FF2CF4695F1DF7F
:1019900008C0161617061806991FF1CF869571050F
:1019A000610508940895E894BB2766277727CB0143
:1019B00097F908950BD0C4CFB5DF28F0BADF18F03F
:1019C000952309F0A6CFABCF1124EECFCADFA0F349
:1019D000959FD1F3950F50E0551F629FF001729FC4
:1019E000BB27F00DB11D639FAA27F00DB11DAA1FE3
:1019F000649F6627B00DA11D661F829F2227B00D30
:101A0000A11D621F739FB00DA11D621F839FA00DBA
:101A1000611D221F749F3327A00D611D231F849F0A
:101A2000600D211D822F762F6A2F11249F57504061
:101A30008AF0E1F088234AF0EE0FFF1FBB1F661FFC
:101A4000771F881F91505040A9F79E3F510570F0B5
:101A500060CFAACF5F3FECF3983EDCF38695779595
:101A60006795B795F795E7959F5FC1F7FE2B880FB0
:101A7000911D9695879597F90895A1E21A2EAA1BB4
:101A8000BB1BFD010DC0AA1FBB1FEE1FFF1FA2172E
:101A9000B307E407F50720F0A21BB30BE40BF50B2B
:101AA000661F771F881F991F1A9469F760957095B4
:101AB000809590959B01AC01BD01CF010895052E45
:101AC00097FB1EF400940E94760D57FD07D00E94EC
:101AD0003D0D07FC03D04EF40C94760D50954095C7
:101AE000309521953F4F4F4F5F4F089590958095CA
:101AF000709561957F4F8F4F9F4F0895EE0FFF1F99
:101B00000590F491E02D09940E948F0DA59F900DF2
:101B1000B49F900DA49F800D911D11240895A29F44
:101B2000B001B39FC001A39F700D811D1124911DB1
:101B3000B29F700D811D1124911D0895FB01DC01E0
:101B40008D91019080190110D9F3990B0895F9999D
:101B5000FECF92BD81BDF89A992780B50895F8947B
:021B6000FFCFB5
:101B6200000406011501260137014A015D017201D7
:101B720088019F01B801D201EE010B022A024B0239
:101B82006E029302BA02E40210033F037003A4033D
:101B9200DC03170401FF520031004C003200000048
:0E1BA2000000EE065A08700689067B06CC0687
:00000001FF
