:100000000C946D000C942C060C9459060C949500DD
:100010000C9495000C9495000C9495000C9495000C
:100020000C9495000C9495000C9495000C949500FC
:100030000C9495000C9495000C9495000C949500EC
:100040000C94DA0B0C9495000C94DF080C941109B5
:100050000C9495000C9495000C9495000C949500CC
:100060000C9495000C9495000306A20538055305E1
:1000700074058E05A505D9052D30303030332D009F
:10008000524F42424F2D00000000080002010000C4
:100090000304070000000000000000010204081033
:1000A00020408001020408102001020408102004EE
:1000B000040404040404040202020202020303030F
:1000C00003030300000000250028002B00000000AF
:1000D00000240027002A0000410911241FBECFEF91
:1000E000D8E0DEBFCDBF11E0A0E0B1E0E2E2F1E296
:1000F00002C005900D92A035B107D9F723E0A0E525
:10010000B1E001C01D92A733B207E1F710E0CAEDDC
:10011000D0E004C02297FE010E940D0EC83DD10719
:10012000C9F70E9485090C948F100C940000DC0123
:10013000ED91FC910190F081E02D0994CF93DF9334
:10014000EC011982FC01E45BFF4F60E070E080810C
:100150000E94A306C55BDF4F60E070E08881DF91FD
:10016000CF910C94A3060F931F93CF93DF93EC01D1
:1001700048836A836983FC01E45BFF4F8C01055B64
:100180001F4F41110BC0698184E0689FB0011124A9
:1001900080810E94A30660E070E00AC060E070E029
:1001A00080810E94A3066981F4E06F9FB001112451
:1001B000F8018081DF91CF911F910F910C94A306DC
:1001C000FC0183819481892B29F085819681019698
:1001D0009683858381859285019692878187808128
:1001E000811104C087819085019603C08781908525
:1001F0000197908787838581968181859285878104
:10020000908508958BE392E00E94E00080913E0289
:1002100090913F02892B31F48091F1019091F2018C
:10022000892B31F1209140023091410280913E02B0
:1002300090913F022817390758F42091F30130912B
:10024000F4018091F1019091F2012817390780F0B3
:1002500010923F0210923E021092F2011092F101B0
:100260008BE392E00E949E008EEE91E00C949E0043
:1002700008958EEE91E00E94E00080913E02909100
:100280003F02892B31F48091F1019091F201892B89
:1002900031F1209140023091410280913E029091D3
:1002A0003F022817390758F42091F3013091F401E7
:1002B0008091F1019091F2012817390780F0109296
:1002C0003F0210923E021092F2011092F1018BE374
:1002D00092E00E949E008EEE91E00C949E000895A4
:1002E0000F931F93CF93DF930CEB11E0C0E0D0E0AE
:1002F000CE010E944010F80181938F012196C233F4
:10030000D105B1F7ECEBF1E0CF018C5B914021918D
:100310002D32D1F70196E7EAF1E0DC01A454BE4F9B
:100320002C9101962D3211F02193F7CFE2E9F1E003
:10033000DC01A454BE4F2C9101962D3211F0219373
:10034000F7CFADE7B1E0FC01E454FE4F20812D3240
:1003500019F02D930196F7CFA8E6B1E081E090E087
:10036000EF01C80FD91F2881019630ED320F3A30C6
:1003700010F42D93F5CF67E071E087EA91E00E94D9
:100380000B10892BA9F469E071E082E991E00E94E9
:100390000B10892B69F469E071E08DE791E00E9410
:1003A0000B10892B29F410926701109266011EC070
:1003B0006BE071E087EA91E00E940B10892B99F7BE
:1003C00069E071E082E991E00E940B10892B59F7F6
:1003D00069E071E08DE791E00E940B10892B19F71D
:1003E00081E090E09093670180936601DF91CF9167
:1003F0001F910F9108951F93CF93DF930E94700177
:1004000026E040E052EC61E070E08DE892E00E946E
:100410007D0861E084E00E942B0761E087E00E9494
:100420002B0761E088E00E942B0761E08BE00E94CF
:100430002B0761E08CE00E942B07E1E8F0E080816F
:10044000886080831092880210923B0210923C02D6
:1004500010E210933D0210923F0210923E02109261
:100460004102109240028AE080938602C7E8D2E0FF
:1004700089E0888361E08AE00E942B0761E088813F
:100480000E942B071092EE011092EF011093F001E1
:100490001092F2011092F1011092F4011092F30106
:1004A00086E080933902CAE3D2E085E0888361E088
:1004B00086E00E942B0761E088810E942B0741E0C3
:1004C00050E062E071E081E00E940C0641E050E003
:1004D00069E371E080E0DF91CF911F910C940C06ED
:1004E000CF93DF93CDB7DEB76E970FB6F894DEBF2C
:1004F0000FBECDBF60914202709143024AE0CE012F
:1005000001960E94550B60914402709145024AE0A9
:10051000CE0107960E94550B60913E0270913F02FA
:100520004AE0CE010D960E94550B609140027091F9
:1005300041024AE0CE0149960E94550B6DE071E000
:10054000CE0143960E94270BBE01675E7F4FCE010E
:1005500043960E94AD0B68E171E00E94C00BBE01A2
:10056000635F7F4F0E94AD0B60E271E00E94C00BA1
:10057000BE01695F7F4F0E94AD0B67E271E00E9490
:10058000C00BBE016F5F7F4F0E94AD0B62E371E055
:100590000E94C00BBC018DE892E00E94F709CE01D9
:1005A00043960E94B90ACE0149960E94B90ACE012B
:1005B0000D960E94B90ACE0107960E94B90ACE0193
:1005C00001960E94B90A6091F5017091F6014AE026
:1005D000CE0101960E94550B6091F7017091F801D0
:1005E0004AE0CE0107960E94550B6091F10170918F
:1005F000F2014AE0CE010D960E94550B6091F30185
:100600007091F4014AE0CE0149960E94550B64E3D3
:1006100071E0CE0143960E94270BBE01675E7F4FBB
:10062000CE0143960E94AD0B68E171E00E94C00BC1
:10063000BE01635F7F4F0E94AD0B60E271E00E94DC
:10064000C00BBE01695F7F4F0E94AD0B67E271E096
:100650000E94C00BBE016F5F7F4F0E94AD0B62E333
:1006600071E00E94C00BBC018DE892E00E94F70986
:10067000CE0143960E94B90ACE0149960E94B90A5A
:10068000CE010D960E94B90ACE0107960E94B90AC2
:10069000CE0101960E94B90A6E960FB6F894DEBF9D
:1006A0000FBECDBFDF91CF910895CF93DF9363E26B
:1006B00070E08DE892E00E949700C0E4D2E088816B
:1006C0009981692F8DE892E00E94180868817981EC
:1006D0008DE892E00E941808C3EFD1E088819981EB
:1006E000692F8DE892E00E941808688179818DE871
:1006F00092E00E941808C4E4D2E088819981692FB1
:100700008DE892E00E941808688179818DE892E076
:100710000E941808C7EFD1E088819981692F8DE880
:1007200092E00E941808688179818DE892E00E9429
:1007300018088FE00E948606BC01882777FD809507
:10074000982F0E94FA0C20E030EC4FE754E40E940E
:100750005F0C20E030E048EC52E40E94860D0E94DD
:10076000C70C8DE892E00E94970080E10E94860607
:10077000BC01882777FD8095982F0E94FA0C20E015
:1007800030EC4FE754E40E945F0C20E030E048EC8E
:1007900052E40E94860D0E94C70C8DE892E00E94F0
:1007A000970081E10E948606BC01882777FD80952D
:1007B000982F0E94FA0C20E030EC4FE754E40E949E
:1007C0005F0C20E030E048EC52E40E94860D0E946D
:1007D000C70C8DE892E00E94970082E10E94860695
:1007E000BC01882777FD8095982F0E94FA0C20E0A5
:1007F00030EC4FE754E40E945F0C20E030E048EC1E
:1008000052E40E94860D0E94C70C8DE892E00E947F
:10081000970083E10E948606BC01882777FD8095BA
:10082000982F0E94FA0C20E030EC4FE754E40E942D
:100830005F0C20E030E048EC52E40E94860D0E94FC
:10084000C70C8DE892E00E9497008EE00E94860619
:10085000BC01882777FD8095982F0E94FA0C20E034
:1008600030EC4FE754E40E945F0C20E030E048ECAD
:1008700052E40E94860D0E94C70C8DE892E0DF9141
:10088000CF910C9497000F931F93CF93DF938DE834
:1008900092E00E949A07892B09F4B9C18DE892E091
:1008A0000E94B307209188022111A4C09C01332724
:1008B0002336310509F496C094F42132310509F448
:1008C00084C024F42032310509F1A1C1213631055B
:1008D00009F485C02236310509F481C098C1263655
:1008E000310509F47FC04CF42436310509F47AC08F
:1008F0002536310509F476C08AC12736310509F459
:1009000071C02836310509F46DC081C160E870E01E
:100910008DE892E00E94D209809166019091670172
:100920008031974234F460E370E08DE892E00E94F9
:1009300097008091660190916701883E934034F45E
:1009400060E370E08DE892E00E949700809166017C
:10095000909167018436910534F460E370E08DE88E
:1009600092E00E94970080916601909167010A973A
:1009700034F460E370E08DE892E00E9497006091AB
:100980006601709167014AE050E08DE892E00E94B4
:10099000B10A68E770E08DE892E00E94D209C8E6EB
:1009A000D1E009900020E9F72197C856D140C43121
:1009B000D10544F460E370E08DE892E00E94970076
:1009C0002196F5CF68E671E002C06CEB71E08DE82E
:1009D00092E0DF91CF911F910F910C94050A8093C3
:1009E000500128C092E090938802109251018093A8
:1009F00050010DC1223041F590915101E92FF0E0F5
:100A0000EE5AFE4F808381E0890F809351019091CF
:100A10005001953661F028F4933649F0943639F058
:100A2000F6C0973659F068F0983659F0F0C0823029
:100A300008F4EDC083E080938802E9C08430D0F7E9
:100A4000E6C08111F7CFE3C0233009F0E0C0843263
:100A500009F0DBC08091500190E0FC01E156F10902
:100A6000E830F10508F0D1C0EC5CFF4F0C940B0EA0
:100A700060915201C0915301603418F060544FEFFF
:100A800001C040E0C03418F0C054DFEF01C0D0E036
:100A90008BE392E00E94B3004D2F6C2F8EEE91E01D
:100AA0000E94B300B0C09091520160ED690F809137
:100AB0005301C0EDC80F603420F060E9690F4FEFBB
:100AC00001C040E0C03420F0C0E9C80FDFEF01C032
:100AD000D0E08BE392E00E94B3004D2F6C2F8EEE9E
:100AE00091E00E94B3002EC08091520190E0982FB7
:100AF000882720915301820F911D1092410210927C
:100B0000400290933F0280933E021092F4011092B3
:100B1000F3019093F2018093F10175C0809152012D
:100B2000805390E0109241021092400290933F0255
:100B300080933E021092F4011092F3019093F2011F
:100B40008093F1010E94700260C060915201109187
:100B50005301C091540180915501603418F06054E4
:100B60004FEF01C040E0103418F010540FEF01C0F7
:100B700000E0D0E0DC2FCC27C80FD11D8BE392E042
:100B80000E94B300402F612F8EEE91E00E94B300CF
:100B90001092410210924002D0933F02C0933E0255
:100BA0001092F4011092F301D093F201C093F1017D
:100BB0002AC0C0915201C0FF02C061E001C060E0E4
:100BC00084E00E946407C1FF02C061E001C060E0F0
:100BD00087E00E946407C2FF02C061E001C060E0DC
:100BE00088E00E946407C3FF02C061E001C060E0CA
:100BF0008BE00E946407C4FF02C061E001C060E0B6
:100C00008CE00E9464070E94550310928802DF91D5
:100C1000CF911F910F9108958230E8F4E82FF0E012
:100C2000EE0FFF1FE757FD4F71836083813041F066
:100C3000809169008C7F842B80936900E89A0895E5
:100C400080916900440F551F440F551F837F842BEB
:100C500080936900E99A08951F920F920FB60F9240
:100C600011242F933F934F935F936F937F938F93B1
:100C70009F93AF93BF93EF93FF93809189029091DD
:100C80008A02892B29F0E0918902F0918A02099564
:100C9000FF91EF91BF91AF919F918F917F916F9154
:100CA0005F914F913F912F910F900FBE0F901F902A
:100CB00018951F920F920FB60F9211242F933F9306
:100CC0004F935F936F937F938F939F93AF93BF9354
:100CD000EF93FF9380918B0290918C02892B29F0E6
:100CE000E0918B02F0918C020995FF91EF91BF91F9
:100CF000AF919F918F917F916F915F914F913F91B4
:100D00002F910F900FBE0F901F9018958E3008F006
:100D10008E5087702091060190E4299F9001112444
:100D2000822B80937C0080917A00806480937A008B
:100D300080917A0086FDFCCF809178002091790027
:100D400090E0922B08951F93CF93DF93182FEB0120
:100D500061E00E942B07209711F460E004C0CF3FB0
:100D6000D10539F461E0812FDF91CF911F910C946F
:100D70006407E12FF0E0E957FF4FE491E330F9F029
:100D800048F4E130B9F0E230A1F584B5806284BD69
:100D9000C8BD34C0E730E9F0E83019F1E43049F576
:100DA00080918000806280938000D0938B00C093FC
:100DB0008A0024C084B5806884BDC7BD1FC08091EF
:100DC0008000806880938000D0938900C093880061
:100DD00015C08091B00080688093B000C093B300CC
:100DE0000DC08091B00080628093B000C093B400C9
:100DF00005C0C038D1050CF0B5CFAFCFDF91CF9192
:100E00001F910895833081F028F4813099F0823069
:100E1000A1F008958730A9F08830B9F08430D1F47A
:100E2000809180008F7D03C0809180008F778093B8
:100E30008000089584B58F7702C084B58F7D84BD0E
:100E400008958091B0008F7703C08091B0008F7DAE
:100E50008093B0000895CF93DF9390E0FC01E556B6
:100E6000FF4F2491FC01E155FF4F8491882349F104
:100E700090E0880F991FFC01E353FF4FA591B491B7
:100E80008D539F4FFC01C591D4919FB7611108C04C
:100E9000F8948C91209582238C93888182230AC0B8
:100EA000623051F4F8948C91322F309583238C93D7
:100EB0008881822B888304C0F8948C91822B8C9338
:100EC0009FBFDF91CF9108950F931F93CF93DF932F
:100ED0001F92CDB7DEB7282F30E0F901E957FF4F59
:100EE0008491F901E556FF4F1491F901E155FF4F47
:100EF00004910023C9F0882321F069830E9402072E
:100F00006981E02FF0E0EE0FFF1FED53FF4FA59139
:100F1000B4919FB7F8948C91611103C0109581230F
:100F200001C0812B8C939FBF0F90DF91CF911F91B8
:100F30000F910895FC01818D228D90E0805C9F4F80
:100F4000821B91098F7399270895FC01918D828DE1
:100F5000981731F0828DE80FF11D858D90E008958E
:100F60008FEF9FEF0895FC01918D828D981761F0AE
:100F7000828DDF01A80FB11D5D968C91928D9F5FD0
:100F80009F73928F90E008958FEF9FEF089587E30E
:100F900099E0892B49F080E090E0892B29F00E94AC
:100FA000370981110C9400000895FC01848DDF0144
:100FB000A80FB11DA35ABF4F2C91848D90E00196CC
:100FC0008F739927848FA689B7892C93A089B189BB
:100FD0008C9180648C93938D848D981306C00288C5
:100FE000F389E02D80818F7D80830895CF93DF93F7
:100FF000EC01888D8823C9F0EA89FB89808185FD11
:1010000005C0A889B9898C9186FD0FC00FB607FC71
:10101000F5CF808185FFF2CFA889B9898C9185FFB2
:10102000EDCFCE010E94D507E7CFDF91CF91089594
:10103000CF92DF92FF920F931F93CF93DF931F9274
:10104000CDB7DEB76C01DC015B969C915B975C963B
:101050008C915C97981307C05096ED91FC91519735
:10106000808185FD32C0F601038D10E00F5F1F4FB8
:101070000F731127F02EF601848DF81211C00FB6F0
:1010800007FCF9CFD6015096ED91FC9151978081E4
:1010900085FFF1CFC60169830E94D5076981EBCF37
:1010A000838DE80FF11DE35AFF4F6083D6015B96F5
:1010B0000C935B975296ED91FC91539780818062DF
:1010C000808381E058968C930DC0D6015696ED91A1
:1010D000FC91579760835096ED91FC9151978081D8
:1010E0008064808381E090E00F90DF91CF911F9129
:1010F0000F91FF90DF90CF900895BF92CF92DF9233
:10110000EF92FF92CF93DF93EC016A017B01B22E45
:10111000E889F98982E08083411581EE58076105ED
:101120007105A1F060E079E08DE390E0A701960100
:101130000E94E90D21503109410951095695479501
:1011400037952795211580E1380798F0E889F989C6
:10115000108260E874E88EE190E0A70196010E9499
:10116000E90D2150310941095109569547953795A7
:101170002795EC85FD853083EE85FF852083188ECD
:10118000EC89FD89B082EA89FB8980818061808356
:10119000EA89FB89808188608083EA89FB89808174
:1011A00080688083EA89FB8980818F7D8083DF91DD
:1011B000CF91FF90EF90DF90CF90BF9008951F9256
:1011C0000F920FB60F9211242F938F939F93EF934B
:1011D000FF93E0919D02F0919E028081E091A30235
:1011E000F091A40282FD12C090818091A6028F5FCF
:1011F0008F732091A702821751F0E091A602F0E0D0
:10120000E357FD4F958F8093A60201C08081FF9127
:10121000EF919F918F912F910F900FBE0F901F9084
:1012200018951F920F920FB60F9211242F933F9390
:101230004F935F936F937F938F939F93AF93BF93DE
:10124000EF93FF938DE892E00E94D507FF91EF9115
:10125000BF91AF919F918F917F916F915F914F91CE
:101260003F912F910F900FBE0F901F9018958DE812
:1012700092E00E949A0721E0892B09F420E0822F56
:1012800008951092900210928F0288EE93E0A0E0F1
:10129000B0E08093910290939202A0939302B09356
:1012A000940284E491E090938E0280938D0285EC09
:1012B00090E090939A028093990284EC90E090934E
:1012C0009C0280939B0280EC90E090939E0280931E
:1012D0009D0281EC90E09093A00280939F0282ECAB
:1012E00090E09093A2028093A10286EC90E090930C
:1012F000A4028093A3021092A6021092A702109259
:10130000A8021092A902089508950E94240C0E9438
:1013100084090E94FB01C7ECD7E00E944304209798
:10132000E1F30E94C707F9CFCF92DF92EF92FF92CD
:101330000F931F93CF93DF936C017A01EB01E60EBD
:10134000F71E00E010E0CE15DF0561F06991D601CF
:10135000ED91FC910190F081E02DC6010995080FF7
:10136000191FF1CFC801DF91CF911F910F91FF900D
:10137000EF90DF90CF9008956115710581F0DB014A
:101380000D900020E9F7AD0141505109461B570B64
:10139000DC01ED91FC910280F381E02D099480E065
:1013A00090E00895EF92FF920F931F93CF93DF93F6
:1013B0008C01FB01C0E0D0E064917F018FEFE81A5F
:1013C000F80A662361F0D801ED91FC910190F0815B
:1013D000E02DC8010995C80FD91FF701EDCFCE0147
:1013E000DF91CF911F910F91FF90EF900895DC0155
:1013F000ED91FC91DB0114964D915C9115976D91E7
:101400007C910280F381E02D09940C94BC09DC01ED
:10141000ED91FC910190F081E02D09948F929F92C3
:10142000AF92BF92CF92DF92EF92FF920F931F93F2
:10143000CF93DF93CDB7DEB7A1970FB6F894DEBF99
:101440000FBECDBF7C01C42EE52FCB01D22E19A239
:1014500021E02D1510F02AE0D22E8E010F5D1F4FD6
:101460008D2C912CA12CB12C6C2D7E2FA5019401DB
:101470000E94E90D8C2DD29E801911240150110972
:101480008A3014F4805D01C0895CF80180832115E5
:1014900031054105510521F0C22EE32FCA01E4CFE9
:1014A000B801C7010E94BC09A1960FB6F894DEBF2F
:1014B0000FBECDBFDF91CF911F910F91FF90EF90A5
:1014C000DF90CF90BF90AF909F908F900895CF9274
:1014D000DF92EF92FF920F931F93CF93DF93EC0174
:1014E0006A017B012115310579F4E881F9810190C8
:1014F000F081E02D642FDF91CF911F910F91FF902C
:10150000EF90DF90CF9009942A303105E9F477FF0E
:101510001AC06DE20E94070A8C0144275527BA01C0
:101520004C195D096E097F092AE0CE010E940E0A5E
:10153000800F911FDF91CF911F910F91FF90EF903E
:10154000DF90CF9008952AE0B701A601CE01DF9188
:10155000CF911F910F91FF90EF90DF90CF900C945F
:101560000E0A9A01AB01662757FD6095762F0C9401
:10157000670AFC01808191810C94A90ECF93DF93BF
:10158000EC0188819981009711F00E94A90E1982BF
:1015900018821D821C821B821A82DF91CF910895CE
:1015A0000F931F93CF93DF93EC018B016F5F7F4FFE
:1015B000888199810E94380F009731F09983888340
:1015C0001B830A8381E001C080E0DF91CF911F91EE
:1015D0000F910895CF93DF93EC0188819981892B36
:1015E00029F08A819B818617970760F4CE010E94BB
:1015F000D00A882341F08C819D81892B19F4E881E0
:10160000F981108281E0DF91CF910895EF92FF92EE
:101610000F931F93CF93DF93EC017B018A01BA01F3
:101620000E94EA0A811104C0CE010E94BE0A07C0CE
:101630001D830C83B701888199810E941410CE010B
:10164000DF91CF911F910F91FF90EF900895FC01D2
:101650001182108213821282158214826115710523
:1016600059F0FB0101900020E9F7AF014150510909
:10167000461B570B0C94060B0895CF93DF93EC0198
:101680006115710561F0FB0101900020E9F7AF01E0
:1016900041505109461B570B0E94060B02C00E9485
:1016A000BE0ACE01DF91CF9108950F931F93CF9380
:1016B000DF93CDB7DEB761970FB6F894DEBF0FBEEC
:1016C000CDBF8C01CB01F8011182108213821282EE
:1016D0001582148250E0BE016F5F7F4F0E941B1085
:1016E000BE016F5F7F4FC8010E943D0B61960FB630
:1016F000F894DEBF0FBECDBFDF91CF911F910F9148
:101700000895EF92FF920F931F93CF93DF93EC0115
:101710007B010C811D816115710511F480E016C0FB
:101720004115510591F0040F151FB8010E94EA0AF6
:101730008823A1F3288139818C819D81B701820F93
:10174000931F0E9414101D830C8381E0DF91CF91C1
:101750001F910F91FF90EF900895CF93DF93EC01CD
:10176000FB0144815581608171810E94810B81114F
:1017700003C0CE010E94BE0ACE01DF91CF91089531
:10178000CF93DF93EC016115710569F0FB010190C6
:101790000020E9F7AF0141505109461B570B0E9449
:1017A000810B811103C0CE010E94BE0ACE01DF91E0
:1017B000CF9108951F920F920FB60F9211242F937D
:1017C0003F938F939F93AF93BF9380912B039091FF
:1017D0002C03A0912D03B0912E0330912A0323E016
:1017E000230F2D3720F40196A11DB11D05C026E859
:1017F000230F0296A11DB11D20932A0380932B0372
:1018000090932C03A0932D03B0932E0380912F036C
:1018100090913003A0913103B09132030196A11D44
:10182000B11D80932F0390933003A0933103B093A5
:101830003203BF91AF919F918F913F912F910F9064
:101840000FBE0F901F901895789484B5826084BD68
:1018500084B5816084BD85B5826085BD85B58160B4
:1018600085BDEEE6F0E0808181608083E1E8F0E014
:101870001082808182608083808181608083E0E843
:10188000F0E0808181608083E1EBF0E08081846022
:101890008083E0EBF0E0808181608083EAE7F0E024
:1018A0008081846080838081826080838081816088
:1018B00080838081806880831092C10008950CD05D
:1018C000EBC0E3D040F0DAD030F021F45F3F19F004
:1018D000CCC0511115C1CFC0F0D098F39923C9F3F2
:1018E0005523B1F3951B550BBB27AA276217730726
:1018F000840738F09F5F5F4F220F331F441FAA1FDA
:10190000A9F333D00E2E3AF0E0E830D09150504099
:10191000E695001CCAF729D0FE2F27D0660F771F47
:10192000881FBB1F261737074807AB07B0E809F029
:10193000BB0B802DBF01FF2793585F4F2AF09E3FBE
:10194000510568F092C0DCC05F3FECF3983EDCF3D9
:10195000869577956795B795F7959F5FC9F7880F37
:10196000911D9695879597F90895E1E0660F771F89
:10197000881FBB1F621773078407BA0720F0621B1A
:10198000730B840BBA0BEE1F88F7E095089504D013
:101990006894B111B5C0089598D088F09F5790F021
:1019A000B92F9927B751A0F0D1F0660F771F881F84
:1019B000991F1AF0BA95C9F712C0B13081F09FD0C3
:1019C000B1E008959CC0672F782F8827B85F39F061
:1019D000B93FCCF3869577956795B395D9F73EF4E3
:1019E00090958095709561957F4F8F4F9F4F08958B
:1019F000E89409C097FB3EF49095809570956195A9
:101A00007F4F8F4F9F4F9923A9F0F92F96E9BB275E
:101A10009395F695879577956795B795F111F8CFDA
:101A2000FAF4BB0F11F460FF1BC06F5F7F4F8F4F45
:101A30009F4F16C0882311F096E911C0772321F03B
:101A40009EE8872F762F05C0662371F096E8862FD3
:101A500070E060E02AF09A95660F771F881FDAF72A
:101A6000880F9695879597F9089597F99F6780E86D
:101A700070E060E008959FEF80EC089500240A94E0
:101A80001616170618060906089500240A94121659
:101A90001306140605060895092E0394000C11F48C
:101AA000882352F0BB0F40F4BF2B11F460FF04C039
:101AB0006F5F7F4F8F4F9F4F089557FD9058440F92
:101AC000551F59F05F3F71F04795880F97FB991F9D
:101AD00061F09F3F79F0879508951216130614065A
:101AE000551FF2CF4695F1DF08C0161617061806E7
:101AF000991FF1CF86957105610508940895E894C2
:101B0000BB2766277727CB0197F908950BD0C4CF61
:101B1000B5DF28F0BADF18F0952309F0A6CFABCFD8
:101B20001124EECFCADFA0F3959FD1F3950F50E0BB
:101B3000551F629FF001729FBB27F00DB11D639F7F
:101B4000AA27F00DB11DAA1F649F6627B00DA11D25
:101B5000661F829F2227B00DA11D621F739FB00DCB
:101B6000A11D621F839FA00D611D221F749F33273B
:101B7000A00D611D231F849F600D211D822F762FD4
:101B80006A2F11249F5750408AF0E1F088234AF0D1
:101B9000EE0FFF1FBB1F661F771F881F915050401D
:101BA000A9F79E3F510570F060CFAACF5F3FECF3DD
:101BB000983EDCF3869577956795B795F795E79509
:101BC0009F5FC1F7FE2B880F911D9695879597F91A
:101BD0000895A1E21A2EAA1BBB1BFD010DC0AA1F6E
:101BE000BB1FEE1FFF1FA217B307E407F50720F086
:101BF000A21BB30BE40BF50B661F771F881F991F01
:101C00001A9469F760957095809590959B01AC0149
:101C1000BD01CF010895EE0FFF1F0590F491E02D57
:101C20000994CF93DF938230910510F482E090E025
:101C3000E0913503F091360320E030E0A0E0B0E021
:101C4000309739F14081518148175907B8F048174A
:101C5000590771F482819381109729F013969C9310
:101C60008E9312972CC0909336038093350327C030
:101C70002115310531F04217530718F0A901DB0196
:101C800001C0EF019A01BD01DF010280F381E02D67
:101C9000D7CF21153105F9F0281B390B2430310538
:101CA00080F48A819B816115710521F0FB0193838A
:101CB000828304C09093360380933503FE013296ED
:101CC00044C0FE01E20FF31F81939193225031092A
:101CD000398328833AC02091330330913403232B76
:101CE00041F4209102013091030130933403209399
:101CF000330320910001309101012115310541F498
:101D00002DB73EB74091040150910501241B350BBE
:101D1000E0913303F0913403E217F307A0F42E1B94
:101D20003F0B2817390778F0AC014E5F5F4F24173F
:101D3000350748F04E0F5F1F509334034093330331
:101D40008193919302C0E0E0F0E0CF01DF91CF9169
:101D50000895CF93DF93009709F487C0FC01329771
:101D600013821282C0913503D0913603209781F4FB
:101D700020813181280F391F8091330390913403E2
:101D80008217930779F5F0933403E09333036DC022
:101D9000DE0120E030E0AE17BF0750F412964D91FF
:101DA0005C9113979D014115510509F1DA01F3CFBB
:101DB000B383A28340815181840F951F8A179B07AB
:101DC00071F48D919C911197840F951F02969183C8
:101DD000808312968D919C91139793838283211512
:101DE000310529F4F0933603E09335033EC0D90161
:101DF0001396FC93EE9312974D915D91A40FB51F2E
:101E0000EA17FB0779F480819181840F951F029670
:101E1000D90111969C938E938281938113969C9302
:101E20008E931297E0E0F0E08A819B81009719F091
:101E3000FE01EC01F9CFCE01029628813981820F93
:101E4000931F20913303309134032817390769F425
:101E5000309729F4109236031092350302C0138292
:101E60001282D0933403C0933303DF91CF9108954E
:101E7000A0E0B0E0EEE3FFE00C945C10EC01CB01DD
:101E8000209719F40E94110EB8C0FE01E60FF71F4B
:101E90009E0122503109E217F30708F4ACC0D901C2
:101EA0000D911C91119706171707B8F00530110511
:101EB00008F49FC0A801445051094617570708F479
:101EC00098C002501109061B170B019311936D93D3
:101ED0007C93CF010E94A90E8CC05B01A01AB10AAD
:101EE0004E01800E911EA0913503B0913603612CF6
:101EF000712C60E070E0109709F449C0A815B9058D
:101F0000C9F5ED90FC901197670142E0C40ED11C19
:101F1000CA14DB0478F147018A189B08640142E087
:101F2000C40ED11C1296BC9012971396AC91B5E0DA
:101F3000CB16D10440F0B282A38391828082D90172
:101F40008D939C9309C00E5F1F4F0E0D1F1DF9014D
:101F500011830083EB2DFA2F6115710531F0DB0140
:101F60001396FC93EE93129744C0F0933603E093DC
:101F700035033FC06D917C9111976616770608F482
:101F80003B01BD0112960D90BC91A02DB4CF609184
:101F900033037091340368157905E9F468167906FE
:101FA000D0F440910001509101014115510541F4D7
:101FB0004DB75EB76091040170910501461B570B48
:101FC000E417F507C0F4F0933403E0933303F90109
:101FD000918380830EC00E94110E7C01009759F0FE
:101FE000A801BE010E940210CE010E94A90EC701E5
:101FF00004C0CE0102C080E090E0CDB7DEB7EEE0D5
:102000000C947810FB01DC0102C001900D9241504C
:102010005040D8F70895FB01DC018D9101908019A3
:102020000110D9F3990B0895FB01DC0101900D9289
:102030000020E1F708954532510520F4423010F0B8
:102040000C942610FB011082CB010895BB27FB01E5
:102050005527AA27880F991FAA1FA41710F0A41BA1
:1020600083955051B9F7A05DAA3308F0A95DA193FB
:10207000009779F7B111B1931192CB010C944810EC
:10208000F999FECF92BD81BDF89A992780B5089540
:10209000DC01FC01672F71917723E1F7329704C0CF
:1020A0007C916D9370836291AE17BF07C8F308955A
:1020B0002F923F924F925F926F927F928F929F9258
:1020C000AF92BF92CF92DF92EF92FF920F931F9346
:1020D000CF93DF93CDB7DEB7CA1BDB0B0FB6F894F7
:1020E000DEBF0FBECDBF09942A88398848885F8437
:1020F0006E847D848C849B84AA84B984C884DF80A8
:10210000EE80FD800C811B81AA81B981CE0FD11D8B
:102110000FB6F894DEBF0FBECDBFED010895F89461
:02212000FFCFEF
:1021220000003703800001520031004C000A4C3A93
:102132005B73746570733D00206C696D69743D005A
:1021420020706174683D002064697374616E636518
:102152003D005D000A523A5B7374657073523D0034
:1021620000000000180894099A07B307A507F607AC
:00000001FF
