:100000000C946A000C9465060C9492060C94920071
:100010000C9492000C9492000C9492000C94920018
:100020000C9492000C9492000C9492000C94920008
:100030000C9492000C9492000C9492000C949200F8
:100040000C94BF060C9492000C94A9090C94DB0943
:100050000C9492000C9492000C9492000C949200D8
:100060000C9492000C9492003C06DB0571058C0503
:10007000AD05C705DE051206524F42424F2D000066
:100080000000080002010000030407000000000057
:100090000000000102040810204080010204081042
:1000A00020010204081020040404040404040402CF
:1000B00002020202020303030303030000000025FF
:1000C0000028002B0000000000240027002A000068
:1000D00052030B0A11241FBECFEFD8E0DEBFCDBF05
:1000E00011E0A0E0B1E0ECEAF1E202C005900D926F
:1000F000A635B107D9F723E0A6E5B1E001C01D920E
:10010000A134B207E1F710E0C4EDD0E004C02297BB
:10011000FE010E94520EC03DD107C9F70E944F0A4E
:100120000C94D4100C940000DC01ED91FC91019032
:10013000F081E02D0994CF93DF93EC011982FC014B
:10014000E45BFF4F60E070E080810E946D07C55B5B
:10015000DF4F60E070E08881DF91CF910C946D07F4
:100160000F931F93CF93DF93EC0148836A836983D6
:10017000FC01E45BFF4F8C01055B1F4F41110BC07D
:10018000698184E0689FB001112480810E946D071D
:1001900060E070E00AC060E070E080810E946D075E
:1001A0006981F4E06F9FB0011124F8018081DF9133
:1001B000CF911F910F910C946D07FC018381948165
:1001C000892B29F085819681019696838583818587
:1001D00092850196928781878081811104C08781F1
:1001E0009085019603C087819085019790878783CA
:1001F000858196818185928587819085089585E4A2
:1002000092E00E94DD008091480290914902892B82
:1002100031F48091FB019091FC01892B31F1209107
:100220004A0230914B02809148029091490228176E
:10023000390758F42091FD013091FE018091FB01B6
:100240009091FC012817390780F010924902109212
:1002500048021092FC011092FB0185E492E00E949A
:100260009B0088EF91E00C949B00089588EF91E04B
:100270000E94DD008091480290914902892B31F45F
:100280008091FB019091FC01892B31F120914A0270
:1002900030914B028091480290914902281739070A
:1002A00058F42091FD013091FE018091FB01909165
:1002B000FC012817390780F0109249021092480279
:1002C0001092FC011092FB0185E492E00E949B00D9
:1002D00088EF91E00C949B0008950F931F93CF93A8
:1002E000DF9306EC11E0C0E0D0E0CE010E94851063
:1002F000F80181938F012196C233D105B1F7E6EC65
:10030000F1E0CF01865C914021912D32D1F7019629
:10031000E1EBF1E0DC01AA53BE4F2C9101962D32A6
:1003200011F02193F7CFECE9F1E0DC01AA53BE4FC5
:100330002C9101962D3211F02193F7CFA7E8B1E06F
:10034000FC01EA53FE4F20812D3219F02D930196C6
:10035000F7CFA2E7B1E081E090E0EF01C80FD91F2D
:100360002881019630ED320F3A3010F42D93F5CFFD
:1003700067E071E081EB91E00E945010892BA9F4B5
:1003800069E071E08CE991E00E945010892B69F4DA
:1003900069E071E087E891E00E945010892B29F410
:1003A00010927101109270011EC06BE071E081EB40
:1003B00091E00E945010892B99F769E071E08CE977
:1003C00091E00E945010892B59F769E071E087E8AD
:1003D00091E00E945010892B19F781E090E09093F2
:1003E000710180937001DF91CF911F910F9108955A
:1003F0001F93CF93DF930E946D0126E040E052EC03
:1004000061E070E080EA92E00E94470961E084E0E8
:100410000E94F50761E087E00E94F50761E088E04F
:100420000E94F50761E08BE00E94F50761E08CE037
:100430000E94F507E1E8F0E08081886080831092F7
:100440009202109245021092460210E21093470267
:10045000109249021092480210924B0210924A02E6
:100460008AE080939002C1E9D2E089E0888361E06C
:100470008AE00E94F50761E088810E94F5071092EA
:10048000F8011092F9011093FA011092FC011092F8
:10049000FB011092FE011092FD0186E08093430261
:1004A000C4E4D2E085E0888361E086E00E94F5073D
:1004B00061E088810E94F50741E050E06FEF70E055
:1004C00081E00E94450641E050E066E371E080E093
:1004D000DF91CF911F910C944506CF93DF93CDB759
:1004E000DEB76E970FB6F894DEBF0FBECDBF60913A
:1004F0004C0270914D024AE0CE0101960E941F0C01
:1005000060914E0270914F024AE0CE0107960E9420
:100510001F0C60914802709149024AE0CE010D968D
:100520000E941F0C60914A0270914B024AE0CE017A
:1005300049960E941F0C6DE071E0CE0143960E9427
:10054000F10BBE01675E7F4FCE0143960E94770C90
:1005500068E171E00E948A0CBE01635F7F4F0E94D8
:10056000770C60E271E00E948A0CBE01695F7F4FE8
:100570000E94770C67E271E00E948A0CBE016F5FF7
:100580007F4F0E94770C62E371E00E948A0CBC01ED
:1005900080EA92E00E94C10ACE0143960E94830B3A
:1005A000CE0149960E94830BCE010D960E94830BCB
:1005B000CE0107960E94830BCE0101960E94830B09
:1005C0006091FF01709100024AE0CE0101960E9405
:1005D0001F0C60910102709102024AE0CE01079661
:1005E0000E941F0C6091FB017091FC014AE0CE015A
:1005F0000D960E941F0C6091FD017091FE014AE072
:10060000CE0149960E941F0C64E371E0CE0143962F
:100610000E94F10BBE01675E7F4FCE0143960E94A0
:10062000770C68E171E00E948A0CBE01635F7F4F26
:100630000E94770C60E271E00E948A0CBE01695F43
:100640007F4F0E94770C67E271E00E948A0CBE0126
:100650006F5F7F4F0E94770C62E371E00E948A0C0B
:10066000BC0180EA92E00E94C10ACE0143960E943A
:10067000830BCE0149960E94830BCE010D960E94FA
:10068000830BCE0107960E94830BCE0101960E9438
:10069000830B6E960FB6F894DEBF0FBECDBFDF9111
:1006A000CF9108950E9409076093560170935701F6
:1006B00080935801909359010895CF93DF9363E29B
:1006C00070E080EA92E00E949400CAE4D2E088815F
:1006D0009981692F80EA92E00E94E208688179811D
:1006E00080EA92E00E94E208CDEFD1E08881998112
:1006F000692F80EA92E00E94E2086881798180EAAD
:1007000092E00E94E208CEE4D2E088819981692FCC
:1007100080EA92E00E94E2086881798180EA92E0B2
:100720000E94E208C1E0D2E088819981692F80EAC5
:1007300092E00E94E2086881798180EA92E00E945A
:10074000E2088FE00E945007BC01882777FD809562
:10075000982F0E943F0D20E030EC4FE754E40E94B8
:10076000A40C20E030E048EC52E40E94CB0D0E9443
:100770000C0D80EA92E00E94940080E10E945007F4
:10078000BC01882777FD8095982F0E943F0D20E0BF
:1007900030EC4FE754E40E94A40C20E030E048EC39
:1007A00052E40E94CB0D0E940C0D80EA92E00E9460
:1007B000940081E10E945007BC01882777FD809555
:1007C000982F0E943F0D20E030EC4FE754E40E9448
:1007D000A40C20E030E048EC52E40E94CB0D0E94D3
:1007E0000C0D80EA92E00E94940082E10E94500782
:1007F000BC01882777FD8095982F0E943F0D20E04F
:1008000030EC4FE754E40E94A40C20E030E048ECC8
:1008100052E40E94CB0D0E940C0D80EA92E00E94EF
:10082000940083E10E945007BC01882777FD8095E2
:10083000982F0E943F0D20E030EC4FE754E40E94D7
:10084000A40C20E030E048EC52E40E94CB0D0E9462
:100850000C0D80EA92E00E9494008EE00E94500706
:10086000BC01882777FD8095982F0E943F0D20E0DE
:1008700030EC4FE754E40E94A40C20E030E048EC58
:1008800052E40E94CB0D0E940C0D80EA92E0DF91B1
:10089000CF910C9494000F931F93CF93DF930E94FA
:1008A000090700915601109157012091580130918C
:1008B0005901601B710B820B930B613D77408105E1
:1008C000910540F085E492E00E949B0088EF91E062
:1008D0000E949B0080EA92E00E946408892B09F440
:1008E000CFC180EA92E00E947D088C010E94090736
:1008F000609356017093570180935801909359016A
:10090000809192028111B0C09801332723363105BE
:1009100009F4A2C094F42132310509F490C024F402
:100920002032310509F1ACC12136310509F491C0FD
:100930002236310509F48DC0A3C12636310509F4EC
:100940008BC04CF42436310509F486C025363105B8
:1009500009F482C095C12736310509F47DC02836D7
:10096000310509F479C08CC168E770E080EA92E053
:100970000E949C0A80917001909171018031974290
:1009800034F460E370E080EA92E00E949400809189
:10099000700190917101883E934034F460E370E0FF
:1009A00080EA92E00E949400809170019091710120
:1009B0008436910534F460E370E080EA92E00E94AE
:1009C000940080917001909171010A9734F460E372
:1009D00070E080EA92E00E94940060917001709152
:1009E00071014AE050E080EA92E00E947B0B6DE2E8
:1009F00070E080EA92E00E94940060E471E080EA96
:100A000092E00E94CF0A6DE270E080EA92E00E94DC
:100A10009400C2E7D1E009900020E9F72197C2577E
:100A2000D140C431D10544F460E370E080EA92E043
:100A30000E9494002196F5CF62E771E002C066EC57
:100A400071E080EA92E0DF91CF911F910F910C94B9
:100A5000CF0A00935A0127C082E08093920210923D
:100A60005B0100935A010CC1823039F580915B0122
:100A7000E82FF0E0E45AFE4F00838F5F80935B0124
:100A800090915A01953661F028F4933649F09436E6
:100A900039F0F6C0973659F068F0983659F0F0C042
:100AA000823008F4EDC083E080939202E9C0843084
:100AB000D0F7E6C08111F7CFE3C0833009F0E0C082
:100AC000043209F0DBC080915A0190E0FC01E1564C
:100AD000F109E830F10508F0D1C0EC5CFF4F0C944F
:100AE000500E60915C01C0915D01603418F060545B
:100AF0004FEF01C040E0C03418F0C054DFEF01C038
:100B0000D0E085E492E00E94B0004D2F6C2F88EF7A
:100B100091E00E94B000B0C090915C0160ED690F5F
:100B200080915D01C0EDC80F603420F060E9690F6D
:100B30004FEF01C040E0C03420F0C0E9C80FDFEF44
:100B400001C0D0E085E492E00E94B0004D2F6C2FF0
:100B500088EF91E00E94B0002EC080915C0190E08F
:100B6000982F882720915D01820F911D10924B02D2
:100B700010924A0290934902809348021092FE011B
:100B80001092FD019093FC018093FB0175C0809150
:100B90005C01805390E010924B0210924A029093B5
:100BA0004902809348021092FE011092FD01909339
:100BB000FC018093FB010E946D0260C060915C01AA
:100BC00010915D01C0915E0180915F01603418F069
:100BD00060544FEF01C040E0103418F010540FEF94
:100BE00001C000E0D0E0DC2FCC27C80FD11D85E488
:100BF00092E00E94B000402F612F88EF91E00E94A8
:100C0000B00010924B0210924A02D0934902C09356
:100C100048021092FE011092FD01D093FC01C09396
:100C2000FB012AC0C0915C01C0FF02C061E001C0AD
:100C300060E084E00E942E08C1FF02C061E001C0B4
:100C400060E087E00E942E08C2FF02C061E001C0A0
:100C500060E088E00E942E08C3FF02C061E001C08E
:100C600060E08BE00E942E08C4FF02C061E001C07A
:100C700060E08CE00E942E080E945D0310929202B8
:100C8000DF91CF911F910F9108958230E8F4E82F02
:100C9000F0E0EE0FFF1FED56FD4F71836083813052
:100CA00041F0809169008C7F842B80936900E89AE1
:100CB000089580916900440F551F440F551F837F8D
:100CC000842B80936900E99A08951F920F920FB6C2
:100CD0000F9211242F933F934F935F936F937F93C2
:100CE0008F939F93AF93BF93EF93FF938091930262
:100CF00090919402892B29F0E0919302F091940253
:100D00000995FF91EF91BF91AF919F918F917F9145
:100D10006F915F914F913F912F910F900FBE0F9068
:100D20001F9018951F920F920FB60F9211242F93B8
:100D30003F934F935F936F937F938F939F93AF9363
:100D4000BF93EF93FF938091950290919602892B28
:100D500029F0E0919502F09196020995FF91EF91AB
:100D6000BF91AF919F918F917F916F915F914F91C3
:100D70003F912F910F900FBE0F901F9018951F92CB
:100D80000F920FB60F9211242F933F938F939F933F
:100D9000AF93BF938091980290919902A0919A028B
:100DA000B0919B023091970223E0230F2D3720F45E
:100DB0000196A11DB11D05C026E8230F0296A11DB5
:100DC000B11D209397028093980290939902A0936B
:100DD0009A02B0939B0280919C0290919D02A091F7
:100DE0009E02B0919F020196A11DB11D80939C02AD
:100DF00090939D02A0939E02B0939F02BF91AF91EA
:100E00009F918F913F912F910F900FBE0F901F9048
:100E100018952FB7F894609198027091990280917B
:100E20009A0290919B022FBF0895789484B58260B6
:100E300084BD84B5816084BD85B5826085BD85B57E
:100E4000816085BDEEE6F0E0808181608083E1E82D
:100E5000F0E0108280818260808380818160808365
:100E6000E0E8F0E0808181608083E1EBF0E0808168
:100E700084608083E0EBF0E0808181608083EAE73A
:100E8000F0E08081846080838081826080838081C3
:100E9000816080838081806880831092C100089582
:100EA0008E3008F08E5087702091060190E4299FC3
:100EB00090011124822B80937C0080917A008064C1
:100EC00080937A0080917A0086FDFCCF8091780033
:100ED0002091790090E0922B08951F93CF93DF9398
:100EE000182FEB0161E00E94F507209711F460E0F4
:100EF00004C0CF3FD10539F461E0812FDF91CF915C
:100F00001F910C942E08E12FF0E0E158FF4FE4917F
:100F1000E330F9F048F4E130B9F0E230A1F584B5FE
:100F2000806284BDC8BD34C0E730E9F0E83019F113
:100F3000E43049F580918000806280938000D093F6
:100F40008B00C0938A0024C084B5806884BDC7BD6F
:100F50001FC080918000806880938000D0938900BA
:100F6000C093880015C08091B00080688093B00065
:100F7000C093B3000DC08091B00080628093B00038
:100F8000C093B40005C0C038D1050CF0B5CFAFCFC9
:100F9000DF91CF911F910895833081F028F4813043
:100FA00099F08230A1F008958730A9F08830B9F027
:100FB0008430D1F4809180008F7D03C080918000C7
:100FC0008F7780938000089584B58F7702C084B5B1
:100FD0008F7D84BD08958091B0008F7703C080918C
:100FE000B0008F7D8093B0000895CF93DF9390E0A1
:100FF000FC01ED56FF4F2491FC01E955FF4F849110
:10100000882349F190E0880F991FFC01EB53FF4FB3
:10101000A591B49185549F4FFC01C591D4919FB780
:10102000611108C0F8948C91209582238C9388815B
:1010300082230AC0623051F4F8948C91322F30959B
:1010400083238C938881822B888304C0F8948C91AD
:10105000822B8C939FBFDF91CF9108950F931F93A5
:10106000CF93DF931F92CDB7DEB7282F30E0F90181
:10107000E158FF4F8491F901ED56FF4F1491F901AA
:10108000E955FF4F04910023C9F0882321F06983BB
:101090000E94CC076981E02FF0E0EE0FFF1FE554BE
:1010A000FF4FA591B4919FB7F8948C91611103C043
:1010B0001095812301C0812B8C939FBF0F90DF91EE
:1010C000CF911F910F910895FC01818D228D90E0A9
:1010D000805C9F4F821B91098F7399270895FC01B3
:1010E000918D828D981731F0828DE80FF11D858DDD
:1010F00090E008958FEF9FEF0895FC01918D828D10
:10110000981761F0828DDF01A80FB11D5D968C915B
:10111000928D9F5F9F73928F90E008958FEF9FEF66
:10112000089581E09AE0892B49F080E090E0892BD6
:1011300029F00E94010A81110C9400000895FC011D
:10114000848DDF01A80FB11DA35ABF4F2C91848D50
:1011500090E001968F739927848FA689B7892C9385
:10116000A089B1898C9180648C93938D848D981320
:1011700006C00288F389E02D80818F7D80830895E9
:10118000CF93DF93EC01888D8823C9F0EA89FB892E
:10119000808185FD05C0A889B9898C9186FD0FC025
:1011A0000FB607FCF5CF808185FFF2CFA889B989FA
:1011B0008C9185FFEDCFCE010E949F08E7CFDF9194
:1011C000CF910895CF92DF92FF920F931F93CF9309
:1011D000DF931F92CDB7DEB76C01DC015B969C916B
:1011E0005B975C968C915C97981307C05096ED9135
:1011F000FC915197808185FD32C0F601038D10E08E
:101200000F5F1F4F0F731127F02EF601848DF81218
:1012100011C00FB607FCF9CFD6015096ED91FC91A5
:101220005197808185FFF1CFC60169830E949F0895
:101230006981EBCF838DE80FF11DE35AFF4F608387
:10124000D6015B960C935B975296ED91FC91539768
:1012500080818062808381E058968C930DC0D60196
:101260005696ED91FC91579760835096ED91FC91C5
:10127000519780818064808381E090E00F90DF91BE
:10128000CF911F910F91FF90DF90CF900895BF9263
:10129000CF92DF92EF92FF92CF93DF93EC016A013E
:1012A0007B01B22EE889F98982E08083411581EEC5
:1012B000580761057105A1F060E079E08DE390E0E9
:1012C000A70196010E942E0E2150310941095109B2
:1012D0005695479537952795211580E1380798F061
:1012E000E889F989108260E874E88EE190E0A7014E
:1012F00096010E942E0E215031094109510956953F
:10130000479537952795EC85FD853083EE85FF85DC
:101310002083188EEC89FD89B082EA89FB8980815F
:1013200080618083EA89FB89808188608083EA8983
:10133000FB89808180688083EA89FB8980818F7D39
:101340008083DF91CF91FF90EF90DF90CF90BF909F
:1013500008951F920F920FB60F9211242F938F931F
:101360009F93EF93FF93E091B002F091B1028081DF
:10137000E091B602F091B70282FD12C09081809197
:10138000B9028F5F8F732091BA02821751F0E091FA
:10139000B902F0E0E056FD4F958F8093B90201C08D
:1013A0008081FF91EF919F918F912F910F900FBEB0
:1013B0000F901F9018951F920F920FB60F92112445
:1013C0002F933F934F935F936F937F938F939F934D
:1013D000AF93BF93EF93FF9380EA92E00E949F0840
:1013E000FF91EF91BF91AF919F918F917F916F91FD
:1013F0005F914F913F912F910F900FBE0F901F90D3
:10140000189580EA92E00E94640821E0892B09F493
:1014100020E0822F08951092A3021092A20288EE7B
:1014200093E0A0E0B0E08093A4029093A502A09383
:10143000A602B093A7028AE491E09093A102809360
:10144000A00285EC90E09093AD028093AC0284EC16
:1014500090E09093AF028093AE0280EC90E0909386
:10146000B1028093B00281EC90E09093B30280933C
:10147000B20282EC90E09093B5028093B40286ECC5
:1014800090E09093B7028093B6021092B902109246
:10149000BA021092BB021092BC02089508950E94F5
:1014A00015070E944E0A0E94F801C1E9D8E00E9487
:1014B0004B042097E1F30E949108F9CFCF92DF927D
:1014C000EF92FF920F931F93CF93DF936C017A01FA
:1014D000EB01E60EF71E00E010E0CE15DF0561F02F
:1014E0006991D601ED91FC910190F081E02DC6014A
:1014F0000995080F191FF1CFC801DF91CF911F91F6
:101500000F91FF90EF90DF90CF90089561157105D6
:1015100081F0DB010D900020E9F7AD014150510948
:10152000461B570BDC01ED91FC910280F381E02D0D
:10153000099480E090E00895EF92FF920F931F933B
:10154000CF93DF938C01FB01C0E0D0E064917F0179
:101550008FEFE81AF80A662361F0D801ED91FC914B
:101560000190F081E02DC8010995C80FD91FF7013E
:10157000EDCFCE01DF91CF911F910F91FF90EF90B2
:101580000895DC01ED91FC91DB0114964D915C9185
:1015900015976D917C910280F381E02D09940C9454
:1015A000860ADC01ED91FC910190F081E02D099417
:1015B0008F929F92AF92BF92CF92DF92EF92FF9263
:1015C0000F931F93CF93DF93CDB7DEB7A1970FB6DD
:1015D000F894DEBF0FBECDBF7C01C42EE52FCB013A
:1015E000D22E19A221E02D1510F02AE0D22E8E0164
:1015F0000F5D1F4F8D2C912CA12CB12C6C2D7E2FAB
:10160000A50194010E942E0E8C2DD29E80191124CA
:10161000015011098A3014F4805D01C0895CF80121
:101620008083211531054105510521F0C22EE32F9C
:10163000CA01E4CFB801C7010E94860AA1960FB67D
:10164000F894DEBF0FBECDBFDF91CF911F910F91F8
:10165000FF90EF90DF90CF90BF90AF909F908F90D2
:101660000895CF92DF92EF92FF920F931F93CF9343
:10167000DF93EC016A017B012115310579F4E881E2
:10168000F9810190F081E02D642FDF91CF911F91BE
:101690000F91FF90EF90DF90CF9009942A303105A1
:1016A000E9F477FF1AC06DE20E94D10A8C01442749
:1016B0005527BA014C195D096E097F092AE0CE0150
:1016C0000E94D80A800F911FDF91CF911F910F9137
:1016D000FF90EF90DF90CF9008952AE0B701A60128
:1016E000CE01DF91CF911F910F91FF90EF90DF908E
:1016F000CF900C94D80A9A01AB01662757FD6095EC
:10170000762F0C94310BFC01808191810C94EE0EAC
:10171000CF93DF93EC0188819981009711F00E94AB
:10172000EE0E198218821D821C821B821A82DF91A2
:10173000CF9108950F931F93CF93DF93EC018B010B
:101740006F5F7F4F888199810E947D0F009731F0F4
:10175000998388831B830A8381E001C080E0DF9145
:10176000CF911F910F910895CF93DF93EC01888162
:101770009981892B29F08A819B818617970760F4CC
:10178000CE010E949A0B882341F08C819D81892B88
:1017900019F4E881F981108281E0DF91CF910895F9
:1017A000EF92FF920F931F93CF93DF93EC017B0196
:1017B0008A01BA010E94B40B811104C0CE010E94BB
:1017C000880B07C01D830C83B701888199810E9413
:1017D0005910CE01DF91CF911F910F91FF90EF90A3
:1017E0000895FC01118210821382128215821482E4
:1017F0006115710559F0FB0101900020E9F7AF0177
:1018000041505109461B570B0C94D00B0895CF93B0
:10181000DF93EC016115710561F0FB01019000207F
:10182000E9F7AF0141505109461B570B0E94D00BFD
:1018300002C00E94880BCE01DF91CF9108950F93D3
:101840001F93CF93DF93CDB7DEB761970FB6F894B0
:10185000DEBF0FBECDBF8C01CB01F801118210821B
:10186000138212821582148250E0BE016F5F7F4F97
:101870000E946010BE016F5F7F4FC8010E94070C7D
:1018800061960FB6F894DEBF0FBECDBFDF91CF914A
:101890001F910F910895EF92FF920F931F93CF9393
:1018A000DF93EC017B010C811D816115710511F441
:1018B00080E016C04115510591F0040F151FB801C5
:1018C0000E94B40B8823A1F3288139818C819D81EA
:1018D000B701820F931F0E9459101D830C8381E072
:1018E000DF91CF911F910F91FF90EF900895CF93CB
:1018F000DF93EC01FB0144815581608171810E947D
:101900004B0C811103C0CE010E94880BCE01DF91E8
:10191000CF910895CF93DF93EC016115710569F0C4
:10192000FB0101900020E9F7AF0141505109461B2E
:10193000570B0E944B0C811103C0CE010E94880BF3
:10194000CE01DF91CF9108950CD0EBC0E3D040F0F1
:10195000DAD030F021F45F3F19F0CCC0511115C13D
:10196000CFC0F0D098F39923C9F35523B1F3951B59
:10197000550BBB27AA2762177307840738F09F5FB0
:101980005F4F220F331F441FAA1FA9F333D00E2E1F
:101990003AF0E0E830D091505040E695001CCAF78C
:1019A00029D0FE2F27D0660F771F881FBB1F261751
:1019B00037074807AB07B0E809F0BB0B802DBF0124
:1019C000FF2793585F4F2AF09E3F510568F092C061
:1019D000DCC05F3FECF3983EDCF386957795679526
:1019E000B795F7959F5FC9F7880F911D96958795D5
:1019F00097F90895E1E0660F771F881FBB1F6217F4
:101A000073078407BA0720F0621B730B840BBA0BB1
:101A1000EE1F88F7E095089504D06894B111B5C021
:101A2000089598D088F09F5790F0B92F9927B75113
:101A3000A0F0D1F0660F771F881F991F1AF0BA9592
:101A4000C9F712C0B13081F09FD0B1E008959CC0B9
:101A5000672F782F8827B85F39F0B93FCCF3869588
:101A600077956795B395D9F73EF4909580957095E5
:101A700061957F4F8F4F9F4F0895E89409C097FB62
:101A80003EF490958095709561957F4F8F4F9F4F55
:101A90009923A9F0F92F96E9BB279395F695879599
:101AA00077956795B795F111F8CFFAF4BB0F11F45C
:101AB00060FF1BC06F5F7F4F8F4F9F4F16C0882303
:101AC00011F096E911C0772321F09EE8872F762F39
:101AD00005C0662371F096E8862F70E060E02AF07A
:101AE0009A95660F771F881FDAF7880F9695879566
:101AF00097F9089597F99F6780E870E060E008958E
:101B00009FEF80EC089500240A9416161706180615
:101B10000906089500240A941216130614060506F1
:101B20000895092E0394000C11F4882352F0BB0F82
:101B300040F4BF2B11F460FF04C06F5F7F4F8F4FE5
:101B40009F4F089557FD9058440F551F59F05F3F20
:101B500071F04795880F97FB991F61F09F3F79F0CF
:101B600087950895121613061406551FF2CF469551
:101B7000F1DF08C0161617061806991FF1CF8695D3
:101B80007105610508940895E894BB2766277727B7
:101B9000CB0197F908950BD0C4CFB5DF28F0BADF99
:101BA00018F0952309F0A6CFABCF1124EECFCADFF2
:101BB000A0F3959FD1F3950F50E0551F629FF00160
:101BC000729FBB27F00DB11D639FAA27F00DB11DB9
:101BD000AA1F649F6627B00DA11D661F829F222742
:101BE000B00DA11D621F739FB00DA11D621F839FC9
:101BF000A00D611D221F749F3327A00D611D231F9F
:101C0000849F600D211D822F762F6A2F11249F57EC
:101C100050408AF0E1F088234AF0EE0FFF1FBB1F0F
:101C2000661F771F881F91505040A9F79E3F5105AE
:101C300070F060CFAACF5F3FECF3983EDCF386955F
:101C400077956795B795F795E7959F5FC1F7FE2B59
:101C5000880F911D9695879597F90895A1E21A2E00
:101C6000AA1BBB1BFD010DC0AA1FBB1FEE1FFF1F40
:101C7000A217B307E407F50720F0A21BB30BE40B90
:101C8000F50B661F771F881F991F1A9469F76095D7
:101C90007095809590959B01AC01BD01CF01089591
:101CA000EE0FFF1F0590F491E02D0994CF93DF9381
:101CB0008230910510F482E090E0E0913F03F091D2
:101CC000400320E030E0A0E0B0E0309739F14081FF
:101CD000518148175907B8F04817590771F48281A4
:101CE0009381109729F013969C938E9312972CC092
:101CF0009093400380933F0327C02115310531F0B5
:101D00004217530718F0A901DB0101C0EF019A0146
:101D1000BD01DF010280F381E02DD7CF2115310510
:101D2000F9F0281B390B2430310580F48A819B811E
:101D30006115710521F0FB019383828304C09093A8
:101D4000400380933F03FE01329644C0FE01E20F40
:101D5000F31F8193919322503109398328833AC02C
:101D600020913D0330913E03232B41F42091020149
:101D70003091030130933E0320933D0320910001F5
:101D8000309101012115310541F42DB73EB7409145
:101D9000040150910501241B350BE0913D03F091A6
:101DA0003E03E217F307A0F42E1B3F0B2817390759
:101DB00078F0AC014E5F5F4F2417350748F04E0FA7
:101DC0005F1F50933E0340933D038193919302C064
:101DD000E0E0F0E0CF01DF91CF910895CF93DF9362
:101DE000009709F487C0FC01329713821282C091D8
:101DF0003F03D0914003209781F420813181280F47
:101E0000391F80913D0390913E038217930779F526
:101E1000F0933E03E0933D036DC0DE0120E030E02F
:101E2000AE17BF0750F412964D915C9113979D0128
:101E30004115510509F1DA01F3CFB383A283408143
:101E40005181840F951F8A179B0771F48D919C9186
:101E50001197840F951F02969183808312968D911E
:101E60009C911397938382832115310529F4F09374
:101E70004003E0933F033EC0D9011396FC93EE93D9
:101E800012974D915D91A40FB51FEA17FB0779F4E6
:101E900080819181840F951F0296D90111969C93A0
:101EA0008E938281938113969C938E931297E0E098
:101EB000F0E08A819B81009719F0FE01EC01F9CFD7
:101EC000CE01029628813981820F931F20913D0314
:101ED00030913E032817390769F4309729F410929E
:101EE000400310923F0302C013821282D0933E033C
:101EF000C0933D03DF91CF910895A0E0B0E0E3E807
:101F0000FFE00C94A110EC01CB01209719F40E9482
:101F1000560EB8C0FE01E60FF71F9E012250310990
:101F2000E217F30708F4ACC0D9010D911C91119789
:101F300006171707B8F00530110508F49FC0A8016F
:101F4000445051094617570708F498C00250110928
:101F5000061B170B019311936D937C93CF010E9485
:101F6000EE0E8CC05B01A01AB10A4E01800E911ECC
:101F7000A0913F03B0914003612C712C60E070E0B0
:101F8000109709F449C0A815B905C9F5ED90FC9062
:101F90001197670142E0C40ED11CCA14DB0478F12A
:101FA00047018A189B08640142E0C40ED11C1296B6
:101FB000BC9012971396AC91B5E0CB16D10440F0CB
:101FC000B282A38391828082D9018D939C9309C0B0
:101FD0000E5F1F4F0E0D1F1DF90111830083EB2DA6
:101FE000FA2F6115710531F0DB011396FC93EE9326
:101FF000129744C0F0934003E0933F033FC06D91BC
:102000007C9111976616770608F43B01BD01129684
:102010000D90BC91A02DB4CF60913D0370913E0313
:1020200068157905E9F468167906D0F44091000145
:10203000509101014115510541F44DB75EB76091D2
:10204000040170910501461B570BE417F507C0F416
:10205000F0933E03E0933D03F901918380830EC02A
:102060000E94560E7C01009759F0A801BE010E9403
:102070004710CE010E94EE0EC70104C0CE0102C07F
:1020800080E090E0CDB7DEB7EEE00C94BD10FB0130
:10209000DC0102C001900D9241505040D8F70895E4
:1020A000FB01DC018D91019080190110D9F3990B8E
:1020B0000895FB01DC0101900D920020E1F70895E5
:1020C0004532510520F4423010F00C946B10FB01A6
:1020D0001082CB010895BB27FB015527AA27880F43
:1020E000991FAA1FA41710F0A41B83955051B9F78C
:1020F000A05DAA3308F0A95DA193009779F7B1110B
:10210000B1931192CB010C948D10F999FECF92BD31
:1021100081BDF89A992780B50895DC01FC01672FED
:1021200071917723E1F7329704C07C916D937083AE
:102130006291AE17BF07C8F308952F923F924F9256
:102140005F926F927F928F929F92AF92BF92CF9247
:10215000DF92EF92FF920F931F93CF93DF93CDB750
:10216000DEB7CA1BDB0B0FB6F894DEBF0FBECDBFC8
:1021700009942A88398848885F846E847D848C8499
:102180009B84AA84B984C884DF80EE80FD800C81A2
:102190001B81AA81B981CE0FD11D0FB6F894DEBF85
:0C21A0000FBECDBFED010895F894FFCFF5
:1021AC0000004103800001520031004C000A4C3AFF
:1021BC005B73746570733D00206C696D69743D00D0
:1021CC0020706174683D002064697374616E63658E
:1021DC003D005D000A523A5B7374657073523D00AA
:1021EC0030303030340000000000E2085E0A640831
:0621FC007D086F08C00819
:00000001FF
