:100000000C9476000C9457080C9430080C949E00C5
:100010000C949E000C949E000C949E000C949E00E8
:100020000C949E000C947E080C949E000C949E00F0
:100030000C949E000C949E000C949E000C949E00C8
:100040000C94E6070C949E000C944A050C9424052D
:100050000C949E000C949E000C949E000C949E00A8
:100060000C949E000C949E002F122F122F123B1204
:1000700035123B1238123B12581521135212D2126C
:10008000F3120D13241322144D144E15000000001A
:10009000240027002A0000000000250028002B0073
:1000A000040404040404040402020202020203031E
:1000B0000303030301020408102040800102040826
:1000C00010200102040810200000000800020100B6
:1000D0000003040700000000000000003030303052
:1000E0003800524F42424F2D0000661711241FBEA8
:1000F000CFEFD8E0DEBFCDBF23E0ACEAB1E001C076
:100100001D92A635B207E1F711E0A0E0B1E0E4EB03
:10011000F9E302C005900D92AC3AB107D9F710E0AF
:10012000C6E7D0E004C02197FE010E94BD1AC53782
:10013000D107C9F70E94A00D0C94D81C0C940000A4
:10014000CF92DF92EF92FF920F931F93CF93DF93A3
:100150006C017A018B01C0E0D0E0CE15DF0589F09B
:10016000D8016D918D01D601ED91FC910190F08146
:10017000E02DC6010995892B11F47E0102C021965C
:10018000ECCFC701DF91CF911F910F91FF90EF90BE
:10019000DF90CF900895089580E090E00895FC01ED
:1001A000538D448D252F30E0842F90E0821B930BDC
:1001B000541710F0CF96089501970895FC01918D82
:1001C000828D981761F0828DDF01A80FB11D5D96B9
:1001D0008C91928D9F5F9F73928F90E008958FEF27
:1001E0009FEF0895FC01918D828D981731F0828DDB
:1001F000E80FF11D858D90E008958FEF9FEF089532
:10020000FC01918D228D892F90E0805C9F4F821B95
:1002100091098F73992708958BEA92E00E9400015B
:1002200021E0892B09F420E0822F0895FC01848DC0
:10023000DF01A80FB11DA35ABF4F2C91848D90E010
:1002400001968F739927848FA689B7892C93A089EB
:10025000B1898C9180648C93938D848D981306C0A2
:100260000288F389E02D80818F7D80830895EF924D
:10027000FF920F931F93CF93DF93EC0181E0888F60
:100280009B8D8C8D981305C0E889F989808185FD47
:1002900024C0F62E0B8D10E00F5F1F4F0F73112738
:1002A000E02E8C8DE8120CC00FB607FCFACFE8895F
:1002B000F989808185FFF5CFCE010E941601F1CF2B
:1002C0008B8DFE01E80FF11DE35AFF4FF0820B8F7B
:1002D000EA89FB898081806207C0EE89FF8960839B
:1002E000E889F98980818064808381E090E0DF91F2
:1002F000CF911F910F91FF90EF900895CF93DF93CF
:10030000EC01888D8823C9F0EA89FB89808185FD0D
:1003100005C0A889B9898C9186FD0FC00FB607FC6E
:10032000F5CF808185FFF2CFA889B9898C9185FFAF
:10033000EDCFCE010E941601E7CFDF91CF91089556
:1003400080E090E0892B29F00E940C0181110C942F
:10035000000008958E3008F08E508770806480937E
:100360007C0080917A00806480937A0080917A008A
:1003700086FDFCCF809178002091790090E0922B4F
:1003800008953FB7F8948091AD019091AE01A0918E
:10039000AF01B091B00126B5A89B05C02F3F19F061
:1003A0000196A11DB11D3FBFBA2FA92F982F8827F5
:1003B000820F911DA11DB11DBC01CD0142E0660F50
:1003C000771F881F991F4A95D1F708950895FC015A
:1003D000808508958F929F92AF92BF92CF92DF92C5
:1003E000EF92FF92CF93DF93EC018DA1823009F45D
:1003F00075C028F4882351F0813089F1DCC1833045
:1004000009F494C0843009F4B3C0D5C12A813B817A
:100410002830310538F0C9010897069730F0E6E238
:10042000F0E005C0E9E2F0E002C0E3E2F0E0908134
:100430002E30310514F02E5002C02770332781E092
:1004400001C0880F2A95EAF7892301F581E08DA381
:100450000E94C10169877A878B879C87ACC12A81FA
:100460003B8128303105A0F0C9010897069798F024
:10047000E6E2F0E090812E30310584F02E5081E0EC
:1004800001C0880F2A95EAF7892359F01DA293C16C
:10049000E9E2F0E0EFCFE3E2F0E0ECCF27703327C2
:1004A000EECF0E94C1016D877E878F87988BC984AC
:1004B000DA84EB84FC84AB01BC014C195D096E0944
:1004C0007F098E819F810A97A0E0B0E04817590705
:1004D0006A077B0708F46FC182E09CC02A813B81D8
:1004E0002830310538F0C9010897069730F0E6E268
:1004F000F0E005C0E9E2F0E002C0E3E2F0E0908164
:100500002E30310514F02E5002C02770332781E0C1
:1005100001C0880F2A95EAF7892309F074C00E9468
:10052000C1016D877E878F87988B45C12A813B816A
:100530002830310538F0C9010897069730F0E6E217
:10054000F0E005C0E9E2F0E002C0E3E2F0E0908113
:100550002E30310514F02E5002C02770332781E071
:1005600001C0880F2A95EAF7892309F055C08ECF7C
:10057000C98CDA8CEB8CFC8C0E94C1016C157D055A
:100580008E059F0508F417C14C815D81898D9A8D78
:10059000AB8DBC8D840F951FA11DB11D898F9A8FC6
:1005A000AB8FBC8F2A813B812830310538F0C901DF
:1005B0000897069730F0E6E2F0E005C0E9E2F0E0E7
:1005C00002C0E3E2F0E090812E30310514F02E50AD
:1005D00002C02770332781E001C0880F2A95EAF70F
:1005E00089239E8D2D8D882309F444C0FE01E20FDE
:1005F000F11D61E070E0092E01C0660F0A94EAF770
:1006000082A1682B44C00E94C101698B7A8B8B8BBD
:100610009C8B83E08DA3CFC00E94C1016D8B7E8B2C
:100620008F8B988F89889A88AB88BC882E813F8170
:10063000AB01BC01481959096A097B0969018CE3BE
:10064000C81AD108E12CF12C4C155D056E057F050B
:1006500008F4B1C044E04DA3D501C401C296A11D68
:10066000B11D820F931FA11DB11D898F9A8FAB8F72
:10067000BC8FA1C0FE01E20FF11D61E070E0092E08
:1006800001C0660F0A94EAF7609582A1682362A30D
:100690009F5F983010F49E8F8EC01E8E2F5F233088
:1006A00010F42D8F88C01D8E1DA281E08887EAA1DD
:1006B0008F8D90E08E1B91099C0197FF04C022272B
:1006C0003327281B390B6BA17CA1203431054CF05A
:1006D00028A130E0261B31092C5F3F4F293031051E
:1006E00090F09C012C5F3F4F29303105A8F428A1E0
:1006F00030E0261B310937FF03C0319521953109C0
:10070000203431054CF029A130E0271B31092C5F42
:100710003F4F29303105C0F00496099708F048C0D2
:1007200088A190E0861B91090496099708F040C0C3
:1007300089A190E0871B910997FF03C0919581954E
:10074000910980349105A4F142375105D9F068F43C
:100750004037510529F14137510551F583E790E0C4
:100760009D838C8388E993E021C04337510589F04C
:1007700044375105E9F482E790E09D838C8380E95A
:1007800093E014C081E790E09D838C8388E893E038
:100790000DC080E790E09D838C8380E893E006C0E5
:1007A00084E790E09D838C8380EA93E09F838E832F
:1007B000EF8F68A379A3DF91CF91FF90EF90DF9047
:1007C000CF90BF90AF909F908F900895FC011086BE
:1007D0001186128613861486158616861786108A49
:1007E000118A128A138A148A158A168A178A108E19
:1007F000118E128E138E148E158E168E12A213A2C7
:1008000014A215A2089587E008950895FC01848537
:1008100008950895CF93DF93EC011B8281E08A83D2
:100820001C860E94C1016C837D838E839F83DF9130
:10083000CF91089586E0089581E00895CF93DF93E6
:10084000EC018A810E94AA019595879595958795D7
:100850008D83DF91CF910895FC0115820895FC01ED
:1008600084810895FC0165830895FC01838194814E
:10087000892B29F0878190850196908787838385CE
:1008800094850196948783878581968101969683C6
:1008900085838081811104C081859285019603C082
:1008A000818592850197928781878781908583854D
:1008B0009485858196818185928508950E94BA1CD0
:1008C000FC01808191810C94581B0F931F93CF934F
:1008D000DF93EC0188819981009729F02A813B817F
:1008E0002617370788F48B016F5F7F4F0E94F01B3C
:1008F000009761F0998388831B830A832C813D8153
:10090000232B11F4FC01108281E001C080E0DF9113
:10091000CF911F910F910895EF92FF920F931F9324
:10092000CF93DF93EC017B018A01BA010E94650439
:100930002881398181110DC02115310519F0C901B6
:100940000E94581B198218821D821C821B821A82E7
:1009500006C01D830C83B701C9010E94D11CCE01C2
:10096000DF91CF911F910F91FF90EF900895EF923B
:10097000FF920F931F93CF93DF93CDB7DEB76197AD
:100980000FB6F894DEBF0FBECDBF8C01CB01F801CE
:1009900011821082138212821582148250E09E010D
:1009A0002F5F3F4F7901B9010E94C817F7010190ED
:1009B0000020E9F73197AF014E195F09B701C8016F
:1009C0000E948C0461960FB6F894DEBF0FBECDBFB7
:1009D000DF91CF911F910F91FF90EF900895CF93EA
:1009E000DF93EC0184E090E00E94C31AFC011082C6
:1009F000118212828D818383CF01DF91CF9108957F
:100A0000CF93DF93EC0184E090E00E94C31AFC01D5
:100A100010828F8D818388A1828389A18383CF01F6
:100A2000DF91CF910895CF93DF93EC0184E090E0C4
:100A30000E94C31AFC01108211821282888583836E
:100A4000CF01DF91CF9108951F920F920FB60F92B1
:100A500011242F933F934F935F936F937F938F93C3
:100A60009F93AF93BF93EF93FF938BEA92E00E9423
:100A70001601FF91EF91BF91AF919F918F917F915F
:100A80006F915F914F913F912F910F900FBE0F90FB
:100A90001F9018951F920F920FB60F9211242F934B
:100AA0008F939F93EF93FF93E091BB02F091BC0271
:100AB0008081E091C102F091C20282FD12C090815A
:100AC0008091C4028F5F8F732091C502821751F00D
:100AD000E091C402F0E0E555FD4F958F8093C4028C
:100AE00001C08081FF91EF919F918F912F910F9085
:100AF0000FBE0F901F90189590E0FC01E853FF4F38
:100B00003491FC01EC54FF4F2491FC01E056FF4F5F
:100B1000E491EE2309F43BC0332339F1333091F0F3
:100B200038F43130A9F0323001F584B58F7D12C030
:100B3000373091F03830A1F03430B9F48091800032
:100B40008F7D03C0809180008F77809380000DC0DF
:100B500084B58F7784BD09C08091B0008F7703C0C2
:100B60008091B0008F7D8093B000F0E0EE0FFF1F0A
:100B7000EA56FF4FA591B4918FB7F894EC916111AB
:100B800003C020952E2301C02E2B2C938FBF0895D8
:100B9000CF92DF92EF92FF920F931F93CF93DF9349
:100BA000EC018A81882309F474C00E94C1010C8180
:100BB0001D812E813F81DC01CB01801B910BA20B9B
:100BC000B30B81339547A105B10508F421C12A85EE
:100BD0003B852830310548F0C9010897069750F049
:100BE000E7E2F0E0A7E2B0E009C0EAE2F0E0AAE262
:100BF000B0E004C0E4E2F0E0A4E2B0E09C912E306A
:100C0000310514F02E5002C02770332781E001C057
:100C1000880F2A95EAF7892B808361E08A850E94F4
:100C20007C058FE190E00197F1F760E08A850E94F2
:100C30007C052A853B852830310548F0C901089795
:100C4000069750F4E4E2F0E0A4E2B0E009C0EAE282
:100C5000F0E0AAE2B0E004C0E7E2F0E0A7E2B0E032
:100C60004C912E30310514F02E5002C027703327DE
:100C700081E090E001C0880F2A95EAF780958423EF
:100C800080830E94C1016C837D838E839F831A823F
:100C9000BFC00E94C1010C811D812E813F81DC01FA
:100CA000CB01801B910BA20BB30B813A9648A1405C
:100CB000B10508F087C02B818A859B85222309F422
:100CC00084C08830910548F09C01285031092630B5
:100CD000310530F0E6E2F0E005C0E9E2F0E002C004
:100CE000E3E2F0E020818E30910514F08E5002C0D6
:100CF0008770992791E001C0990F8A95EAF7892FAB
:100D0000822309F085C00E94C1010C811D812E81C2
:100D10003F816B017C01C01AD10AE20AF30AA701E4
:100D20009601A0EDB4E80E94371920E834E84EE1BE
:100D300050E00E949B1A2E50310937FD03C03987BD
:100D4000288702C019861886FE013D96CE014D9671
:100D5000DF0112962D913C9113972D933D93A81787
:100D6000B907B9F7888599859E8F8D8FCE014F96EB
:100D700021913191318B208BE817F907C9F7FE01DA
:100D800080E090E00196DF0191969C0129303105C9
:100D900089F0478D50A16D917C91119746175707A7
:100DA0002CF470A3678F11965C934E932F5F3F4F87
:100DB0001296ECCF32968930910521F78FA198A534
:100DC0009987888781E08C8723C08830910548F017
:100DD0009C01285031092630310530F0E6E2F0E080
:100DE00005C0E9E2F0E002C0E3E2F0E020818E30ED
:100DF000910514F08E5002C08770992791E001C0D0
:100E0000990F8A95EAF7892F822311F081E08B836D
:100E1000DF91CF911F910F91FF90EF90DF90CF90D6
:100E20000895CF93DF9390E0FC01EC54FF4F2491A1
:100E3000FC01E056FF4F8491882361F190E0880F18
:100E4000991FFC01E457FF4FC591D491FC01EA566C
:100E5000FF4FA591B491611109C09FB7F8948881A3
:100E6000209582238883EC912E230BC0623061F49D
:100E70009FB7F8943881822F809583238883EC91E3
:100E80002E2B2C939FBF06C08FB7F894E8812E2B92
:100E900028838FBFDF91CF9108951F93CF93DF9366
:100EA000182FEB0161E00E941107209711F460E018
:100EB00004C0CF3FD10539F461E0812FDF91CF919C
:100EC0001F910C947C05E12FF0E0E853FF4FE49173
:100ED000E330F9F048F4E130B9F0E230A1F584B53F
:100EE000806284BDC8BD34C0E730E9F0E83019F154
:100EF000E43049F580918000806280938000D09337
:100F00008B00C0938A0024C084B5806884BDC7BDAF
:100F10001FC080918000806880938000D0938900FA
:100F2000C093880015C08091B00080688093B000A5
:100F3000C093B3000DC08091B00080628093B00078
:100F4000C093B40005C0C038D1050CF0B5CFAFCF09
:100F5000DF91CF911F9108958F929F92AF92BF9290
:100F6000CF92DF92EF92FF926B017C010E94C10150
:100F70004B015C01C114D104E104F104F1F00E94C1
:100F8000C101DC01CB0188199909AA09BB09883E76
:100F90009340A105B10570F321E0C21AD108E10820
:100FA000F10888EE880E83E0981EA11CB11CC114C4
:100FB000D104E104F10419F7DDCFFF90EF90DF9049
:100FC000CF90BF90AF909F908F9008951F920F92F7
:100FD0000FB60F9211242F933F938F939F93AF934C
:100FE000BF938091480390914903A0914A03B09127
:100FF0004B033091AC0123E0230F2D3720F40196F1
:10100000A11DB11D05C026E8230F0296A11DB11D2B
:101010002093AC018093480390934903A0934A0323
:10102000B0934B038091AD019091AE01A091AF01BF
:10103000B091B0010196A11DB11D8093AD019093B7
:10104000AE01A093AF01B093B001BF91AF919F915A
:101050008F913F912F910F900FBE0F901F90189579
:101060001F920F920FB60F9211242F933F934F931D
:101070005F936F937F938F939F93AF93BF93EF9300
:10108000FF93E0910201F09103010995FF91EF9127
:10109000BF91AF919F918F917F916F915F914F9190
:1010A0003F912F910F900FBE0F901F9018951F9298
:1010B0000F920FB60F9211242F933F934F935F938C
:1010C0006F937F938F939F93AF93BF93EF93FF9310
:1010D000E0910001F09101010995FF91EF91BF911D
:1010E000AF919F918F917F916F915F914F913F91C0
:1010F0002F910F900FBE0F901F9018951F920F9277
:101100000FB60F9211242F933F934F935F936F93DA
:101110007F938F939F93AF93BF93EF93FF938091B0
:10112000B1018F5F8093B1018091B2012091B10133
:1011300090E0FC01EE0FFF1F8E0F9F1FFC01E05798
:10114000FD4F818182130FC08091B20190E0FC01BC
:10115000EE0FFF1F8E0F9F1FFC01E057FD4F828196
:101160008093B20065C08091B2012091B10190E0FE
:10117000FC01EE0FFF1F8E0F9F1FFC01E057FD4F7C
:101180008181821708F054C08091B20190E0FC0187
:10119000EE0FFF1F8E0F9F1FFC01E057FD4F808158
:1011A00085FF10C08091B20190E0FC01EE0FFF1F9F
:1011B0008E0F9F1FFC01E057FD4F808160E08F7113
:1011C0000E947C058091B2018F5F8093B2011092E2
:1011D000B1011092B2008091B201882319F180917F
:1011E000B2018930F8F48091B20190E0FC01EE0F79
:1011F000FF1F8E0F9F1FFC01E057FD4F808185FF71
:1012000017C08091B20190E0FC01EE0FFF1F8E0F1E
:101210009F1FFC01E057FD4F808161E08F710E94AC
:101220007C0506C08091B201893010F01092B201A5
:10123000FF91EF91BF91AF919F918F917F916F91AE
:101240005F914F913F912F910F900FBE0F901F9084
:101250001895CF93DF93FC0182E491E09183808322
:101260001186128613861486158616861786108AAE
:10127000118A128A138A148A158A168A178A108E7E
:10128000118E128E138E148E158E168E178E10A23E
:1012900011A212A213A214A215A217A216A273835E
:1012A00062836830710548F0CB010897069750F4C7
:1012B000A4E2B0E0C4E2D0E009C0AAE2B0E0CAE231
:1012C000D0E004C0A7E2B0E0C7E2D0E028816E30F1
:1012D000710514F06E5002C06770772781E090E0CE
:1012E00001C0880F6A95EAF7809582238C9382E784
:1012F00090E09583848380E993E097838683DF91F0
:10130000CF910895CF93DF93FC0182E391E0918325
:10131000808381E0828311861086148682E19F019A
:10132000235F3F4FD901C82F1D92CA95E9F7EF01FE
:101330006F96DE011D928A95E9F773876287F9013E
:1013400011921192EC17FD07D9F7DF91CF91089513
:10135000CF93DF93FC01EB0182E291E091838083E4
:10136000158273836283448360E08C2F0E9411078F
:10137000C131D105A1F044F4CF30D10569F06097B7
:10138000B9F461E087E010C0C231D10559F063972C
:1013900079F461E08CE008C061E084E005C061E0C0
:1013A00088E002C061E08BE0DF91CF910C941107DF
:1013B000DF91CF910895CF93DF93EC0148836A8347
:1013C000698361110AC061E088890E947C0561E03F
:1013D0008F85DF91CF910C947C0541110BC0698101
:1013E00084E0689FB001112488890E944D0760E065
:1013F00070E00AC060E070E088890E944D07698152
:1014000084E0689FB00111248F85DF91CF910C9407
:101410004D07CF93DF93EC01198261E088890E9428
:101420007C0561E08F85DF91CF910C947C058FEB7B
:1014300091E00E9435048091C2019091C301892BF3
:10144000F1F02091C6013091C7018091C2019091C5
:10145000C3012817390798F01092D4011092D301D4
:101460001092C3011092C20180ED91E00E94090A1E
:101470008FEB91E00E94090A82E08093BE010895FB
:1014800080ED91E00E9435048091D3019091D401C8
:10149000892BF1F02091D7013091D8018091D301AF
:1014A0009091D4012817390798F01092D401109226
:1014B000D3011092C3011092C20180ED91E00E940D
:1014C000090A8FEB91E00E94090A82E08093BE0135
:1014D0000895009769F0FC0101900020E9F7319729
:1014E000AF01481B590BBC018BEA92E00C94A000A1
:1014F00080E090E00895E09150032FEF2E0F283008
:10150000F8F48E3E22E092073CF0893B2BE09207F4
:101510002CF088EB9BE002C08EEE92E00897F0E0A2
:101520009C01220F232F221F330BAF01440F551FA5
:10153000E40FF51FE057FD4F2183880F80958283CC
:101540000895E091AB02F091AC020190F081E02DA2
:101550006DE28BEA92E009940F931F93CF93DF9390
:101560008C01C0E0D0E0F801EC0FFD1F6491662310
:1015700071F0E091AB02F091AC020190F081E02DAE
:101580008BEA92E00995892B11F02196ECCFCE01E0
:10159000DF91CF911F910F910895EF92FF920F93DA
:1015A0001F93CF93DF93FC01248135816115710571
:1015B00011F480E019C041155105A9F07B01EC013F
:1015C0008A01020F131FB8010E946504882389F362
:1015D000288139818C819D81B701820F931F0E94E0
:1015E000D11C1D830C8381E0DF91CF911F910F915E
:1015F000FF90EF900895CF93DF93EC016115710593
:1016000061F0FB0101900020E9F73197AF01461B23
:10161000570B0E94CD0A81110CC0888199810097D7
:1016200011F00E94581B198218821D821C821B8295
:101630001A82CE01DF91CF910895CF93DF93EC0111
:10164000FB0144815581608171810E94CD0A811125
:101650000CC088819981009711F00E94581B198253
:1016600018821D821C821B821A82CE01DF91CF91CB
:1016700008950F931F93CF93DF93CDB7DEB76E9787
:101680000FB6F894DEBF0FBECDBF00ED11E0F8013C
:10169000618572854AE0CE0149960E94B704F8013F
:1016A000638574854AE0CE0143960E94B704F80131
:1016B000638174814AE0CE010D960E94B704F8015F
:1016C000678170854AE0CE0107960E94B7041A82AE
:1016D00019821C821B821E821D824AE050E060E655
:1016E00071E0CE0101960E948C04BE01695F7F4FBC
:1016F000CE0101960E941D0B6BE671E00E94FB0A71
:10170000BE01635F7F4F0E941D0B63E771E00E9483
:10171000FB0ABE016D5E7F4F0E941D0B6AE771E000
:101720000E94FB0ABE01675E7F4F0E941D0B65E8A9
:1017300071E00E94FB0AFC01448155816081718146
:101740008BEA92E00E94A000CE0101960E94600404
:10175000CE0107960E946004CE010D960E9460049F
:10176000CE0143960E946004CE0149960E94600417
:101770000FEB11E0F801618572854AE0CE014996D0
:101780000E94B704F801638574854AE0CE01439650
:101790000E94B704F801638174814AE0CE010D967E
:1017A0000E94B704F801678170854AE0CE01079670
:1017B0000E94B7041A8219821C821B821E821D821B
:1017C0004BE050E067E871E0CE0101960E948C0486
:1017D000BE01695F7F4FCE0101960E941D0B6BE633
:1017E00071E00E94FB0ABE01635F7F4F0E941D0BE8
:1017F00063E771E00E94FB0ABE016D5E7F4F0E94AD
:101800001D0B6AE771E00E94FB0ABE01675E7F4F15
:101810000E941D0B65E871E00E94FB0AFC014481F7
:101820005581608171818BEA92E00E94A000CE0117
:1018300001960E946004CE0107960E946004CE01CA
:101840000D960E946004CE0143960E946004CE0172
:1018500049960E9460046E960FB6F894DEBF0FBEE4
:10186000CDBFDF91CF911F910F9108958F929F92DD
:10187000AF92BF92CF92DF92EF92FF920F931F939E
:10188000CF93DF9363E28BEA92E00E94370180916D
:10189000D7019091D801692F8BEA92E00E9437011D
:1018A0006091D7017091D8018BEA92E00E943701D4
:1018B0008091C6019091C701692F8BEA92E00E9446
:1018C00037016091C6017091C7018BEA92E00E94D6
:1018D00037018091DB019091DC01692F8BEA92E066
:1018E0000E9437016091DB017091DC018BEA92E08C
:1018F0000E9437018091CA019091CB01692F8BEA38
:1019000092E00E9437016091CA017091CB018BEA8D
:1019100092E00E943701C3EBD1E08E01D8018D9196
:101920009D918D01DC01ED91FC910084F185E02D0C
:1019300009957C0144E050E0BC018BEA92E00E94F2
:10194000A000E114F10419F0C7010E94581BB1E096
:101950000D3B1B0719F78EE00E94AA01959587950C
:1019600095958795682F8BEA92E00E94370103EBEB
:1019700011E0F80180819181DC01ED91FC910190F1
:10198000F081E02D099586508230B0F0F801808119
:101990009181DC01ED91FC910280F381E02D0995AC
:1019A000F80180819181DC01ED91FC910480F58149
:1019B000E02D40E060E009950E5F1F4FB1E00D3B68
:1019C0001B07B9F643EBE42E41E0F42E10E0F701DB
:1019D00080819181DC01ED91FC910190F081E02DFD
:1019E0000995873079F48091BD0118130AC0F70179
:1019F00080819181DC01ED91FC910280F381E02DE9
:101A000009951F5FB2E0EB0EF11CEDEBEE16E1E085
:101A1000FE06E9F60E94C101111109C08091BD01C5
:101A20008F5F181709F459C08093BD0158C033EB7C
:101A3000C32E31E0D32EE12CF12C00E0D6018D91A4
:101A40009D916D01DC01ED91FC910190F081E02D03
:101A500009958730C9F58091BD01081710F40F5F13
:101A600033C00E94C1014B015C010E94C101C7014A
:101A7000880F991FFC01ED54FE4F6F01D6018D9127
:101A80009C91DC01ED91FC910680F781E02D099598
:101A90008111C4CFD6018D919C91DC01ED91FC9117
:101AA0000480F581E02D412F6E2D09950E94C10122
:101AB000DC01CB0188199909AA09BB098131974238
:101AC000A105B105D8F2AACFBFEFEB1AFB0AE5E0FA
:101AD000EE16F10409F0B2CFA1CF1092BD018881BA
:101AE0009981DC01ED91FC910190F081E02D099547
:101AF0008630A1F488819981DC01ED91FC9106800A
:101B0000F781E02D0995882349F088819981DC01CE
:101B1000ED91FC910280F381E02D09952296B1E0D0
:101B2000CD3BDB07E1F6DF91CF911F910F91FF9045
:101B3000EF90DF90CF90BF90AF909F908F900895DF
:101B4000CF93DF93CDB7DEB7A8970FB6F894DEBF7B
:101B50000FBECDBF789484B5826084BD84B58160AA
:101B600084BD85B5826085BD85B5816085BD809168
:101B70006E00816080936E001092810080918100E0
:101B800082608093810080918100816080938100D8
:101B9000809180008160809380008091B10084609A
:101BA0008093B1008091B00081608093B0008091FB
:101BB0007A00846080937A0080917A0082608093BA
:101BC0007A0080917A00816080937A0080917A0017
:101BD000806880937A001092C10015E0E12E12E037
:101BE000F12E00E010E0C8010E942119D7018D9369
:101BF0007D010F5F1F4F02331105A9F7E5E0F2E009
:101C0000CF018550924021912D32D1F70196E6E720
:101C1000F2E0DC01AB5FBD4F2C9101962D3211F04B
:101C20002193F7CFE1E6F2E0DC01AB5FBD4F2C91F1
:101C300001962D3211F02193F7CFECE4F2E0DC01B4
:101C4000AB5FBD4F2C9101962D3211F02193F7CF50
:101C5000FC01EB5FFD4FA7E3B2E0819190ED980F9F
:101C60009A3010F48D93F9CF63E971E086E792E042
:101C70000E94C81C892B69F465E971E081E692E055
:101C80000E94C81C892B29F410928C0210928B029E
:101C900024C067E971E086E792E00E94C81C892BA6
:101CA000B1F465E971E081E692E00E94C81C892BDD
:101CB00019F481E090E00DC069E971E081E692E0FD
:101CC0000E94C81C892B19F482E090E002C08FE0CA
:101CD00097E290938C0280938B02E091BB02F0918B
:101CE000BC0282E08083E091B702F091B8021082DA
:101CF000E091B902F091BA0280E180831092C302B0
:101D0000E091BF02F091C00286E08083E091BD02C5
:101D1000F091BE02808180618083E091BD02F091EC
:101D2000BE02808188608083E091BD02F091BE0296
:101D3000808180688083E091BD02F091BE02808145
:101D40008F7D808380918100886080938100809165
:101D5000E101811123C080E090E03BE027E5FC0138
:101D6000E057FD4F34832583039688319105B9F7F9
:101D70008EE3809391021092B2011092B101109201
:101D800070001092B00082E08093B1001092B20017
:101D900081E087BB809370008093E10180915003C4
:101DA000882399F061E08DE00E941107E0915003D3
:101DB000F0E0CF01880F991FE80FF91FE057FD4FA2
:101DC0008081807E8D608062808384EF91E00E94BC
:101DD0007B0A10928D021092D0011092D10110E274
:101DE0001093D2011092D4011092D3011092D60117
:101DF0001092D5011092DE011092DD011092D801EF
:101E00001092D7018AE08093DF0189E08093E0019E
:101E100061E08AE00E94110761E08091E0010E9488
:101E200011071092BF011092C0011093C1011092CE
:101E3000C3011092C2011092C5011092C401109208
:101E4000CD011092CC011092C7011092C60186E01C
:101E50008093CE0185E08093CF0161E086E00E940F
:101E6000110761E08091CF010E94110780E49AE0A0
:101E7000909303018093020180916900837F8460C5
:101E800080936900E99A87E19AE090930101809339
:101E90000001809169008C7F816080936900E89ADD
:101EA0001092E4011092E5011092E6011092E70110
:101EB0001092E8011092E9011092EA011092EB01F0
:101EC00084EF91E00E9421198093E20181117AC090
:101ED0008BE991E00E94690A64E670E080E090E09E
:101EE0000E94AC078BEA92E00E94DE00182F8BEA7A
:101EF00092E00E94DE008BEA92E00E94DE008BEA14
:101F000092E00E94DE0068EE73E080E090E00E94C4
:101F1000AC07133409F056C08FE991E00E94690ABA
:101F200085EA91E00E94690A64E670E080E090E052
:101F30000E94AC078BEA92E00E94DE008BEA92E0FE
:101F40000E94DE00182F8BEA92E00E94DE008BEAEE
:101F500092E00E94DE0064E670E080E090E00E9483
:101F6000AC0761E0113409F58AE00E947C0564E663
:101F700070E080E090E00E94AC0760E08AE00E94A0
:101F80007C0584EF91E00E942119813329F061E3FF
:101F900084EF91E00E94291988EA91E00E94690A81
:101FA00085EA91E00E94690A0DC089E00E947C05E3
:101FB00060ED77E080E090E00E94AC0760E089E0AF
:101FC0000E947C0586E090E00E94C31A8C0141E0EB
:101FD0006FE070E00E94A8091093B4010093B30170
:101FE00086E090E00E94C31A8C0141E060E170E05D
:101FF0000E94A8091093B6010093B50186E090E015
:102000000E94C31A8C0141E061E170E00E94A809BE
:102010001093B8010093B70186E090E00E94C31AC4
:102020008C0141E062E170E00E94A8091093BA01BE
:102030000093B90186E090E00E94C31A8C0141E050
:1020400063E170E00E94A8091093BC010093BB01FA
:102050002FB7F8948091480390914903A0914A03C7
:10206000B0914B032FBF40914C0350914D036091B1
:102070004E0370914F03841B950BA60BB70B813D4C
:102080009740A105B10540F080ED91E00E94090A5A
:102090008FEB91E00E94090A6091D5017091D60101
:1020A0000091C4011091C501C0901401D090150198
:1020B000E0901601F090170180E090E00E94021875
:1020C0004B015C01B80180E090E00E940218A7017A
:1020D00096010E9463189B01AC01C501B4010E94E6
:1020E000961A1816D4F46091D5017091D60100911A
:1020F000C4011091C50180E090E00E9402184B01DC
:102100005C01B80180E090E00E9402189B01AC01E4
:10211000C701B6010E94631819C06091C401709193
:10212000C5010091D5011091D60180E090E00E9498
:1021300002189B01AC01C701B6010E9463184B0154
:102140005C01B80180E090E00E9402189B01AC01A4
:10215000C501B4010E9488190E94671A8091BE01CE
:1021600062307105B8F02091DB013091DC01232B46
:1021700089F02091CA013091CB01232B59F0909125
:102180008F02992339F090918E02992319F08823B8
:1021900009F4C0C4823041F480ED91E00E94090A44
:1021A0008FEB91E00E94090A8BEA92E00E94000105
:1021B000892B09F428C18BEA92E00E94DE00AC0171
:1021C0009FB7F894009148031091490320914A0366
:1021D00030914B039FBF00934C0310934D0320930A
:1021E0004E0330934F0390918D0291111DC19A01BE
:1021F00033272436310509F40FC1B4F421363105F3
:1022000009F407C144F42032310539F12132310596
:1022100009F4FCC0F8C02236310509F4FAC02336AF
:10222000310509F4F9C0EFC02736310509F4F4C0CF
:102230004CF42536310509F4EFC02636310509F492
:10224000EBC0E1C02936310509F4E6C00CF4E4C066
:102250002A36310509F4E0C0D6C082EE90E00E9433
:10226000AC0AC0908B02D0908C02E0E1CE16E7E27F
:10227000DE060CF560E38BEA92E00E943701F8EE8F
:10228000CF16F3E0DF06BCF460E38BEA92E00E9435
:10229000370124E6C216D10474F460E38BEA92E0BD
:1022A0000E9437013AE0C316D1042CF460E38BEAB4
:1022B00092E00E9437010D2C000CEE08FF08F7FE9B
:1022C00028C0E091AB02F091AC020190F081E02DCA
:1022D0006DE28BEA92E0099522273327A9012C1998
:1022E0003D094E095F0919A28E010F5D1F4FCA01FA
:1022F000B9012AE030E040E050E00E949B1A605DA6
:10230000D8016E938D01211531054105510579F7ED
:1023100017C0A701960119A28E010F5D1F4FCA01B8
:10232000B9012AE030E040E050E00E949B1A605D75
:10233000F80162938F01211531054105510579F7A7
:10234000C8010E94690A6DE28BEA92E00E9437019F
:102350008CED90E00E94AC0A6DE28BEA92E00E9464
:10236000370186E792E00E94690A0E94A10AE1E62D
:10237000F2E001900020E9F731978F0101561240F9
:102380000530110544F460E38BEA92E00E943701C6
:102390000F5F1F4FF5CF81E692E00E94690A0E940D
:1023A000A10AECE4F2E001900020E9F731978F01F7
:1023B0000C5412400530110544F460E38BEA92E0BE
:1023C0000E9437010F5F1F4FF5CF8CE492E00E940F
:1023D000690A0E94A10AE7E3F2E001900020E9F710
:1023E00031978F01075312400431110544F460E323
:1023F0008BEA92E00E9437010F5F1F4FF5CF87E312
:1024000092E00E94690A03EB11E057C385E092E075
:10241000F8CF4093040225C082E080938D02109291
:10242000030240930402EFCF923041F590910302F2
:10243000E92FF0E0E151FE4F408381E0890F809366
:102440000302E09104024E2F50E0FA01E356F10935
:10245000E830F105C0F6EC5CFF4F0C94BD1A8230F9
:1024600090F283E080938D02CECF8430D0F7CBCF33
:102470008530B8F7C8CF8111F4CFC5CF933019F6A6
:10248000843209F017C3E09104028E2F90E0FC0122
:10249000E156F109EA30F10508F00CC3E45CFF4FA6
:1024A0000C94BD1A1092EE010091EF011091F00111
:1024B0001092BE01003420F00054EE24EA9401C0D2
:1024C000E12C103420F01054FF24FA9401C0F12CB8
:1024D000602F70E080E090E00E9402184B015C01E8
:1024E000612F70E080E090E00E9402189B01AC0137
:1024F000C501B4010E94F519609314017093150190
:10250000809316019093170100938F0210938E020F
:10251000E092ED01F092EC0120E030E040E85FE372
:102520000E94FD17882369F020E030E040EA50E483
:102530002093100130931101409312015093130125
:102540000CC080E090E0A0E4B0E480931001909390
:102550001101A0931201B0931301802F90E090938A
:10256000DE018093DD01812F90E09093CD01809377
:10257000CC0101110AC0111108C01092D6011092AD
:10258000D5011092C5011092C4014E2D602F80ED2F
:1025900091E00E94DB094F2D612F8FEB91E00E94AB
:1025A000DB0986C22091EF0160ED620F9091F0018E
:1025B00010ED190F603420F060E9620F4FEF01C099
:1025C00040E0103420F010E9190F0FEF01C000E0D7
:1025D00080ED91E00E94DB09402F612F8FEB91E0AD
:1025E0000E94DB092EC08091EF0190E0982F882790
:1025F0002091F001820F911D1092D8011092D70105
:102600009093D4018093D3011092C7011092C60118
:102610009093C3018093C2014BC28091EF0180531C
:1026200090E01092D8011092D7019093D40180933A
:10263000D3011092C7011092C6019093C3018093F9
:10264000C2010E94390B36C281E08093EE010091F5
:10265000EF011091F001E090F1018091F2011092F0
:10266000BE011092D6011092D5011092C5011092B0
:10267000C401003420F00054CC24CA9401C0C12C01
:10268000103420F01054DD24DA9401C0D12C9EEFD8
:10269000900F923120F09EEF910F923138F520E0AB
:1026A00030E040E751E420930C0130930D0140935A
:1026B0000E0150930F0123E333E343EB5FE32093D9
:1026C00008013093090140930A0150930B0120E067
:1026D00030E040E050E42093040130930501409342
:1026E00006015093070114E104E15AC09FEE900FD8
:1026F0009D3020F09FEE910F9D3028F420E030E0D7
:1027000040E751E40CC092EE900F943120F092EE2D
:10271000910F9431E8F420E030E040EA50E4209357
:102720000C0130930D0140930E0150930F0123E3F0
:1027300033E343EB5FE320930801309309014093B7
:102740000A0150930B0120E030E040E050E420C04B
:10275000123310F4023320F12DEC3CEC4CEC5EE330
:1027600020930C0130930D0140930E0150930F0103
:102770002DEC3CEC4CEC5DE3209308013093090117
:1027800040930A0150930B0120E030E040EA50E40E
:1027900020930401309305014093060150930701F3
:1027A000F12CFE2CEE24E80EF11C602F70E080E08E
:1027B00090E00E9402184B015C01612F70E080E004
:1027C00090E00E9402189B01AC01C501B4010E9477
:1027D000F51960931401709315018093160190937D
:1027E0001701C092ED01D092EC0100938F0210937B
:1027F0008E02802F90E09093DE018093DD01812F87
:1028000090E09093CD018093CC014C2D602F80ED12
:1028100091E00E94DB094D2D612F8FEB91E00E942A
:10282000DB091092D8011092D701F092D401E09206
:10283000D3011092C7011092C601F092C301E09239
:10284000C20136C11091EF0110FF02C061E001C06A
:1028500060E084E00E947C0511FF02C061E001C0DD
:1028600060E087E00E947C0512FF02C061E001C0C9
:1028700060E088E00E947C0513FF02C061E001C0B7
:1028800060E08BE00E947C0514FF02C061E001C0A3
:1028900060E08CE00E947C050BC11092BD0183EBCF
:1028A000C82E81E0D82E9FEEE92E91E0F92E00E0AF
:1028B00010E0D6018D919D916D010E94581BF7018A
:1028C00041917F01463009F44FC020F0473009F4B0
:1028D0008FC0DDC00230110519F124F4013011055B
:1028E00099F006C00330110539F10430110581F16A
:1028F00086E090E048A70E94C31A5C0148A56FE0FB
:1029000070E00E94A8098BC086E090E048A70E9472
:10291000C31A5C0148A560E170E00E94A80945C0A7
:1029200086E090E048A70E94C31A5C0148A561E1D7
:1029300070E00E94A8098BC086E090E048A70E9442
:10294000C31A5C0148A562E170E00E94A8098DC02D
:1029500086E090E048A70E94C31A5C0148A563E1A5
:1029600070E00E94A8098FC00230110519F124F40B
:102970000130110589F006C00330110529F104303A
:10298000110561F181E390E00E94C31A5C0164E0EB
:1029900070E00E94820943C081E390E00E94C31A64
:1029A0005C0167E070E00E948209B092B601A092DB
:1029B000B5016DC081E390E00E94C31A5C0168E03C
:1029C00070E00E94820943C081E390E00E94C31A34
:1029D0005C016BE070E00E94820947C081E390E0F7
:1029E0000E94C31A5C016CE070E00E9482094BC037
:1029F0000230110519F124F401301105A9F006C0C7
:102A00000330110549F104301105A1F188E290E08D
:102A10000E94C31A5C0164E070E00E942909B09230
:102A2000B401A092B30133C088E290E00E94C31ABF
:102A30005C0167E070E00E942909B7CF88E290E06E
:102A40000E94C31A5C0168E070E00E942909B092FC
:102A5000B801A092B7011BC088E290E00E94C31A9F
:102A60005C016BE070E00E942909B092BA01A0926B
:102A7000B9010DC088E290E00E94C31A5C016CE0CD
:102A800070E00E942909B092BC01A092BB010F5FC7
:102A90001F4F0530110509F00CCF0AC08091EF01DE
:102AA000F5E08F9FC00111248C509E4F0E947B0A3D
:102AB0000E94360C10928D02A6CCD8018D919C916B
:102AC000DC01ED91FC910190F081E02D09958630BB
:102AD000C1F4F80180819181DC01ED91FC910680C7
:102AE000F781E02D099581110CC0F8018081918159
:102AF000DC01ED91FC910480F581E02D40E060E087
:102B000009950E5F1F4FB1E00D3B1B07B1F60E9408
:102B1000A0019ECA6091C4017091C5010091D501C8
:102B20001091D60180E090E00E9402189B01AC0158
:102B3000C701B6010E9463186B017C01B80180E0F7
:102B400090E00E9402189B01AC01C701B6010E94EF
:102B500088192B013C01E091CC01F091CD01FFA33C
:102B6000EEA31EA12090DD013090DE01022D8091A8
:102B7000EE01811181C0A3019201C301B2010E9443
:102B800063184B015C01EE24E394F12C20E030E06B
:102B9000A901C301B2010E94961A181614F0E12C83
:102BA000F12CCC24C394D12C20E030E0A901C30146
:102BB000B2010E94FD1787FD02C0C12CD12CB701C4
:102BC0006C197D09072E000C880B990B0E940418C4
:102BD0009B01AC01C501B4010E9463184B015C016B
:102BE00020E030E0A9010E9463182091E8013091B3
:102BF000E9014091EA015091EB010E9489196AA311
:102C00007BA38CA39DA32091E4013091E501409129
:102C1000E6015091E701C501B4010E94881920E046
:102C200030E040EE50E40E9463186B017C0120E02C
:102C300030E040EF51E4C501B4010E9463189B01EC
:102C4000AC016AA17BA18CA19DA10E9489199B0165
:102C5000AC01C701B6010E9489196B017C012AA150
:102C60003BA14CA15DA12093E8013093E901409381
:102C7000EA015093EB0188C0A3019201C301B201A4
:102C80000E9463184B015C01EE24E394F12C20E0D8
:102C900030E0A901C301B2010E94961A181614F07F
:102CA000E12CF12CCC24C394D12C20E030E0A901FC
:102CB000C301B2010E94FD1787FD02C0C12CD12CB7
:102CC000B7016C197D09072E000C880B990B0E9427
:102CD00004189B01AC01C501B4010E9463184B01AB
:102CE0005C0120E030E0A9010E9463182091E80116
:102CF0003091E9014091EA015091EB010E9489195C
:102D00006AA37BA38CA39DA32091E4013091E501EC
:102D10004091E6015091E701C501B4010E94881974
:102D2000209108013091090140910A0150910B0155
:102D30000E9463186B017C0120910C0130910D0100
:102D400040910E0150910F01C501B4010E9463181A
:102D50009B01AC016AA17BA18CA19DA10E94891954
:102D60009B01AC01C701B6010E9489196B017C016E
:102D70008AA19BA1ACA1BDA18093E8019093E90138
:102D8000A093EA01B093EB018092E4019092E501F7
:102D9000A092E601B092E70120E030E0A901C30172
:102DA000B2010E94FD1787FF1FC0C701B6019058EE
:102DB0000E94671A062F6093E301EE24E394F12C3E
:102DC00020E030E0A901C301B2010E94961A181652
:102DD00014F0E12CF12C91E0E91AF108A22D0E9DDE
:102DE000A01911240A2F2AC0C701B6010E94671A30
:102DF000162F6093E301EE24E394F12C20E030E001
:102E0000A901C301B2010E94961A181614F0E12C10
:102E1000F12CCC24C394D12C20E030E0A901C301D3
:102E2000B2010E94FD1787FD02C0C12CD12CEC1805
:102E3000FD08BEA11E9DB00D11241B2F8091EE0137
:102E400081111AC0C0901001D0901101E0901201C0
:102E5000F0901301C701B6019058A30192010E949E
:102E6000961A87FF01E0A7019601C301B2010E94F3
:102E7000961A87FD1CC01AC0C0900401D0900501AD
:102E8000E0900601F0900701C701B6019058A30138
:102E900092010E94961A18160CF401E0A7019601FF
:102EA000C301B2010E94961A18160CF411E0409169
:102EB000ED01602F80ED91E00E94DB094091EC0173
:102EC000612F8FEB91E00E94DB096EC91092AE0278
:102ED0001092AD0288EE93E0A0E0B0E08093AF02E4
:102EE0009093B002A093B102B093B20282E591E058
:102EF0009093AC028093AB0285EC90E09093B80283
:102F00008093B70284EC90E09093BA028093B90268
:102F100080EC90E09093BC028093BB0281EC90E047
:102F20009093BE028093BD0282EC90E09093C00229
:102F30008093BF0286EC90E09093C2028093C1021E
:102F40001092C4021092C5021092C6021092C702DB
:102F500080915103883030F48F5F809351038093C8
:102F6000500302C0109250032FB7F8948091480389
:102F700090914903A0914A03B0914B032FBF8093D6
:102F80004C0390934D03A0934E03B0934F030895C9
:102F90004532510520F4423010F00C94D317FB0158
:102FA0001082CB010895BB27FB015527AA27880F64
:102FB000991FAA1FA41710F0A41B83955051B9F7AD
:102FC000A05DAA3308F0A95DA193009779F7B1112C
:102FD000B1931192CB010C94ED17DC01FC01672F2A
:102FE00071917723E1F7329704C07C916D937083E0
:102FF0006291AE17BF07C8F308950E943F1808F406
:1030000081E00895E89409C097FB3EF4909580957F
:10301000709561957F4F8F4F9F4F9923A9F0F92F9E
:1030200096E9BB279395F695879577956795B7951C
:10303000F111F8CFFAF4BB0F11F460FF1BC06F5F02
:103040007F4F8F4F9F4F16C0882311F096E911C014
:10305000772321F09EE8872F762F05C0662371F035
:1030600096E8862F70E060E02AF09A95660F771F49
:10307000881FDAF7880F9695879597F90895990F25
:103080000008550FAA0BE0E8FEEF16161706E80732
:10309000F907C0F012161306E407F50798F0621B53
:1030A000730B840B950B39F40A2661F0232B242B28
:1030B000252B21F408950A2609F4A140A6958FEF47
:1030C000811D811D08950E9476180C94E7180E94B6
:1030D000D91838F00E94E01820F0952311F00C94D4
:1030E000D0180C94D61811240C941B190E94F818AF
:1030F00070F3959FC1F3950F50E0551F629FF0014B
:10310000729FBB27F00DB11D639FAA27F00DB11D63
:10311000AA1F649F6627B00DA11D661F829F2227EC
:10312000B00DA11D621F739FB00DA11D621F839F73
:10313000A00D611D221F749F3327A00D611D231F49
:10314000849F600D211D822F762F6A2F11249F5797
:1031500050409AF0F1F088234AF0EE0FFF1FBB1F9A
:10316000661F771F881F91505040A9F79E3F510559
:1031700080F00C94D0180C941B195F3FE4F3983E38
:10318000D4F3869577956795B795F795E7959F5F03
:10319000C1F7FE2B880F911D9695879597F9089595
:1031A00097F99F6780E870E060E008959FEF80ECFA
:1031B000089500240A94161617061806090608959D
:1031C00000240A9412161306140605060895092E03
:1031D0000394000C11F4882352F0BB0F40F4BF2B72
:1031E00011F460FF04C06F5F7F4F8F4F9F4F0895B2
:1031F00057FD9058440F551F59F05F3F71F04795A8
:10320000880F97FB991F61F09F3F79F0879508958C
:10321000121613061406551FF2CF4695F1DF08C0AB
:10322000161617061806991FF1CF869571056105C8
:1032300008940895E894BB2766277727CB0197F970
:103240000895F999FECF92BD81BDF89A992780B56E
:103250000895262FF999FECF1FBA92BD81BD20BDDA
:103260000FB6F894FA9AF99A0FBE019608950E9443
:103270007919A59F900DB49F900DA49F800D911D6D
:10328000112408952F923F924F925F926F927F92F6
:103290008F929F92AF92BF92CF92DF92EF92FF9266
:1032A0000F931F93CF93DF93CDB7DEB7CA1BDB0B12
:1032B0000FB6F894DEBF0FBECDBF09942A883988B7
:1032C00048885F846E847D848C849B84AA84B984BE
:1032D000C884DF80EE80FD800C811B81AA81B981CA
:1032E000CE0FD11D0FB6F894DEBF0FBECDBFED01DE
:1032F0000895A29FB001B39FC001A39F700D811DCF
:103300001124911DB29F700D811D1124911D0895EE
:103310005058BB27AA270E94A0190C94E7180E94B6
:10332000D91838F00E94E01820F039F49F3F19F4C2
:1033300026F40C94D6180EF4E095E7FB0C94D01804
:10334000E92F0E94F81858F3BA1762077307840729
:10335000950720F079F4A6F50C941A190EF4E0956F
:103360000B2EBA2FA02D0B01B90190010C01CA013F
:10337000A0011124FF27591B99F0593F50F4503EEA
:1033800068F11A16F040A22F232F342F4427585FDC
:10339000F3CF469537952795A795F0405395C9F7F4
:1033A0007EF41F16BA0B620B730B840BBAF09150AC
:1033B000A1F0FF0FBB1F661F771F881FC2F70EC04B
:1033C000BA0F621F731F841F48F48795779567951E
:1033D000B795F7959E3F08F0B0CF9395880F08F00A
:1033E0009927EE0F9795879508950E94091A0C94D6
:1033F000E7180E94E01858F00E94D91840F029F40C
:103400005F3F29F00C94D01851110C941B190C94A7
:10341000D6180E94F81868F39923B1F3552391F355
:10342000951B550BBB27AA2762177307840738F033
:103430009F5F5F4F220F331F441FAA1FA9F335D090
:103440000E2E3AF0E0E832D091505040E695001C44
:10345000CAF72BD0FE2F29D0660F771F881FBB1FFE
:10346000261737074807AB07B0E809F0BB0B802DDC
:10347000BF01FF2793585F4F3AF09E3F510578F008
:103480000C94D0180C941B195F3FE4F3983ED4F3CE
:10349000869577956795B795F7959F5FC9F7880FDC
:1034A000911D9695879597F90895E1E0660F771F2E
:1034B000881FBB1F621773078407BA0720F0621BBF
:1034C000730B840BBA0BEE1F88F7E09508950E94EA
:1034D000001988F09F5798F0B92F9927B751B0F08D
:1034E000E1F0660F771F881F991F1AF0BA95C9F788
:1034F00014C0B13091F00E941A19B1E008950C94F3
:103500001A19672F782F8827B85F39F0B93FCCF3A5
:10351000869577956795B395D9F73EF49095809504
:10352000709561957F4F8F4F9F4F08950E943F1870
:1035300008F48FEF0895A1E21A2EAA1BBB1BFD0110
:103540000DC0AA1FBB1FEE1FFF1FA217B307E40782
:10355000F50720F0A21BB30BE40BF50B661F771FDA
:10356000881F991F1A9469F76095709580959095BA
:103570009B01AC01BD01CF010895EE0FFF1F059027
:10358000F491E02D0994CF93DF938230910510F4EC
:1035900082E090E0E0915403F091550320E030E0A8
:1035A000C0E0D0E0309711F14081518148175907B0
:1035B000C0F04817590761F482819381209719F070
:1035C0009B838A832BC0909355038093540326C01A
:1035D0002115310519F04217530718F49A01BE015D
:1035E000DF01EF010280F381E02DDCCF21153105F1
:1035F00009F1281B390B2430310590F412968D9176
:103600009C9113976115710521F0FB0193838283CF
:1036100004C09093550380935403FD01329644C037
:10362000FD01E20FF31F81939193225031092D93F5
:103630003C933AC02091520330915303232B41F421
:1036400020911A0130911B013093530320935203B0
:1036500020911801309119012115310541F42DB740
:103660003EB740911C0150911D01241B350BE09188
:103670005203F0915303E217F307A0F42E1B3F0B04
:103680002817390778F0AC014E5F5F4F24173507D4
:1036900048F04E0F5F1F50935303409352038193A2
:1036A000919302C0E0E0F0E0CF01DF91CF91089567
:1036B0000F931F93CF93DF93009709F48CC0FC0105
:1036C0003297138212820091540310915503011511
:1036D000110581F420813181820F931F20915203C3
:1036E000309153032817390779F5F0935303E0938A
:1036F000520371C0D80140E050E0AE17BF0750F44C
:1037000012962D913C911397AD012115310509F1C8
:10371000D901F3CF9D01DA01338322836081718166
:10372000860F971F8217930769F4EC01288139816E
:10373000260F371F2E5F3F4F318320838A819B8165
:1037400093838283452B29F4F0935503E09354032C
:1037500042C01396FC93EE931297ED014991599153
:103760009E01240F351FE217F30771F480819181C8
:10377000840F951F029611969C938E93828193815C
:1037800013969C938E931297E0E0F0E0D801129686
:103790008D919C911397009719F0F8018C01F6CF49
:1037A0008D919C9198012E5F3F4F820F931F209126
:1037B0005203309153032817390769F4309729F4DD
:1037C000109255031092540302C013821282109378
:1037D000530300935203DF91CF911F910F910895EE
:1037E000A0E0B0E0E6EFFBE10C944619EC01009795
:1037F00021F4CB010E94C31AB8C0FC01E60FF71FE9
:103800009C0122503109E217F30708F4ACC0D9013A
:103810000D911C91119706171707B0F0053011058F
:1038200008F49FC0C80104978617970708F499C049
:1038300002501109061B170B019311936D937C9392
:10384000CF010E94581B8DC05B01A01AB10A4C0128
:10385000800E911EA0915403B091550340E050E0BA
:10386000E12CF12C109709F44AC0A815B905D1F53F
:103870006D907C901197630182E0C80ED11CCA1430
:10388000DB0480F1A3014A195B096A0182E0C80EDA
:10389000D11C1296BC9012971396AC91B5E0CB1642
:1038A000D10440F0B282A38351834083D9016D9348
:1038B0007C930AC00E5F1F4FC301800F911FF90157
:1038C00091838083EB2DFA2FE114F10431F0D701BD
:1038D0001396FC93EE93129744C0F0935503E09334
:1038E00054033FC08D919C9111974817590708F4D4
:1038F000AC017D0112960D90BC91A02DB3CF8091AB
:1039000052039091530388159905E1F44617570720
:10391000C8F48091180190911901009741F48DB776
:103920009EB740911C0150911D01841B950BE81717
:10393000F907C8F4F0935303E0935203F90171833C
:1039400060830FC0CB010E94C31A7C01009759F01D
:10395000A801BE010E94BF1CCE010E94581BC701D6
:1039600004C0CE0102C080E090E0CDB7DEB7EEE04B
:103970000C94621981E090E0F8940C94D81CFB013F
:10398000DC0102C001900D9241505040D8F70895DB
:10399000FB01DC018D91019080190110D9F3990B85
:1039A0000895FB01DC0101900D920020E1F70895DC
:0439B000F894FFCFB9
:1039B400E601E60100004040000080400000504164
:1039C400000040400000803F0000560380000000DB
:1039D40000002F042C041E041C04EF043204000015
:1039E40000001A040A04C8050604130509040000AB
:1039F40000000304E603EA01E701000505040000F2
:103A040000003701A000CF007E010001DE00F200BB
:103A14000A4C3A5B73746570733D00206C696D6980
:103A2400743D0020706174683D00206469737461A2
:103A34006E63653D005D000A523A5B737465707392
:103A4400523D00520031004C003300242424005322
:0C3A5400512C3136000D0A002D2D2D00E4
:00000001FF
