:100000000C947A000C94E0090C940D0A0C94A20054
:100010000C94A2000C94A2000C94A2000C94A200D8
:100020000C94A2000C94A2000C94A2000C94A200C8
:100030000C94A2000C94A2000C94A2000C94A200B8
:100040000C943A0A0C94A2000C947A0D0C94AC0D0A
:100050000C94A2000C94A2000C94A2000C94A20098
:100060000C94A2000C94A2008A078A078A079407BE
:1000700091079407970779081808AE07C907EA0798
:1000800004081B084F087C08303030303700524FCE
:1000900042424F2D0000000008000201000003044E
:1000A00007000000000000000001020408102040CA
:1000B0008001020408102001020408102004040436
:1000C0000404040404020202020202030303030301
:1000D0000300000000230026002900000000002586
:1000E0000028002B0000000000240027002A000048
:1000F0009D05DC0D11241FBECFEFD8E0DEBFCDBFC4
:1001000011E0A0E0B1E0E2E9F9E202C005900D9251
:10011000AC36B107D9F722E0ACE6B1E001C01D92E0
:10012000A13EB207E1F710E0C4EFD0E004C022978F
:10013000FE010E942B12C03FD107C9F70E94200E7A
:100140000C94C7140C9400000895CF93DF93EC0136
:1001500084E090E00E94310EFC0110821182128234
:1001600088858383CF01DF91CF910895CF93DF936B
:10017000EC0184E090E00E94310EFC018C818083D0
:100180008D8181838E8182838F818383CF01DF91F3
:10019000CF9108950F931F93CF93DF938C0184E049
:1001A00090E00E94310EEC01188219821A82F80147
:1001B00082810E94F80ABC01882777FD8095982FDC
:1001C0000E94181120E030EC4FE754E40E947D10AB
:1001D00020E030E048EC52E40E94A4110E94EA10B2
:1001E0006B83CE01DF91CF911F910F910895CF9234
:1001F000DF92EF92FF920F931F93CF93DF93EC0167
:10020000888581111BC01D8A1E8A8A810E940C0C60
:10021000019709F08CC00E94840A09851A852B85F4
:100220003C85601B710B820B930B6B37710581054D
:10023000910508F498C081E0888795C08D8988234E
:1002400009F47CC08A810E940C0C892B09F047C0FC
:100250008E89882369F18885823079F030F4813085
:10026000A9F489898C8382E00BC0833059F08430F3
:1002700069F489898F83188609C089898D8383E011
:10028000888704C089898E8384E0FACF0E94840A1B
:1002900069877A878B879C8781E08D8B1E8A1D8674
:1002A0001E861F86188A198A1A8A1B8A1C8A3FC0D2
:1002B0000E94840A09891A892B893C89C984DA84B5
:1002C000EB84FC840C191D092E093F09060F171F2A
:1002D000281F391F098B1A8B2B8B3C8B28C049890F
:1002E0005A896B897C89452B462B472B51F04D85CC
:1002F0005E856F857889452B462B472B11F081E071
:100300008E8B0E94840A0D851E852F853889C984AD
:10031000DA84EB84FC840C191D092E093F09060FB1
:10032000171F281F391F0D871E872F87388B0E94A4
:10033000840A69877A878B879C8715C08A810E9487
:100340000C0C892B81F40E94840A69877A878B8739
:100350009C8781E08D8B1D861E861F86188A198AD0
:100360001A8A1B8A1C8ADF91CF911F910F91FF90EF
:10037000EF90DF90CF900895CF92DF92EF92FF92AF
:10038000CF93DF93EC018A81882361F10E94900A68
:10039000CC80DD80EE80FF806C197D098E099F097D
:1003A000613375478105910508F463C061E08A8572
:1003B0000E949D0B60E08A850E94D60B89E090E048
:1003C0000E94B30A61E08A850E94D60B60E08A85AC
:1003D0000E949D0B0E94900A6C837D838E839F8375
:1003E0001A8247C00E94900ACC80DD80EE80FF8098
:1003F0006C197D098E099F09613A76488140910503
:1004000038F58B81882371F18A850E940C0C019745
:1004100081F50E94900A9B01AC01CC80DD80EE80CA
:10042000FF802C193D094E095F09A0EDB4E80E9438
:100430002F1220E834E84EE150E00E9407122850C5
:10044000310937FD03C03987288702C0198618860D
:100450001B8281E08A830E94900A6C837D838E8355
:100460009F8307C08A850E940C0C892B11F481E0C0
:100470008B83DF91CF91FF90EF90DF90CF90089525
:10048000DC01ED91FC910190F081E02D0994CF9376
:10049000DF93EC01198260E070E08C850E94150BFF
:1004A00060E070E08B85DF91CF910C94150BCF93BA
:1004B000DF93EC0148836A83698341110BC0698132
:1004C00084E0689FB00111248C850E94150B60E0C8
:1004D00070E00AC060E070E08C850E94150B6981B5
:1004E00084E0689FB00111248B85DF91CF910C943B
:1004F000150BFC0183819481892B29F085819681DC
:10050000019696838583818592850196928781875E
:100510008081811104C087819085019603C0878105
:1005200090850197908787838581968181859285C3
:1005300087819085089585E292E00E9479028091FA
:10054000280290912902892B31F480911B0290910D
:100550001C02892B31F120912A0230912B028091CB
:100560002802909129022817390758F420911D027A
:1005700030911E0280911B0290911C0228173907AE
:1005800080F0109229021092280210921C02109200
:100590001B0285E292E00E94470288E192E00C94FF
:1005A0004702089588E192E00E9479028091280232
:1005B00090912902892B31F480911B0290911C02A9
:1005C000892B31F120912A0230912B02809128024F
:1005D000909129022817390758F420911D02309173
:1005E0001E0280911B0290911C022817390780F08F
:1005F000109229021092280210921C0210921B02E3
:1006000085E292E00E94470288E192E00C94470262
:1006100008950F931F93CF93DF9306EE11E0C0E090
:10062000D0E0CE010E947814F80181938F012196C9
:10063000C233D105B1F7E6EEF1E0CF01865E91401D
:1006400021912D32D1F70196E1EDF1E0DC01AA51C3
:10065000BE4F2C9101962D3211F02193F7CFECEB88
:10066000F1E0DC01AA51BE4F2C9101962D3211F020
:100670002193F7CFA7EAB1E0FC01EA51FE4F2081B8
:100680002D3219F02D930196F7CFA2E9B1E081E068
:1006900090E0EF01C80FD91F2881019630ED320F8D
:1006A0003A3010F42D93F5CF67E071E081ED91E0E1
:1006B0000E944314892B29F569E071E08CEB91E0ED
:1006C0000E944314892BE9F469E071E087EA91E024
:1006D0000E944314892B81F06BE071E087EA91E07E
:1006E0000E944314892B41F06DE071E087EA91E0AC
:1006F0000E944314892B29F41092910110929001C9
:100700003CC06FE071E081ED91E00E944314892BC1
:1007100071F569E071E08CEB91E00E944314892B44
:1007200059F469E071E087EA91E00E944314892B53
:1007300019F481E090E01DC06DE071E08CEB91E078
:100740000E944314892B99F469E071E087EA91E0F3
:100750000E944314892B41F06BE071E087EA91E03D
:100760000E944314892B19F482E090E002C08FE0CC
:1007700097E29093910180939001DF91CF911F9127
:100780000F910895CF93DF93EB0128E431E0FC0152
:10079000318320837383628360E08C2F0E949D0BE2
:1007A000C131D105A1F044F4CF30D10569F0609793
:1007B000B9F461E087E010C0C231D10559F0639708
:1007C00079F461E08CE008C061E084E005C061E09C
:1007D00088E002C061E08BE0DF91CF910C949D0B2B
:1007E000DF91CF910895CF93DF93EC01862F28E519
:1007F00031E03983288318861D861E861F86188A55
:10080000198A1A8A1B8A1C8A1D8A1E8A6A837B831C
:1008100060E00E949D0B0E94840A69877A878B871B
:100820009C871886DF91CF9108951F93CF93DF9314
:100830000E94090326E040E052EC61E070E080E4B1
:1008400092E00E94180DE1E8F0E0808188608083EA
:1008500010923202109225021092260210E210939A
:100860002702109229021092280210922B02109255
:100870002A028AE080933002C1E3D2E089E08883D3
:1008800061E08AE00E949D0B61E088810E949D0BDF
:10089000109218021092190210931A0210921C0260
:1008A00010921B0210921E0210921D0286E080938D
:1008B0002302C4E2D2E085E0888361E086E00E9402
:1008C0009D0B61E088810E949D0B41E050E06BE947
:1008D00072E081E00E94C00941E050E062ED72E008
:1008E00080E00E94C00984E090E00E942F0EEC019D
:1008F0006FE070E00E94C203D0938701C09386012D
:1009000084E090E00E942F0EEC0160E170E00E9414
:10091000C203D0938901C093880184E090E00E94D3
:100920002F0EEC0161E170E00E94C203D0938B01B5
:10093000C0938A0184E090E00E942F0EEC0162E1F6
:1009400070E00E94C203D0938D01C0938C0184E0BB
:1009500090E00E942F0EEC0163E170E00E94C20360
:10096000D0938F01C0938E01DF91CF911F91089595
:10097000CF93DF93CDB7DEB76E970FB6F894DEBF97
:100980000FBECDBF60912C0270912D024AE0CE01C6
:1009900001960E94F80F60912E0270912F024AE09A
:1009A000CE0107960E94F80F6091280270912902EB
:1009B0004AE0CE010D960E94F80F60912A027091D4
:1009C0002B024AE0CE0149960E94F80F61E171E0E6
:1009D000CE0143960E94CA0FBE01675E7F4FCE01D3
:1009E00043960E9450106CE171E00E946310BE01BA
:1009F000635F7F4F0E94501064E271E00E946310B9
:100A0000BE01695F7F4F0E9450106BE271E00E944F
:100A10006310BE016F5F7F4F0E94501066E371E06C
:100A20000E946310BC0180E492E00E949A0ECE0105
:100A300043960E945C0FCE0149960E945C0FCE0146
:100A40000D960E945C0FCE0107960E945C0FCE01AE
:100A500001960E945C0F60911F02709120024AE093
:100A6000CE0101960E94F80F60912102709122023E
:100A70004AE0CE0107960E94F80F60911B02709128
:100A80001C024AE0CE010D960E94F80F60911D02F3
:100A900070911E024AE0CE0149960E94F80F68E369
:100AA00071E0CE0143960E94CA0FBE01675E7F4F80
:100AB000CE0143960E9450106CE171E00E946310D9
:100AC000BE01635F7F4F0E94501064E271E00E949C
:100AD0006310BE01695F7F4F0E9450106BE271E0AE
:100AE0000E946310BE016F5F7F4F0E94501066E34B
:100AF00071E00E946310BC0180E492E00E949A0EB3
:100B0000CE0143960E945C0FCE0149960E945C0F75
:100B1000CE010D960E945C0FCE0107960E945C0FDD
:100B2000CE0101960E945C0F6E960FB6F894DEBF60
:100B30000FBECDBFDF91CF9108950E94840A6093CC
:100B40006C0170936D0180936E0190936F01089515
:100B50000F931F93CF93DF9363E270E080E492E002
:100B60000E94400280912A0290912B02692F80E41A
:100B700092E00E94B30C60912A0270912B0280E4F3
:100B800092E00E94B30C80911D0290911E02692F89
:100B900080E492E00E94B30C60911D0270911E02ED
:100BA00080E492E00E94B30C80912E0290912F027B
:100BB000692F80E492E00E94B30C60912E02709144
:100BC0002F0280E492E00E94B30C80912102909168
:100BD0002202692F80E492E00E94B30C609121020E
:100BE0007091220280E492E00E94B30CC6E8D1E04A
:100BF00089919991DC01ED91FC910280F381E02DC6
:100C000009958C01E0914002F09141020280F3814C
:100C1000E02D44E050E0BC0180E492E0099501152C
:100C2000110519F0C8010E94350EB1E0C039DB078B
:100C3000F9F68EE00E94F80ABC01882777FD8095BE
:100C4000982F0E94181120E030EC4FE754E40E94E6
:100C50007D1020E030E048EC52E40E94A4110E9494
:100C6000E51080E492E0DF91CF911F910F910C94F9
:100C700040028F929F92BF92CF92DF92EF92FF92AB
:100C80000F931F93CF93DF930E94840A00916C010E
:100C900010916D0120916E0130916F01601B710BFD
:100CA000820B930B613D77408105910540F085E211
:100CB00092E00E94470288E192E00E94470280E4AD
:100CC00092E00E94350C892B09F43FC380E492E046
:100CD0000E944E0C8C010E94840A60936C017093F8
:100CE0006D0180936E0190936F01809132028111AA
:100CF000F7C0980133272436310509F4E9C0C4F45C
:100D00002136310509F4E1C054F42032310539F1BE
:100D10002132310509F019C366EE71E0D1C02236E7
:100D2000310509F4D2C02336310509F4D1C00DC311
:100D30002736310509F4CCC04CF42536310509F4C9
:100D4000C7C02636310509F4C3C0FFC228363105B5
:100D500009F4BEC02936310509F4BAC0F6C26EE8FE
:100D600070E080E492E00E94750E80919001909175
:100D700091018031974234F460E370E080E492E0C6
:100D80000E9440028091900190919101883E934091
:100D900034F460E370E080E492E00E9440028091CD
:100DA0009001909191018436910534F460E370E0F4
:100DB00080E492E00E944002809190019091910124
:100DC0000A9734F460E370E080E492E00E9440020D
:100DD00060919001709191014AE050E080E492E0CE
:100DE0000E94540F6DE270E080E492E00E944002A5
:100DF00068E870E080E492E00E94750E6DE270E0B9
:100E000080E492E00E94400261ED71E080E492E0B3
:100E10000E94A80E6DE280E492E00E94AA0ECCEB44
:100E2000D1E009900020E9F72197CC5BD140C53093
:100E3000D10544F460E370E080E492E00E94400257
:100E40002196F5CF6CEB71E080E492E00E94A80E51
:100E50006DE280E492E00E94AA0EC7EAD1E0099018
:100E60000020E9F72197C75AD140C530D10544F495
:100E700060E370E080E492E00E9440022196F5CFAA
:100E800067EA71E080E492E00E94A80E6DE280E4DF
:100E900092E00E94AA0EC2E9D1E009900020E9F791
:100EA0002197C259D140C431D10544F460E370E0C8
:100EB00080E492E00E9440022196F5CF62E971E061
:100EC00080E492E00E94A80E40C20093700125C009
:100ED00082E080933202109271010093700135C25A
:100EE000823041F520917101E22FF0E0EE58FE4F83
:100EF00000832F5F209371018091700190E0FC01CD
:100F0000E356F109E730F10508F01FC2EC5CFF4F32
:100F10000C942912223008F418C283E08093320224
:100F200014C22430D0F711C22111F7CF0EC22530E0
:100F3000A0F70BC2833009F008C2043209F003C2E3
:100F40008091700190E0FC01E156F109E930F10572
:100F500008F0F9C1E55CFF4F0C9429126091720111
:100F6000C0917301603418F060544FEF01C040E04D
:100F7000C03418F0C054DFEF01C0D0E085E292E049
:100F80000E9457024D2F6C2F88E192E00E94570279
:100F9000B0C09091720160ED690F80917301C0ED56
:100FA000C80F603420F060E9690F4FEF01C040E0E6
:100FB000C03420F0C0E9C80FDFEF01C0D0E085E207
:100FC00092E00E9457024D2F6C2F88E192E00E9420
:100FD00057022EC08091720190E0982F88272091AF
:100FE0007301820F911D10922B0210922A0290938E
:100FF00029028093280210921E0210921D029093E3
:101000001C0280931B0275C080917201805390E096
:1010100010922B0210922A029093290280932802A8
:1010200010921E0210921D0290931C0280931B02CC
:101030000E94B80488C16091720110917301C0913F
:10104000740180917501603418F060544FEF01C055
:1010500040E0103418F010540FEF01C000E0D0E071
:10106000DC2FCC27C80FD11D85E292E00E945702E9
:10107000402F612F88E192E00E94570210922B02CC
:1010800010922A02D0932902C093280210921E02C5
:1010900010921D02D0931C02C0931B022AC0C09163
:1010A0007201C0FF02C061E001C060E084E00E9404
:1010B000D60BC1FF02C061E001C060E087E00E9482
:1010C000D60BC2FF02C061E001C060E088E00E9470
:1010D000D60BC3FF02C061E001C060E08BE00E945C
:1010E000D60BC4FF02C061E001C060E08CE00E944A
:1010F000D60B0E94A80527C186E8C82E81E0D82E0D
:1011000092E7E92E91E0F92E00E010E0C0E5D1E091
:10111000BB24B394F601819191916F010E94330E2B
:10112000D7018D917D01873009F445C0883009F4DD
:1011300096C0811101C102301105F9F024F401308B
:10114000110589F006C00330110509F104301105BD
:1011500041F184E090E00E942F0E4C016FE070E0BE
:101160000E94C2033FC084E090E00E942F0E4C0119
:1011700060E170E00E94C20343C084E090E00E94FE
:101180002F0E4C0161E170E00E94C20347C084E071
:1011900090E00E942F0E4C0162E170E00E94C203B9
:1011A0004BC084E090E00E942F0E4C0163E170E0A0
:1011B0000E94C2034FC00230110539F124F40130FE
:1011C0001105A9F006C00330110569F104301105BD
:1011D000C1F187E190E00E942F0E4C0164E070E0C5
:1011E0000E94F3039092870180928601A5C087E157
:1011F00090E00E942F0E4C0167E070E00E94F30324
:10120000909289018092880197C087E190E00E94C6
:101210002F0E4C0168E070E00E94F30390928B0166
:1012200080928A0189C087E190E00E942F0E4C01D4
:101230006BE070E00E94F30390928D0180928C012C
:101240007BC087E190E00E942F0E4C016CE070E0C3
:101250000E94F30390928F0180928E016DC0023044
:10126000110591F124F401301105D9F007C00330C4
:101270001105E9F10430110509F44CC08CE090E04F
:101280000E942F0EFC01D183C083B282118610868A
:1012900084E090E093878287F0938701E093860152
:1012A0004BC08CE090E00E942F0EFC01D183C083E4
:1012B000B2821186108687E090E093878287F09350
:1012C0008901E093880138C08CE090E00E942F0EE5
:1012D000FC01D183C083B2821186108688E090E041
:1012E00093878287F0938B01E0938A0125C08CE07D
:1012F00090E00E942F0EFC01D183C083B282118640
:1013000010868BE090E093878287F0938D01E093C5
:101310008C0112C08CE090E00E942F0EFC01D18362
:10132000C083B282118610868CE090E0938782871A
:10133000F0938F01E0938E010F5F1F4F0530110571
:1013400009F0E8CED6CE10923202C6E8D1E08991FB
:101350009991DC01ED91FC910190F081E02D0995CE
:10136000B1E0C039DB0799F7DF91CF911F910F9161
:10137000FF90EF90DF90CF90BF909F908F90089557
:101380008230E8F4E82FF0E0EE0FFF1FED5CFD4F38
:1013900071836083813041F0809169008C7F842B60
:1013A00080936900E89A089580916900440F551F61
:1013B000440F551F837F842B80936900E99A089519
:1013C0001F920F920FB60F9211242F933F934F93BA
:1013D0005F936F937F938F939F93AF93BF93EF939D
:1013E000FF938091330290913402892B29F0E09190
:1013F0003302F09134020995FF91EF91BF91AF91C3
:101400009F918F917F916F915F914F913F912F911C
:101410000F900FBE0F901F9018951F920F920FB64E
:101420000F9211242F933F934F935F936F937F936A
:101430008F939F93AF93BF93EF93FF938091350268
:1014400090913602892B29F0E0913502F091360215
:101450000995FF91EF91BF91AF919F918F917F91EE
:101460006F915F914F913F912F910F900FBE0F9011
:101470001F9018951F920F920FB60F9211242F9361
:101480003F938F939F93AF93BF9380913802909136
:101490003902A0913A02B0913B023091370223E029
:1014A000230F2D3720F40196A11DB11D05C026E89C
:1014B000230F0296A11DB11D20933702809338029D
:1014C00090933902A0933A02B0933B0280913C0280
:1014D00090913D02A0913E02B0913F020196A11D64
:1014E000B11D80933C0290933D02A0933E02B093C5
:1014F0003F02BF91AF919F918F913F912F910F909C
:101500000FBE0F901F9018952FB7F8946091380276
:101510007091390280913A0290913B022FBF089559
:101520003FB7F89480913C0290913D02A0913E0219
:10153000B0913F0226B5A89B05C02F3F19F0019638
:10154000A11DB11D3FBF6627782F892F9A2F620FEB
:10155000711D811D911D42E0660F771F881F991F25
:101560004A95D1F70895019739F0880F991F880F90
:10157000991F02970197F1F70895789484B58260D6
:1015800084BD84B5816084BD85B5826085BD85B527
:10159000816085BDEEE6F0E0808181608083E1E8D6
:1015A000F0E010828081826080838081816080830E
:1015B000E0E8F0E0808181608083E1EBF0E0808111
:1015C00084608083E0EBF0E0808181608083EAE7E3
:1015D000F0E080818460808380818260808380816C
:1015E000816080838081806880831092C10008952B
:1015F0008E3008F08E5087702091060190E4299F6C
:1016000090011124822B80937C0080917A00806469
:1016100080937A0080917A0086FDFCCF80917800DB
:101620002091790090E0922B08951F93CF93DF9340
:10163000182FEB0161E00E949D0B209711F460E0F0
:1016400004C0CF3FD10539F461E0812FDF91CF9104
:101650001F910C94D60BE12FF0E0EB56FF4FE49175
:10166000E330F9F048F4E130B9F0E230A1F584B5A7
:10167000806284BDC8BD34C0E730E9F0E83019F1BC
:10168000E43049F580918000806280938000D0939F
:101690008B00C0938A0024C084B5806884BDC7BD18
:1016A0001FC080918000806880938000D093890063
:1016B000C093880015C08091B00080688093B0000E
:1016C000C093B3000DC08091B00080628093B000E1
:1016D000C093B40005C0C038D1050CF0B5CFAFCF72
:1016E000DF91CF911F910895833081F028F48130EC
:1016F00099F08230A1F008958730A9F08830B9F0D0
:101700008430D1F4809180008F7D03C0809180006F
:101710008F7780938000089584B58F7702C084B559
:101720008F7D84BD08958091B0008F7703C0809134
:10173000B0008F7D8093B0000895CF93DF9390E049
:10174000FC01E755FF4F2491FC01E354FF4F8491C6
:10175000882349F190E0880F991FFC01EB51FF4F5E
:10176000A591B49185529F4FFC01C591D4919FB72B
:10177000611108C0F8948C91209582238C93888104
:1017800082230AC0623051F4F8948C91322F309544
:1017900083238C938881822B888304C0F8948C9156
:1017A000822B8C939FBFDF91CF9108950F931F934E
:1017B000CF93DF931F92CDB7DEB7282F30E0F9012A
:1017C000EB56FF4F8491F901E755FF4F1491F90152
:1017D000E354FF4F04910023C9F0882321F069836B
:1017E0000E94740B6981E02FF0E0EE0FFF1FE552BD
:1017F000FF4FA591B4919FB7F8948C91611103C0EC
:101800001095812301C0812B8C939FBF0F90DF9196
:10181000CF911F910F910895CF93DF93282F30E040
:10182000F901EB56FF4F8491F901E755FF4FD49131
:10183000F901E354FF4FC491CC2391F081110E9430
:10184000740BEC2FF0E0EE0FFF1FEF52FF4FA5914E
:10185000B4912C912D2381E090E021F480E002C02E
:1018600080E090E0DF91CF910895FC01818D228D81
:1018700090E0805C9F4F821B91098F739927089598
:10188000FC01918D828D981731F0828DE80FF11D4A
:10189000858D90E008958FEF9FEF0895FC01918D65
:1018A000828D981761F0828DDF01A80FB11D5D96C2
:1018B0008C91928D9F5F9F73928F90E008958FEF30
:1018C0009FEF089582ED9DE0892B49F080E090E044
:1018D000892B29F00E94D20D81110C9400000895EB
:1018E000FC01848DDF01A80FB11DA35ABF4F2C91BD
:1018F000848D90E001968F739927848FA689B7898C
:101900002C93A089B1898C9180648C93938D848D64
:10191000981306C00288F389E02D80818F7D808333
:101920000895CF93DF93EC01888D8823C9F0EA896D
:10193000FB89808185FD05C0A889B9898C9186FDC8
:101940000FC00FB607FCF5CF808185FFF2CFA889C5
:10195000B9898C9185FFEDCFCE010E94700CE7CF45
:10196000DF91CF910895CF92DF92FF920F931F9353
:10197000CF93DF931F92CDB7DEB76C01DC015B968E
:101980009C915B975C968C915C97981307C05096DE
:10199000ED91FC915197808185FD32C0F601038D58
:1019A00010E00F5F1F4F0F731127F02EF601848D8B
:1019B000F81211C00FB607FCF9CFD6015096ED9181
:1019C000FC915197808185FFF1CFC60169830E9408
:1019D000700C6981EBCF838DE80FF11DE35AFF4F47
:1019E0006083D6015B960C935B975296ED91FC91C8
:1019F000539780818062808381E058968C930DC0DC
:101A0000D6015696ED91FC91579760835096ED91D3
:101A1000FC91519780818064808381E090E00F90F9
:101A2000DF91CF911F910F91FF90DF90CF9008959C
:101A3000BF92CF92DF92EF92FF92CF93DF93EC01B0
:101A40006A017B01B22EE889F98982E08083411521
:101A500081EE580761057105A1F060E079E08DE342
:101A600090E0A70196010E94071221503109410917
:101A700051095695479537952795211580E13807E7
:101A800098F0E889F989108260E874E88EE190E0C6
:101A9000A70196010E9407122150310941095109FD
:101AA0005695479537952795EC85FD853083EE85CE
:101AB000FF852083188EEC89FD89B082EA89FB8935
:101AC000808180618083EA89FB898081886080834E
:101AD000EA89FB89808180688083EA89FB8980812B
:101AE0008F7D8083DF91CF91FF90EF90DF90CF903B
:101AF000BF9008951F920F920FB60F9211242F934B
:101B00008F939F93EF93FF93E0915002F0915102D6
:101B10008081E0915602F091570282FD12C09081BF
:101B2000809159028F5F8F7320915A02821751F072
:101B3000E0915902F0E0E05CFD4F958F80935902EF
:101B400001C08081FF91EF919F918F912F910F9014
:101B50000FBE0F901F9018951F920F920FB60F9205
:101B600011242F933F934F935F936F937F938F93A2
:101B70009F93AF93BF93EF93FF9380E492E00E9413
:101B8000700CFF91EF91BF91AF919F918F917F91D9
:101B90006F915F914F913F912F910F900FBE0F90DA
:101BA0001F90189580E492E00E94350C21E0892B6B
:101BB00009F420E0822F089510924302109242020D
:101BC00088EE93E0A0E0B0E0809344029093450259
:101BD000A0934602B093470280E691E090934102C1
:101BE0008093400285EC90E090934D0280934C02EC
:101BF00084EC90E090934F0280934E0280EC90E052
:101C0000909351028093500281EC90E090935302A4
:101C10008093520282EC90E090935502809354029C
:101C200086EC90E0909357028093560210925902EE
:101C300010925A0210925B0210925C02089508956D
:101C40000E94BD0A0E941F0E0E941504C2E6DCE03D
:101C50000E9439062097E1F30E94620CF9CF0C94A0
:101C600049120C9449120C94E1120C94E112CF9297
:101C7000DF92EF92FF920F931F93CF93DF936C014C
:101C80007A01EB01E60EF71E00E010E0CE15DF054D
:101C900061F06991D601ED91FC910190F081E02D08
:101CA000C6010995080F191FF1CFC801DF91CF9127
:101CB0001F910F91FF90EF90DF90CF9008956115E5
:101CC000710581F0DB010D900020E9F7AD01415075
:101CD0005109461B570BDC01ED91FC910280F38109
:101CE000E02D099480E090E00895EF92FF920F9329
:101CF0001F93CF93DF938C01FB01C0E0D0E0649190
:101D00007F018FEFE81AF80A662361F0D801ED91A0
:101D1000FC910190F081E02DC8010995C80FD91FF1
:101D2000F701EDCFCE01DF91CF911F910F91FF9081
:101D3000EF900895DC01ED91FC91DB0114964D913B
:101D40005C9115976D917C910280F381E02D09944F
:101D50000C945F0EDC01ED91FC910190F081E02D7F
:101D600009948F929F92AF92BF92CF92DF92EF929F
:101D7000FF920F931F93CF93DF93CDB7DEB7A19759
:101D80000FB6F894DEBF0FBECDBF7C01C42EE52F89
:101D9000CB01D22E19A221E02D1510F02AE0D22E6F
:101DA0008E010F5D1F4F8D2C912CA12CB12C6C2D11
:101DB0007E2FA50194010E9407128C2DD29E8019BE
:101DC0001124015011098A3014F4805D01C0895C2E
:101DD000F8018083211531054105510521F0C22EFE
:101DE000E32FCA01E4CFB801C7010E945F0EA1969C
:101DF0000FB6F894DEBF0FBECDBFDF91CF911F911C
:101E00000F91FF90EF90DF90CF90BF90AF909F9099
:101E10008F900895CF92DF92EF92FF920F931F93CE
:101E2000CF93DF93EC016A017B012115310579F431
:101E3000E881F9810190F081E02D642FDF91CF914D
:101E40001F910F91FF90EF90DF90CF9009942A306F
:101E50003105E9F477FF1AC06DE20E94AA0E8C01E9
:101E600044275527BA014C195D096E097F092AE0FC
:101E7000CE010E94B10E800F911FDF91CF911F9173
:101E80000F91FF90EF90DF90CF9008952AE0B70177
:101E9000A601CE01DF91CF911F910F91FF90EF909E
:101EA000DF90CF900C94B10E9A01AB01662757FDDD
:101EB0006095762F0C940A0FFC01808191810C941F
:101EC000E112CF93DF93EC0188819981009711F0A3
:101ED0000E94E112198218821D821C821B821A82C2
:101EE000DF91CF9108950F931F93CF93DF93EC0170
:101EF0008B016F5F7F4F888199810E9470130097DB
:101F000031F0998388831B830A8381E001C080E0DC
:101F1000DF91CF911F910F910895CF93DF93EC0143
:101F200088819981892B29F08A819B81861797075F
:101F300060F4CE010E94730F882341F08C819D8153
:101F4000892B19F4E881F981108281E0DF91CF912A
:101F50000895EF92FF920F931F93CF93DF93EC01BD
:101F60007B018A01BA010E948D0F811104C0CE014C
:101F70000E94610F07C01D830C83B701888199817E
:101F80000E944C14CE01DF91CF911F910F91FF90D1
:101F9000EF900895FC011182108213821282158243
:101FA00014826115710559F0FB0101900020E9F7D9
:101FB000AF0141505109461B570B0C94A90F0895CE
:101FC000CF93DF93EC016115710561F0FB01019086
:101FD0000020E9F7AF0141505109461B570B0E9401
:101FE000A90F02C00E94610FCE01DF91CF91089529
:101FF0000F931F93CF93DF93CDB7DEB761970FB6E3
:10200000F894DEBF0FBECDBF8C01CB01F801118269
:102010001082138212821582148250E0BE016F5F1B
:102020007F4F0E945314BE016F5F7F4FC8010E9413
:10203000E00F61960FB6F894DEBF0FBECDBFDF9103
:10204000CF911F910F910895EF92FF920F931F93DD
:10205000CF93DF93EC017B010C811D81611571052C
:1020600011F480E016C04115510591F0040F151FC1
:10207000B8010E948D0F8823A1F3288139818C81BA
:102080009D81B701820F931F0E944C141D830C8306
:1020900081E0DF91CF911F910F91FF90EF90089514
:1020A000CF93DF93EC01FB01448155816081718105
:1020B0000E942410811103C0CE010E94610FCE0145
:1020C000DF91CF910895CF93DF93EC0161157105F6
:1020D00069F0FB0101900020E9F7AF01415051097F
:1020E000461B570B0E942410811103C0CE010E9491
:1020F000610FCE01DF91CF9108950CD0EBC0E3D0FA
:1021000040F0DAD030F021F45F3F19F0CCC051112B
:1021100015C1CFC0F0D098F39923C9F35523B1F37B
:10212000951B550BBB27AA2762177307840738F046
:102130009F5F5F4F220F331F441FAA1FA9F333D0A5
:102140000E2E3AF0E0E830D091505040E695001C59
:10215000CAF729D0FE2F27D0660F771F881FBB1F15
:10216000261737074807AB07B0E809F0BB0B802DEF
:10217000BF01FF2793585F4F2AF09E3F510568F03B
:1021800092C0DCC05F3FECF3983EDCF38695779518
:102190006795B795F7959F5FC9F7880F911D96953D
:1021A000879597F90895E1E0660F771F881FBB1F99
:1021B000621773078407BA0720F0621B730B840B46
:1021C000BA0BEE1F88F7E095089504D06894B1111A
:1021D000B5C0089598D088F09F5790F0B92F9927EF
:1021E000B751A0F0D1F0660F771F881F991F1AF022
:1021F000BA95C9F712C0B13081F09FD0B1E008950F
:102200009CC0672F782F8827B85F39F0B93FCCF38F
:10221000869577956795B395D9F73EF49095809517
:10222000709561957F4F8F4F9F4F0895E89409C037
:1022300097FB3EF490958095709561957F4F8F4FF9
:102240009F4F9923A9F0F92F96E9BB279395F6950F
:10225000879577956795B795F111F8CFFAF4BB0F8D
:1022600011F460FF1BC06F5F7F4F8F4F9F4F16C0F1
:10227000882311F096E911C0772321F09EE8872F7B
:10228000762F05C0662371F096E8862F70E060E037
:102290002AF09A95660F771F881FDAF7880F9695B0
:1022A000879597F9089597F99F6780E870E060E057
:1022B00008959FEF80EC089500240A9416161706DF
:1022C00018060906089500240A9412161306140627
:1022D00005060895092E0394000C11F4882352F08A
:1022E000BB0F40F4BF2B11F460FF04C06F5F7F4F42
:1022F0008F4F9F4F089557FD9058440F551F59F029
:102300005F3F71F04795880F97FB991F61F09F3FE2
:1023100079F087950895121613061406551FF2CF0B
:102320004695F1DF08C0161617061806991FF1CF5B
:1023300086957105610508940895E894BB27662782
:102340007727CB0197F908950BD0C4CFB5DF28F0DC
:10235000BADF18F0952309F0A6CFABCF1124EECF4A
:10236000CADFA0F3959FD1F3950F50E0551F629FF0
:10237000F001729FBB27F00DB11D639FAA27F00DDE
:10238000B11DAA1F649F6627B00DA11D661F829F05
:102390002227B00DA11D621F739FB00DA11D621FEA
:1023A000839FA00D611D221F749F3327A00D611D07
:1023B000231F849F600D211D822F762F6A2F1124E9
:1023C0009F5750408AF0E1F088234AF0EE0FFF1F3C
:1023D000BB1F661F771F881F91505040A9F79E3F73
:1023E000510570F060CFAACF5F3FECF3983EDCF36D
:1023F000869577956795B795F795E7959F5FC1F7B0
:10240000FE2B880F911D9695879597F90895A1E267
:102410001A2EAA1BBB1BFD010DC0AA1FBB1FEE1F5E
:10242000FF1FA217B307E407F50720F0A21BB30BA9
:10243000E40BF50B661F771F881F991F1A9469F725
:1024400060957095809590959B01AC01BD01CF0181
:102450000895EE0FFF1F0590F491E02D09940E945E
:102460003A12A59F900DB49F900DA49F800D911DD1
:1024700011240895A29FB001B39FC001A39F700DC6
:10248000811D1124911DB29F700D811D1124911D7C
:102490000895CF93DF938230910510F482E090E0AD
:1024A000E091DF02F091E00220E030E0A0E0B0E057
:1024B000309739F14081518148175907B8F04817D2
:1024C000590771F482819381109729F013969C9398
:1024D0008E9312972CC09093E0028093DF0227C066
:1024E0002115310531F04217530718F0A901DB011E
:1024F00001C0EF019A01BD01DF010280F381E02DEF
:10250000D7CF21153105F9F0281B390B24303105BF
:1025100080F48A819B816115710521F0FB01938311
:10252000828304C09093E0028093DF02FE01329622
:1025300044C0FE01E20FF31F8193919322503109B1
:10254000398328833AC02091DD023091DE02232BAB
:1025500041F420910201309103013093DE02209377
:10256000DD0220910001309101012115310541F476
:102570002DB73EB74091040150910501241B350B46
:10258000E091DD02F091DE02E217F307A0F42E1BCA
:102590003F0B2817390778F0AC014E5F5F4F2417C7
:1025A000350748F04E0F5F1F5093DE024093DD0267
:1025B0008193919302C0E0E0F0E0CF01DF91CF91F1
:1025C0000895CF93DF93009709F487C0FC013297F9
:1025D00013821282C091DF02D091E002209781F431
:1025E00020813181280F391F8091DD029091DE0218
:1025F0008217930779F5F093DE02E093DD026DC058
:10260000DE0120E030E0AE17BF0750F412964D9186
:102610005C9113979D014115510509F1DA01F3CF42
:10262000B383A28340815181840F951F8A179B0732
:1026300071F48D919C911197840F951F029691834F
:10264000808312968D919C91139793838283211599
:10265000310529F4F093E002E093DF023EC0D90196
:102660001396FC93EE9312974D915D91A40FB51FB5
:10267000EA17FB0779F480819181840F951F0296F8
:10268000D90111969C938E938281938113969C938A
:102690008E931297E0E0F0E08A819B81009719F019
:1026A000FE01EC01F9CFCE01029628813981820F1B
:1026B000931F2091DD023091DE022817390769F45B
:1026C000309729F41092E0021092DF0202C01382C8
:1026D0001282D093DE02C093DD02DF91CF91089584
:1026E000A0E0B0E0E6E7F3E10C949414EC01CB0138
:1026F000209719F40E944912B8C0FE01E60FF71F97
:102700009E0122503109E217F30708F4ACC0D90149
:102710000D911C91119706171707B8F00530110598
:1027200008F49FC0A801445051094617570708F400
:1027300098C002501109061B170B019311936D935A
:102740007C93CF010E94E1128CC05B01A01AB10AF8
:102750004E01800E911EA091DF02B091E002612C2B
:10276000712C60E070E0109709F449C0A815B90514
:10277000C9F5ED90FC901197670142E0C40ED11CA1
:10278000CA14DB0478F147018A189B08640142E00F
:10279000C40ED11C1296BC9012971396AC91B5E062
:1027A000CB16D10440F0B282A38391828082D901FA
:1027B0008D939C9309C00E5F1F4F0E0D1F1DF901D5
:1027C00011830083EB2DFA2F6115710531F0DB01C8
:1027D0001396FC93EE93129744C0F093E002E093BB
:1027E000DF023FC06D917C9111976616770608F461
:1027F0003B01BD0112960D90BC91A02DB4CF60910C
:10280000DD027091DE0268157905E9F46816790633
:10281000D0F440910001509101014115510541F45E
:102820004DB75EB76091040170910501461B570BCF
:10283000E417F507C0F4F093DE02E093DD02F9013E
:10284000918380830EC00E9449127C01009759F049
:10285000A801BE010E943A14CE010E94E112C701F4
:1028600004C0CE0102C080E090E0CDB7DEB7EEE05C
:102870000C94B014FB01DC0102C001900D92415098
:102880005040D8F70895FB01DC018D91019080192B
:102890000110D9F3990B0895FB01DC0101900D9211
:1028A0000020E1F708954532510520F4423010F040
:1028B0000C945E14FB011082CB010895BB27FB0131
:1028C0005527AA27880F991FAA1FA41710F0A41B29
:1028D00083955051B9F7A05DAA3308F0A95DA19383
:1028E000009779F7B111B1931192CB010C94801438
:1028F000F999FECF92BD81BDF89A992780B50895C8
:10290000DC01FC01672F71917723E1F7329704C056
:102910007C916D9370836291AE17BF07C8F30895E1
:102920002F923F924F925F926F927F928F929F92DF
:10293000AF92BF92CF92DF92EF92FF920F931F93CD
:10294000CF93DF93CDB7DEB7CA1BDB0B0FB6F8947E
:10295000DEBF0FBECDBF09942A88398848885F84BE
:102960006E847D848C849B84AA84B984C884DF802F
:10297000EE80FD800C811B81AA81B981CE0FD11D13
:102980000FB6F894DEBF0FBECDBFED010895F894E9
:02299000FFCF77
:102992000000E10280000152003100320033004C9D
:1029A200000A4C3A5B73746570733D00206C696D6C
:1029B20069743D0020706174683D0020646973741D
:1029C200616E63653D005D000A523A5B7374657027
:1029D20073523D0000000000A400CA000000000085
:1029E200BC01A50000000000F700B60000000000D6
:0C29F200B30C370E350C4E0C400C910C51
:00000001FF
