:100000000C947A000C9499080C94C6080C94A200E5
:100010000C94A2000C94A2000C94A2000C94A200D8
:100020000C94A2000C94A2000C94A2000C94A200C8
:100030000C94A2000C94A2000C94A2000C94A200B8
:100040000C94F3080C94A2000C94290C0C945B0CF7
:100050000C94A2000C94A2000C94A2000C94A20098
:100060000C94A2000C94A200B406B406B406BE061A
:10007000BB06BE06C106B8074207D806F30614073A
:100080002E0745077907A407303030303700524F2C
:1000900042424F2D0000000008000201000003044E
:1000A00007000000000000000001020408102040CA
:1000B0008001020408102001020408102004040436
:1000C0000404040404020202020202030303030301
:1000D0000300000000230026002900000000002586
:1000E0000028002B0000000000240027002A000048
:1000F000A1038B0C11241FBECFEFD8E0DEBFCDBF14
:1001000011E0A0E0B1E0E0EEF6E202C005900D9251
:10011000AA35B107D9F722E0AAE5B1E001C01D92E6
:10012000A83FB207E1F710E0C4EFD0E004C0229787
:10013000FE010E94D210C03FD107C9F70E94CF0C28
:100140000C946E130C940000DC01ED91FC91019075
:10015000F081E02D0994CF93DF93EC01198260E0E8
:1001600070E08C850E94C40960E070E08B85DF91AF
:10017000CF910C94C409CF93DF93EC0148836A8339
:10018000698341110BC0698184E0689FB00111242B
:100190008C850E94C40960E070E00AC060E070E0F5
:1001A0008C850E94C409698184E0689FB001112494
:1001B0008B85DF91CF910C94C409FC0183819481DC
:1001C000892B29F085819681019696838583818587
:1001D00092850196928781878081811104C08781F1
:1001E0009085019603C087819085019790878783CA
:1001F00085819681818592858781908508958CE39C
:1002000092E00E94DD0080913F0290914002892B94
:1002100031F48091320290913302892B31F1209197
:1002200041023091420280913F0290914002281792
:10023000390758F42091340230913502809132020E
:10024000909133022817390780F0109240021092E3
:100250003F0210923302109232028CE392E00E942D
:10026000AB008FE292E00C94AB0008958FE292E035
:100270000E94DD0080913F0290914002892B31F471
:100280008091320290913302892B31F12091410209
:100290003091420280913F02909140022817390725
:1002A00058F42091340230913502809132029091BD
:1002B00033022817390780F01092400210923F0253
:1002C00010923302109232028CE392E00E94AB0053
:1002D0008FE292E00C94AB0008950F931F93CF939D
:1002E000DF930DEF11E0C0E0D0E0CE010E941F13BC
:1002F000F80181938F012196C233D105B1F7EDEF5B
:10030000F1E0CF018D5F914021912D32D1F701961F
:10031000E8EEF1E0DC01A350BE4F2C9101962D32A6
:1003200011F02193F7CFE3EDF1E0DC01A350BE4FD4
:100330002C9101962D3211F02193F7CFAEEBB1E065
:10034000FC01E350FE4F20812D3219F02D930196D0
:10035000F7CFA9EAB1E081E090E0EF01C80FD91F23
:100360002881019630ED320F3A3010F42D93F5CFFD
:100370006CE071E088EE91E00E94EA12892B29F589
:100380006EE071E083ED91E00E94EA12892BE9F4BE
:100390006EE071E08EEB91E00E94EA12892B81F011
:1003A00060E171E08EEB91E00E94EA12892B41F04E
:1003B00062E171E08EEB91E00E94EA12892B29F450
:1003C0001092A8011092A7013CC064E171E088EE90
:1003D00091E00E94EA12892B71F56EE071E083EDE5
:1003E00091E00E94EA12892B59F46EE071E08EEBE5
:1003F00091E00E94EA12892B19F481E090E01DC07F
:1004000062E171E083ED91E00E94EA12892B99F498
:100410006EE071E08EEB91E00E94EA12892B41F0D0
:1004200060E171E08EEB91E00E94EA12892B19F4F1
:1004300082E090E002C08FE097E29093A801809361
:10044000A701DF91CF911F910F9108951F93CF9333
:10045000DF930E946D0126E040E052EC61E070E025
:1004600087E592E00E94C70B61E084E00E944C0A9D
:1004700061E087E00E944C0A61E088E00E944C0A3B
:1004800061E08BE00E944C0A61E08CE00E944C0A23
:10049000E1E8F0E080818860808310924902109248
:1004A0003C0210923D0210E210933E021092400274
:1004B00010923F0210924202109241028AE0809311
:1004C0004702C8E4D2E089E0888361E08AE00E94C4
:1004D0004C0A61E088810E944C0A10922F0210920F
:1004E00030021093310210923302109232021092B5
:1004F00035021092340286E080933A02CBE3D2E0D8
:1005000085E0888361E086E00E944C0A61E0888192
:100510000E944C0A41E050E06FEF70E081E00E94E1
:10052000790841E050E066E371E080E00E947908DC
:10053000E4E7F1E01782168284E090E091878087FB
:10054000118A108A87E090E0938B828B138E128E33
:1005500088E090E0958F848F15A214A28BE090E044
:1005600097A386A317A616A68CE090E091AB80AB6C
:10057000DF91CF911F910895CF93DF93CDB7DEB771
:100580006E970FB6F894DEBF0FBECDBF60914302E9
:10059000709144024AE0CE0101960E949F0E609144
:1005A0004502709146024AE0CE0107960E949F0ED6
:1005B00060913F02709140024AE0CE010D960E9488
:1005C0009F0E60914102709142024AE0CE0149962D
:1005D0000E949F0E66E171E0CE0143960E94710E6B
:1005E000BE01675E7F4FCE0143960E94F70E61E227
:1005F00071E00E940A0FBE01635F7F4F0E94F70EF9
:1006000069E271E00E940A0FBE01695F7F4F0E949C
:10061000F70E60E371E00E940A0FBE016F5F7F4F2B
:100620000E94F70E6BE371E00E940A0FBC0187E5A0
:1006300092E00E94410DCE0143960E94030ECE012E
:1006400049960E94030ECE010D960E94030ECE0124
:1006500007960E94030ECE0101960E94030E609140
:100660003602709137024AE0CE0101960E949F0E39
:1006700060913802709139024AE0CE0107960E94DB
:100680009F0E60913202709133024AE0CE010D96C6
:100690000E949F0E60913402709135024AE0CE01B3
:1006A00049960E949F0E6DE371E0CE0143960E9431
:1006B000710EBE01675E7F4FCE0143960E94F70E1A
:1006C00061E271E00E940A0FBE01635F7F4F0E94EA
:1006D000F70E69E271E00E940A0FBE01695F7F4F69
:1006E0000E94F70E60E371E00E940A0FBE016F5F87
:1006F0007F4F0E94F70E6BE371E00E940A0FBC016E
:1007000087E592E00E94410DCE0143960E94030EC0
:10071000CE0149960E94030ECE010D960E94030E53
:10072000CE0107960E94030ECE0101960E94030E91
:100730006E960FB6F894DEBF0FBECDBFDF91CF919E
:100740000895E4E7F1E0178216823A9681E0E63AEE
:10075000F807C9F70E943D0960935A0170935B0145
:1007600080935C0190935D010895CF93DF9363E2E2
:1007700070E087E592E00E94A40080914102909190
:100780004202692F87E592E00E94620B609141026C
:100790007091420287E592E00E94620B80913402E0
:1007A00090913502692F87E592E00E94620B60917B
:1007B00034027091350287E592E00E94620B8091CD
:1007C000450290914602692F87E592E00E94620BF4
:1007D000609145027091460287E592E00E94620BAB
:1007E0008091380290913902692F87E592E00E944A
:1007F000620B609138027091390287E592E00E94A5
:10080000620B80910601883029F4C0917A01D09161
:100810007B0119C08FE00E94A709BC01882777FDE2
:100820008095982F0E94BF0F20E030EC4FE754E4F2
:100830000E94240F20E030E048EC52E40E944B106C
:100840000E948C0FEB0160E070E087E592E00E946F
:10085000A40060E070E087E592E00E94A40060E000
:1008600070E087E592E00E94A400BE0187E592E077
:100870000E94A40080910701883029F4C09184016E
:10088000D091850119C080E10E94A709BC01882789
:1008900077FD8095982F0E94BF0F20E030EC4FE746
:1008A00054E40E94240F20E030E048EC52E40E941F
:1008B0004B100E948C0FEB0160E070E087E592E046
:1008C0000E94A40060E070E087E592E00E94A4002E
:1008D00060E070E087E592E00E94A400BE0187E539
:1008E00092E00E94A40080910801883029F4C09110
:1008F0008E01D0918F0119C081E10E94A709BC012E
:10090000882777FD8095982F0E94BF0F20E030EC5C
:100910004FE754E40E94240F20E030E048EC52E41A
:100920000E944B100E948C0FEB0160E070E087E5A5
:1009300092E00E94A40060E070E087E592E00E94EF
:10094000A40060E070E087E592E00E94A400BE0190
:1009500087E592E00E94A40080910901883029F483
:10096000C0919801D091990119C082E10E94A70914
:10097000BC01882777FD8095982F0E94BF0F20E04B
:1009800030EC4FE754E40E94240F20E030E048ECC4
:1009900052E40E944B100E948C0FEB0160E070E06B
:1009A00087E592E00E94A40060E070E087E592E0B5
:1009B0000E94A40060E070E087E592E00E94A4003D
:1009C000BE0187E592E00E94A40080910A01883070
:1009D00029F4C091A201D091A30119C083E10E9422
:1009E000A709BC01882777FD8095982F0E94BF0F2B
:1009F00020E030EC4FE754E40E94240F20E030E088
:100A000048EC52E40E944B100E948C0FEB0160E016
:100A100070E087E592E00E94A40060E070E087E566
:100A200092E00E94A40060E070E087E592E00E94FE
:100A3000A400BE0187E592E00E94A4008EE00E941F
:100A4000A709BC01882777FD8095982F0E94BF0FCA
:100A500020E030EC4FE754E40E94240F20E030E027
:100A600048EC52E40E944B100E948C0F87E592E004
:100A7000DF91CF910C94A4004F925F926F927F927E
:100A80008F929F92AF92BF92CF92DF92EF92FF929E
:100A90000F931F93CF93DF930E943D0900915A015A
:100AA00010915B0120915C0130915D01601B710B25
:100AB000820B930B613D77408105910540F08CE3FB
:100AC00092E00E94AB008FE292E00E94AB0087E5CB
:100AD00092E00E94E40A892B09F44EC287E592E075
:100AE0000E94FD0AEC010E943D0960935A01709337
:100AF0005B0180935C0190935D01809149028111BB
:100B000019C19E0133272436310509F40BC1C4F401
:100B10002136310509F4E8C054F42032310571F171
:100B20002132310509F028C26DEF71E0D8C02236BC
:100B3000310509F4DCC02336310509F4EBC01CC2D1
:100B40002736310509F4DEC084F42536310509F471
:100B5000D1C02636310509F00FC282E080934902E8
:100B600010925F01C0935E0107C22836310509F477
:100B7000D1C02936310509F4D5C0FEC16EE870E058
:100B800087E592E00E941C0D8091A7019091A80139
:100B90008031974234F460E370E087E592E00E9490
:100BA000A4008091A7019091A801883E934034F45D
:100BB00060E370E087E592E00E94A4008091A701C5
:100BC0009091A8018436910534F460E370E087E5E4
:100BD00092E00E94A4008091A7019091A8010A9739
:100BE00034F460E370E087E592E00E94A400609135
:100BF000A7017091A8014AE050E087E592E00E94C9
:100C0000FB0D6DE270E087E592E00E94A40068E8C9
:100C100070E087E592E00E941C0D6DE270E087E5D0
:100C200092E00E94A40068EE71E087E592E00E94E5
:100C30004F0D6DE287E592E00E94510DC3EDD1E0CA
:100C400009900020E9F72197C35DD140C530D10557
:100C500044F460E370E087E592E00E94A4002196EE
:100C6000F5CF63ED71E087E592E00E944F0D6DE2F4
:100C700087E592E00E94510DCEEBD1E00990002073
:100C8000E9F72197CE5BD140C530D10544F460E34C
:100C900070E087E592E00E94A4002196F5CF6EEB0C
:100CA00071E087E592E00E944F0D6DE287E592E0EA
:100CB0000E94510DC9EAD1E009900020E9F721977F
:100CC000C95AD140C431D10544F460E370E087E5EE
:100CD00092E00E94A4002196F5CF69EA71E087E5D1
:100CE00092E00E944F0D48C1C0935E0140C0C09386
:100CF0005E013DC082E08093490210925F01C09383
:100D00005E013AC182E08093490210925F01C09374
:100D10005E0132C182E08093490210925F01C0936C
:100D20005E012AC182E08093490210925F01C09364
:100D30005E0122C1823041F520915F01E22FF0E097
:100D4000E05AFE4FC0832F5F20935F0180915E01C8
:100D500090E0FC01E356F109E730F10508F00CC121
:100D6000EC5CFF4F0C94D010223008F405C183E0F6
:100D70008093490201C12430D0F7FEC02111F7CF82
:100D8000FBC02530A0F7F8C0833009F0F5C0C432AD
:100D900009F0F0C080915E0190E0FC01E156F1099C
:100DA000E930F10508F0E6C0E55CFF4F0C94D01087
:100DB00060916001C0916101603418F060544FEFA0
:100DC00001C040E0C03418F0C054DFEF01C0D0E0F3
:100DD0008CE392E00E94BB004D2F6C2F8FE292E0DB
:100DE0000E94BB00C5C09091600160ED690F8091C9
:100DF0006101C0EDC80F603420F060E9690F4FEF6A
:100E000001C040E0C03420F0C0E9C80FDFEF01C0EE
:100E1000D0E08CE392E00E94BB004D2F6C2F8FE25C
:100E200092E00E94BB002EC08091600190E0982F5C
:100E3000882720916101820F911D10924202109229
:100E400041029093400280933F021092350210922B
:100E5000340290933302809332028AC08091600101
:100E6000805390E01092420210924102909340020F
:100E700080933F0210923502109234029093330215
:100E8000809332020E94BC0275C060916001109193
:100E90006101C091620180916301603418F0605477
:100EA0004FEF01C040E0103418F010540FEF01C0B4
:100EB00000E0D0E0DC2FCC27C80FD11D8CE392E0FE
:100EC0000E94BB00402F612F8FE292E00E94BB0086
:100ED0001092420210924102D0934002C0933F020E
:100EE0001092350210923402D0933302C093320232
:100EF0003FC0C0916001C0FF02C061E001C060E07E
:100F000084E00E94850AC1FF02C061E001C060E088
:100F100087E00E94850AC2FF02C061E001C060E074
:100F200088E00E94850AC3FF02C061E001C060E062
:100F30008BE00E94850AC4FF02C061E001C060E04E
:100F40008CE00E94850A14C08091600180930601A4
:100F50008091610180930701809162018093080173
:100F600080916301809309018091640180930A015B
:100F70000E94B5031092490286E0C82E81E0D82E67
:100F8000C4E7D1E000E010E090E8892E94E8992EC3
:100F90009EE1A92EB12CF60181916F01883009F0F4
:100FA0007EC08881882309F444C00E9449094A8090
:100FB0005B806C807D8064197509860997099801AA
:100FC0002C583E4F7901613A76488140910500F5F1
:100FD000F7018181882321F188850E94BB0A01974E
:100FE00009F05DC00E9449099B01AC018A819B8187
:100FF000AC81BD81281B390B4A0B5B0BA0EDB4E81B
:101000000E94D610A50194010E94AE103F832E834A
:101010001882F70111821A821B821C821D823FC036
:1010200088850E94BB0A892BD1F581E0F701818375
:1010300036C08A819B81AC81BD81892B8A2B8B2B09
:1010400079F461E088850E944C0A60E088850E94FE
:10105000850A0E9449096A837B838C839D831FC014
:101060000E9449094A805B806C807D806419750903
:101070008609970969397A438105910580F061E015
:1010800088850E94850A60E088850E944C0A0E943B
:1010900049096A837B838C839D8381E08883065F13
:1010A0001F4F2A960233110509F075CF8091A601D2
:1010B000882339F061E087E00E94850A1092A6013A
:1010C00007C060E087E00E94850A81E08093A60166
:1010D000DF91CF911F910F91FF90EF90DF90CF9014
:1010E000BF90AF909F908F907F906F905F904F9048
:1010F00008958230E8F4E82FF0E0EE0FFF1FE65B82
:10110000FD4F71836083813041F0809169008C7F55
:10111000842B80936900E89A089580916900440FB8
:10112000551F440F551F837F842B80936900E99AD4
:1011300008951F920F920FB60F9211242F933F9391
:101140004F935F936F937F938F939F93AF93BF93CF
:10115000EF93FF9380914A0290914B02892B29F0E3
:10116000E0914A02F0914B020995FF91EF91BF91F6
:10117000AF919F918F917F916F915F914F913F912F
:101180002F910F900FBE0F901F9018951F920F92E6
:101190000FB60F9211242F933F934F935F936F934A
:1011A0007F938F939F93AF93BF93EF93FF93809120
:1011B0004C0290914D02892B29F0E0914C02F09164
:1011C0004D020995FF91EF91BF91AF919F918F9142
:1011D0007F916F915F914F913F912F910F900FBE33
:1011E0000F901F9018951F920F920FB60F92112417
:1011F0002F933F938F939F93AF93BF9380914F0211
:1012000090915002A0915102B091520230914E0241
:1012100023E0230F2D3720F40196A11DB11D05C039
:1012200026E8230F0296A11DB11D20934E02809344
:101230004F0290935002A0935102B09352028091BA
:10124000530290915402A0915502B091560201961A
:10125000A11DB11D8093530290935402A093550297
:10126000B0935602BF91AF919F918F913F912F9173
:101270000F900FBE0F901F9018952FB7F8946091A4
:101280004F027091500280915102909152022FBFF3
:1012900008953FB7F8948091530290915402A09121
:1012A0005502B091560226B5A89B05C02F3F19F0F4
:1012B0000196A11DB11D3FBF6627782F892F9A2F58
:1012C000620F711D811D911D42E0660F771F881FFF
:1012D000991F4A95D1F70895789484B5826084BDAA
:1012E00084B5816084BD85B5826085BD85B581602A
:1012F00085BDEEE6F0E0808181608083E1E8F0E08A
:101300001082808182608083808181608083E0E8B8
:10131000F0E0808181608083E1EBF0E08081846097
:101320008083E0EBF0E0808181608083EAE7F0E099
:1013300080818460808380818260808380818160FD
:1013400080838081806880831092C10008958E30F0
:1013500008F08E50877020910B0190E4299F900136
:101360001124822B80937C0080917A00806480938A
:101370007A0080917A0086FDFCCF809178002091E0
:10138000790090E0922B08951F93CF93DF93182F4D
:10139000EB0161E00E944C0A209711F460E004C068
:1013A000CF3FD10539F461E0812FDF91CF911F91BB
:1013B0000C94850AE12FF0E0EB56FF4FE491E33007
:1013C000F9F048F4E130B9F0E230A1F584B580627B
:1013D00084BDC8BD34C0E730E9F0E83019F1E4302D
:1013E00049F580918000806280938000D0938B00CB
:1013F000C0938A0024C084B5806884BDC7BD1FC067
:1014000080918000806880938000D0938900C09391
:10141000880015C08091B00080688093B000C093B0
:10142000B3000DC08091B00080628093B000C09383
:10143000B40005C0C038D1050CF0B5CFAFCFDF91F7
:10144000CF911F910895833081F028F4813099F075
:101450008230A1F008958730A9F08830B9F0843047
:10146000D1F4809180008F7D03C0809180008F77C0
:1014700080938000089584B58F7702C084B58F7DF6
:1014800084BD08958091B0008F7703C08091B00033
:101490008F7D8093B0000895CF93DF9390E0FC019F
:1014A000E755FF4F2491FC01E354FF4F84918823BB
:1014B00049F190E0880F991FFC01EB51FF4FA59176
:1014C000B49185529F4FFC01C591D4919FB7611192
:1014D00008C0F8948C91209582238C938881822374
:1014E0000AC0623051F4F8948C91322F30958323E6
:1014F0008C938881822B888304C0F8948C91822BF2
:101500008C939FBFDF91CF9108950F931F93CF933B
:10151000DF931F92CDB7DEB7282F30E0F901EB56ED
:10152000FF4F8491F901E755FF4F1491F901E354FE
:10153000FF4F04910023C9F0882321F069830E94A2
:10154000230A6981E02FF0E0EE0FFF1FE552FF4F05
:10155000A591B4919FB7F8948C91611103C0109537
:10156000812301C0812B8C939FBF0F90DF91CF917E
:101570001F910F910895CF93DF93282F30E0F90149
:10158000EB56FF4F8491F901E755FF4FD491F901D4
:10159000E354FF4FC491CC2391F081110E94230AA0
:1015A000EC2FF0E0EE0FFF1FEF52FF4FA591B4912B
:1015B0002C912D2381E090E021F480E002C080E0B6
:1015C00090E0DF91CF910895FC01818D228D90E014
:1015D000805C9F4F821B91098F7399270895FC01AE
:1015E000918D828D981731F0828DE80FF11D858DD8
:1015F00090E008958FEF9FEF0895FC01918D828D0B
:10160000981761F0828DDF01A80FB11D5D968C9156
:10161000928D9F5F9F73928F90E008958FEF9FEF61
:10162000089581E89CE0892B49F080E090E0892BC7
:1016300029F00E94810C81110C9400000895FC0196
:10164000848DDF01A80FB11DA35ABF4F2C91848D4B
:1016500090E001968F739927848FA689B7892C9380
:10166000A089B1898C9180648C93938D848D98131B
:1016700006C00288F389E02D80818F7D80830895E4
:10168000CF93DF93EC01888D8823C9F0EA89FB8929
:10169000808185FD05C0A889B9898C9186FD0FC020
:1016A0000FB607FCF5CF808185FFF2CFA889B989F5
:1016B0008C9185FFEDCFCE010E941F0BE7CFDF910C
:1016C000CF910895CF92DF92FF920F931F93CF9304
:1016D000DF931F92CDB7DEB76C01DC015B969C9166
:1016E0005B975C968C915C97981307C05096ED9130
:1016F000FC915197808185FD32C0F601038D10E089
:101700000F5F1F4F0F731127F02EF601848DF81213
:1017100011C00FB607FCF9CFD6015096ED91FC91A0
:101720005197808185FFF1CFC60169830E941F0B0D
:101730006981EBCF838DE80FF11DE35AFF4F608382
:10174000D6015B960C935B975296ED91FC91539763
:1017500080818062808381E058968C930DC0D60191
:101760005696ED91FC91579760835096ED91FC91C0
:10177000519780818064808381E090E00F90DF91B9
:10178000CF911F910F91FF90DF90CF900895BF925E
:10179000CF92DF92EF92FF92CF93DF93EC016A0139
:1017A0007B01B22EE889F98982E08083411581EEC0
:1017B000580761057105A1F060E079E08DE390E0E4
:1017C000A70196010E94AE1021503109410951092B
:1017D0005695479537952795211580E1380798F05C
:1017E000E889F989108260E874E88EE190E0A70149
:1017F00096010E94AE1021503109410951095695B8
:10180000479537952795EC85FD853083EE85FF85D7
:101810002083188EEC89FD89B082EA89FB8980815A
:1018200080618083EA89FB89808188608083EA897E
:10183000FB89808180688083EA89FB8980818F7D34
:101840008083DF91CF91FF90EF90DF90CF90BF909A
:1018500008951F920F920FB60F9211242F938F931A
:101860009F93EF93FF93E0916702F091680280816C
:10187000E0916D02F0916E0282FD12C09081809124
:1018800070028F5F8F7320917102821751F0E09187
:101890007002F0E0E95AFD4F958F8093700201C00D
:1018A0008081FF91EF919F918F912F910F900FBEAB
:1018B0000F901F9018951F920F920FB60F92112440
:1018C0002F933F934F935F936F937F938F939F9348
:1018D000AF93BF93EF93FF9387E592E00E941F0BB6
:1018E000FF91EF91BF91AF919F918F917F916F91F8
:1018F0005F914F913F912F910F900FBE0F901F90CE
:10190000189587E592E00E94E40A21E0892B09F40A
:1019100020E0822F089510925A021092590288EE08
:1019200093E0A0E0B0E080935B0290935C02A09310
:101930005D02B0935E028DE491E090935802809333
:10194000570285EC90E0909364028093630284ECEC
:1019500090E0909366028093650280EC90E0909313
:1019600068028093670281EC90E090936A02809312
:10197000690282EC90E090936C0280936B0286EC9B
:1019800090E090936E0280936D021092700210921C
:1019900071021092720210927302089508950E94CB
:1019A0006C090E94CE0C0E942602C1E1DBE00E947D
:1019B0003C052097E1F30E94110BF9CFCF92DF9203
:1019C000EF92FF920F931F93CF93DF936C017A01F5
:1019D000EB01E60EF71E00E010E0CE15DF0561F02A
:1019E0006991D601ED91FC910190F081E02DC60145
:1019F0000995080F191FF1CFC801DF91CF911F91F1
:101A00000F91FF90EF90DF90CF90089561157105D1
:101A100081F0DB010D900020E9F7AD014150510943
:101A2000461B570BDC01ED91FC910280F381E02D08
:101A3000099480E090E00895EF92FF920F931F9336
:101A4000CF93DF938C01FB01C0E0D0E064917F0174
:101A50008FEFE81AF80A662361F0D801ED91FC9146
:101A60000190F081E02DC8010995C80FD91FF70139
:101A7000EDCFCE01DF91CF911F910F91FF90EF90AD
:101A80000895DC01ED91FC91DB0114964D915C9180
:101A900015976D917C910280F381E02D09940C944F
:101AA000060DDC01ED91FC910190F081E02D09948F
:101AB0008F929F92AF92BF92CF92DF92EF92FF925E
:101AC0000F931F93CF93DF93CDB7DEB7A1970FB6D8
:101AD000F894DEBF0FBECDBF7C01C42EE52FCB0135
:101AE000D22E19A221E02D1510F02AE0D22E8E015F
:101AF0000F5D1F4F8D2C912CA12CB12C6C2D7E2FA6
:101B0000A50194010E94AE108C2DD29E8019112443
:101B1000015011098A3014F4805D01C0895CF8011C
:101B20008083211531054105510521F0C22EE32F97
:101B3000CA01E4CFB801C7010E94060DA1960FB6F5
:101B4000F894DEBF0FBECDBFDF91CF911F910F91F3
:101B5000FF90EF90DF90CF90BF90AF909F908F90CD
:101B60000895CF92DF92EF92FF920F931F93CF933E
:101B7000DF93EC016A017B012115310579F4E881DD
:101B8000F9810190F081E02D642FDF91CF911F91B9
:101B90000F91FF90EF90DF90CF9009942A3031059C
:101BA000E9F477FF1AC06DE20E94510D8C014427C1
:101BB0005527BA014C195D096E097F092AE0CE014B
:101BC0000E94580D800F911FDF91CF911F910F91AF
:101BD000FF90EF90DF90CF9008952AE0B701A60123
:101BE000CE01DF91CF911F910F91FF90EF90DF9089
:101BF000CF900C94580D9A01AB01662757FD609564
:101C0000762F0C94B10DFC01808191810C94881188
:101C1000CF93DF93EC0188819981009711F00E94A6
:101C20008811198218821D821C821B821A82DF9100
:101C3000CF9108950F931F93CF93DF93EC018B0106
:101C40006F5F7F4F888199810E941712009731F052
:101C5000998388831B830A8381E001C080E0DF9140
:101C6000CF911F910F910895CF93DF93EC0188815D
:101C70009981892B29F08A819B818617970760F4C7
:101C8000CE010E941A0E882341F08C819D81892B00
:101C900019F4E881F981108281E0DF91CF910895F4
:101CA000EF92FF920F931F93CF93DF93EC017B0191
:101CB0008A01BA010E94340E811104C0CE010E9433
:101CC000080E07C01D830C83B701888199810E948B
:101CD000F312CE01DF91CF911F910F91FF90EF9002
:101CE0000895FC01118210821382128215821482DF
:101CF0006115710559F0FB0101900020E9F7AF0172
:101D000041505109461B570B0C94500E0895CF9328
:101D1000DF93EC016115710561F0FB01019000207A
:101D2000E9F7AF0141505109461B570B0E94500E75
:101D300002C00E94080ECE01DF91CF9108950F934B
:101D40001F93CF93DF93CDB7DEB761970FB6F894AB
:101D5000DEBF0FBECDBF8C01CB01F8011182108216
:101D6000138212821582148250E0BE016F5F7F4F92
:101D70000E94FA12BE016F5F7F4FC8010E94870E5A
:101D800061960FB6F894DEBF0FBECDBFDF91CF9145
:101D90001F910F910895EF92FF920F931F93CF938E
:101DA000DF93EC017B010C811D816115710511F43C
:101DB00080E016C04115510591F0040F151FB801C0
:101DC0000E94340E8823A1F3288139818C819D8162
:101DD000B701820F931F0E94F3121D830C8381E0D1
:101DE000DF91CF911F910F91FF90EF900895CF93C6
:101DF000DF93EC01FB0144815581608171810E9478
:101E0000CB0E811103C0CE010E94080ECE01DF91DE
:101E1000CF910895CF93DF93EC016115710569F0BF
:101E2000FB0101900020E9F7AF0141505109461B29
:101E3000570B0E94CB0E811103C0CE010E94080EE9
:101E4000CE01DF91CF9108950CD0EBC0E3D040F0EC
:101E5000DAD030F021F45F3F19F0CCC0511115C138
:101E6000CFC0F0D098F39923C9F35523B1F3951B54
:101E7000550BBB27AA2762177307840738F09F5FAB
:101E80005F4F220F331F441FAA1FA9F333D00E2E1A
:101E90003AF0E0E830D091505040E695001CCAF787
:101EA00029D0FE2F27D0660F771F881FBB1F26174C
:101EB00037074807AB07B0E809F0BB0B802DBF011F
:101EC000FF2793585F4F2AF09E3F510568F092C05C
:101ED000DCC05F3FECF3983EDCF386957795679521
:101EE000B795F7959F5FC9F7880F911D96958795D0
:101EF00097F90895E1E0660F771F881FBB1F6217EF
:101F000073078407BA0720F0621B730B840BBA0BAC
:101F1000EE1F88F7E095089504D06894B111B5C01C
:101F2000089598D088F09F5790F0B92F9927B7510E
:101F3000A0F0D1F0660F771F881F991F1AF0BA958D
:101F4000C9F712C0B13081F09FD0B1E008959CC0B4
:101F5000672F782F8827B85F39F0B93FCCF3869583
:101F600077956795B395D9F73EF4909580957095E0
:101F700061957F4F8F4F9F4F0895E89409C097FB5D
:101F80003EF490958095709561957F4F8F4F9F4F50
:101F90009923A9F0F92F96E9BB279395F695879594
:101FA00077956795B795F111F8CFFAF4BB0F11F457
:101FB00060FF1BC06F5F7F4F8F4F9F4F16C08823FE
:101FC00011F096E911C0772321F09EE8872F762F34
:101FD00005C0662371F096E8862F70E060E02AF075
:101FE0009A95660F771F881FDAF7880F9695879561
:101FF00097F9089597F99F6780E870E060E0089589
:102000009FEF80EC089500240A9416161706180610
:102010000906089500240A941216130614060506EC
:102020000895092E0394000C11F4882352F0BB0F7D
:1020300040F4BF2B11F460FF04C06F5F7F4F8F4FE0
:102040009F4F089557FD9058440F551F59F05F3F1B
:1020500071F04795880F97FB991F61F09F3F79F0CA
:1020600087950895121613061406551FF2CF46954C
:10207000F1DF08C0161617061806991FF1CF8695CE
:102080007105610508940895E894BB2766277727B2
:10209000CB0197F908950BD0C4CFB5DF28F0BADF94
:1020A00018F0952309F0A6CFABCF1124EECFCADFED
:1020B000A0F3959FD1F3950F50E0551F629FF0015B
:1020C000729FBB27F00DB11D639FAA27F00DB11DB4
:1020D000AA1F649F6627B00DA11D661F829F22273D
:1020E000B00DA11D621F739FB00DA11D621F839FC4
:1020F000A00D611D221F749F3327A00D611D231F9A
:10210000849F600D211D822F762F6A2F11249F57E7
:1021100050408AF0E1F088234AF0EE0FFF1FBB1F0A
:10212000661F771F881F91505040A9F79E3F5105A9
:1021300070F060CFAACF5F3FECF3983EDCF386955A
:1021400077956795B795F795E7959F5FC1F7FE2B54
:10215000880F911D9695879597F90895A1E21A2EFB
:10216000AA1BBB1BFD010DC0AA1FBB1FEE1FFF1F3B
:10217000A217B307E407F50720F0A21BB30BE40B8B
:10218000F50B661F771F881F991F1A9469F76095D2
:102190007095809590959B01AC01BD01CF0108958C
:1021A000EE0FFF1F0590F491E02D09940E94E110BD
:1021B000A59F900DB49F900DA49F800D911D11249B
:1021C0000895A29FB001B39FC001A39F700D811D10
:1021D0001124911DB29F700D811D1124911D089530
:1021E000CF93DF938230910510F482E090E0E0918C
:1021F000F602F091F70220E030E0A0E0B0E0309786
:1022000039F14081518148175907B8F048175907EB
:1022100071F482819381109729F013969C938E9389
:1022200012972CC09093F7028093F60227C02115D5
:10223000310531F04217530718F0A901DB0101C045
:10224000EF019A01BD01DF010280F381E02DD7CFBC
:1022500021153105F9F0281B390B2430310580F4A4
:102260008A819B816115710521F0FB019383828333
:1022700004C09093F7028093F602FE01329644C0A8
:10228000FE01E20FF31F81939193225031093983AC
:1022900028833AC02091F4023091F502232B41F4B7
:1022A00020910201309103013093F5022093F40252
:1022B00020910001309101012115310541F42DB724
:1022C0003EB74091040150910501241B350BE0916C
:1022D000F402F091F502E217F307A0F42E1B3F0B76
:1022E0002817390778F0AC014E5F5F4F2417350788
:1022F00048F04E0F5F1F5093F5024093F402819314
:10230000919302C0E0E0F0E0CF01DF91CF9108951A
:10231000CF93DF93009709F487C0FC0132971382B3
:102320001282C091F602D091F702209781F42081A9
:102330003181280F391F8091F4029091F5028217A4
:10234000930779F5F093F502E093F4026DC0DE0196
:1023500020E030E0AE17BF0750F412964D915C912B
:1023600013979D014115510509F1DA01F3CFB383AC
:10237000A28340815181840F951F8A179B0771F4B6
:102380008D919C911197840F951F02969183808364
:1023900012968D919C911397938382832115310519
:1023A00029F4F093F702E093F6023EC0D9011396A8
:1023B000FC93EE9312974D915D91A40FB51FEA1710
:1023C000FB0779F480819181840F951F0296D901D2
:1023D00011969C938E938281938113969C938E93F6
:1023E0001297E0E0F0E08A819B81009719F0FE01EE
:1023F000EC01F9CFCE01029628813981820F931F1B
:102400002091F4023091F5022817390769F43097CA
:1024100029F41092F7021092F60202C0138212827F
:10242000D093F502C093F402DF91CF910895A0E01C
:10243000B0E0EDE1F2E10C943B13EC01CB0120970D
:1024400019F40E94F010B8C0FE01E60FF71F9E01BC
:1024500022503109E217F30708F4ACC0D9010D91FD
:102460001C91119706171707B8F00530110508F4ED
:102470009FC0A801445051094617570708F498C057
:1024800002501109061B170B019311936D937C9356
:10249000CF010E9488118CC05B01A01AB10A4E01C5
:1024A000800E911EA091F602B091F702612C712C62
:1024B00060E070E0109709F449C0A815B905C9F5A6
:1024C000ED90FC901197670142E0C40ED11CCA1434
:1024D000DB0478F147018A189B08640142E0C40ECE
:1024E000D11C1296BC9012971396AC91B5E0CB1606
:1024F000D10440F0B282A38391828082D9018D936E
:102500009C9309C00E5F1F4F0E0D1F1DF901118313
:102510000083EB2DFA2F6115710531F0DB01139665
:10252000FC93EE93129744C0F093F702E093F60207
:102530003FC06D917C9111976616770608F43B01B8
:10254000BD0112960D90BC91A02DB4CF6091F40204
:102550007091F50268157905E9F468167906D0F4EA
:1025600040910001509101014115510541F44DB7D1
:102570005EB76091040170910501461B570BE4178B
:10258000F507C0F4F093F502E093F402F9019183AA
:1025900080830EC00E94F0107C01009759F0A801C2
:1025A000BE010E94E112CE010E948811C70104C041
:1025B000CE0102C080E090E0CDB7DEB7EEE00C9433
:1025C0005713FB01DC0102C001900D9241505040B5
:1025D000D8F70895FB01DC018D910190801901105D
:1025E000D9F3990B0895FB01DC0101900D920020B5
:1025F000E1F708954532510520F4423010F00C9473
:102600000513FB011082CB010895BB27FB01552761
:10261000AA27880F991FAA1FA41710F0A41B83953F
:102620005051B9F7A05DAA3308F0A95DA1930097B6
:1026300079F7B111B1931192CB010C942713F99949
:10264000FECF92BD81BDF89A992780B50895DC012F
:10265000FC01672F71917723E1F7329704C07C91D9
:102660006D9370836291AE17BF07C8F308952F92E0
:102670003F924F925F926F927F928F929F92AF9212
:10268000BF92CF92DF92EF92FF920F931F93CF935F
:10269000DF93CDB7DEB7CA1BDB0B0FB6F894DEBFF6
:1026A0000FBECDBF09942A88398848885F846E841C
:1026B0007D848C849B84AA84B984C884DF80EE8066
:1026C000FD800C811B81AA81B981CE0FD11D0FB66F
:1026D000F894DEBF0FBECDBFED010895F894FFCF93
:1026E0000000F802800008080808080152003100C4
:1026F000320033004C000A4C3A5B73746570733DD2
:1027000000206C696D69743D0020706174683D0043
:102710002064697374616E63653D005D000A523A1E
:102720005B7374657073523D0000000000620BDE45
:0A2730000CE40AFD0AEF0A400B005A
:00000001FF
