:100000000C947C000C945E0B0C948B0B0C94A40051
:100010000C94A4000C94A4000C94A4000C94A400D0
:100020000C94A4000C94A6000C94A4000C94A400BE
:100030000C94A4000C94A4000C94A4000C94A400B0
:100040000C94B80B0C94A4000C94F80E0C942A0F8A
:100050000C94A4000C94A4000C94A4000C94A40090
:100060000C94A4000C94A400F408F408F40801090A
:10007000FB080109FE080109190B82091809330957
:1000800054096E098509B909E4090D0B3030303087
:100090003700524F42424F2D00000000080002017D
:1000A000000003040700000000000000000102043B
:1000B00008102040800102040810200102040810EA
:1000C00020040404040404040402020202020203E1
:1000D000030303030300000000230026002900009F
:1000E000000000250028002B00000000002400274D
:1000F000002A0000C9065A0F11241FBECFEFD8E016
:10010000DEBFCDBF11E0A0E0B1E0EEE8FCE202C04E
:1001100005900D92AC36B107D9F723E0ACE6B1E01B
:1001200001C01D92A130B207E1F710E0C8EFD0E0A6
:1001300004C02297FE010E94A913C43FD107C9F74A
:100140000E949E0F0C9445160C9400001F920F9273
:100150000FB60F9211242F933F934F935F936F939A
:100160007F938F939F93AF93BF93EF93FF93809170
:100170006E018F5F80936E0120916E0180916F01FF
:1001800090E0FC01EE0FFF1FE80FF91FE059FE4F52
:10019000818128130EC080916F0190E0FC01EE0F69
:1001A000FF1FE80FF91FE059FE4F82818093B200D4
:1001B00060C020916E0180916F0190E0FC01EE0F14
:1001C000FF1FE80FF91FE059FE4F8181821708F0E9
:1001D00050C080916F0190E0FC01EE0FFF1FE80F0F
:1001E000F91FE059FE4F808185FF0FC080916F019C
:1001F00090E0FC01EE0FFF1FE80FF91FE059FE4FE2
:10020000808160E08F710E94540D80916F018F5F3B
:1002100080936F0110926E011092B20080916F0175
:10022000882309F180916F018930E8F480916F0192
:1002300090E0FC01EE0FFF1FE80FF91FE059FE4FA1
:10024000808185FF16C080916F0190E0FC01EE0F68
:10025000FF1FE80FF91FE059FE4F808161E08F71A9
:100260000E94540D06C080916F01893010F01092E9
:100270006F01FF91EF91BF91AF919F918F917F910E
:100280006F915F914F913F912F910F900FBE0F9003
:100290001F90189520916D01283030F42F5F209326
:1002A0006D01FC0120830895FC01108208951F93C5
:1002B000CF93DF93EC01162F80916C01811123C045
:1002C000E5E7F1E09BE087E5DF0111979C938083F0
:1002D000339621E0ED38F207B9F78EE38093710190
:1002E00010926F0110926E01109270001092B00087
:1002F00082E08093B1001092B20091E097BB90939E
:10030000700090936C018881882399F061E0812FBF
:100310000E941B0D288130E0F901EE0FFF1FE20F54
:10032000F31FE059FE4F1F719081907E912B9062D8
:1003300090838881DF91CF911F910895FC01808186
:100340009FEF980F983000F56E3EF2E07F073CF08B
:10035000693B9BE079072CF068EB7BE002C06EEE16
:1003600072E06850710990E09B01220F232F221F39
:10037000330BFC01EE0FFF1FE80FF91FE059FE4F92
:100380002183660F6095628308950895CF93DF936C
:10039000EC0184E090E00E94AF0FFC01108211821A
:1003A000128288858383CF01DF91CF910895CF9307
:1003B000DF93EC0184E090E00E94AF0FFC018C81A0
:1003C00080838D8181838E8182838F818383CF011E
:1003D000DF91CF9108950F931F93CF93DF938C01FB
:1003E00084E090E00E94AF0FEC01188219821A821B
:1003F000F80182810E94760CBC01882777FD8095E8
:10040000982F0E94961220E030EC4FE754E40E94AF
:10041000FB1120E030E048EC52E40E9422130E94DD
:1004200068126B83CE01DF91CF911F910F910895D8
:10043000CF92DF92EF92FF920F931F93CF93DF93B0
:10044000EC01888581111BC01D8A1E8A8A810E9449
:100450008A0D019709F08CC00E94020C09851A854B
:100460002B853C85601B710B820B930B6B377105E1
:100470008105910508F499C081E0888796C08D892F
:10048000882309F47CC08A810E948A0D892B09F097
:1004900047C08E89882369F18885823079F030F4ED
:1004A0008130A9F489898C8382E00BC0833059F0B4
:1004B000843069F489898F83188609C089898D837E
:1004C00083E0888704C089898E8384E0FACF0E9404
:1004D000020C69877A878B879C8781E08D8B1E8AC7
:1004E0001D861E861F86188A198A1A8A1B8A1C8AEC
:1004F0003FC00E94020C09891A892B893C89C98452
:10050000DA84EB84FC840C191D092E093F09060FBF
:10051000171F281F391F098B1A8B2B8B3C8B28C068
:1005200049895A896B897C89452B462B472B51F089
:100530004D855E856F857889452B462B472B11F0BD
:1005400081E08E8B0E94020C0D851E852F853889D7
:10055000C984DA84EB84FC840C191D092E093F0937
:10056000060F171F281F391F0D871E872F87388BEF
:100570000E94020C69877A878B879C8716C08A81C4
:100580000E948A0D892B89F40E94020C69877A8760
:100590008B879C8781E08D8B1E8A1D861E861F8619
:1005A000188A198A1A8A1B8A1C8ADF91CF911F9197
:1005B0000F91FF90EF90DF90CF900895CF92DF9250
:1005C000EF92FF92CF93DF93EC018A81882361F150
:1005D0000E940E0CCC80DD80EE80FF806C197D09BE
:1005E0008E099F09613375478105910508F463C041
:1005F00061E08A850E941B0D60E08A850E94540D8F
:1006000089E090E00E94310C61E08A850E94540DDF
:1006100060E08A850E941B0D0E940E0C6C837D8316
:100620008E839F831A8247C00E940E0CCC80DD808F
:10063000EE80FF806C197D098E099F09613A76482A
:100640008140910538F58B81882371F18A850E945C
:100650008A0D019781F50E940E0C9B01AC01CC80A4
:10066000DD80EE80FF802C193D094E095F09A0ED69
:10067000B4E80E94AD1320E834E84EE150E00E9457
:1006800085132850310937FD03C03987288702C0F8
:10069000198618861B8281E08A830E940E0C6C8367
:1006A0007D838E839F8307C08A850E948A0D892B54
:1006B00011F481E08B83DF91CF91FF90EF90DF9079
:1006C000CF900895DC01ED91FC910190F081E02D37
:1006D0000994CF93DF93EC01198260E070E08C8580
:1006E0000E94930C60E070E08B85DF91CF910C94B9
:1006F000930CCF93DF93EC0148836A8369834111A4
:100700000BC0698184E0689FB00111248C850E9430
:10071000930C60E070E00AC060E070E08C850E949D
:10072000930C698184E0689FB00111248B85DF916F
:10073000CF910C94930CFC0183819481892B29F037
:100740008581968101969683858381859285019620
:10075000928781878081811104C08781908501966D
:1007600003C08781908501979087878385819681D3
:100770008185928587819085089584E492E00E9426
:100780009B038091470290914802892B31F480911C
:100790003A0290913B02892B31F12091490230912C
:1007A0004A0280914702909148022817390758F46D
:1007B00020913C0230913D0280913A0290913B029F
:1007C0002817390780F010924802109247021092C1
:1007D0003B0210923A0284E492E00E94690387E3AC
:1007E00092E00C946903089587E392E00E949B03D2
:1007F0008091470290914802892B31F480913A020E
:1008000090913B02892B31F12091490230914A02AB
:1008100080914702909148022817390758F4209197
:100820003C0230913D0280913A0290913B022817A0
:10083000390780F0109248021092470210923B0252
:1008400010923A0284E492E00E94690387E392E006
:100850000C94690308950F931F93CF93DF9305E0E2
:1008600012E0C0E0D0E0CE010E94F615F8018193BD
:100870008F012196C233D105B1F7E5E0F2E0CF0157
:100880008550924021912D32D1F70196E0EFF1E0B1
:10089000DC01AB5FBD4F2C9101962D3211F02193FD
:1008A000F7CFEBEDF1E0DC01AB5FBD4F2C91019692
:1008B0002D3211F02193F7CFA6ECB1E0FC01EB5FF4
:1008C000FD4F20812D3219F02D930196F7CFA1EB2A
:1008D000B1E081E090E0EF01C80FD91F28810196B7
:1008E00030ED320F3A3010F42D93F5CF67E071E020
:1008F00080EF91E00E94C115892B29F569E071E034
:100900008BED91E00E94C115892BE9F469E071E05B
:1009100086EC91E00E94C115892B81F06BE071E0BB
:1009200086EC91E00E94C115892B41F06DE071E0E9
:1009300086EC91E00E94C115892B29F41092B00138
:100940001092AF013CC06FE071E080EF91E00E9437
:10095000C115892B71F569E071E08BED91E00E9482
:10096000C115892B59F469E071E086EC91E00E9491
:10097000C115892B19F481E090E01DC06DE071E094
:100980008BED91E00E94C115892B99F469E071E02B
:1009900086EC91E00E94C115892B41F06BE071E07B
:1009A00086EC91E00E94C115892B19F482E090E059
:1009B00002C08FE097E29093B0018093AF01DF9186
:1009C000CF911F910F910895CF93DF93EB0128E40E
:1009D00031E0FC01318320837383628360E08C2FDC
:1009E0000E941B0DC131D105A1F044F4CF30D105D7
:1009F00069F06097B9F461E087E010C0C231D105B9
:100A000059F0639779F461E08CE008C061E084E01C
:100A100005C061E088E002C061E08BE0DF91CF912A
:100A20000C941B0DDF91CF910895CF93DF93EC01D0
:100A3000862F28E531E0398328831C821D821E829F
:100A40001F8218861D861E861F86188A198A1A8A92
:100A50001B8A1C8A1D8A1E8A6A837B8360E00E942F
:100A60001B0D0E94020C69877A878B879C871886EA
:100A7000DF91CF9108951F93CF93DF930E942B04B2
:100A800026E040E052EC61E070E080E692E00E94F7
:100A9000960EE1E8F0E08081886080836DE070E090
:100AA00082E592E00E945701109251021092440296
:100AB0001092450210E210934602109248021092E2
:100AC000470210924A02109249028AE080934F0234
:100AD000C0E5D2E089E0888361E08AE00E941B0DD6
:100AE00061E088810E941B0D10923702109238023B
:100AF0001093390210923B0210923A0210923D027A
:100B000010923C0286E080934202C3E4D2E085E08A
:100B1000888361E086E00E941B0D61E088810E946D
:100B20001B0D41E050E06DEB73E081E00E943E0B55
:100B300041E050E064EF73E080E00E943E0B84E00F
:100B400090E00E94AD0FEC016FE070E00E94E404C1
:100B5000D093A601C093A50184E090E00E94AD0F60
:100B6000EC0160E170E00E94E404D093A801C0931E
:100B7000A70184E090E00E94AD0FEC0161E170E01C
:100B80000E94E404D093AA01C093A90184E090E0FC
:100B90000E94AD0FEC0162E170E00E94E404D0938A
:100BA000AC01C093AB0184E090E00E94AD0FEC017A
:100BB00063E170E00E94E404D093AE01C093AD0104
:100BC000DF91CF911F910895CF93DF93CDB7DEB71B
:100BD0006E970FB6F894DEBF0FBECDBF60914B028B
:100BE00070914C024AE0CE0101960E94761160910C
:100BF0004D0270914E024AE0CE0107960E94761196
:100C000060914702709148024AE0CE010D960E9421
:100C100076116091490270914A024AE0CE014996EC
:100C20000E94761161E171E0CE0143960E94481165
:100C3000BE01675E7F4FCE0143960E94CE116CE1EC
:100C400071E00E94E111BE01635F7F4F0E94CE11EF
:100C500064E271E00E94E111BE01695F7F4F0E9472
:100C6000CE116BE271E00E94E111BE016F5F7F4F18
:100C70000E94CE1166E371E00E94E111BC0180E6A2
:100C800092E00E941810CE0143960E94DA10CE0125
:100C900049960E94DA10CE010D960E94DA10CE011C
:100CA00007960E94DA10CE0101960E94DA10609138
:100CB0003E0270913F024AE0CE0101960E947611F9
:100CC00060914002709141024AE0CE0107960E9475
:100CD000761160913A0270913B024AE0CE010D9686
:100CE0000E94761160913C0270913D024AE0CE0173
:100CF00049960E94761168E371E0CE0143960E9406
:100D00004811BE01675E7F4FCE0143960E94CE110F
:100D10006CE171E00E94E111BE01635F7F4F0E94B0
:100D2000CE1164E271E00E94E111BE01695F7F4F64
:100D30000E94CE116BE271E00E94E111BE016F5F73
:100D40007F4F0E94CE1166E371E00E94E111BC0169
:100D500080E692E00E941810CE0143960E94DA10BD
:100D6000CE0149960E94DA10CE010D960E94DA104B
:100D7000CE0107960E94DA10CE0101960E94DA1089
:100D80006E960FB6F894DEBF0FBECDBFDF91CF9148
:100D9000089582E592E00E944A010E94020C60934D
:100DA0008B0170938C0180938D0190938E01089537
:100DB0000F931F93CF93DF9363E270E080E692E09E
:100DC0000E9462038091490290914A02692F80E655
:100DD00092E00E94310E6091490270914A0280E6D1
:100DE00092E00E94310E80913C0290913D02692F69
:100DF00080E692E00E94310E60913C0270913D02CB
:100E000080E692E00E94310E80914D0290914E0258
:100E1000692F80E692E00E94310E60914D02709140
:100E20004E0280E692E00E94310E80914002909145
:100E30004102692F80E692E00E94310E60914002EB
:100E40007091410280E692E00E94310EC5EAD1E045
:100E500089919991DC01ED91FC910280F381E02D63
:100E600009958C01E0916002F09161020280F381AA
:100E7000E02D44E050E0BC0180E692E009950115C8
:100E8000110519F0C8010E94B30FB1E0CF3ADB079A
:100E9000F9F68EE00E94760CBC01882777FD8095DC
:100EA000982F0E94961220E030EC4FE754E40E9405
:100EB000FB1120E030E048EC52E40E9422130E9433
:100EC000631280E692E0DF91CF911F910F910C9415
:100ED00062032F923F925F926F927F928F929F92C6
:100EE000AF92BF92CF92DF92EF92FF920F931F9338
:100EF000CF93DF930E94020C00918B0110918C0123
:100F000020918D0130918E01601B710B820B930B30
:100F1000613D77408105910540F084E492E00E94B4
:100F2000690387E392E00E94690380E692E00E94F1
:100F3000B30D892B09F481C380E692E00E94CC0DA9
:100F4000EC010E94020C60938B0170938C018093E2
:100F50008D0190938E018091510281112BC19E01D0
:100F600033272436310509F4F5C0C4F421363105A0
:100F700009F4EAC054F42032310581F121323105FF
:100F800009F05BC365E072E0DAC02236310509F48E
:100F9000DEC02336310509F405C14FC327363105BC
:100FA00009F4E8C084F42536310509F4DBC026369F
:100FB000310509F042C382E0809351021092900102
:100FC000C0938F013AC32936310509F4E3C00CF40C
:100FD000D9C02A36310509F4E5C02FC362E970E0B3
:100FE00080E692E00E94F30F8091AF019091B001F2
:100FF0008031974234F460E370E080E692E00E9432
:1010000062038091AF019091B001883E934034F427
:1010100060E370E080E692E00E9462038091AF019D
:101020009091B0018436910534F460E370E080E67D
:1010300092E00E9462038091AF019091B0010A9703
:1010400034F460E370E080E692E00E946203609115
:10105000AF017091B0014AE050E080E692E00E945A
:10106000D2106DE270E080E692E00E9462036CE8CC
:1010700070E080E692E00E94F30F6DE270E080E69F
:1010800092E00E94620360EF71E080E692E00E94CD
:1010900026106DE280E692E00E942810CBEDD1E0B0
:1010A00009900020E9F72197CB5DD140C530D105EB
:1010B00044F460E370E080E692E00E9462032196CF
:1010C000F5CF6BED71E080E692E00E9426106DE2B4
:1010D00080E692E00E942810C6ECD1E00990002042
:1010E000E9F72197C65CD140C530D10544F460E3EF
:1010F00070E080E692E00E9462032196F5CF66ECF4
:1011000071E080E692E00E9426106DE280E692E0B7
:101110000E942810C1EBD1E009900020E9F7219747
:10112000C15BD140C431D10544F460E370E080E696
:1011300092E00E9462032196F5CF61EB71E080E6B8
:1011400092E00E94261079C2C0938F0150C0C093D4
:101150008F014DC082E08093510210929001C093A4
:101160008F016BC282E08093510210929001C09374
:101170008F0163C282E08093510210929001C0936C
:101180008F015BC282E08093510210929001C09364
:101190008F0153C282E08093510210929001C0935C
:1011A0008F014BC282E08093510210929001C09354
:1011B0008F0143C2823041F520919001E22FF0E08F
:1011C000EF56FE4FC0832F5F2093900180918F01D7
:1011D00090E0FC01E356F109E830F10508F02DC27A
:1011E000EC5CFF4F0C94A713223008F426C283E076
:1011F0008093510222C22430D0F71FC22530B8F7A5
:101200001CC22111F4CF19C2833009F016C2C432B6
:1012100009F011C280918F0190E0FC01E156F109C3
:10122000EA30F10508F007C2E45CFF4F0C94A71305
:1012300060919101C0919201603418F060544FEFB9
:1012400001C040E0C03418F0C054DFEF01C0D0E06E
:1012500084E492E00E9479034D2F6C2F87E392E0A3
:101260000E947903E6C19091910160ED690F809130
:101270009201C0EDC80F603420F060E9690F4FEFB4
:1012800001C040E0C03420F0C0E9C80FDFEF01C06A
:10129000D0E084E492E00E9479034D2F6C2F87E325
:1012A00092E00E9479032EC08091910190E0982FE6
:1012B000882720919201820F911D10924A0210926C
:1012C0004902909348028093470210923D02109287
:1012D0003C0290933B0280933A02ABC18091910112
:1012E000805390E010924A02109249029093480273
:1012F0008093470210923D0210923C0290933B0271
:1013000080933A020E94E40596C160919101109188
:101310009201C091930180919401603418F060545F
:101320004FEF01C040E0103418F010540FEF01C02F
:1013300000E0D0E0DC2FCC27C80FD11D84E492E080
:101340000E947903402F612F87E392E00E94790386
:1013500010924A0210924902D0934802C093470269
:1013600010923D0210923C02D0933B02C0933A028D
:1013700060C1C0919101C0FF02C061E001C060E0A6
:1013800084E00E94540DC1FF02C061E001C060E032
:1013900087E00E94540DC2FF02C061E001C060E01E
:1013A00088E00E94540DC3FF02C061E001C060E00C
:1013B0008BE00E94540DC4FF02C061E001C060E0F8
:1013C0008CE00E94540D35C185EAC82E81E0D82EEC
:1013D00091E9E92E91E0F92EC0E0D0E000E511E0BE
:1013E0005524539424E0222E312C3BE0A32EB12C23
:1013F00047E0842E912CD6018D919D916D010E9424
:10140000B10FF70181917F01863009F445C020F0CA
:10141000873009F4A9C0FBC0C230D105F9F024F42B
:10142000C130D10589F006C0C330D10509F1C430FF
:10143000D10541F184E090E00E94AD0F3C016FE0E6
:1014400070E00E94E404A7C084E090E00E94AD0F29
:101450003C0160E170E00E94E404ABC084E090E0F5
:101460000E94AD0F3C0161E170E00E94E404AFC056
:1014700084E090E00E94AD0F3C0162E170E00E94C8
:10148000E404B3C084E090E00E94AD0F3C0163E14E
:1014900070E00E94E404B7C0C230D10571F124F4B9
:1014A000C130D105C9F007C0C330D105C9F1C4307E
:1014B000D10509F446C08CE090E00E94AD0FFC011C
:1014C0001183008352821186108633862286909380
:1014D000A6018093A5019BC08CE090E00E94AD0F17
:1014E000FC011183008352821186108693868286C6
:1014F0009093A8018093A7018AC08CE090E00E949D
:10150000AD0FFC011183008352821186108688E0A2
:1015100090E093878287F093AA01E093A90177C0B6
:101520008CE090E00E94AD0FFC0111830083528299
:1015300011861086B386A2869093AC018093AB018E
:1015400066C08CE090E00E94AD0FFC011183008327
:101550005282118610868CE090E093878287F09308
:10156000AE01E093AD0153C0C230D10539F124F48E
:10157000C130D105A9F006C0C330D10569F1C4302E
:10158000D105C1F187E190E00E94AD0F3C0164E01C
:1015900070E00E9415057092A6016092A50137C007
:1015A00087E190E00E94AD0F3C0167E070E00E948F
:1015B00015057092A8016092A70129C087E190E00B
:1015C0000E94AD0F3C0168E070E00E94150570922A
:1015D000AA016092A9011BC087E190E00E94AD0FB3
:1015E0003C016BE070E00E9415057092AC016092C6
:1015F000AB010DC087E190E00E94AD0F3C016CE0B3
:1016000070E00E9415057092AE016092AD012196C6
:10161000C530D10509F0EFCE0CC06091910196E183
:10162000699FB0011124605E7C4F82E592E00E94C8
:101630009E010E94D80610925102C5EAD1E089911C
:101640009991DC01ED91FC910190F081E02D0995DB
:10165000B1E0CF3ADB0799F7DF91CF911F910F915E
:10166000FF90EF90DF90CF90BF90AF909F908F90C2
:101670007F906F905F903F902F9008958230E8F4B4
:10168000E82FF0E0EE0FFF1FED5AFD4F71836083EE
:10169000813041F0809169008C7F842B80936900B8
:1016A000E89A089580916900440F551F440F551F13
:1016B000837F842B80936900E99A08951F920F928B
:1016C0000FB60F9211242F933F934F935F936F9315
:1016D0007F938F939F93AF93BF93EF93FF938091EB
:1016E000530290915402892B29F0E0915302F0911A
:1016F00054020995FF91EF91BF91AF919F918F9106
:101700007F916F915F914F913F912F910F900FBEFD
:101710000F901F9018951F920F920FB60F921124E1
:101720002F933F934F935F936F937F938F939F93E9
:10173000AF93BF93EF93FF93809155029091560220
:10174000892B29F0E0915502F09156020995FF91FD
:10175000EF91BF91AF919F918F917F916F915F9129
:101760004F913F912F910F900FBE0F901F901895A2
:101770001F920F920FB60F9211242F933F938F93C6
:101780009F93AF93BF938091580290915902A0917B
:101790005A02B0915B023091570223E0230F2D379C
:1017A00020F40196A11DB11D05C026E8230F029665
:1017B000A11DB11D209357028093580290935902A6
:1017C000A0935A02B0935B0280915C0290915D02FB
:1017D000A0915E02B0915F020196A11DB11D8093A0
:1017E0005C0290935D02A0935E02B0935F02BF9192
:1017F000AF919F918F913F912F910F900FBE0F90BE
:101800001F9018952FB7F894609158027091590263
:1018100080915A0290915B022FBF08953FB7F894D0
:1018200080915C0290915D02A0915E02B0915F0296
:1018300026B5A89B05C02F3F19F00196A11DB11D2B
:101840003FBF6627782F892F9A2F620F711D811D48
:10185000911D42E0660F771F881F991F4A95D1F7A7
:101860000895019739F0880F991F880F991F0297E3
:101870000197F1F70895789484B5826084BD84B5AA
:10188000816084BD85B5826085BD85B5816085BD7B
:10189000EEE6F0E0808181608083E1E8F0E0108294
:1018A000808182608083808181608083E0E8F0E0D5
:1018B000808181608083E1EBF0E0808184608083BF
:1018C000E0EBF0E0808181608083EAE7F0E08081F6
:1018D0008460808380818260808380818160808356
:1018E0008081806880831092C10008958E3008F056
:1018F0008E5087702091060190E4299F9001112459
:10190000822B80937C0080917A00806480937A009F
:1019100080917A0086FDFCCF80917800209179003B
:1019200090E0922B08951F93CF93DF93182FEB0134
:1019300061E00E941B0D209711F460E004C0CF3FCE
:10194000D10539F461E0812FDF91CF911F910C9483
:10195000540DE12FF0E0E756FF4FE491E330F9F04A
:1019600048F4E130B9F0E230A1F584B5806284BD7D
:10197000C8BD34C0E730E9F0E83019F1E43049F58A
:1019800080918000806280938000D0938B00C09310
:101990008A0024C084B5806884BDC7BD1FC0809103
:1019A0008000806880938000D0938900C093880075
:1019B00015C08091B00080688093B000C093B300E0
:1019C0000DC08091B00080628093B000C093B400DD
:1019D00005C0C038D1050CF0B5CFAFCFDF91CF91A6
:1019E0001F910895833081F028F4813099F082307E
:1019F000A1F008958730A9F08830B9F08430D1F48F
:101A0000809180008F7D03C0809180008F778093CC
:101A10008000089584B58F7702C084B58F7D84BD22
:101A200008958091B0008F7703C08091B0008F7DC2
:101A30008093B0000895CF93DF9390E0FC01E355CD
:101A4000FF4F2491FC01EF53FF4F8491882349F10C
:101A500090E0880F991FFC01E751FF4FA591B491C9
:101A600081529F4FFC01C591D4919FB7611108C06D
:101A7000F8948C91209582238C93888182230AC0CC
:101A8000623051F4F8948C91322F309583238C93EB
:101A90008881822B888304C0F8948C91822B8C934C
:101AA0009FBFDF91CF9108950F931F93CF93DF9343
:101AB0001F92CDB7DEB7282F30E0F901E756FF4F70
:101AC0008491F901E355FF4F1491F901EF53FF4F52
:101AD00004910023C9F0882321F069830E94F20C4D
:101AE0006981E02FF0E0EE0FFF1FE152FF4FA5915B
:101AF000B4919FB7F8948C91611103C01095812324
:101B000001C0812B8C939FBF0F90DF91CF911F91CC
:101B10000F910895CF93DF93282F30E0F901E75616
:101B2000FF4F8491F901E355FF4FD491F901EF5331
:101B3000FF4FC491CC2391F081110E94F20CEC2F45
:101B4000F0E0EE0FFF1FEB52FF4FA591B4912C91E7
:101B50002D2381E090E021F480E002C080E090E05D
:101B6000DF91CF910895FC01818D228D90E0805C02
:101B70009F4F821B91098F7399270895FC01918DC6
:101B8000828D981731F0828DE80FF11D858D90E0E0
:101B900008958FEF9FEF0895FC01918D828D981726
:101BA00061F0828DDF01A80FB11D5D968C91928D41
:101BB0009F5F9F73928F90E008958FEF9FEF08953E
:101BC00080E59FE0892B49F080E090E0892B29F0A7
:101BD0000E94500F81110C9400000895FC01848D27
:101BE000DF01A80FB11DA35ABF4F2C91848D90E047
:101BF00001968F739927848FA689B7892C93A08922
:101C0000B1898C9180648C93938D848D981306C0D8
:101C10000288F389E02D80818F7D80830895CF93A2
:101C2000DF93EC01888D8823C9F0EA89FB898081E4
:101C300085FD05C0A889B9898C9186FD0FC00FB6B6
:101C400007FCF5CF808185FFF2CFA889B9898C91F7
:101C500085FFEDCFCE010E94EE0DE7CFDF91CF9152
:101C60000895CF92DF92FF920F931F93CF93DF934C
:101C70001F92CDB7DEB76C01DC015B969C915B9740
:101C80005C968C915C97981307C05096ED91FC91EF
:101C90005197808185FD32C0F601038D10E00F5F02
:101CA0001F4F0F731127F02EF601848DF81211C00B
:101CB0000FB607FCF9CFD6015096ED91FC915197E4
:101CC000808185FFF1CFC60169830E94EE0D698195
:101CD000EBCF838DE80FF11DE35AFF4F6083D601F0
:101CE0005B960C935B975296ED91FC915397808194
:101CF0008062808381E058968C930DC0D601569601
:101D0000ED91FC91579760835096ED91FC9151971E
:101D100080818064808381E090E00F90DF91CF919B
:101D20001F910F91FF90DF90CF900895BF92CF92B7
:101D3000DF92EF92FF92CF93DF93EC016A017B0178
:101D4000B22EE889F98982E08083411581EE580737
:101D500061057105A1F060E079E08DE390E0A701F5
:101D600096010E9485132150310941095109569568
:101D7000479537952795211580E1380798F0E88930
:101D8000F989108260E874E88EE190E0A70196017D
:101D90000E948513215031094109510956954795F3
:101DA00037952795EC85FD853083EE85FF8520836B
:101DB000188EEC89FD89B082EA89FB898081806177
:101DC0008083EA89FB89808188608083EA89FB8936
:101DD000808180688083EA89FB8980818F7D808310
:101DE000DF91CF91FF90EF90DF90CF90BF9008955B
:101DF0001F920F920FB60F9211242F938F939F93E0
:101E0000EF93FF93E0917002F09171028081E09175
:101E10007602F091770282FD12C090818091790262
:101E20008F5F8F7320917A02821751F0E0917902CF
:101E3000F0E0E05AFD4F958F8093790201C08081D8
:101E4000FF91EF919F918F912F910F900FBE0F9067
:101E50001F9018951F920F920FB60F9211242F9377
:101E60003F934F935F936F937F938F939F93AF9322
:101E7000BF93EF93FF9380E692E00E94EE0DFF91F7
:101E8000EF91BF91AF919F918F917F916F915F91F2
:101E90004F913F912F910F900FBE0F901F9018956B
:101EA00080E692E00E94B30D21E0892B09F420E046
:101EB000822F0895109263021092620288EE93E0DE
:101EC000A0E0B0E08093640290936502A093660264
:101ED000B093670280E691E0909361028093600284
:101EE00085EC90E090936D0280936C0284EC90E01E
:101EF00090936F0280936E0280EC90E09093710259
:101F00008093700281EC90E0909373028093720250
:101F100082EC90E0909375028093740286EC90E0DE
:101F200090937702809376021092790210927A024F
:101F300010927B0210927C02089508950E943B0C3F
:101F40000E949D0F0E943B05C0EEDDE00E946907E4
:101F50002097E1F30E94E00DF9CF0C94C7130C9485
:101F6000C7130C945F140C945F14CF92DF92EF921E
:101F7000FF920F931F93CF93DF936C017A01EB01D4
:101F8000E60EF71E00E010E0CE15DF0561F0699166
:101F9000D601ED91FC910190F081E02DC6010995EB
:101FA000080F191FF1CFC801DF91CF911F910F9139
:101FB000FF90EF90DF90CF9008956115710581F04B
:101FC000DB010D900020E9F7AD0141505109461B9E
:101FD000570BDC01ED91FC910280F381E02D099417
:101FE00080E090E00895EF92FF920F931F93CF93BC
:101FF000DF938C01FB01C0E0D0E064917F018FEFA3
:10200000E81AF80A662361F0D801ED91FC9101907D
:10201000F081E02DC8010995C80FD91FF701EDCF58
:10202000CE01DF91CF911F910F91FF90EF90089516
:10203000DC01ED91FC91DB0114964D915C911597BB
:102040006D917C910280F381E02D09940C94DD0F59
:10205000DC01ED91FC910190F081E02D09948F92CB
:102060009F92AF92BF92CF92DF92EF92FF920F9327
:102070001F93CF93DF93CDB7DEB7A1970FB6F89438
:10208000DEBF0FBECDBF7C01C42EE52FCB01D22E0B
:1020900019A221E02D1510F02AE0D22E8E010F5D3D
:1020A0001F4F8D2C912CA12CB12C6C2D7E2FA501B6
:1020B00094010E9485138C2DD29E80191124015009
:1020C00011098A3014F4805D01C0895CF8018083B5
:1020D000211531054105510521F0C22EE32FCA011A
:1020E000E4CFB801C7010E94DD0FA1960FB6F894A6
:1020F000DEBF0FBECDBFDF91CF911F910F91FF903B
:10210000EF90DF90CF90BF90AF909F908F90089509
:10211000CF92DF92EF92FF920F931F93CF93DF93B3
:10212000EC016A017B012115310579F4E881F9811F
:102130000190F081E02D642FDF91CF911F910F91DD
:10214000FF90EF90DF90CF9009942A303105E9F4A9
:1021500077FF1AC06DE20E9428108C014427552792
:10216000BA014C195D096E097F092AE0CE010E946F
:102170002F10800F911FDF91CF911F910F91FF9032
:10218000EF90DF90CF9008952AE0B701A601CE012D
:10219000DF91CF911F910F91FF90EF90DF90CF9043
:1021A0000C942F109A01AB01662757FD6095762F8E
:1021B0000C948810FC01808191810C945F14CF9362
:1021C000DF93EC0188819981009711F00E945F14E0
:1021D000198218821D821C821B821A82DF91CF9184
:1021E00008950F931F93CF93DF93EC018B016F5FE3
:1021F0007F4F888199810E94EE14009731F0998376
:1022000088831B830A8381E001C080E0DF91CF9146
:102210001F910F910895CF93DF93EC0188819981ED
:10222000892B29F08A819B818617970760F4CE015C
:102230000E94F110882341F08C819D81892B19F433
:10224000E881F981108281E0DF91CF910895EF92CA
:10225000FF920F931F93CF93DF93EC017B018A01D1
:10226000BA010E940B11811104C0CE010E94DF103F
:1022700007C01D830C83B701888199810E94CA150C
:10228000CE01DF91CF911F910F91FF90EF900895B4
:10229000FC01118210821382128215821482611550
:1022A000710559F0FB0101900020E9F7AF014150A1
:1022B0005109461B570B0C9427110895CF93DF93B8
:1022C000EC016115710561F0FB0101900020E9F757
:1022D000AF0141505109461B570B0E94271102C004
:1022E0000E94DF10CE01DF91CF9108950F931F93CD
:1022F000CF93DF93CDB7DEB761970FB6F894DEBF0B
:102300000FBECDBF8C01CB01F80111821082138268
:1023100012821582148250E0BE016F5F7F4F0E94CF
:10232000D115BE016F5F7F4FC8010E945E1161969B
:102330000FB6F894DEBF0FBECDBFDF91CF911F91D6
:102340000F910895EF92FF920F931F93CF93DF9316
:10235000EC017B010C811D816115710511F480E098
:1023600016C04115510591F0040F151FB8010E94C8
:102370000B118823A1F3288139818C819D81B701BC
:10238000820F931F0E94CA151D830C8381E0DF9189
:10239000CF911F910F91FF90EF900895CF93DF930E
:1023A000EC01FB0144815581608171810E94A21181
:1023B000811103C0CE010E94DF10CE01DF91CF91C9
:1023C0000895CF93DF93EC016115710569F0FB016E
:1023D00001900020E9F7AF0141505109461B570B0E
:1023E0000E94A211811103C0CE010E94DF10CE0114
:1023F000DF91CF9108950CD0EBC0E3D040F0DAD05C
:1024000030F021F45F3F19F0CCC0511115C1CFC09D
:10241000F0D098F39923C9F35523B1F3951B550BCD
:10242000BB27AA2762177307840738F09F5F5F4FA7
:10243000220F331F441FAA1FA9F333D00E2E3AF0E8
:10244000E0E830D091505040E695001CCAF729D002
:10245000FE2F27D0660F771F881FBB1F2617370751
:102460004807AB07B0E809F0BB0B802DBF01FF2781
:1024700093585F4F2AF09E3F510568F092C0DCC030
:102480005F3FECF3983EDCF3869577956795B795BB
:10249000F7959F5FC9F7880F911D9695879597F9D6
:1024A0000895E1E0660F771F881FBB1F621773074F
:1024B0008407BA0720F0621B730B840BBA0BEE1F64
:1024C00088F7E095089504D06894B111B5C00895D7
:1024D00098D088F09F5790F0B92F9927B751A0F066
:1024E000D1F0660F771F881F991F1AF0BA95C9F7A8
:1024F00012C0B13081F09FD0B1E008959CC0672F29
:10250000782F8827B85F39F0B93FCCF38695779557
:102510006795B395D9F73EF4909580957095619540
:102520007F4F8F4F9F4F0895E89409C097FB3EF46B
:1025300090958095709561957F4F8F4F9F4F992310
:10254000A9F0F92F96E9BB279395F695879577958E
:102550006795B795F111F8CFFAF4BB0F11F460FF4E
:102560001BC06F5F7F4F8F4F9F4F16C0882311F0A6
:1025700096E911C0772321F09EE8872F762F05C0BA
:10258000662371F096E8862F70E060E02AF09A9555
:10259000660F771F881FDAF7880F9695879597F94A
:1025A000089597F99F6780E870E060E008959FEFD5
:1025B00080EC089500240A941616170618060906DA
:1025C000089500240A9412161306140605060895A9
:1025D000092E0394000C11F4882352F0BB0F40F431
:1025E000BF2B11F460FF04C06F5F7F4F8F4F9F4F71
:1025F000089557FD9058440F551F59F05F3F71F0F3
:102600004795880F97FB991F61F09F3F79F0879559
:102610000895121613061406551FF2CF4695F1DFE2
:1026200008C0161617061806991FF1CF8695710572
:10263000610508940895E894BB2766277727CB01A6
:1026400097F908950BD0C4CFB5DF28F0BADF18F0A2
:10265000952309F0A6CFABCF1124EECFCADFA0F3AC
:10266000959FD1F3950F50E0551F629FF001729F27
:10267000BB27F00DB11D639FAA27F00DB11DAA1F46
:10268000649F6627B00DA11D661F829F2227B00D93
:10269000A11D621F739FB00DA11D621F839FA00D1E
:1026A000611D221F749F3327A00D611D231F849F6E
:1026B000600D211D822F762F6A2F11249F575040C5
:1026C0008AF0E1F088234AF0EE0FFF1FBB1F661F60
:1026D000771F881F91505040A9F79E3F510570F019
:1026E00060CFAACF5F3FECF3983EDCF386957795F9
:1026F0006795B795F795E7959F5FC1F7FE2B880F14
:10270000911D9695879597F90895A1E21A2EAA1B17
:10271000BB1BFD010DC0AA1FBB1FEE1FFF1FA21791
:10272000B307E407F50720F0A21BB30BE40BF50B8E
:10273000661F771F881F991F1A9469F76095709517
:10274000809590959B01AC01BD01CF010895EE0FDE
:10275000FF1F0590F491E02D09940E94B813A59FE6
:10276000900DB49F900DA49F800D911D112408958C
:10277000A29FB001B39FC001A39F700D811D1124C2
:10278000911DB29F700D811D1124911D0895CF934D
:10279000DF938230910510F482E090E0E091FF0237
:1027A000F091000320E030E0A0E0B0E0309739F194
:1027B0004081518148175907B8F04817590771F4FB
:1027C00082819381109729F013969C938E93129790
:1027D0002CC0909300038093FF0227C02115310580
:1027E00031F04217530718F0A901DB0101C0EF01D6
:1027F0009A01BD01DF010280F381E02DD7CF2115C1
:102800003105F9F0281B390B2430310580F48A8119
:102810009B816115710521F0FB019383828304C0C4
:10282000909300038093FF02FE01329644C0FE01A4
:10283000E20FF31F8193919322503109398328834A
:102840003AC02091FD023091FE02232B41F42091E9
:102850000201309103013093FE022093FD0220918A
:102860000001309101012115310541F42DB73EB72A
:102870004091040150910501241B350BE091FD02AC
:10288000F091FE02E217F307A0F42E1B3F0B28176E
:10289000390778F0AC014E5F5F4F2417350748F0D9
:1028A0004E0F5F1F5093FE024093FD028193919360
:1028B00002C0E0E0F0E0CF01DF91CF910895CF9327
:1028C000DF93009709F487C0FC01329713821282CC
:1028D000C091FF02D0910003209781F420813181C3
:1028E000280F391F8091FD029091FE0282179307F5
:1028F00079F5F093FE02E093FD026DC0DE0120E069
:1029000030E0AE17BF0750F412964D915C911397CB
:102910009D014115510509F1DA01F3CFB383A2837B
:1029200040815181840F951F8A179B0771F48D9107
:102930009C911197840F951F029691838083129624
:102940008D919C911397938382832115310529F4EE
:10295000F0930003E093FF023EC0D9011396FC936D
:10296000EE9312974D915D91A40FB51FEA17FB07E7
:1029700079F480819181840F951F0296D901119677
:102980009C938E938281938113969C938E9312973E
:10299000E0E0F0E08A819B81009719F0FE01EC01F4
:1029A000F9CFCE01029628813981820F931F2091A1
:1029B000FD023091FE022817390769F4309729F497
:1029C000109200031092FF0202C013821282D09371
:1029D000FE02C093FD02DF91CF910895A0E0B0E028
:1029E000E4EFF4E10C941216EC01CB01209719F4FA
:1029F0000E94C713B8C0FE01E60FF71F9E012250C8
:102A00003109E217F30708F4ACC0D9010D911C910C
:102A1000119706171707B8F00530110508F49FC085
:102A2000A801445051094617570708F498C00250AE
:102A30001109061B170B019311936D937C93CF0122
:102A40000E945F148CC05B01A01AB10A4E01800E77
:102A5000911EA091FF02B0910003612C712C60E0E7
:102A600070E0109709F449C0A815B905C9F5ED90B3
:102A7000FC901197670142E0C40ED11CCA14DB041C
:102A800078F147018A189B08640142E0C40ED11C0A
:102A90001296BC9012971396AC91B5E0CB16D10468
:102AA00040F0B282A38391828082D9018D939C935E
:102AB00009C00E5F1F4F0E0D1F1DF901118300830A
:102AC000EB2DFA2F6115710531F0DB011396FC93A4
:102AD000EE93129744C0F0930003E093FF023FC0CF
:102AE0006D917C9111976616770608F43B01BD0144
:102AF00012960D90BC91A02DB4CF6091FD02709103
:102B0000FE0268157905E9F468167906D0F440915B
:102B10000001509101014115510541F44DB75EB7D7
:102B20006091040170910501461B570BE417F507EE
:102B3000C0F4F093FE02E093FD02F90191838083DB
:102B40000EC00E94C7137C01009759F0A801BE0176
:102B50000E94B815CE010E945F14C70104C0CE01C7
:102B600002C080E090E0CDB7DEB7EEE00C942E1608
:102B7000FB01DC0102C001900D9241505040D8F79A
:102B80000895FB01DC018D91019080190110D9F3AA
:102B9000990B0895FB01DC0101900D920020E1F7F3
:102BA00008954532510520F4423010F00C94DC15A4
:102BB000FB011082CB010895BB27FB015527AA27F3
:102BC000880F991FAA1FA41710F0A41B83955051BA
:102BD000B9F7A05DAA3308F0A95DA193009779F732
:102BE000B111B1931192CB010C94FE15F999FECF5E
:102BF00092BD81BDF89A992780B50895DC01FC014A
:102C0000672F71917723E1F7329704C07C916D9320
:102C100070836291AE17BF07C8F308952F923F9259
:102C20004F925F926F927F928F929F92AF92BF92DC
:102C3000CF92DF92EF92FF920F931F93CF93DF9388
:102C4000CDB7DEB7CA1BDB0B0FB6F894DEBF0FBEE5
:102C5000CDBF09942A88398848885F846E847D8432
:102C60008C849B84AA84B984C884DF80EE80FD8034
:102C70000C811B81AA81B981CE0FD11D0FB6F894AA
:0E2C8000DEBF0FBECDBFED010895F894FFCF6B
:102C8E000000010380000152003100320033004C7D
:102C9E00000A4C3A5B73746570733D00206C696D6D
:102CAE0069743D0020706174683D0020646973741E
:102CBE00616E63653D005D000A523A5B7374657028
:102CCE0073523D0000000000C501EB010000000042
:102CDE00DE02C601000000001802D701000000004D
:0C2CEE00310EB50FB30DCC0DBE0D0F0E56
:00000001FF
