:100000000C947C000C946E0B0C949B0B0C94A40031
:100010000C94A4000C94A4000C94A4000C94A400D0
:100020000C94A4000C94A6000C94A4000C94A400BE
:100030000C94A4000C94A4000C94A4000C94A400B0
:100040000C94C80B0C94A4000C94080F0C943A0F59
:100050000C94A4000C94A4000C94A4000C94A40090
:100060000C94A4000C94A4000409040904091109C7
:100070000B0911090E091109290B920928094309D5
:1000800064097E099509C909F4091D0B3030303027
:100090003700524F42424F2D00000000080002017D
:1000A000000003040700000000000000000102043B
:1000B00008102040800102040810200102040810EA
:1000C00020040404040404040402020202020203E1
:1000D000030303030300000000230026002900009F
:1000E000000000250028002B00000000002400274D
:1000F000002A0000D9066A0F11241FBECFEFD8E0F6
:10010000DEBFCDBF11E0A0E0B1E0EEEAFCE202C04C
:1001100005900D92AE36B107D9F723E0AEE6B1E017
:1001200001C01D92A330B207E1F710E0C8EFD0E0A4
:1001300004C02297FE010E94B913C43FD107C9F73A
:100140000E94AE0F0C9455160C9400001F920F9253
:100150000FB60F9211242F933F934F935F936F939A
:100160007F938F939F93AF93BF93EF93FF93809170
:1001700070018F5F809370012091700180917101F7
:1001800090E0FC01EE0FFF1FE80FF91FEE58FE4F45
:10019000818128130EC08091710190E0FC01EE0F67
:1001A000FF1FE80FF91FEE58FE4F82818093B200C7
:1001B00060C0209170018091710190E0FC01EE0F10
:1001C000FF1FE80FF91FEE58FE4F8181821708F0DC
:1001D00050C08091710190E0FC01EE0FFF1FE80F0D
:1001E000F91FEE58FE4F808185FF0FC0809171018D
:1001F00090E0FC01EE0FFF1FE80FF91FEE58FE4FD5
:10020000808160E08F710E94640D809171018F5F29
:1002100080937101109270011092B200809171016F
:10022000882309F1809171018930E8F4809171018E
:1002300090E0FC01EE0FFF1FE80FF91FEE58FE4F94
:10024000808185FF16C08091710190E0FC01EE0F66
:10025000FF1FE80FF91FEE58FE4F808161E08F719C
:100260000E94640D06C080917101893010F01092D7
:100270007101FF91EF91BF91AF919F918F917F910C
:100280006F915F914F913F912F910F900FBE0F9003
:100290001F90189520916F01283030F42F5F209324
:1002A0006F01FC0120830895FC01108208951F93C3
:1002B000CF93DF93EC01162F80916E01811123C043
:1002C000E7E7F1E09BE087E5DF0111979C938083EE
:1002D000339621E0EF38F207B9F78EE3809373018C
:1002E0001092710110927001109270001092B00083
:1002F00082E08093B1001092B20091E097BB90939E
:10030000700090936E018881882399F061E0812FBD
:100310000E942B0D288130E0F901EE0FFF1FE20F44
:10032000F31FEE58FE4F1F719081907E912B9062CB
:1003300090838881DF91CF911F910895FC01808186
:100340009FEF980F983000F56E3EF2E07F073CF08B
:10035000693B9BE079072CF068EB7BE002C06EEE16
:1003600072E06850710990E09B01220F232F221F39
:10037000330BFC01EE0FFF1FE80FF91FEE58FE4F85
:100380002183660F6095628308950895CF93DF936C
:10039000EC0184E090E00E94BF0FFC01108211820A
:1003A000128288858383CF01DF91CF910895CF9307
:1003B000DF93EC0184E090E00E94BF0FFC018C8190
:1003C00080838D8181838E8182838F818383CF011E
:1003D000DF91CF9108950F931F93CF93DF938C01FB
:1003E00084E090E00E94BF0FEC01188219821A820B
:1003F000F80182810E94860CBC01882777FD8095D8
:10040000982F0E94A61220E030EC4FE754E40E949F
:100410000B1220E030E048EC52E40E9432130E94BC
:1004200078126B83CE01DF91CF911F910F910895C8
:10043000CF92DF92EF92FF920F931F93CF93DF93B0
:10044000EC01888581111BC01D8A1E8A8A810E9449
:100450009A0D019709F08CC00E94120C09851A852B
:100460002B853C85601B710B820B930B6B377105E1
:100470008105910508F499C081E0888796C08D892F
:10048000882309F47CC08A810E949A0D892B09F087
:1004900047C08E89882369F18885823079F030F4ED
:1004A0008130A9F489898C8382E00BC0833059F0B4
:1004B000843069F489898F83188609C089898D837E
:1004C00083E0888704C089898E8384E0FACF0E9404
:1004D000120C69877A878B879C8781E08D8B1E8AB7
:1004E0001D861E861F86188A198A1A8A1B8A1C8AEC
:1004F0003FC00E94120C09891A892B893C89C98442
:10050000DA84EB84FC840C191D092E093F09060FBF
:10051000171F281F391F098B1A8B2B8B3C8B28C068
:1005200049895A896B897C89452B462B472B51F089
:100530004D855E856F857889452B462B472B11F0BD
:1005400081E08E8B0E94120C0D851E852F853889C7
:10055000C984DA84EB84FC840C191D092E093F0937
:10056000060F171F281F391F0D871E872F87388BEF
:100570000E94120C69877A878B879C8716C08A81B4
:100580000E949A0D892B89F40E94120C69877A8740
:100590008B879C8781E08D8B1E8A1D861E861F8619
:1005A000188A198A1A8A1B8A1C8ADF91CF911F9197
:1005B0000F91FF90EF90DF90CF900895CF92DF9250
:1005C000EF92FF92CF93DF93EC018A81882361F150
:1005D0000E941E0CCC80DD80EE80FF806C197D09AE
:1005E0008E099F09613375478105910508F463C041
:1005F00061E08A850E942B0D61E08A850E94640D6E
:1006000089E090E00E94410C60E08A850E94640DC0
:1006100060E08A850E942B0D0E941E0C6C837D83F6
:100620008E839F831A8247C00E941E0CCC80DD807F
:10063000EE80FF806C197D098E099F09613A76482A
:100640008140910538F58B81882371F18A850E945C
:100650009A0D892B81F50E941E0C9B01AC01CC8068
:10066000DD80EE80FF802C193D094E095F09A0ED69
:10067000B4E80E94BD1320E834E84EE150E00E9447
:1006800095132850310937FD03C03987288702C0E8
:10069000198618861B8281E08A830E941E0C6C8357
:1006A0007D838E839F8307C08A850E949A0D019760
:1006B00011F481E08B83DF91CF91FF90EF90DF9079
:1006C000CF900895DC01ED91FC910190F081E02D37
:1006D0000994CF93DF93EC01198260E070E08C8580
:1006E0000E94A30C60E070E08B85DF91CF910C94A9
:1006F000A30CCF93DF93EC0148836A836983411194
:100700000BC0698184E0689FB00111248C850E9430
:10071000A30C60E070E00AC060E070E08C850E948D
:10072000A30C698184E0689FB00111248B85DF915F
:10073000CF910C94A30CFC0183819481892B29F027
:100740008581968101969683858381859285019620
:10075000928781878081811104C08781908501966D
:1007600003C08781908501979087878385819681D3
:100770008185928587819085089586E492E00E9424
:100780009B038091490290914A02892B31F4809118
:100790003C0290913D02892B31F120914B02309126
:1007A0004C028091490290914A022817390758F467
:1007B00020913E0230913F0280913C0290913D0297
:1007C0002817390780F010924A02109249021092BD
:1007D0003D0210923C0286E492E00E94690389E3A4
:1007E00092E00C946903089589E392E00E949B03D0
:1007F0008091490290914A02892B31F480913C0208
:1008000090913D02892B31F120914B0230914C02A5
:100810008091490290914A022817390758F4209193
:100820003E0230913F0280913C0290913D02281798
:10083000390780F010924A021092490210923D024C
:1008400010923C0286E492E00E94690389E392E000
:100850000C94690308950F931F93CF93DF9307E0E0
:1008600012E0C0E0D0E0CE010E940616F8018193AC
:100870008F012196C233D105B1F7E7E0F2E0CF0155
:100880008750924021912D32D1F70196E2EFF1E0AD
:10089000DC01A95FBD4F2C9101962D3211F02193FF
:1008A000F7CFEDEDF1E0DC01A95FBD4F2C91019692
:1008B0002D3211F02193F7CFA8ECB1E0FC01E95FF4
:1008C000FD4F20812D3219F02D930196F7CFA3EB28
:1008D000B1E081E090E0EF01C80FD91F28810196B7
:1008E00030ED320F3A3010F42D93F5CF67E071E020
:1008F00082EF91E00E94D115892B69F569E071E0E2
:100900008DED91E00E94D115892B29F569E071E008
:1009100088EC91E00E94D115892BC1F06BE071E069
:1009200088EC91E00E94D115892B81F06DE071E097
:1009300088EC91E00E94D115892B41F06FE071E0C5
:1009400088EC91E00E94D115892B29F41092B20114
:100950001092B10144C061E171E082EF91E00E9428
:10096000D115892BB1F569E071E08DED91E00E9420
:10097000D115892B59F469E071E088EC91E00E946F
:10098000D115892B19F481E090E025C06DE071E06C
:100990008DED91E00E94D115892BD9F469E071E0C9
:1009A00088EC91E00E94D115892B81F06BE071E019
:1009B00088EC91E00E94D115892B41F06DE071E047
:1009C00088EC91E00E94D115892B19F482E090E027
:1009D00002C08FE097E29093B2018093B101DF9162
:1009E000CF911F910F910895CF93DF93EB012AE4EC
:1009F00031E0FC01318320837383628360E08C2FBC
:100A00000E942B0DC131D105A1F044F4CF30D105A6
:100A100069F06097B9F461E087E010C0C231D10598
:100A200059F0639779F461E08CE008C061E084E0FC
:100A300005C061E088E002C061E08BE0DF91CF910A
:100A40000C942B0DDF91CF910895CF93DF93EC01A0
:100A5000862F2AE531E0398328831C821D821E827D
:100A60001F8218861D861E861F86188A198A1A8A72
:100A70001B8A1C8A1D8A1E8A6A837B8360E00E940F
:100A80002B0D0E94120C69877A878B879C871886AA
:100A9000DF91CF9108951F93CF93DF930E942B0492
:100AA00026E040E052EC61E070E082E692E00E94D5
:100AB000A60EE1E8F0E08081886080836DE070E060
:100AC00084E592E00E945701109253021092460270
:100AD0001092470210E21093480210924A021092BC
:100AE000490210924C0210924B028AE0809351020C
:100AF000C2E5D2E089E0888361E08AE00E942B0DA4
:100B000061E088810E942B0D1092390210923A0206
:100B100010933B0210923D0210923C0210923F0251
:100B200010923E0286E080934402C5E4D2E085E064
:100B3000888361E086E00E942B0D61E088810E943D
:100B40002B0D41E050E06DEB73E081E00E944E0B15
:100B500041E050E064EF73E080E00E944E0B84E0DF
:100B600090E00E94BD0FEC016FE070E00E94F40481
:100B7000D093A801C093A70184E090E00E94BD0F2C
:100B8000EC0160E170E00E94F404D093AA01C093EC
:100B9000A90184E090E00E94BD0FEC0161E170E0EA
:100BA0000E94F404D093AC01C093AB0184E090E0C8
:100BB0000E94BD0FEC0162E170E00E94F404D0934A
:100BC000AE01C093AD0184E090E00E94BD0FEC0146
:100BD00063E170E00E94F404D093B001C093AF01D0
:100BE000DF91CF911F910895CF93DF93CDB7DEB7FB
:100BF0006E970FB6F894DEBF0FBECDBF60914D0269
:100C000070914E024AE0CE0101960E9486116091D9
:100C10004F02709150024AE0CE0107960E94861161
:100C20006091490270914A024AE0CE010D960E94FD
:100C3000861160914B0270914C024AE0CE014996B8
:100C40000E94861163E171E0CE0143960E94581123
:100C5000BE01675E7F4FCE0143960E94DE116EE1BA
:100C600071E00E94F111BE01635F7F4F0E94DE11AF
:100C700066E271E00E94F111BE01695F7F4F0E9440
:100C8000DE116DE271E00E94F111BE016F5F7F4FD6
:100C90000E94DE1168E371E00E94F111BC0182E65E
:100CA00092E00E942810CE0143960E94EA10CE01E5
:100CB00049960E94EA10CE010D960E94EA10CE01DC
:100CC00007960E94EA10CE0101960E94EA106091F8
:100CD0004002709141024AE0CE0101960E948611C5
:100CE00060914202709143024AE0CE0107960E9451
:100CF000861160913C0270913D024AE0CE010D9652
:100D00000E94861160913E0270913F024AE0CE013E
:100D100049960E9486116AE371E0CE0143960E94D3
:100D20005811BE01675E7F4FCE0143960E94DE11CF
:100D30006EE171E00E94F111BE01635F7F4F0E947E
:100D4000DE1166E271E00E94F111BE01695F7F4F22
:100D50000E94DE116DE271E00E94F111BE016F5F31
:100D60007F4F0E94DE1168E371E00E94F111BC0127
:100D700082E692E00E942810CE0143960E94EA107B
:100D8000CE0149960E94EA10CE010D960E94EA100B
:100D9000CE0107960E94EA10CE0101960E94EA1049
:100DA0006E960FB6F894DEBF0FBECDBFDF91CF9128
:100DB000089584E592E00E944A010E94120C60931B
:100DC0008D0170938E0180938F019093900108950F
:100DD0000F931F93CF93DF9363E270E082E692E07C
:100DE0000E94620380914B0290914C02692F82E62F
:100DF00092E00E94410E60914B0270914C0282E69B
:100E000092E00E94410E80913E0290913F02692F34
:100E100082E692E00E94410E60913E0270913F0294
:100E200082E692E00E94410E80914F029091500222
:100E3000692F82E692E00E94410E60914F0270910C
:100E4000500282E692E00E94410E8091420290910F
:100E50004302692F82E692E00E94410E60914202B5
:100E60007091430282E692E00E94410EC7EAD1E00F
:100E700089919991DC01ED91FC910280F381E02D43
:100E800009958C01E0916202F09163020280F38186
:100E9000E02D44E050E0BC0182E692E009950115A6
:100EA000110519F0C8010E94C30FB1E0C13BDB0777
:100EB000F9F68EE00E94860CBC01882777FD8095AC
:100EC000982F0E94A61220E030EC4FE754E40E94D5
:100ED0000B1220E030E048EC52E40E9432130E94F2
:100EE000731282E692E0DF91CF911F910F910C94E3
:100EF00062032F923F925F926F927F928F929F92A6
:100F0000AF92BF92CF92DF92EF92FF920F931F9317
:100F1000CF93DF930E94120C00918D0110918E01EE
:100F200020918F0130919001601B710B820B930B0C
:100F3000613D77408105910540F086E492E00E9492
:100F4000690389E392E00E94690382E692E00E94CD
:100F5000C30D892B09F481C382E692E00E94DC0D67
:100F6000EC010E94120C60938D0170938E018093AE
:100F70008F01909390018091530281112BC19E01AA
:100F800033272436310509F4F5C0C4F42136310580
:100F900009F4EAC054F42032310581F121323105DF
:100FA00009F05BC367E072E0DAC02236310509F46C
:100FB000DEC02336310509F405C14FC3273631059C
:100FC00009F4E8C084F42536310509F4DBC026367F
:100FD000310509F042C382E08093530210929201DE
:100FE000C09391013AC32936310509F4E3C00CF4EA
:100FF000D9C02A36310509F4E5C02FC362E970E093
:1010000082E692E00E9403108091B1019091B201BA
:101010008031974234F460E370E082E692E00E940F
:1010200062038091B1019091B201883E934034F403
:1010300060E370E082E692E00E9462038091B10179
:101040009091B2018436910534F460E370E082E659
:1010500092E00E9462038091B1019091B2010A97DF
:1010600034F460E370E082E692E00E9462036091F3
:10107000B1017091B2014AE050E082E692E00E9434
:10108000E2106DE270E082E692E00E9462036CE89A
:1010900070E082E692E00E9403106DE270E082E66A
:1010A00092E00E94620362EF71E082E692E00E94A9
:1010B00036106DE282E692E00E943810CDEDD1E06C
:1010C00009900020E9F72197CD5DD140C530D105C9
:1010D00044F460E370E082E692E00E9462032196AD
:1010E000F5CF6DED71E082E692E00E9436106DE280
:1010F00082E692E00E943810C8ECD1E0099000200E
:10110000E9F72197C85CD140C530D10544F460E3CC
:1011100070E082E692E00E9462032196F5CF68ECCF
:1011200071E082E692E00E9436106DE282E692E083
:101130000E943810C3EBD1E009900020E9F7219715
:10114000C35BD140C431D10544F460E370E082E672
:1011500092E00E9462032196F5CF63EB71E082E694
:1011600092E00E94361079C2C093910150C0C093A2
:1011700091014DC082E08093530210929201C0937E
:1011800091016BC282E08093530210929201C0934E
:10119000910163C282E08093530210929201C09346
:1011A00091015BC282E08093530210929201C0933E
:1011B000910153C282E08093530210929201C09336
:1011C00091014BC282E08093530210929201C0932E
:1011D000910143C2823041F520919201E22FF0E06B
:1011E000ED56FE4FC0832F5F2093920180919101B5
:1011F00090E0FC01E356F109E830F10508F02DC25A
:10120000EC5CFF4F0C94B713223008F426C283E045
:101210008093530222C22430D0F71FC22530B8F782
:101220001CC22111F4CF19C2833009F016C2C43296
:1012300009F011C28091910190E0FC01E156F109A1
:10124000EA30F10508F007C2E45CFF4F0C94B713D5
:1012500060919301C0919401603418F060544FEF95
:1012600001C040E0C03418F0C054DFEF01C0D0E04E
:1012700086E492E00E9479034D2F6C2F89E392E07F
:101280000E947903E6C19091930160ED690F80910E
:101290009401C0EDC80F603420F060E9690F4FEF92
:1012A00001C040E0C03420F0C0E9C80FDFEF01C04A
:1012B000D0E086E492E00E9479034D2F6C2F89E301
:1012C00092E00E9479032EC08091930190E0982FC4
:1012D000882720919401820F911D10924C02109248
:1012E0004B0290934A028093490210923F0210925F
:1012F0003E0290933D0280933C02ABC180919301EA
:10130000805390E010924C0210924B0290934A024C
:101310008093490210923F0210923E0290933D0248
:1013200080933C020E94F40596C160919301109154
:101330009401C091950180919601603418F0605439
:101340004FEF01C040E0103418F010540FEF01C00F
:1013500000E0D0E0DC2FCC27C80FD11D86E492E05E
:101360000E947903402F612F89E392E00E94790364
:1013700010924C0210924B02D0934A02C093490241
:1013800010923F0210923E02D0933D02C0933C0265
:1013900060C1C0919301C0FF02C061E001C060E084
:1013A00084E00E94640DC1FF02C061E001C060E002
:1013B00087E00E94640DC2FF02C061E001C060E0EE
:1013C00088E00E94640DC3FF02C061E001C060E0DC
:1013D0008BE00E94640DC4FF02C061E001C060E0C8
:1013E0008CE00E94640D35C187EAC82E81E0D82EBA
:1013F00093E9E92E91E0F92EC0E0D0E002E511E09A
:101400005524539424E0222E312C3BE0A32EB12C02
:1014100047E0842E912CD6018D919D916D010E9403
:10142000C10FF70181917F01863009F445C020F09A
:10143000873009F4A9C0FBC0C230D105F9F024F40B
:10144000C130D10589F006C0C330D10509F1C430DF
:10145000D10541F184E090E00E94BD0F3C016FE0B6
:1014600070E00E94F404A7C084E090E00E94BD0FE9
:101470003C0160E170E00E94F404ABC084E090E0C5
:101480000E94BD0F3C0161E170E00E94F404AFC016
:1014900084E090E00E94BD0F3C0162E170E00E9498
:1014A000F404B3C084E090E00E94BD0F3C0163E10E
:1014B00070E00E94F404B7C0C230D10571F124F489
:1014C000C130D105C9F007C0C330D105C9F1C4305E
:1014D000D10509F446C08CE090E00E94BD0FFC01EC
:1014E0001183008352821186108633862286909360
:1014F000A8018093A7019BC08CE090E00E94BD0FE3
:10150000FC011183008352821186108693868286A5
:101510009093AA018093A9018AC08CE090E00E9478
:10152000BD0FFC011183008352821186108688E072
:1015300090E093878287F093AC01E093AB0177C092
:101540008CE090E00E94BD0FFC0111830083528269
:1015500011861086B386A2869093AE018093AD016A
:1015600066C08CE090E00E94BD0FFC0111830083F7
:101570005282118610868CE090E093878287F093E8
:10158000B001E093AF0153C0C230D10539F124F46A
:10159000C130D105A9F006C0C330D10569F1C4300E
:1015A000D105C1F187E190E00E94BD0F3C0164E0EC
:1015B00070E00E9425057092A8016092A70137C0D3
:1015C00087E190E00E94BD0F3C0167E070E00E945F
:1015D00025057092AA016092A90129C087E190E0D7
:1015E0000E94BD0F3C0168E070E00E9425057092EA
:1015F000AC016092AB011BC087E190E00E94BD0F7F
:101600003C016BE070E00E9425057092AE01609293
:10161000AD010DC087E190E00E94BD0F3C016CE080
:1016200070E00E9425057092B0016092AF01219692
:10163000C530D10509F0EFCE0CC06091930196E161
:10164000699FB0011124605E7C4F84E592E00E94A6
:101650009E010E94E80610925302C7EAD1E08991E8
:101660009991DC01ED91FC910190F081E02D0995BB
:10167000B1E0C13BDB0799F7DF91CF911F910F914B
:10168000FF90EF90DF90CF90BF90AF909F908F90A2
:101690007F906F905F903F902F9008958230E8F494
:1016A000E82FF0E0EE0FFF1FEB5AFD4F71836083D0
:1016B000813041F0809169008C7F842B8093690098
:1016C000E89A089580916900440F551F440F551FF3
:1016D000837F842B80936900E99A08951F920F926B
:1016E0000FB60F9211242F933F934F935F936F93F5
:1016F0007F938F939F93AF93BF93EF93FF938091CB
:10170000550290915602892B29F0E0915502F091F3
:1017100056020995FF91EF91BF91AF919F918F91E3
:101720007F916F915F914F913F912F910F900FBEDD
:101730000F901F9018951F920F920FB60F921124C1
:101740002F933F934F935F936F937F938F939F93C9
:10175000AF93BF93EF93FF938091570290915802FC
:10176000892B29F0E0915702F09158020995FF91D9
:10177000EF91BF91AF919F918F917F916F915F9109
:101780004F913F912F910F900FBE0F901F90189582
:101790001F920F920FB60F9211242F933F938F93A6
:1017A0009F93AF93BF9380915A0290915B02A09157
:1017B0005C02B0915D023091590223E0230F2D3776
:1017C00020F40196A11DB11D05C026E8230F029645
:1017D000A11DB11D2093590280935A0290935B0280
:1017E000A0935C02B0935D0280915E0290915F02D3
:1017F000A0916002B09161020196A11DB11D80937C
:101800005E0290935F02A0936002B0936102BF9169
:10181000AF919F918F913F912F910F900FBE0F909D
:101820001F9018952FB7F89460915A0270915B023F
:1018300080915C0290915D022FBF08953FB7F894AC
:1018400080915E0290915F02A0916002B09161026E
:1018500026B5A89B05C02F3F19F00196A11DB11D0B
:101860003FBF6627782F892F9A2F620F711D811D28
:10187000911D42E0660F771F881F991F4A95D1F787
:101880000895019739F0880F991F880F991F0297C3
:101890000197F1F70895789484B5826084BD84B58A
:1018A000816084BD85B5826085BD85B5816085BD5B
:1018B000EEE6F0E0808181608083E1E8F0E0108274
:1018C000808182608083808181608083E0E8F0E0B5
:1018D000808181608083E1EBF0E08081846080839F
:1018E000E0EBF0E0808181608083EAE7F0E08081D6
:1018F0008460808380818260808380818160808336
:101900008081806880831092C10008958E3008F035
:101910008E5087702091060190E4299F9001112438
:10192000822B80937C0080917A00806480937A007F
:1019300080917A0086FDFCCF80917800209179001B
:1019400090E0922B08951F93CF93DF93182FEB0114
:1019500061E00E942B0D209711F460E004C0CF3F9E
:10196000D10539F461E0812FDF91CF911F910C9463
:10197000640DE12FF0E0E756FF4FE491E330F9F01A
:1019800048F4E130B9F0E230A1F584B5806284BD5D
:10199000C8BD34C0E730E9F0E83019F1E43049F56A
:1019A00080918000806280938000D0938B00C093F0
:1019B0008A0024C084B5806884BDC7BD1FC08091E3
:1019C0008000806880938000D0938900C093880055
:1019D00015C08091B00080688093B000C093B300C0
:1019E0000DC08091B00080628093B000C093B400BD
:1019F00005C0C038D1050CF0B5CFAFCFDF91CF9186
:101A00001F910895833081F028F4813099F082305D
:101A1000A1F008958730A9F08830B9F08430D1F46E
:101A2000809180008F7D03C0809180008F778093AC
:101A30008000089584B58F7702C084B58F7D84BD02
:101A400008958091B0008F7703C08091B0008F7DA2
:101A50008093B0000895CF93DF9390E0FC01E355AD
:101A6000FF4F2491FC01EF53FF4F8491882349F1EC
:101A700090E0880F991FFC01E751FF4FA591B491A9
:101A800081529F4FFC01C591D4919FB7611108C04D
:101A9000F8948C91209582238C93888182230AC0AC
:101AA000623051F4F8948C91322F309583238C93CB
:101AB0008881822B888304C0F8948C91822B8C932C
:101AC0009FBFDF91CF9108950F931F93CF93DF9323
:101AD0001F92CDB7DEB7282F30E0F901E756FF4F50
:101AE0008491F901E355FF4F1491F901EF53FF4F32
:101AF00004910023C9F0882321F069830E94020D1C
:101B00006981E02FF0E0EE0FFF1FE152FF4FA5913A
:101B1000B4919FB7F8948C91611103C01095812303
:101B200001C0812B8C939FBF0F90DF91CF911F91AC
:101B30000F910895CF93DF93282F30E0F901E756F6
:101B4000FF4F8491F901E355FF4FD491F901EF5311
:101B5000FF4FC491CC2391F081110E94020DEC2F14
:101B6000F0E0EE0FFF1FEB52FF4FA591B4912C91C7
:101B70002D2381E090E021F480E002C080E090E03D
:101B8000DF91CF910895FC01818D228D90E0805CE2
:101B90009F4F821B91098F7399270895FC01918DA6
:101BA000828D981731F0828DE80FF11D858D90E0C0
:101BB00008958FEF9FEF0895FC01918D828D981706
:101BC00061F0828DDF01A80FB11D5D968C91928D21
:101BD0009F5F9F73928F90E008958FEF9FEF08951E
:101BE00080E69FE0892B49F080E090E0892B29F086
:101BF0000E94600F81110C9400000895FC01848DF7
:101C0000DF01A80FB11DA35ABF4F2C91848D90E026
:101C100001968F739927848FA689B7892C93A08901
:101C2000B1898C9180648C93938D848D981306C0B8
:101C30000288F389E02D80818F7D80830895CF9382
:101C4000DF93EC01888D8823C9F0EA89FB898081C4
:101C500085FD05C0A889B9898C9186FD0FC00FB696
:101C600007FCF5CF808185FFF2CFA889B9898C91D7
:101C700085FFEDCFCE010E94FE0DE7CFDF91CF9122
:101C80000895CF92DF92FF920F931F93CF93DF932C
:101C90001F92CDB7DEB76C01DC015B969C915B9720
:101CA0005C968C915C97981307C05096ED91FC91CF
:101CB0005197808185FD32C0F601038D10E00F5FE2
:101CC0001F4F0F731127F02EF601848DF81211C0EB
:101CD0000FB607FCF9CFD6015096ED91FC915197C4
:101CE000808185FFF1CFC60169830E94FE0D698165
:101CF000EBCF838DE80FF11DE35AFF4F6083D601D0
:101D00005B960C935B975296ED91FC915397808173
:101D10008062808381E058968C930DC0D6015696E0
:101D2000ED91FC91579760835096ED91FC915197FE
:101D300080818064808381E090E00F90DF91CF917B
:101D40001F910F91FF90DF90CF900895BF92CF9297
:101D5000DF92EF92FF92CF93DF93EC016A017B0158
:101D6000B22EE889F98982E08083411581EE580717
:101D700061057105A1F060E079E08DE390E0A701D5
:101D800096010E9495132150310941095109569538
:101D9000479537952795211580E1380798F0E88910
:101DA000F989108260E874E88EE190E0A70196015D
:101DB0000E949513215031094109510956954795C3
:101DC00037952795EC85FD853083EE85FF8520834B
:101DD000188EEC89FD89B082EA89FB898081806157
:101DE0008083EA89FB89808188608083EA89FB8916
:101DF000808180688083EA89FB8980818F7D8083F0
:101E0000DF91CF91FF90EF90DF90CF90BF9008953A
:101E10001F920F920FB60F9211242F938F939F93BF
:101E2000EF93FF93E0917202F09173028081E09151
:101E30007802F091790282FD12C0908180917B023C
:101E40008F5F8F7320917C02821751F0E0917B02AB
:101E5000F0E0EE59FD4F958F80937B0201C08081A9
:101E6000FF91EF919F918F912F910F900FBE0F9047
:101E70001F9018951F920F920FB60F9211242F9357
:101E80003F934F935F936F937F938F939F93AF9302
:101E9000BF93EF93FF9382E692E00E94FE0DFF91C5
:101EA000EF91BF91AF919F918F917F916F915F91D2
:101EB0004F913F912F910F900FBE0F901F9018954B
:101EC00082E692E00E94C30D21E0892B09F420E014
:101ED000822F0895109265021092640288EE93E0BA
:101EE000A0E0B0E08093660290936702A09368023E
:101EF000B093690282E691E090936302809362025C
:101F000085EC90E090936F0280936E0284EC90E0F9
:101F1000909371028093700280EC90E09093730232
:101F20008093720281EC90E090937502809374022A
:101F300082EC90E0909377028093760286EC90E0BA
:101F4000909379028093780210927B0210927C0227
:101F500010927D0210927E02089508950E944B0C0B
:101F60000E94AD0F0E944B05C0EFDDE00E94790793
:101F70002097E1F30E94F00DF9CF0C94D7130C9445
:101F8000D7130C946F140C946F14CF92DF92EF92CE
:101F9000FF920F931F93CF93DF936C017A01EB01B4
:101FA000E60EF71E00E010E0CE15DF0561F0699146
:101FB000D601ED91FC910190F081E02DC6010995CB
:101FC000080F191FF1CFC801DF91CF911F910F9119
:101FD000FF90EF90DF90CF9008956115710581F02B
:101FE000DB010D900020E9F7AD0141505109461B7E
:101FF000570BDC01ED91FC910280F381E02D0994F7
:1020000080E090E00895EF92FF920F931F93CF939B
:10201000DF938C01FB01C0E0D0E064917F018FEF82
:10202000E81AF80A662361F0D801ED91FC9101905D
:10203000F081E02DC8010995C80FD91FF701EDCF38
:10204000CE01DF91CF911F910F91FF90EF900895F6
:10205000DC01ED91FC91DB0114964D915C9115979B
:102060006D917C910280F381E02D09940C94ED0F29
:10207000DC01ED91FC910190F081E02D09948F92AB
:102080009F92AF92BF92CF92DF92EF92FF920F9307
:102090001F93CF93DF93CDB7DEB7A1970FB6F89418
:1020A000DEBF0FBECDBF7C01C42EE52FCB01D22EEB
:1020B00019A221E02D1510F02AE0D22E8E010F5D1D
:1020C0001F4F8D2C912CA12CB12C6C2D7E2FA50196
:1020D00094010E9495138C2DD29E801911240150D9
:1020E00011098A3014F4805D01C0895CF801808395
:1020F000211531054105510521F0C22EE32FCA01FA
:10210000E4CFB801C7010E94ED0FA1960FB6F89475
:10211000DEBF0FBECDBFDF91CF911F910F91FF901A
:10212000EF90DF90CF90BF90AF909F908F900895E9
:10213000CF92DF92EF92FF920F931F93CF93DF9393
:10214000EC016A017B012115310579F4E881F981FF
:102150000190F081E02D642FDF91CF911F910F91BD
:10216000FF90EF90DF90CF9009942A303105E9F489
:1021700077FF1AC06DE20E9438108C014427552762
:10218000BA014C195D096E097F092AE0CE010E944F
:102190003F10800F911FDF91CF911F910F91FF9002
:1021A000EF90DF90CF9008952AE0B701A601CE010D
:1021B000DF91CF911F910F91FF90EF90DF90CF9023
:1021C0000C943F109A01AB01662757FD6095762F5E
:1021D0000C949810FC01808191810C946F14CF9322
:1021E000DF93EC0188819981009711F00E946F14B0
:1021F000198218821D821C821B821A82DF91CF9164
:1022000008950F931F93CF93DF93EC018B016F5FC2
:102210007F4F888199810E94FE14009731F0998345
:1022200088831B830A8381E001C080E0DF91CF9126
:102230001F910F910895CF93DF93EC0188819981CD
:10224000892B29F08A819B818617970760F4CE013C
:102250000E940111882341F08C819D81892B19F402
:10226000E881F981108281E0DF91CF910895EF92AA
:10227000FF920F931F93CF93DF93EC017B018A01B1
:10228000BA010E941B11811104C0CE010E94EF10FF
:1022900007C01D830C83B701888199810E94DA15DC
:1022A000CE01DF91CF911F910F91FF90EF90089594
:1022B000FC01118210821382128215821482611530
:1022C000710559F0FB0101900020E9F7AF01415081
:1022D0005109461B570B0C9437110895CF93DF9388
:1022E000EC016115710561F0FB0101900020E9F737
:1022F000AF0141505109461B570B0E94371102C0D4
:102300000E94EF10CE01DF91CF9108950F931F939C
:10231000CF93DF93CDB7DEB761970FB6F894DEBFEA
:102320000FBECDBF8C01CB01F80111821082138248
:1023300012821582148250E0BE016F5F7F4F0E94AF
:10234000E115BE016F5F7F4FC8010E946E1161965B
:102350000FB6F894DEBF0FBECDBFDF91CF911F91B6
:102360000F910895EF92FF920F931F93CF93DF93F6
:10237000EC017B010C811D816115710511F480E078
:1023800016C04115510591F0040F151FB8010E94A8
:102390001B118823A1F3288139818C819D81B7018C
:1023A000820F931F0E94DA151D830C8381E0DF9159
:1023B000CF911F910F91FF90EF900895CF93DF93EE
:1023C000EC01FB0144815581608171810E94B21151
:1023D000811103C0CE010E94EF10CE01DF91CF9199
:1023E0000895CF93DF93EC016115710569F0FB014E
:1023F00001900020E9F7AF0141505109461B570BEE
:102400000E94B211811103C0CE010E94EF10CE01D3
:10241000DF91CF9108950CD0EBC0E3D040F0DAD03B
:1024200030F021F45F3F19F0CCC0511115C1CFC07D
:10243000F0D098F39923C9F35523B1F3951B550BAD
:10244000BB27AA2762177307840738F09F5F5F4F87
:10245000220F331F441FAA1FA9F333D00E2E3AF0C8
:10246000E0E830D091505040E695001CCAF729D0E2
:10247000FE2F27D0660F771F881FBB1F2617370731
:102480004807AB07B0E809F0BB0B802DBF01FF2761
:1024900093585F4F2AF09E3F510568F092C0DCC010
:1024A0005F3FECF3983EDCF3869577956795B7959B
:1024B000F7959F5FC9F7880F911D9695879597F9B6
:1024C0000895E1E0660F771F881FBB1F621773072F
:1024D0008407BA0720F0621B730B840BBA0BEE1F44
:1024E00088F7E095089504D06894B111B5C00895B7
:1024F00098D088F09F5790F0B92F9927B751A0F046
:10250000D1F0660F771F881F991F1AF0BA95C9F787
:1025100012C0B13081F09FD0B1E008959CC0672F08
:10252000782F8827B85F39F0B93FCCF38695779537
:102530006795B395D9F73EF4909580957095619520
:102540007F4F8F4F9F4F0895E89409C097FB3EF44B
:1025500090958095709561957F4F8F4F9F4F9923F0
:10256000A9F0F92F96E9BB279395F695879577956E
:102570006795B795F111F8CFFAF4BB0F11F460FF2E
:102580001BC06F5F7F4F8F4F9F4F16C0882311F086
:1025900096E911C0772321F09EE8872F762F05C09A
:1025A000662371F096E8862F70E060E02AF09A9535
:1025B000660F771F881FDAF7880F9695879597F92A
:1025C000089597F99F6780E870E060E008959FEFB5
:1025D00080EC089500240A941616170618060906BA
:1025E000089500240A941216130614060506089589
:1025F000092E0394000C11F4882352F0BB0F40F411
:10260000BF2B11F460FF04C06F5F7F4F8F4F9F4F50
:10261000089557FD9058440F551F59F05F3F71F0D2
:102620004795880F97FB991F61F09F3F79F0879539
:102630000895121613061406551FF2CF4695F1DFC2
:1026400008C0161617061806991FF1CF8695710552
:10265000610508940895E894BB2766277727CB0186
:1026600097F908950BD0C4CFB5DF28F0BADF18F082
:10267000952309F0A6CFABCF1124EECFCADFA0F38C
:10268000959FD1F3950F50E0551F629FF001729F07
:10269000BB27F00DB11D639FAA27F00DB11DAA1F26
:1026A000649F6627B00DA11D661F829F2227B00D73
:1026B000A11D621F739FB00DA11D621F839FA00DFE
:1026C000611D221F749F3327A00D611D231F849F4E
:1026D000600D211D822F762F6A2F11249F575040A5
:1026E0008AF0E1F088234AF0EE0FFF1FBB1F661F40
:1026F000771F881F91505040A9F79E3F510570F0F9
:1027000060CFAACF5F3FECF3983EDCF386957795D8
:102710006795B795F795E7959F5FC1F7FE2B880FF3
:10272000911D9695879597F90895A1E21A2EAA1BF7
:10273000BB1BFD010DC0AA1FBB1FEE1FFF1FA21771
:10274000B307E407F50720F0A21BB30BE40BF50B6E
:10275000661F771F881F991F1A9469F760957095F7
:10276000809590959B01AC01BD01CF010895EE0FBE
:10277000FF1F0590F491E02D09940E94C813A59FB6
:10278000900DB49F900DA49F800D911D112408956C
:10279000A29FB001B39FC001A39F700D811D1124A2
:1027A000911DB29F700D811D1124911D0895CF932D
:1027B000DF938230910510F482E090E0E091010314
:1027C000F091020320E030E0A0E0B0E0309739F172
:1027D0004081518148175907B8F04817590771F4DB
:1027E00082819381109729F013969C938E93129770
:1027F0002CC0909302038093010327C0211531055B
:1028000031F04217530718F0A901DB0101C0EF01B5
:102810009A01BD01DF010280F381E02DD7CF2115A0
:102820003105F9F0281B390B2430310580F48A81F9
:102830009B816115710521F0FB019383828304C0A4
:102840009093020380930103FE01329644C0FE017F
:10285000E20FF31F8193919322503109398328832A
:102860003AC02091FF0230910003232B41F42091C4
:10287000020130910301309300032093FF02209165
:102880000001309101012115310541F42DB73EB70A
:102890004091040150910501241B350BE091FF028A
:1028A000F0910003E217F307A0F42E1B3F0B28174B
:1028B000390778F0AC014E5F5F4F2417350748F0B9
:1028C0004E0F5F1F509300034093FF02819391933B
:1028D00002C0E0E0F0E0CF01DF91CF910895CF9307
:1028E000DF93009709F487C0FC01329713821282AC
:1028F000C0910103D0910203209781F4208131819E
:10290000280F391F8091FF029091000382179307CF
:1029100079F5F0930003E093FF026DC0DE0120E043
:1029200030E0AE17BF0750F412964D915C911397AB
:102930009D014115510509F1DA01F3CFB383A2835B
:1029400040815181840F951F8A179B0771F48D91E7
:102950009C911197840F951F029691838083129604
:102960008D919C911397938382832115310529F4CE
:10297000F0930203E09301033EC0D9011396FC9348
:10298000EE9312974D915D91A40FB51FEA17FB07C7
:1029900079F480819181840F951F0296D901119657
:1029A0009C938E938281938113969C938E9312971E
:1029B000E0E0F0E08A819B81009719F0FE01EC01D4
:1029C000F9CFCE01029628813981820F931F209181
:1029D000FF02309100032817390769F4309729F472
:1029E000109202031092010302C013821282D0934C
:1029F0000003C093FF02DF91CF910895A0E0B0E003
:102A0000E4E0F5E10C942216EC01CB01209719F4D7
:102A10000E94D713B8C0FE01E60FF71F9E01225097
:102A20003109E217F30708F4ACC0D9010D911C91EC
:102A3000119706171707B8F00530110508F49FC065
:102A4000A801445051094617570708F498C002508E
:102A50001109061B170B019311936D937C93CF0102
:102A60000E946F148CC05B01A01AB10A4E01800E47
:102A7000911EA0910103B0910203612C712C60E0C2
:102A800070E0109709F449C0A815B905C9F5ED9093
:102A9000FC901197670142E0C40ED11CCA14DB04FC
:102AA00078F147018A189B08640142E0C40ED11CEA
:102AB0001296BC9012971396AC91B5E0CB16D10448
:102AC00040F0B282A38391828082D9018D939C933E
:102AD00009C00E5F1F4F0E0D1F1DF90111830083EA
:102AE000EB2DFA2F6115710531F0DB011396FC9384
:102AF000EE93129744C0F0930203E09301033FC0AA
:102B00006D917C9111976616770608F43B01BD0123
:102B100012960D90BC91A02DB4CF6091FF027091E0
:102B2000000368157905E9F468167906D0F4409138
:102B30000001509101014115510541F44DB75EB7B7
:102B40006091040170910501461B570BE417F507CE
:102B5000C0F4F0930003E093FF02F90191838083B6
:102B60000EC00E94D7137C01009759F0A801BE0146
:102B70000E94C815CE010E946F14C70104C0CE0187
:102B800002C080E090E0CDB7DEB7EEE00C943E16D8
:102B9000FB01DC0102C001900D9241505040D8F77A
:102BA0000895FB01DC018D91019080190110D9F38A
:102BB000990B0895FB01DC0101900D920020E1F7D3
:102BC00008954532510520F4423010F00C94EC1574
:102BD000FB011082CB010895BB27FB015527AA27D3
:102BE000880F991FAA1FA41710F0A41B839550519A
:102BF000B9F7A05DAA3308F0A95DA193009779F712
:102C0000B111B1931192CB010C940E16F999FECF2C
:102C100092BD81BDF89A992780B50895DC01FC0129
:102C2000672F71917723E1F7329704C07C916D9300
:102C300070836291AE17BF07C8F308952F923F9239
:102C40004F925F926F927F928F929F92AF92BF92BC
:102C5000CF92DF92EF92FF920F931F93CF93DF9368
:102C6000CDB7DEB7CA1BDB0B0FB6F894DEBF0FBEC5
:102C7000CDBF09942A88398848885F846E847D8412
:102C80008C849B84AA84B984C884DF80EE80FD8014
:102C90000C811B81AA81B981CE0FD11D0FB6F8948A
:0E2CA000DEBF0FBECDBFED010895F894FFCF4B
:102CAE000000030380000152003100320033003473
:102CBE00004C000A4C3A5B73746570733D00206CD7
:102CCE00696D69743D0020706174683D002064690F
:102CDE007374616E63653D005D000A523A5B7374F6
:102CEE00657073523D0000000000C501EB0100004D
:102CFE000000DE02C601000000001802D70100002D
:0E2D0E000000410EC50FC30DDC0DCE0D1F0ED3
:00000001FF
