:100000000C94AE000C94D6000C94D6000C94D60040
:100010000C94D6000C94D6000C94D6000C94DB13F0
:100020000C94D6000C94D8000C94D6000C94D600F6
:100030000C94D6000C94D6000C94D6000C94D600E8
:100040000C94250C0C94D6000C94CC0F0C94FE0F41
:100050000C94D6000C94D6000C94D6000C94D600C8
:100060000C94D6000C94D6009008900890089D0837
:1000700097089D089A089D08220A240ABB08B4081C
:10008000220A240ABB08C208ED08160A7D0B220BBF
:100090002A0B670B800B400BA30B2D303030303018
:1000A0003030303030303030303030303030300080
:1000B0002D3030303030002D3030303030003030A6
:1000C00030303100524F42424F2D002D3030303011
:1000D0003030303030303030303030303030303020
:1000E000002D3030303030002D30303030300030A6
:1000F0003030303100524F42424F2D000000000896
:1001000000020100000304070000000000000000DE
:10011000010204081020408001020408102001029E
:10012000040810200404040404040404020202026B
:100130000202030303030303000000002300260060
:10014000290000000000250028002B00000000000E
:10015000240027002A00020091052E1011241FBE42
:10016000CFEFD8E0DEBFCDBF11E0A0E0B1E0E8E91D
:10017000FEE202C005900D92AC36B107D9F722E03D
:10018000ACE6B1E001C01D92A038B207E1F711E082
:10019000CCE5D1E004C02297FE010E940516C835C7
:1001A000D107C9F70E9472100C944A170C940000F2
:1001B0001F920F920FB60F9211242F933F934F93DC
:1001C0005F936F937F938F939F93AF93BF93EF93BF
:1001D000FF9380916E018F5F80936E0120916E017D
:1001E00080916F0190E0FC01EE0FFF1FE80FF91FF7
:1001F000E059FE4F818128130EC080916F0190E07D
:10020000FC01EE0FFF1FE80FF91FE059FE4F82813E
:100210008093B20060C020916E0180916F0190E0E8
:10022000FC01EE0FFF1FE80FF91FE059FE4F81811F
:10023000821708F050C080916F0190E0FC01EE0F32
:10024000FF1FE80FF91FE059FE4F808185FF0FC0A7
:1002500080916F0190E0FC01EE0FFF1FE80FF91F86
:10026000E059FE4F808160E08F710E94E90D80911E
:100270006F018F5F80936F0110926E011092B20038
:1002800080916F01882309F180916F018930E8F432
:1002900080916F0190E0FC01EE0FFF1FE80FF91F46
:1002A000E059FE4F808185FF16C080916F0190E07C
:1002B000FC01EE0FFF1FE80FF91FE059FE4F808190
:1002C00061E08F710E94E90D06C080916F01893055
:1002D00010F010926F01FF91EF91BF91AF919F913C
:1002E0008F917F916F915F914F913F912F910F90DF
:1002F0000FBE0F901F90189520916D01283030F49B
:100300002F5F20936D01FC0120830895FC01108272
:1003100008951F93CF93DF93EC01162F80916C010A
:10032000811123C0E5E7F1E09BE087E5DF0111974C
:100330009C938083339621E0ED38F207B9F78EE382
:100340008093710110926F0110926E0110927000F3
:100350001092B00082E08093B1001092B20091E060
:1003600097BB9093700090936C018881882399F0DB
:1003700061E0812F0E94B00D288130E0F901EE0F7D
:10038000FF1FE20FF31FE059FE4F1F719081907E17
:10039000912B906290838881DF91CF911F91089576
:1003A000FC0180819FEF980F983000F56E3EF2E0DF
:1003B0007F073CF0693B9BE079072CF068EB7BE022
:1003C00002C06EEE72E06850710990E09B01220F4E
:1003D000232F221F330BFC01EE0FFF1FE80FF91F25
:1003E000E059FE4F2183660F60956283089508955A
:1003F00008950F931F93CF93DF938C0184E090E0D7
:100400000E948310EC01188219821A82F8018281FD
:100410000E940B0DBC01882777FD8095982F0E94C4
:10042000D31420E030EC4FE754E40E94381420E06D
:1004300030E048EC52E40E945F150E94A5146B83E3
:10044000CE01DF91CF911F910F9108950F931F93CC
:10045000CF93DF938C0184E090E00E948310EC0145
:10046000188219821A82F80182810E940B0DBC0148
:10047000882777FD8095982F0E94D31420E030ECD8
:100480004FE754E40E94381420E030E048EC52E496
:100490000E945F150E94A5146B83CE01DF91CF915E
:1004A0001F910F910895CF93DF93EC0184E090E0CA
:1004B0000E948310FC01108211821282888583833E
:1004C000CF01DF91CF910895CF93DF93EC0184E0CA
:1004D00090E00E948310FC018C8180838D81818358
:1004E0008E8182838F818383CF01DF91CF910895A5
:1004F000CF92DF92EF92FF920F931F93CF93DF93F0
:10050000EC01888581111BC01D8A1E8A8A810E9488
:100510001F0E019709F08CC00E946F0C09851A8587
:100520002B853C85601B710B820B930B6B37710520
:100530008105910508F499C081E0888796C08D896E
:10054000882309F47CC08A810E941F0E892B09F040
:1005500047C08E89882369F18885823079F030F42C
:100560008130A9F489898C8382E00BC0833059F0F3
:10057000843069F489898F83188609C089898D83BD
:1005800083E0888704C089898E8384E0FACF0E9443
:100590006F0C69877A878B879C8781E08D8B1E8A99
:1005A0001D861E861F86188A198A1A8A1B8A1C8A2B
:1005B0003FC00E946F0C09891A892B893C89C98424
:1005C000DA84EB84FC840C191D092E093F09060FFF
:1005D000171F281F391F098B1A8B2B8B3C8B28C0A8
:1005E00049895A896B897C89452B462B472B51F0C9
:1005F0004D855E856F857889452B462B472B11F0FD
:1006000081E08E8B0E946F0C0D851E852F853889A9
:10061000C984DA84EB84FC840C191D092E093F0976
:10062000060F171F281F391F0D871E872F87388B2E
:100630000E946F0C69877A878B879C8716C08A8196
:100640000E941F0E892B89F40E946F0C69877A879C
:100650008B879C8781E08D8B1E8A1D861E861F8658
:10066000188A198A1A8A1B8A1C8ADF91CF911F91D6
:100670000F91FF90EF90DF90CF900895CF92DF928F
:10068000EF92FF92CF93DF93EC018A81882361F18F
:100690000E947B0CCC80DD80EE80FF806C197D0990
:1006A0008E099F09613375478105910508F463C080
:1006B00061E08A850E94B00D61E08A850E94E90DA3
:1006C00089E090E00E94C60C60E08A850E94E90DF6
:1006D00060E08A850E94B00D0E947B0C6C837D8354
:1006E0008E839F831A8247C00E947B0CCC80DD8062
:1006F000EE80FF806C197D098E099F09613A76486A
:100700008140910538F58B81882371F18A850E949B
:100710001F0E892B81F50E947B0C9B01AC01CC80C4
:10072000DD80EE80FF802C193D094E095F09A0EDA8
:10073000B4E80E94091620E834E84EE150E00E9437
:10074000C2152850310937FD03C03987288702C0F8
:10075000198618861B8281E08A830E947B0C6C8339
:100760007D838E839F8307C08A850E941F0E019719
:1007700011F481E08B83DF91CF91FF90EF90DF90B8
:10078000CF900895DC01ED91FC910190F081E02D76
:10079000099483E00E940B0D8835924034F484E084
:1007A0000E940B0D893C91051CF483E090E002C08F
:1007B00084E090E09093B4018093B30108951F9377
:1007C000CF93DF93EC01162F5527BA01882777FDC9
:1007D0008095982F0E94D3142AE939E949E750E41B
:1007E0000E945F150E94A01488810E94280D112389
:1007F00011F061E001C060E08A81DF91CF911F912B
:100800000C94E90DCF93DF93EB0120E431E0FC0180
:10081000318320837383628360E08C2F0E94B00D4C
:10082000C131D105A1F044F4CF30D10569F0609712
:10083000B9F461E087E010C0C231D10559F0639787
:1008400079F461E08CE008C061E084E005C061E01B
:1008500088E002C061E08BE0DF91CF910C94B00D95
:10086000DF91CF910895FC01862F28E431E0318398
:1008700020836283738360E00C94B00DCF93DF9389
:10088000EC01862F28E531E0398328831C821D8204
:100890001E821F8218861D861E861F86188A198A48
:1008A0001A8A1B8A1C8A1D8A1E8A6A837B8360E0DF
:1008B0000E94B00D0E946F0C69877A878B879C8796
:1008C0001886DF91CF910895EF92FF920F931F93B7
:1008D000CF93DF930E94C90326E040E056E960E031
:1008E00070E08AEC91E00E946A0F1092BF01809143
:1008F000B3019091B401039709F04CC0809181003D
:100900008860809381006DE070E080EC91E00E944F
:10091000890184E090E00E948110EC0161E170E0C7
:100920000E940204D093A601C093A50184E090E048
:100930000E948110EC0162E170E00E940204D093F9
:10094000A801C093A70184E090E00E948110EC010F
:1009500060E170E00E940204D093AA01C093A90153
:1009600084E090E00E948110EC016FE070E00E9452
:100970000204D093AC01C093AB0184E090E00E94EC
:100980008110EC016EE070E00E940204D093AE0191
:10099000C093AD018091B3019091B401049709F027
:1009A00097C061E084E00E94B00D61E082E00E94A7
:1009B000B00D61E08EE00E94B00D61E082E00E9427
:1009C000B00D61E083E00E94B00D61E084E00E9420
:1009D000B00D61E085E00E94B00D61E086E00E940C
:1009E000B00D61E087E00E94B00D84E090E00E94CD
:1009F0008110EC0160E170E00E943304D093A60105
:100A0000C093A50184E090E00E948110EC0160E1B8
:100A100070E00E943304D093A801C093A70184E042
:100A200090E00E948110EC0160E170E00E943304CC
:100A3000D093AA01C093A90184E090E00E948110A4
:100A4000EC0162E170E00E943304D093AC01C093EA
:100A5000AB0184E090E00E948110EC0160E170E065
:100A60000E943304D093AE01C093AD0108EC10E0B6
:100A7000C0E0D0E0EE24E394F12C97010C2E01C0ED
:100A8000220F0A94EAF741E064E082E00E94480EF7
:100A9000219624E630E040E050E0B80183E00E9477
:100AA0009E1164E670E080E090E00E949E0C085386
:100AB0001F4FC830D10509F720E040E064E082E034
:100AC000DF91CF911F910F91FF90EF900C94480E02
:100AD000DF91CF911F910F91FF90EF900895CF93E9
:100AE000482FC62F8091B1019091B201403420F07F
:100AF000405450E061E002C050E060E00E94DF033B
:100B00008091AF019091B001C03428F0C0544C2FB7
:100B100050E061E003C04C2F50E060E0CF910C94B6
:100B2000DF03CF93DF9380EC91E00E947C010E9471
:100B30006F0C6093B5017093B6018093B7019093E9
:100B4000B80184E090E00E948110EC0184E090E024
:100B50009B838A8385E090E09983888361E00E948B
:100B6000B00D61E08A810E94B00DD093B201C093B4
:100B7000B10184E090E00E948110EC0187E090E0F8
:100B80009B838A8386E090E09983888361E00E945A
:100B9000B00D61E08A810E94B00DD093B001C09386
:100BA000AF010E946F0C60938B0170938C01809356
:100BB0008D0190938E01DF91CF9108950F931F9334
:100BC000CF93DF9363E270E08AEC91E00E94C2036E
:100BD0008091B3019091B401039709F059C060E08E
:100BE00070E08AEC91E00E94C20360E070E08AEC61
:100BF00091E00E94C20360E070E08AEC91E00E9404
:100C0000C20360E070E08AEC91E00E94C20360E001
:100C100070E08AEC91E00E94C20360E070E08AEC30
:100C200091E00E94C20360E070E08AEC91E00E94D3
:100C3000C20360E070E08AEC91E00E94C203C5EA62
:100C4000D1E089919991DC01ED91FC910280F381D1
:100C5000E02D09958C01E091CA01F091CB01028051
:100C6000F381E02D44E050E0BC018AEC91E009956D
:100C70000115110519F0C8010E948710B1E0CF3AA3
:100C8000DB07F9F660E070E08AEC91E00E94C203B5
:100C90008091B3019091B401049709F0DEC088E01F
:100CA0000E941F0EC1E0019709F0C0E089E00E9498
:100CB0001F0E019709F4C2608AE00E941F0E01977F
:100CC00009F4C4608BE00E941F0E019709F4C8600C
:100CD0008CE00E941F0E019709F4C0618DE00E9414
:100CE0001F0E019709F4C0626C2F8AEC91E00E94FC
:100CF000050F8091A5019091A601DC01ED91FC9179
:100D00000280F381E02D0995EC01E091CA01F09198
:100D1000CB010280F381E02D44E050E0BC018AEC7D
:100D200091E00995209719F0CE010E9487108091DB
:100D3000A7019091A801DC01ED91FC910280F38163
:100D4000E02D0995EC01E091CA01F091CB01028000
:100D5000F381E02D44E050E0BC018AEC91E009957C
:100D6000209719F0CE010E9487108091A9019091DF
:100D7000AA01DC01ED91FC910280F381E02D09953F
:100D8000EC01E091CA01F091CB010280F381E02DEA
:100D900044E050E0BC018AEC91E00995209719F0FD
:100DA000CE010E948710C091B901D091BA0160E0D4
:100DB00070E08AEC91E00E94C20360E070E08AEC8F
:100DC00091E00E94C2036D2F8AEC91E00E94050F12
:100DD0006C2F8AEC91E00E94050F8091AB019091FD
:100DE000AC01DC01ED91FC910280F381E02D0995CD
:100DF000EC01E091CA01F091CB010280F381E02D7A
:100E000044E050E0BC018AEC91E00995209719F08C
:100E1000CE010E9487108091AD019091AE01DC015E
:100E2000ED91FC910280F381E02D0995EC01E091B8
:100E3000CA01F091CB010280F381E02D44E050E043
:100E4000BC018AEC91E00995209739F0CE01DF9141
:100E5000CF911F910F910C948710DF91CF911F912B
:100E60000F9108952F923F925F926F927F928F928F
:100E70009F92AF92BF92CF92DF92EF92FF920F9329
:100E80001F93CF93DF938091B3019091B4010397A7
:100E900041F08091B3019091B401049709F0C3C46B
:100EA000E5C20E946F0C00918B0110918C01209182
:100EB0008D0130918E01601B710B820B930B613D94
:100EC00077408105910590F0E091B101F091B20178
:100ED00060E070E080810E94280DE091AF01F09108
:100EE000B00160E070E080810E94280D8AEC91E002
:100EF0000E94870E892B09F4A9C28AEC91E00E9416
:100F0000A00EEC010E946F0C60938B0170938C011A
:100F100080938D0190938E018091BF018111E6C075
:100F20009E0133272536310509F4B8C0FCF422367A
:100F3000310509F4B0C054F420323105A9F121364D
:100F4000310509F083C2C0938F01EDC0233631050E
:100F500009F4C4C02436310509F078C282E08093D8
:100F6000BF0110929001C0938F0170C228363105E5
:100F700009F4A4C084F42636310509F497C0273655
:100F8000310509F063C282E08093BF0110929001A5
:100F9000C0938F015BC22936310509F497C02A3608
:100FA000310509F49BC052C265EF70E08AEC91E014
:100FB0000E94C7108091B3019091B4018031974293
:100FC00034F460E370E08AEC91E00E94C203809107
:100FD000B3019091B401883E934034F460E370E033
:100FE0008AEC91E00E94C2038091B3019091B40118
:100FF0008436910534F460E370E08AEC91E00E945D
:10100000C2038091B3019091B4010A9734F460E374
:1010100070E08AEC91E00E94C2036091B30170918C
:10102000B4014AE050E08AEC91E00E9496116DE232
:1010300070E08AEC91E00E94C2036FEE70E08AECEF
:1010400091E00E94C7106DE270E08AEC91E00E948E
:10105000C2038091B3019091B401039719F462E542
:1010600070E002C06CE470E08AEC91E00E94C20380
:1010700068EE70E08AEC91E00E94C71061EE70E0CB
:101080008AEC91E00E94C7106BEC70E08AEC91E072
:101090000E94C710DBC1C0938F0145C082E08093DE
:1010A000BF0110929001C0938F01D0C182E0809364
:1010B000BF0110929001C0938F01C8C182E080935C
:1010C000BF0110929001C0938F01C0C182E0809354
:1010D000BF0110929001C0938F01B8C182E080934C
:1010E000BF0110929001C0938F01B0C1823041F5D1
:1010F00020919001E22FF0E0EF56FE4FC0832F5F6A
:101100002093900180918F0190E0FC01E356F1095A
:10111000E830F10508F09AC1EC5CFF4F0C9403161F
:10112000223008F493C183E08093BF018FC1243043
:10113000D0F78CC12530B8F789C12111F4CF86C111
:10114000833009F083C1C43209F07EC180918F01E0
:1011500090E0FC01E156F109EA30F10508F074C1B4
:10116000E45CFF4F0C940316609192018091910111
:101170000E946F0569C160919201809191010E9466
:101180006F0560C1C0919101C0FF02C061E001C064
:1011900060E084E00E94E90DC1FF02C061E001C08F
:1011A00060E087E00E94E90DC2FF02C061E001C07B
:1011B00060E088E00E94E90DC3FF02C061E001C069
:1011C00060E08BE00E94E90DC4FF02C061E001C055
:1011D00060E08CE00E94E90D35C125EAC22E21E0D5
:1011E000D22E31E9E32E31E0F32EC0E0D0E000E56D
:1011F00011E05524539444E0242E312C5BE0A52EBD
:10120000B12C67E0862E912CD6018D919D916D01B8
:101210000E948510F70181917F01863009F445C055
:1012200020F0873009F4A9C0FBC0C230D105F9F025
:1012300024F4C130D10589F006C0C330D10509F1CD
:10124000C430D10541F184E090E00E9481103C015E
:1012500061E170E00E940204A7C084E090E00E9477
:1012600081103C0162E170E00E940204ABC084E0A6
:1012700090E00E9481103C0160E170E00E94020455
:10128000AFC084E090E00E9481103C016FE070E00C
:101290000E940204B3C084E090E00E9481103C01EF
:1012A0006EE070E00E940204B7C0C230D10571F157
:1012B00024F4C130D105C9F007C0C330D105C9F14C
:1012C000C430D10509F446C08CE090E00E94811042
:1012D000FC01118300835282118610863386228698
:1012E0009093A6018093A5019BC08CE090E00E94A2
:1012F0008110FC011183008352821186108693862F
:1013000082869093A8018093A7018AC08CE090E028
:101310000E948110FC011183008352821186108685
:1013200088E090E093878287F093AA01E093A90177
:1013300077C08CE090E00E948110FC011183008353
:10134000528211861086B386A2869093AC01809358
:10135000AB0166C08CE090E00E948110FC0111831B
:1013600000835282118610868CE090E093878287FA
:10137000F093AE01E093AD0153C0C230D10539F115
:1013800024F4C130D105A9F006C0C330D10569F1FC
:10139000C430D105C1F187E190E00E9481103C0189
:1013A00064E070E00E943E047092A6016092A50184
:1013B00037C087E190E00E9481103C0167E070E057
:1013C0000E943E047092A8016092A70129C087E1A3
:1013D00090E00E9481103C0168E070E00E943E04B1
:1013E0007092AA016092A9011BC087E190E00E945F
:1013F00081103C016BE070E00E943E047092AC01F1
:101400006092AB010DC087E190E00E9481103C0129
:101410006CE070E00E943E047092AE016092AD01FB
:101420002196C530D10509F0EFCE0CC06091910135
:1014300096E1699FB0011124605E7C4F80EC91E0E1
:101440000E94D0010E94DE051092BF01C5EAD1E0E2
:1014500089919991DC01ED91FC910190F081E02D51
:101460000995B1E0CF3ADB0799F713CD8AEC91E00B
:101470000E94870E892B09F482C18AEC91E00E94B8
:10148000A00E2091BF012111A2C09C013327233659
:10149000310509F494C054F42136310509F48CC0A7
:1014A0000CF08DC02032310581F069C1253631053F
:1014B00009F485C00CF483C02636310509F47FC0D9
:1014C0002736310509F47BC05AC164EC70E08AEC20
:1014D00091E00E94C7108091B3019091B4018031D6
:1014E000974234F460E370E08AEC91E00E94C2031A
:1014F0008091B3019091B401883E934034F460E34D
:1015000070E08AEC91E00E94C2038091B301909157
:10151000B4018436910534F460E370E08AEC91E024
:101520000E94C2038091B3019091B4010A9734F4F0
:1015300060E370E08AEC91E00E94C2036091B30125
:101540007091B4014AE050E08AEC91E00E9496115B
:101550006DE270E08AEC91E00E94C2036EEB70E0F5
:101560008AEC91E00E94C7106DE270E08AEC91E095
:101570000E94C2038091B3019091B401039719F4C2
:1015800062E570E002C06CE470E08AEC91E00E94D9
:10159000C20367EB70E08AEC91E00E94C71060EB39
:1015A00070E08AEC91E00E94C7106AE970E08AEC72
:1015B00091E00E94C710E3C080938F0128C0809300
:1015C0008F0182E08093BF0110929001D8C0223039
:1015D00029F590919001E92FF0E0EF56FE4F8083BE
:1015E00081E0890F8093900190918F01943661F092
:1015F00028F4923649F0933639F0C1C0963621F07E
:1016000018F0973641F0BBC0882309F4B8C083E0D6
:101610008093BF01B4C08230D0F7B1C0233009F04D
:10162000AEC0843209F0A9C080918F0190E0FC0126
:10163000E156F109E730F10508F09FC0EA5BFF4F82
:101640000C9403162091910141E064E082E00E9435
:10165000480E53C0C0919101C0FF02C061E001C0BB
:1016600060E085E00E94E90DC1FF02C061E001C0B9
:1016700060E086E00E94E90DC2FF24C061E023C063
:10168000C0919101C0FF04C060E082E00E94E90DBA
:10169000C1FF04C060E083E00E94E90DC2FF04C006
:1016A00060E084E00E94E90DC3FF04C060E085E0D3
:1016B0000E94E90DC4FF04C060E086E00E94E90DCD
:1016C000C5FF1BC060E087E00E94E90D16C0E091F5
:1016D0009101F0E0EE0FFF1FEA5FFE4F6081718124
:1016E00024E630E040E050E083E00E949E1164E692
:1016F00070E080E090E00E949E0C0E94DE053DC0FC
:10170000C0919101C0FF04C061E082E00E94E90D38
:10171000C1FF04C061E083E00E94E90DC2FF04C084
:1017200061E084E00E94E90DC3FF04C061E085E050
:101730000E94E90DC4FF04C061E086E00E94E90D4B
:10174000C5FFDBCF9BCFD0919101C0919201D0FF1B
:1017500005C06C2F70E083E00E94280DD1FF05C00A
:101760006C2F70E085E00E94280DD2FFC6CF6C2F51
:1017700070E086E00E94280DC0CF1092BF010E9449
:101780006F0C0091B5011091B6012091B701309115
:10179000B801601B710B820B930B623371058105DD
:1017A0009105F8F481E10E940B0D9093BC018093A8
:1017B000BB01811524E09207B0F52091BD01309165
:1017C000BE012817390728F49093BE018093BD010C
:1017D0002AC020913801309139018217930718F5FA
:1017E0001EC08091BD019091BE01209138013091C1
:1017F0003901821B930B9093BA018093B9010E9427
:101800006F0C6093B5017093B6018093B70190930C
:10181000B8011092BE011092BD0180E094E0909357
:10182000390180933801DF91CF911F910F91FF9083
:10183000EF90DF90CF90BF90AF909F908F907F9070
:101840006F905F903F902F9008951F920F920FB668
:101850000F9211242F933F938F939F93AF93BF9336
:101860008091C2019091C301A091C401B091C501C2
:101870003091C10123E0230F2D3720F40196A11DE3
:10188000B11D05C026E8230F0296A11DB11D2093AE
:10189000C1018093C2019093C301A093C401B0938E
:1018A000C5018091C6019091C701A091C801B09176
:1018B000C9010196A11DB11D8093C6019093C70176
:1018C000A093C801B093C901BF91AF919F918F912F
:1018D0003F912F910F900FBE0F901F9018952FB72B
:1018E000F8946091C2017091C3018091C4019091FC
:1018F000C5012FBF08953FB7F8948091C60190911C
:10190000C701A091C801B091C90126B5A89B05C027
:101910002F3F19F00196A11DB11D3FBF6627782FFB
:10192000892F9A2F620F711D811D911D42E0660F54
:10193000771F881F991F4A95D1F70895CF92DF929C
:10194000EF92FF92CF93DF936B017C010E947B0C9F
:10195000EB01C114D104E104F10489F00E943714B1
:101960000E947B0C6C1B7D0B683E734090F381E002
:10197000C81AD108E108F108C851DC4FEACFDF915D
:10198000CF91FF90EF90DF90CF900895019739F0BD
:10199000880F991F880F991F02970197F1F70895F3
:1019A000789484B5826084BD84B5816084BD85B53A
:1019B000826085BD85B5816085BDEEE6F0E0808101
:1019C00081608083E1E8F0E0108280818260808322
:1019D000808181608083E0E8F0E0808181608083A5
:1019E000E1EBF0E0808184608083E0EBF0E08081D7
:1019F00081608083EAE7F0E0808184608083808179
:101A00008260808380818160808380818068808320
:101A10001092C10008958E3008F08E50877020918A
:101A20003A0190E4299F90011124822B80937C003D
:101A300080917A00806480937A0080917A0086FD9C
:101A4000FCCF809178002091790090E0922B08954E
:101A50001F93CF93DF93182FEB0161E00E94B00D2D
:101A6000209711F460E004C0CF3FD10539F461E064
:101A7000812FDF91CF911F910C94E90DE12FF0E0C0
:101A8000E450FF4FE491E330F9F048F4E130B9F06D
:101A9000E230A1F584B5806284BDC8BD34C0E730B2
:101AA000E9F0E83019F1E43049F580918000806276
:101AB00080938000D0938B00C0938A0024C084B5AB
:101AC000806884BDC7BD1FC08091800080688093FE
:101AD0008000D0938900C093880015C08091B00029
:101AE00080688093B000C093B3000DC08091B000B7
:101AF00080628093B000C093B40005C0C038D105A7
:101B00000CF0B5CFAFCFDF91CF911F910895833007
:101B100081F028F4813099F08230A1F00895873067
:101B2000A9F08830B9F08430D1F4809180008F7DA5
:101B300003C0809180008F7780938000089584B5E2
:101B40008F7702C084B58F7D84BD08958091B000E9
:101B50008F7703C08091B0008F7D8093B00008958F
:101B6000CF93DF9390E0FC01E05FFE4F2491FC01F6
:101B7000EC5DFE4F8491882349F190E0880F991F16
:101B8000FC01E45BFE4FA591B4918E5B9E4FFC017E
:101B9000C591D4919FB7611108C0F8948C9120959C
:101BA00082238C93888182230AC0623051F4F89496
:101BB0008C91322F309583238C938881822B88835C
:101BC00004C0F8948C91822B8C939FBFDF91CF91AE
:101BD00008950F931F93CF93DF931F92CDB7DEB776
:101BE000282F30E0F901E450FF4F8491F901E05FC4
:101BF000FE4F1491F901EC5DFE4F04910023C9F0F2
:101C0000882321F069830E94870D6981E02FF0E02D
:101C1000EE0FFF1FEE5BFE4FA591B4919FB7F894B6
:101C20008C91611103C01095812301C0812B8C938D
:101C30009FBF0F90DF91CF911F910F910895CF9388
:101C4000DF93282F30E0F901E450FF4F8491F90130
:101C5000E05FFE4FD491F901EC5DFE4FC491CC23BF
:101C600091F081110E94870DEC2FF0E0EE0FFF1F25
:101C7000E85CFE4FA591B4912C912D2381E090E07A
:101C800021F480E002C080E090E0DF91CF910895E0
:101C9000BF92CF92DF92EF92FF920F931F93CF9359
:101CA000DF93C82ED62EB42EC7E0D0E0022F10E06E
:101CB00087E0E82EF12CB1100AC0F701EC1BFD0BF8
:101CC000B80102C075956795EA95E2F707C0B801BB
:101CD0000C2E02C0759567950A94E2F7617077271C
:101CE0008C2D0E94E90D61E08D2D0E94E90D60E0D0
:101CF0008D2D0E94E90D2197F0F6DF91CF911F9174
:101D00000F91FF90EF90DF90CF90BF900895FC016E
:101D1000818D228D90E0805C9F4F821B91098F7393
:101D200099270895FC01918D828D981731F0828D4D
:101D3000E80FF11D858D90E008958FEF9FEF0895D6
:101D4000FC01918D828D981761F0828DDF01A80FC3
:101D5000B11D5D968C91928D9F5F9F73928F90E0E5
:101D600008958FEF9FEF089584E290E1892B49F069
:101D700080E090E0892B29F00E94241081110C94BE
:101D800000000895FC01848DDF01A80FB11DA35A46
:101D9000BF4F2C91848D90E001968F739927848F8B
:101DA000A689B7892C93A089B1898C9180648C9382
:101DB000938D848D981306C00288F389E02D80816D
:101DC0008F7D80830895CF93DF93EC01888D8823E6
:101DD000C9F0EA89FB89808185FD05C0A889B98998
:101DE0008C9186FD0FC00FB607FCF5CF808185FF73
:101DF000F2CFA889B9898C9185FFEDCFCE010E94E1
:101E0000C20EE7CFDF91CF910895CF92DF92FF927C
:101E10000F931F93CF93DF931F92CDB7DEB76C0163
:101E2000DC015B969C915B975C968C915C97981318
:101E300007C05096ED91FC915197808185FD32C08D
:101E4000F601038D10E00F5F1F4F0F731127F02E67
:101E5000F601848DF81211C00FB607FCF9CFD60138
:101E60005096ED91FC915197808185FFF1CFC6018D
:101E700069830E94C20E6981EBCF838DE80FF11D4B
:101E8000E35AFF4F6083D6015B960C935B975296A3
:101E9000ED91FC91539780818062808381E0589618
:101EA0008C930DC0D6015696ED91FC9157976083A7
:101EB0005096ED91FC91519780818064808381E000
:101EC00090E00F90DF91CF911F910F91FF90DF90E5
:101ED000CF900895BF92CF92DF92EF92FF92CF936F
:101EE000DF93EC016A017B01B22EE889F98982E077
:101EF0008083411581EE580761057105A1F060E00E
:101F000079E08DE390E0A70196010E94C21521506F
:101F1000310941095109569547953795279521155E
:101F200080E1380798F0E889F989108260E874E860
:101F30008EE190E0A70196010E94C215215031095F
:101F4000410951095695479537952795EC85FD85AB
:101F50003083EE85FF852083188EEC89FD89B08261
:101F6000EA89FB89808180618083EA89FB8980819D
:101F700088608083EA89FB89808180688083EA8920
:101F8000FB8980818F7D8083DF91CF91FF90EF90DF
:101F9000DF90CF90BF9008951F920F920FB60F92CF
:101FA00011242F938F939F93EF93FF93E091DA0186
:101FB000F091DB018081E091E001F091E10182FD8F
:101FC00012C090818091E3018F5F8F732091E401B3
:101FD000821751F0E091E301F0E0E653FE4F958F58
:101FE0008093E30101C08081FF91EF919F918F91D8
:101FF0002F910F900FBE0F901F9018951F920F9268
:102000000FB60F9211242F933F934F935F936F93CB
:102010007F938F939F93AF93BF93EF93FF938AEC3C
:1020200091E00E94C20EFF91EF91BF91AF919F91FD
:102030008F917F916F915F914F913F912F910F9071
:102040000FBE0F901F9018958AEC91E00E94870EAA
:1020500021E0892B09F420E0822F08951092CD0110
:102060001092CC0188EE93E0A0E0B0E08093CE0126
:102070009093CF01A093D001B093D10180E691E07D
:102080009093CB018093CA0185EC90E09093D701A7
:102090008093D60184EC90E09093D9018093D8018D
:1020A00080EC90E09093DB018093DA0181EC90E08A
:1020B0009093DD018093DC0182EC90E09093DF014E
:1020C0008093DE0186EC90E09093E1018093E00143
:1020D0001092E3011092E4011092E5011092E601E2
:1020E000089508950E94D00C0E9471100E9464040B
:1020F000C4EBDEE00E9432072097E1F30E94B40EA9
:10210000F9CF0C9423160C9423160C94BB160C9444
:10211000BB16CF92DF92EF92FF920F931F93CF9354
:10212000DF936C017A01EB01E60EF71E00E010E090
:10213000CE15DF0561F06991D601ED91FC9101901A
:10214000F081E02DC6010995080F191FF1CFC801D4
:10215000DF91CF911F910F91FF90EF90DF90CF9083
:1021600008956115710581F0DB010D900020E9F7FC
:10217000AD0141505109461B570BDC01ED91FC911B
:102180000280F381E02D099480E090E00895EF92C1
:10219000FF920F931F93CF93DF938C01FB01C0E05D
:1021A000D0E064917F018FEFE81AF80A662361F0AE
:1021B000D801ED91FC910190F081E02DC8010995C5
:1021C000C80FD91FF701EDCFCE01DF91CF911F913D
:1021D0000F91FF90EF900895DC01ED91FC9101903B
:1021E000F081E02D09948F929F92AF92BF92CF928F
:1021F000DF92EF92FF920F931F93CF93DF93CDB7B0
:10220000DEB7A1970FB6F894DEBF0FBECDBF7C013D
:10221000C42EE52FCB01D22E19A221E02D1510F0EE
:102220002AE0D22E8E010F5D1F4F8D2C912CA12CF8
:10223000B12C6C2D7E2FA50194010E94C2158C2D0E
:10224000D29E80191124015011098A3014F4805D46
:1022500001C0895CF80180832115310541055105D4
:1022600021F0C22EE32FCA01E4CFB801C7010E94BA
:10227000B110A1960FB6F894DEBF0FBECDBFDF91AF
:10228000CF911F910F91FF90EF90DF90CF90BF9073
:10229000AF909F908F900895CF92DF92EF92FF9230
:1022A0000F931F93CF93DF93EC016A017B012115FC
:1022B000310579F4E881F9810190F081E02D642FF6
:1022C000DF91CF911F910F91FF90EF90DF90CF9012
:1022D00009942A303105E9F477FF1AC06DE20E94B3
:1022E000EC108C0144275527BA014C195D096E0981
:1022F0007F092AE0CE010E94F310800F911FDF9129
:10230000CF911F910F91FF90EF90DF90CF900895A4
:102310002AE0B701A601CE01DF91CF911F910F9165
:10232000FF90EF90DF90CF900C94F3109A01AB01E7
:10233000662757FD6095762F0C944C113F924F9273
:102340005F926F927F928F929F92AF92BF92CF9245
:10235000DF92EF92FF920F931F93CF93DF9300D002
:1023600000D0CDB7DEB78B0129013A0190913B0136
:10237000981721F09F3F09F0D3C104C0E6E5F1E0D2
:10238000349081C080933B01E6E5F1E0E491EF3FBA
:1023900009F4C6C1E13031F1E23009F44BC0E1117A
:1023A00071C014BC15BC94B5926094BD95B5916094
:1023B00095BD282F30E0F901EC5DFE4FE491F0E08F
:1023C000EE0FFF1FEE5BFE4F459154915093770245
:1023D00040937602F901E05FFE4F2491209375024D
:1023E000312C53C010928000109281009091810096
:1023F000986090938100909181009160909381000A
:10240000282F30E0F901EC5DFE4FE491F0E0EE0F93
:10241000FF1FEE5BFE4F4591549150937002409325
:102420006F02F901E05FFE4F249120936E02332486
:1024300033942BC01092B0001092B1009091B00074
:1024400092609093B0009091B10091609093B10030
:10245000282F30E0F901EC5DFE4FE491F0E0EE0F43
:10246000FF1FEE5BFE4F45915491509369024093DC
:102470006802F901E05FFE4F24912093670252E069
:10248000352E03C03E2E37FC4BC161E00E94B00DDB
:102490004801A12CB12C832D8D7F09F0C0C060E0D4
:1024A00072E18AE790E0A50194010E94E415298376
:1024B0003A834B835C8369017A0181E0C81AD108B1
:1024C000E108F1089FEFC916D104E104F10409F015
:1024D00008F49AC060E472E48FE090E0A5019401F2
:1024E0000E94E41569017A01E1E0CE1AD108E10801
:1024F000F108F2E03F1219C08FEFC816D104E104D1
:10250000F10409F008F487C060E970ED83E090E021
:10251000A50194010E94E41569017A0191E0C91AAC
:10252000D108E108F10883E001C082E0EFEFCE16A8
:10253000D104E104F10409F008F467C068E478EE1E
:1025400081E090E0A50194010E94E41569017A01FF
:10255000F1E0CF1AD108E108F1083320E1F082E080
:1025600038121BC09FEFC916D104E104F10409F031
:1025700008F4D4C064E274EF80E090E0A501940117
:102580000E94E41569017A01E1E0CE1AD108E10860
:10259000F10885E003C083E001C084E0FFEFCF16BF
:1025A000D104E104F10489F180F162E17AE780E08D
:1025B00090E0A50194010E94E41569017A0181E08F
:1025C000C81AD108E108F108311002C084E001C046
:1025D00086E09FEFC916D104E104F104B1F0A8F040
:1025E000C980DA80EB80FC809AE0F594E794D79478
:1025F000C7949A95D1F7E1E0CE1AD108E108F10825
:10260000332031F087E008C081E0332011F004C0AE
:1026100085E085BD34C082E08093B10030C060E0C9
:1026200072E18AE790E0A50194010E94E415690136
:102630007A01F1E0CF1AD108E108F108C114D10400
:1026400081E0E806F10488F068E478EE81E090E04B
:10265000A50194010E94E41569017A0191E0C91A6B
:10266000D108E108F10893E001C091E0E1E03E12F9
:1026700006C080918100887F892B8093810041145E
:1026800051046104710471F0D801AA0FBB1FA301AA
:1026900092010E94091628EE33E040E050E00E94CB
:1026A000C21503C02FEF3FEFA901F1E03F16A1F0E3
:1026B00082E0381619F1311033C0C7BC209378027C
:1026C0003093790240937A0250937B0280916E009E
:1026D000826080936E0024C0D0928900C0928800EE
:1026E00020937102309372024093730250937402EC
:1026F00080916F00826080936F0012C0C092B3001F
:1027000020936A0230936B0240936C0250936D02E7
:102710008091700082608093700002C084E07CCF62
:102720000F900F900F900F90DF91CF911F910F910D
:10273000FF90EF90DF90CF90BF90AF909F908F90E1
:102740007F906F905F904F903F900895813039F067
:1027500018F0823051F0089510926E000895809123
:102760006F008D7F80936F000895809170008D7F42
:102770008093700081E08093B0008091B100887FE9
:1027800084608093B1001092B3000895CF93C82F56
:1027900080913B018C1307C0E6E5F1E084919FEF47
:1027A00090933B0101C08FEF0E94A61360E08C2F35
:1027B000CF910C94E90D1F920F920FB60F92112436
:1027C0002F933F934F935F936F937F938F939F9339
:1027D000AF93BF93EF93FF9380916A0290916B0246
:1027E000A0916C02B0916D02892B8A2B8B2B51F139
:1027F00090916702E0916802F091690280818927D7
:10280000808380916A0290916B02A0916C02B091DA
:102810006D02181619061A061B06C4F480916A0286
:1028200090916B02A0916C02B0916D020197A10989
:10283000B10980936A0290936B02A0936C02B093EB
:102840006D0204C080913B010E94C613FF91EF917D
:10285000BF91AF919F918F917F916F915F914F91B8
:102860003F912F910F900FBE0F901F9018950895D4
:102870000CD0EBC0E3D040F0DAD030F021F45F3F71
:1028800019F0CCC0511115C1CFC0F0D098F39923E5
:10289000C9F35523B1F3951B550BBB27AA27621724
:1028A0007307840738F09F5F5F4F220F331F441F69
:1028B000AA1FA9F333D00E2E3AF0E0E830D09150A1
:1028C0005040E695001CCAF729D0FE2F27D0660F8E
:1028D000771F881FBB1F261737074807AB07B0E8CD
:1028E00009F0BB0B802DBF01FF2793585F4F2AF0E3
:1028F0009E3F510568F092C0DCC05F3FECF3983E0C
:10290000DCF3869577956795B795F7959F5FC9F73F
:10291000880F911D9695879597F90895E1E0660FC8
:10292000771F881FBB1F621773078407BA0720F041
:10293000621B730B840BBA0BEE1F88F7E0950895AA
:1029400004D06894B111B5C0089598D088F09F570D
:1029500090F0B92F9927B751A0F0D1F0660F771FEB
:10296000881F991F1AF0BA95C9F712C0B13081F0CB
:102970009FD0B1E008959CC0672F782F8827B85F5B
:1029800039F0B93FCCF3869577956795B395D9F72C
:102990003EF490958095709561957F4F8F4F9F4F36
:1029A0000895E89409C097FB3EF490958095709542
:1029B00061957F4F8F4F9F4F9923A9F0F92F96E98B
:1029C000BB279395F695879577956795B795F11100
:1029D000F8CFFAF4BB0F11F460FF1BC06F5F7F4F9D
:1029E0008F4F9F4F16C0882311F096E911C07723AF
:1029F00021F09EE8872F762F05C0662371F096E8B8
:102A0000862F70E060E02AF09A95660F771F881F86
:102A1000DAF7880F9695879597F9089597F99F6744
:102A200080E870E060E008959FEF80EC0895002456
:102A30000A941616170618060906089500240A9423
:102A400012161306140605060895092E0394000CA9
:102A500011F4882352F0BB0F40F4BF2B11F460FF38
:102A600004C06F5F7F4F8F4F9F4F089557FD905861
:102A7000440F551F59F05F3F71F04795880F97FB42
:102A8000991F61F09F3F79F08795089512161306FC
:102A90001406551FF2CF4695F1DF08C0161617062B
:102AA0001806991FF1CF8695710561050894089560
:102AB000E894BB2766277727CB0197F908950BD0B9
:102AC000C4CFB5DF28F0BADF18F0952309F0A6CF00
:102AD000ABCF1124EECFCADFA0F3959FD1F3950FB2
:102AE00050E0551F629FF001729FBB27F00DB11D92
:102AF000639FAA27F00DB11DAA1F649F6627B00D22
:102B0000A11D661F829F2227B00DA11D621F739F0A
:102B1000B00DA11D621F839FA00D611D221F749F18
:102B20003327A00D611D231F849F600D211D822F5F
:102B3000762F6A2F11249F5750408AF0E1F08823A6
:102B40004AF0EE0FFF1FBB1F661F771F881F9150B3
:102B50005040A9F79E3F510570F060CFAACF5F3F6C
:102B6000ECF3983EDCF3869577956795B795F795E6
:102B7000E7959F5FC1F7FE2B880F911D969587956E
:102B800097F90895A1E21A2EAA1BBB1BFD010DC0E7
:102B9000AA1FBB1FEE1FFF1FA217B307E407F5070D
:102BA00020F0A21BB30BE40BF50B661F771F881FE9
:102BB000991F1A9469F760957095809590959B017F
:102BC000AC01BD01CF010895052E97FB1EF40094C2
:102BD0000E94FB1557FD07D00E94C21507FC03D0C9
:102BE0004EF40C94FB1550954095309521953F4F30
:102BF0004F4F5F4F089590958095709561957F4FE9
:102C00008F4F9F4F0895EE0FFF1F0590F491E02D19
:102C100009940E941416A59F900DB49F900DA49F37
:102C2000800D911D11240895A29FB001B39FC00192
:102C3000A39F700D811D1124911DB29F700D811DE8
:102C40001124911D0895CF93DF938230910510F4E4
:102C500082E090E0E0917E02F0917F0220E030E09F
:102C6000A0E0B0E0309739F1408151814817590711
:102C7000B8F04817590771F482819381109729F0B1
:102C800013969C938E9312972CC090937F028093FF
:102C90007E0227C02115310531F04217530718F085
:102CA000A901DB0101C0EF019A01BD01DF01028032
:102CB000F381E02DD7CF21153105F9F0281B390B11
:102CC0002430310580F48A819B816115710521F0E2
:102CD000FB019383828304C090937F0280937E02E2
:102CE000FE01329644C0FE01E20FF31F81939193DF
:102CF00022503109398328833AC020917C023091D7
:102D00007D02232B41F42091020130910301309385
:102D10007D0220937C022091000130910101211558
:102D2000310541F42DB73EB74091040150910501A2
:102D3000241B350BE0917C02F0917D02E217F30732
:102D4000A0F42E1B3F0B2817390778F0AC014E5F1B
:102D50005F4F2417350748F04E0F5F1F50937D02D9
:102D600040937C028193919302C0E0E0F0E0CF01B8
:102D7000DF91CF910895CF93DF93009709F487C037
:102D8000FC01329713821282C0917E02D0917F02A1
:102D9000209781F420813181280F391F80917C0296
:102DA00090917D028217930779F5F0937D02E0936D
:102DB0007C026DC0DE0120E030E0AE17BF0750F4AA
:102DC00012964D915C9113979D014115510509F1A2
:102DD000DA01F3CFB383A28340815181840F951F21
:102DE0008A179B0771F48D919C911197840F951F01
:102DF00002969183808312968D919C911397938371
:102E000082832115310529F4F0937F02E0937E023D
:102E10003EC0D9011396FC93EE9312974D915D91AC
:102E2000A40FB51FEA17FB0779F480819181840F05
:102E3000951F0296D90111969C938E93828193815E
:102E400013969C938E931297E0E0F0E08A819B8129
:102E5000009719F0FE01EC01F9CFCE01029628810E
:102E60003981820F931F20917C0230917D022817B7
:102E7000390769F4309729F410927F0210927E028C
:102E800002C013821282D0937D02C0937C02DF9134
:082E9000CF910895F894FFCFE3
:102E980000008002800006011501260137014A0161
:102EA8005D01720188019F01B801D201EE010B0298
:102EB8002A024B026E029302BA02E40210033F0395
:102EC8007003A403DC031704000401FF00000000E2
:102ED800F701F90100000000F801260200000000D7
:102EE8003E03530200000000780264020000000064
:0C2EF800050F8910870EA00E920EE30E4D
:00000001FF
