:100000000C94AE000C94D6000C94D6000C94D60040
:100010000C94D6000C94D6000C94D6000C94791451
:100020000C94D6000C94A40B0C94D6000C94D6001F
:100030000C94D6000C94D6000C94D6000C94D600E8
:100040000C94C30C0C94D6000C946A100C949C1065
:100050000C94D6000C94D6000C94D6000C94D600C8
:100060000C94D6000C94D6000F080F080F081C083B
:1000700016081C0819081C08A109A3093A08330826
:10008000A109A3093A0841086C089509FC0AA10ACC
:10009000A90AE60AFF0ABF0A220B2D3030303030A1
:1000A0003030303030303030303030303030300080
:1000B0002D3030303030002D3030303030003030A6
:1000C00030303100524F42424F2D002D3030303011
:1000D0003030303030303030303030303030303020
:1000E000002D3030303030002D30303030300030A6
:1000F0003030303100524F42424F2D000000000896
:1001000000020100000304070000000000000000DE
:10011000010204081020408001020408102001029E
:10012000040810200404040404040404020202026B
:100130000202030303030303000000002300260060
:10014000290000000000250028002B00000000000E
:10015000240027002A000200E104CC1011241FBE55
:10016000CFEFD8E0DEBFCDBF11E0A0E0B1E0E4ED1D
:10017000FFE202C005900D92A437B107D9F722E043
:10018000A4E7B1E001C01D92AC38B207E1F711E07D
:10019000CCE5D1E004C02297FE010E94A316C83529
:1001A000D107C9F70E9410110C94E8170C940000B5
:1001B000089508950F931F93CF93DF938C0184E0EC
:1001C00090E00E942111EC01188219821A82F80134
:1001D00082810E94A90DBC01882777FD8095982F08
:1001E0000E94711520E030EC4FE754E40E94D614D1
:1001F00020E030E048EC52E40E94FD150E944315D7
:100200006B83CE01DF91CF911F910F910895CF9312
:10021000DF93FC0182810E94A90DEC0184E090E053
:100220000E942111FC0110821182D28381E0CD2B2A
:1002300009F480E08383CF01DF91CF9108950F937C
:100240001F93CF93DF938C0182E090E00E942111F5
:10025000EC011882F80182810E94A90DBC01882757
:1002600077FD8095982F0E94711520E030EC4FE7C4
:1002700054E40E94D61420E030E048EC52E40E949E
:10028000FD150E9443156983CE01DF91CF911F9127
:100290000F910895CF93DF93FC0182810E94A90DF5
:1002A000EC0182E090E00E942111FC01D083C18327
:1002B000DF91CF910895CF93DF93EC0184E090E03C
:1002C0000E942111FC011082118212828885838391
:1002D000CF01DF91CF910895CF93DF93EC0184E0BC
:1002E00090E00E942111FC01108211821282888507
:1002F0008383CF01DF91CF910895CF93DF93EC01FA
:1003000084E090E00E942111FC018C8180838D812A
:1003100081838E8182838F818383CF01DF91CF910F
:100320000895CF93DF93EC0184E090E00E942111C7
:10033000FC018C8180838D8181838E8182838F817A
:100340008383CF01DF91CF910895CF92DF92EF9217
:10035000FF920F931F93CF93DF93EC018885811158
:100360001BC01D8A1E8A8A810E94BD0E019709F05A
:100370008CC00E940D0D09851A852B853C85601B5C
:10038000710B820B930B6B3771058105910508F496
:1003900099C081E0888796C08D89882309F47CC044
:1003A0008A810E94BD0E892B09F047C08E8988235F
:1003B00069F18885823079F030F48130A9F4898937
:1003C0008C8382E00BC0833059F0843069F48989D2
:1003D0008F83188609C089898D8383E0888704C04C
:1003E00089898E8384E0FACF0E940D0D69877A8710
:1003F0008B879C8781E08D8B1E8A1D861E861F86BB
:10040000188A198A1A8A1B8A1C8A3FC00E940D0DFD
:1004100009891A892B893C89C984DA84EB84FC8494
:100420000C191D092E093F09060F171F281F391F18
:10043000098B1A8B2B8B3C8B28C049895A896B8975
:100440007C89452B462B472B51F04D855E856F856A
:100450007889452B462B472B11F081E08E8B0E942B
:100460000D0D0D851E852F853889C984DA84EB84AE
:10047000FC840C191D092E093F09060F171F281FA0
:10048000391F0D871E872F87388B0E940D0D6987B6
:100490007A878B879C8716C08A810E94BD0E892B24
:1004A00089F40E940D0D69877A878B879C8781E08C
:1004B0008D8B1E8A1D861E861F86188A198A1A8AA7
:1004C0001B8A1C8ADF91CF911F910F91FF90EF90B3
:1004D000DF90CF900895CF92DF92EF92FF92CF936B
:1004E000DF93EC018A81882361F10E94190DCC8091
:1004F000DD80EE80FF806C197D098E099F096133D4
:1005000075478105910508F463C061E08A850E9402
:100510004E0E61E08A850E94870E89E090E00E947D
:10052000640D60E08A850E94870E60E08A850E94E3
:100530004E0E0E94190D6C837D838E839F831A82D9
:1005400047C00E94190DCC80DD80EE80FF806C19C1
:100550007D098E099F09613A76488140910538F5F9
:100560008B81882371F18A850E94BD0E892B81F5CC
:100570000E94190D9B01AC01CC80DD80EE80FF80D4
:100580002C193D094E095F09A0EDB4E80E94A71699
:1005900020E834E84EE150E00E946016285031090E
:1005A00037FD03C03987288702C0198618861B8249
:1005B00081E08A830E94190D6C837D838E839F83E3
:1005C00007C08A850E94BD0E019711F481E08B83DC
:1005D000DF91CF91FF90EF90DF90CF900895DC01F5
:1005E000ED91FC910190F081E02D099483E00E944F
:1005F000A90D8835924034F484E00E94A90D893C0D
:1006000091051CF483E090E002C084E090E09093B8
:10061000A1018093A00108951F93CF93DF93EC0174
:10062000162F5527BA01882777FD8095982F0E94AD
:1006300071152AE939E949E750E40E94FD150E9445
:100640003E1588810E94C60D112311F061E001C0A2
:1006500060E08A81DF91CF911F910C94870ECF9338
:10066000DF93EB0120E431E0FC01318320837383CD
:10067000628360E08C2F0E944E0EC131D105A1F043
:1006800044F4CF30D10569F06097B9F461E087E0B8
:1006900010C0C231D10559F0639779F461E08CE064
:1006A00008C061E084E005C061E088E002C061E06C
:1006B0008BE0DF91CF910C944E0EDF91CF91089596
:1006C000FC01862F2AE431E0318320836283738327
:1006D00060E00C944E0ECF93DF93EC01862F2EE555
:1006E00031E0398328831C821D821E821F82188676
:1006F0001D861E861F86188A198A1A8A1B8A1C8ADA
:100700001D8A1E8A6A837B8360E00E944E0E0E94CF
:100710000D0D69877A878B879C871886DF91CF912B
:100720000895EF92FF920F931F93CF93DF930E9450
:10073000F60226E040E056E960E070E086ED91E0E8
:100740000E9408101092AC018091A0019091A1012B
:10075000039709F04CC080918100886080938100EC
:100760006DE070E08DEA91E00E94550C84E090E02D
:100770000E941F11EC0161E170E00E942F03D093F1
:100780008F01C0938E0184E090E00E941F11EC0164
:1007900062E170E00E942F03D0939101C093900119
:1007A00084E090E00E941F11EC0160E170E00E9483
:1007B0002F03D0939301C093920184E090E00E94B4
:1007C0001F11EC016FE070E00E942F03D0939501A0
:1007D000C093940184E090E00E941F11EC016EE050
:1007E00070E00E942F03D0939701C09396018091EF
:1007F000A0019091A101049709F0BAC061E084E0E2
:100800000E944E0E61E082E00E944E0E61E082E0A6
:100810000E944E0E61E083E00E944E0E61E084E093
:100820000E944E0E61E085E00E944E0E61E086E07F
:100830000E944E0E61E087E00E944E0E84E090E040
:100840000E941F11EC016EE070E00E946003D093E3
:100850008F01C0938E0184E090E00E941F11EC0193
:100860006FE070E00E946003D0939101C09390010B
:1008700084E090E00E941F11EC0160E170E00E94B2
:100880006003D0939301C093920184E090E00E94B2
:100890001F11EC0161E170E00E946003D0939501AB
:1008A000C093940184E090E00E941F11EC0162E18A
:1008B00070E00E946003D0939701C093960184E09A
:1008C00090E00E941F11EC0163E170E00E94600360
:1008D000D0939901C093980184E090E00E941F1189
:1008E000EC0164E170E00E946003D0939B01C0932F
:1008F0009A0184E090E00E941F11EC0165E170E034
:100900000E946003D0939D01C0939C0108EC10E00D
:10091000C0E0D0E0EE24E394F12C97010C2E01C04E
:10092000220F0A94EAF741E064E082E00E94E60EBA
:10093000219624E630E040E050E0B80183E00E94D8
:100940003C1264E670E080E090E00E943C0D0853A9
:100950001F4FC830D10509F720E040E064E082E095
:10096000DF91CF911F910F91FF90EF900C94E60EC5
:10097000DF91CF911F910F91FF90EF900895CF934A
:10098000482FC62F80919E0190919F01403420F006
:10099000405450E061E002C050E060E00E940C036F
:1009A00080919C0190919D01C03428F0C0544C2F3F
:1009B00050E061E003C04C2F50E060E0CF910C9418
:1009C0000C03CF93DF938DEA91E00E94480C0E94C4
:1009D0000D0D6093A2017093A3018093A4019093E5
:1009E000A50184E090E00E941F11EC0184E090E0FA
:1009F0009B838A8385E090E09983888361E00E94ED
:100A00004E0E61E08A810E944E0ED0939F01C093EA
:100A10009E0184E090E00E941F11EC0187E090E0CD
:100A20009B838A8386E090E09983888361E00E94BB
:100A30004E0E61E08A810E944E0ED0939D01C093BC
:100A40009C010E940D0D6093740170937501809359
:100A5000760190937701DF91CF9108950F931F93C3
:100A6000CF93DF9363E270E086ED91E00E94EF02A6
:100A70008091A0019091A101039709F059C060E015
:100A800070E086ED91E00E94EF0260E070E086ED9C
:100A900091E00E94EF0260E070E086ED91E00E943C
:100AA000EF0260E070E086ED91E00E94EF0260E00E
:100AB00070E086ED91E00E94EF0260E070E086ED6C
:100AC00091E00E94EF0260E070E086ED91E00E940C
:100AD000EF0260E070E086ED91E00E94EF02CEE868
:100AE000D1E089919991DC01ED91FC910280F38133
:100AF000E02D09958C01E091D601F091D70102809B
:100B0000F381E02D44E050E0BC0186ED91E00995D1
:100B10000115110519F0C8010E942511B1E0C8396D
:100B2000DB07F9F660E070E086ED91E00E94EF02ED
:100B30008091A0019091A101049709F00DC188E076
:100B40000E94BD0EC1E0019709F0C0E089E00E945B
:100B5000BD0E019709F4C2608AE00E94BD0E0197A4
:100B600009F4C4608BE00E94BD0E019709F4C860CF
:100B70008CE00E94BD0E019709F4C0618DE00E94D7
:100B8000BD0E019709F4C0626C2F86ED91E00E94C2
:100B9000A30F80918E0190918F01DC01ED91FC916A
:100BA0000480F581E02D0995EC01E091D601F091EA
:100BB000D7010280F381E02D42E050E0BC0186EDD8
:100BC00091E00995209719F0CE010E94251180919E
:100BD000900190919101DC01ED91FC910480F581EF
:100BE000E02D0995EC01E091D601F091D70102804A
:100BF000F381E02D42E050E0BC0186ED91E00995E3
:100C0000209719F0CE010E942511809192019091B8
:100C10009301DC01ED91FC910480F581E02D0995B3
:100C2000EC01E091D601F091D7010280F381E02D33
:100C300042E050E0BC0186ED91E00995209719F063
:100C4000CE010E942511C091A6016091A70186EDF9
:100C500091E00E94A30F6C2F86ED91E00E94A30FFC
:100C60008091960190919701DC01ED91FC910480B7
:100C7000F581E02D0995EC01E091D601F091D701C5
:100C80000280F381E02D42E050E0BC0186ED91E06E
:100C90000995209719F0CE010E94251180919801A5
:100CA00090919901DC01ED91FC910480F581E02D9A
:100CB0000995EC01E091D601F091D7010280F38112
:100CC000E02D42E050E0BC0186ED91E009952097CF
:100CD00019F0CE010E94251180919A0190919B01FB
:100CE000DC01ED91FC910480F581E02D0995EC018A
:100CF000E091D601F091D7010280F381E02D42E02E
:100D000050E0BC0186ED91E00995209719F0CE01E5
:100D10000E94251180919C0190919D01DC01ED9133
:100D2000FC910480F581E02D0995EC01E091D6015C
:100D3000F091D7010280F381E02D42E050E0BC0148
:100D400086ED91E00995209739F0CE01DF91CF91A2
:100D50001F910F910C942511DF91CF911F910F914D
:100D600008952F923F925F926F927F928F929F92FF
:100D7000AF92BF92CF92DF92EF92FF920F931F93A9
:100D8000CF93DF938091A0019091A101039741F04F
:100D90008091A0019091A101049709F0C3C4E5C21C
:100DA0000E940D0D00917401109175012091760142
:100DB00030917701601B710B820B930B613D774083
:100DC0008105910590F0E0919E01F0919F0160E016
:100DD00070E080810E94C60DE0919C01F0919D0120
:100DE00060E070E080810E94C60D86ED91E00E9477
:100DF000250F892B09F4A9C286ED91E00E943E0FD0
:100E0000EC010E940D0D6093740170937501809345
:100E10007601909377018091AC018111E6C09E012B
:100E200033272536310509F4B8C0FCF422363105E4
:100E300009F4B0C054F420323105A9F1213631054E
:100E400009F083C2C0937801EDC02336310509F45F
:100E5000C4C02436310509F078C282E08093AC0129
:100E600010927901C093780170C22836310509F4D7
:100E7000A4C084F42636310509F497C0273631051D
:100E800009F063C282E08093AC0110927901C093B3
:100E900078015BC22936310509F497C02A3631053D
:100EA00009F49BC052C265EF70E086ED91E00E94AC
:100EB00065118091A0019091A1018031974234F495
:100EC00060E370E086ED91E00E94EF028091A00166
:100ED0009091A101883E934034F460E370E086ED88
:100EE00091E00E94EF028091A0019091A1018436CF
:100EF000910534F460E370E086ED91E00E94EF022A
:100F00008091A0019091A1010A9734F460E370E010
:100F100086ED91E00E94EF026091A0017091A10125
:100F20004AE050E086ED91E00E9434126DE270E0FC
:100F300086ED91E00E94EF026FEE70E086ED91E0A9
:100F40000E9465116DE270E086ED91E00E94EF0273
:100F50008091A0019091A101039719F462E570E0DE
:100F600002C06CE470E086ED91E00E94EF0268EE52
:100F700070E086ED91E00E94651161EE70E086ED13
:100F800091E00E9465116BEC70E086ED91E00E94AB
:100F90006511DBC1C093780145C082E08093AC014C
:100FA00010927901C0937801D0C182E08093AC01A6
:100FB00010927901C0937801C8C182E08093AC019E
:100FC00010927901C0937801C0C182E08093AC0196
:100FD00010927901C0937801B8C182E08093AC018E
:100FE00010927901C0937801B0C1823041F520910F
:100FF0007901E22FF0E0E658FE4FC0832F5F209387
:1010000079018091780190E0FC01E356F109E83024
:10101000F10508F09AC1EC5CFF4F0C94A116223048
:1010200008F493C183E08093AC018FC12430D0F7E2
:101030008CC12530B8F789C12111F4CF86C1833026
:1010400009F083C1C43209F07EC18091780190E03B
:10105000FC01E156F109EA30F10508F074C1E45CE5
:10106000FF4F0C94A11660917B0180917A010E9440
:10107000BF0469C160917B0180917A010E94BF0425
:1010800060C1C0917A01C0FF02C061E001C060E0B0
:1010900084E00E94870EC1FF02C061E001C060E0F1
:1010A00087E00E94870EC2FF02C061E001C060E0DD
:1010B00088E00E94870EC3FF02C061E001C060E0CB
:1010C0008BE00E94870EC4FF02C061E001C060E0B7
:1010D0008CE00E94870E35C12EE8C22E21E0D22E70
:1010E0003AE7E32E31E0F32EC0E0D0E004E511E072
:1010F0005524539444E0242E312C5BE0A52EB12CD2
:1011000067E0862E912CD6018D919D916D010E94F4
:101110002311F70181917F01863009F445C020F049
:10112000873009F4A9C0FBC0C230D105F9F024F41E
:10113000C130D10589F006C0C330D10509F1C430F2
:10114000D10541F184E090E00E941F113C0161E172
:1011500070E00E942F03A7C084E090E00E941F115E
:101160003C0162E170E00E942F03ABC084E090E09C
:101170000E941F113C0160E170E00E942F03AFC08C
:1011800084E090E00E941F113C016FE070E00E943B
:101190002F03B3C084E090E00E941F113C016EE079
:1011A00070E00E942F03B7C0C230D10571F124F462
:1011B000C130D105C9F007C0C330D105C9F1C43071
:1011C000D10509F446C08CE090E00E941F11FC019B
:1011D0001183008352821186108633862286909373
:1011E0008F0180938E019BC08CE090E00E941F11C4
:1011F000FC011183008352821186108693868286B9
:1012000090939101809390018AC08CE090E00E94BD
:101210001F11FC011183008352821186108688E021
:1012200090E093878287F0939301E093920177C0D7
:101230008CE090E00E941F11FC0111830083528218
:1012400011861086B386A2869093950180939401AF
:1012500066C08CE090E00E941F11FC0111830083A6
:101260005282118610868CE090E093878287F093FB
:101270009701E093960153C0C230D10539F124F4AF
:10128000C130D105A9F006C0C330D10569F1C43021
:10129000D105C1F187E190E00E941F113C0164E09B
:1012A00070E00E946B0370928F0160928E0137C0D4
:1012B00087E190E00E941F113C0167E070E00E940E
:1012C0006B03709291016092900129C087E190E0D8
:1012D0000E941F113C0168E070E00E946B03709255
:1012E0009301609292011BC087E190E00E941F1160
:1012F0003C016BE070E00E946B037092950160927C
:1013000094010DC087E190E00E941F113C016CE048
:1013100070E00E946B037092970160929601219693
:10132000C530D10509F0EFCE0CC060917A0196E18D
:10133000699FB0011124605E7C4F8DEA91E00E94AC
:101340009C0C0E942E051092AC01CEE8D1E0899150
:101350009991DC01ED91FC910190F081E02D0995CE
:10136000B1E0C839DB0799F713CD86ED91E00E9413
:10137000250F892B09F482C186ED91E00E943E0F72
:101380002091AC012111A2C09C01332723363105E5
:1013900009F494C054F42136310509F48CC00CF0E2
:1013A0008DC02032310581F069C12536310509F43F
:1013B00085C00CF483C02636310509F47FC027367A
:1013C000310509F47BC05AC164EC70E086ED91E010
:1013D0000E9465118091A0019091A10180319742F6
:1013E00034F460E370E086ED91E00E94EF028091BA
:1013F000A0019091A101883E934034F460E370E035
:1014000086ED91E00E94EF028091A0019091A101F0
:101410008436910534F460E370E086ED91E00E943B
:10142000EF028091A0019091A1010A9734F460E34A
:1014300070E086ED91E00E94EF026091A001709152
:10144000A1014AE050E086ED91E00E9434126DE285
:1014500070E086ED91E00E94EF026EEB70E086EDA9
:1014600091E00E9465116DE270E086ED91E00E94CE
:10147000EF028091A0019091A101039719F462E518
:1014800070E002C06CE470E086ED91E00E94EF0233
:1014900067EB70E086ED91E00E94651160EB70E013
:1014A00086ED91E00E9465116AE970E086ED91E0B9
:1014B0000E946511E3C08093780128C08093780171
:1014C00082E08093AC0110927901D8C0223029F5D6
:1014D00090917901E92FF0E0E658FE4F808381E09A
:1014E000890F8093790190917801943661F028F406
:1014F000923649F0933639F0C1C0963621F018F093
:10150000973641F0BBC0882309F4B8C083E08093CC
:10151000AC01B4C08230D0F7B1C0233009F0AEC006
:10152000843209F0A9C08091780190E0FC01E15675
:10153000F109E730F10508F09FC0EA5BFF4F0C941A
:10154000A11620917A0141E064E082E00E94E60E5B
:1015500053C0C0917A01C0FF02C061E001C060E0E9
:1015600085E00E94870EC1FF02C061E001C060E01B
:1015700086E00E94870EC2FF24C061E023C0C091B4
:101580007A01C0FF04C060E082E00E94870EC1FFC4
:1015900004C060E083E00E94870EC2FF04C060E0E8
:1015A00084E00E94870EC3FF04C060E085E00E94D3
:1015B000870EC4FF04C060E086E00E94870EC5FF6E
:1015C0001BC060E087E00E94870E16C0E0917A01A0
:1015D000F0E0EE0FFF1FEA5FFE4F6081718124E6AD
:1015E00030E040E050E083E00E943C1264E670E0AE
:1015F00080E090E00E943C0D0E942E053DC0C0910D
:101600007A01C0FF04C061E082E00E94870EC1FF42
:1016100004C061E083E00E94870EC2FF04C061E065
:1016200084E00E94870EC3FF04C061E085E00E9451
:10163000870EC4FF04C061E086E00E94870EC5FFEC
:10164000DBCF9BCFD0917A01C0917B01D0FF05C049
:101650006C2F70E083E00E94C60DD1FF05C06C2F97
:1016600070E085E00E94C60DD2FFC6CF6C2F70E0FF
:1016700086E00E94C60DC0CF1092AC010E940D0DF5
:101680000091A2011091A3012091A4013091A50124
:10169000601B710B820B930B623371058105910501
:1016A000F8F481E10E94A90D9093A9018093A8010B
:1016B000811524E09207B0F52091AA013091AB0189
:1016C0002817390728F49093AB018093AA012AC008
:1016D00020913801309139018217930718F51EC007
:1016E0008091AA019091AB0120913801309139018C
:1016F000821B930B9093A7018093A6010E940D0D6E
:101700006093A2017093A3018093A4019093A5011B
:101710001092AB011092AA0180E094E090933901FD
:1017200080933801DF91CF911F910F91FF90EF903F
:10173000DF90CF90BF90AF909F908F907F906F90F1
:101740005F903F902F9008951F920F920FB60F92C7
:1017500011242F933F934F935F936F937F938F93B6
:101760009F93AF93BF93EF93FF938091B0018F5FEF
:101770008093B0012091B0018091B10190E0FC0113
:10178000EE0FFF1FE80FF91FEE54FE4F8181281363
:101790000EC08091B10190E0FC01EE0FFF1FE80F39
:1017A000F91FEE54FE4F82818093B20060C02091F9
:1017B000B0018091B10190E0FC01EE0FFF1FE80F36
:1017C000F91FEE54FE4F8181821708F050C08091BE
:1017D000B10190E0FC01EE0FFF1FE80FF91FEE547E
:1017E000FE4F808185FF0FC08091B10190E0FC0128
:1017F000EE0FFF1FE80FF91FEE54FE4F808160E0EF
:101800008F710E94870E8091B1018F5F8093B1012B
:101810001092B0011092B2008091B101882309F1B9
:101820008091B1018930E8F48091B10190E0FC0130
:10183000EE0FFF1FE80FF91FEE54FE4F808185FF6A
:1018400016C08091B10190E0FC01EE0FFF1FE80F80
:10185000F91FEE54FE4F808161E08F710E94870E68
:1018600006C08091B101893010F01092B101FF9152
:10187000EF91BF91AF919F918F917F916F915F9108
:101880004F913F912F910F900FBE0F901F90189581
:101890002091AF01283030F42F5F2093AF01FC017D
:1018A00020830895FC01108208951F93CF93DF9346
:1018B000EC01162F8091AE01811123C0E7EBF1E01E
:1018C0009BE087E5DF0111979C938083339621E0AD
:1018D000EF3CF207B9F78EE38093B3011092B101A8
:1018E0001092B001109270001092B00082E08093CC
:1018F000B1001092B20091E097BB9093700090936A
:10190000AE018881882399F061E0812F0E944E0EFC
:10191000288130E0F901EE0FFF1FE20FF31FEE54B4
:10192000FE4F1F719081907E912B906290838881F1
:10193000DF91CF911F910895FC0180819FEF980F57
:10194000983000F56E3EF2E07F073CF0693B9BE08B
:1019500079072CF068EB7BE002C06EEE72E0685015
:10196000710990E09B01220F232F221F330BFC01F2
:10197000EE0FFF1FE80FF91FEE54FE4F2183660F95
:101980006095628308951F920F920FB60F921124F3
:101990002F933F938F939F93AF93BF938091CE01EB
:1019A0009091CF01A091D001B091D1013091CD01A2
:1019B00023E0230F2D3720F40196A11DB11D05C092
:1019C00026E8230F0296A11DB11D2093CD0180931F
:1019D000CE019093CF01A093D001B093D10180911B
:1019E000D2019091D301A091D401B091D50101967B
:1019F000A11DB11D8093D2019093D301A093D40176
:101A0000B093D501BF91AF919F918F913F912F914D
:101A10000F900FBE0F901F9018952FB7F8946091FC
:101A2000CE017091CF018091D0019091D1012FBF53
:101A300008953FB7F8948091D2019091D301A0917D
:101A4000D401B091D50126B5A89B05C02F3F19F050
:101A50000196A11DB11D3FBF6627782F892F9A2FB0
:101A6000620F711D811D911D42E0660F771F881F57
:101A7000991F4A95D1F70895CF92DF92EF92FF9286
:101A8000CF93DF936B017C010E94190DEB01C11410
:101A9000D104E104F10489F00E94D5140E94190DCB
:101AA0006C1B7D0B683E734090F381E0C81AD1082F
:101AB000E108F108C851DC4FEACFDF91CF91FF90E8
:101AC000EF90DF90CF900895019739F0880F991F1C
:101AD000880F991F02970197F1F70895789484B5BC
:101AE000826084BD84B5816084BD85B5826085BD1A
:101AF00085B5816085BDEEE6F0E080818160808300
:101B0000E1E8F0E0108280818260808380818160E2
:101B10008083E0E8F0E0808181608083E1EBF0E0A9
:101B2000808184608083E0EBF0E08081816080834D
:101B3000EAE7F0E080818460808380818260808336
:101B40008081816080838081806880831092C10061
:101B500008958E3008F08E50877020913A0190E4FD
:101B6000299F90011124822B80937C0080917A0020
:101B7000806480937A0080917A0086FDFCCF80910A
:101B800078002091790090E0922B08951F93CF93D5
:101B9000DF93182FEB0161E00E944E0E209711F4A5
:101BA00060E004C0CF3FD10539F461E0812FDF91BF
:101BB000CF911F910C94870EE12FF0E0E450FF4F7E
:101BC000E491E330F9F048F4E130B9F0E230A1F506
:101BD00084B5806284BDC8BD34C0E730E9F0E83028
:101BE00019F1E43049F58091800080628093800093
:101BF000D0938B00C0938A0024C084B5806884BDD4
:101C0000C7BD1FC080918000806880938000D09302
:101C10008900C093880015C08091B00080688093CF
:101C2000B000C093B3000DC08091B000806280937B
:101C3000B000C093B40005C0C038D1050CF0B5CFDA
:101C4000AFCFDF91CF911F910895833081F028F4B9
:101C5000813099F08230A1F008958730A9F0883062
:101C6000B9F08430D1F4809180008F7D03C08091E1
:101C700080008F7780938000089584B58F7702C0AD
:101C800084B58F7D84BD08958091B0008F7703C0A7
:101C90008091B0008F7D8093B0000895CF93DF9343
:101CA00090E0FC01E05FFE4F2491FC01EC5DFE4FF3
:101CB0008491882349F190E0880F991FFC01E45B2F
:101CC000FE4FA591B4918E5B9E4FFC01C591D491BE
:101CD0009FB7611108C0F8948C91209582238C9352
:101CE000888182230AC0623051F4F8948C91322F9B
:101CF000309583238C938881822B888304C0F89449
:101D00008C91822B8C939FBFDF91CF9108950F937D
:101D10001F93CF93DF931F92CDB7DEB7282F30E00C
:101D2000F901E450FF4F8491F901E05FFE4F1491F7
:101D3000F901EC5DFE4F04910023C9F0882321F0E6
:101D400069830E94250E6981E02FF0E0EE0FFF1FEE
:101D5000EE5BFE4FA591B4919FB7F8948C91611101
:101D600003C01095812301C0812B8C939FBF0F90DE
:101D7000DF91CF911F910F910895CF93DF93282F7B
:101D800030E0F901E450FF4F8491F901E05FFE4F2C
:101D9000D491F901EC5DFE4FC491CC2391F08111F7
:101DA0000E94250EEC2FF0E0EE0FFF1FE85CFE4FC7
:101DB000A591B4912C912D2381E090E021F480E055
:101DC00002C080E090E0DF91CF910895BF92CF9262
:101DD000DF92EF92FF920F931F93CF93DF93C82E62
:101DE000D62EB42EC7E0D0E0022F10E087E0E82E18
:101DF000F12CB1100AC0F701EC1BFD0BB80102C0B9
:101E000075956795EA95E2F707C0B8010C2E02C0F8
:101E1000759567950A94E2F7617077278C2D0E947B
:101E2000870E61E08D2D0E94870E60E08D2D0E944F
:101E3000870E2197F0F6DF91CF911F910F91FF90C0
:101E4000EF90DF90CF90BF900895FC01818D228D9F
:101E500090E0805C9F4F821B91098F7399270895B2
:101E6000FC01918D828D981731F0828DE80FF11D64
:101E7000858D90E008958FEF9FEF0895FC01918D7F
:101E8000828D981761F0828DDF01A80FB11D5D96DC
:101E90008C91928D9F5F9F73928F90E008958FEF4A
:101EA0009FEF089582EC90E1892B49F080E090E06B
:101EB000892B29F00E94C21081110C940000089512
:101EC000FC01848DDF01A80FB11DA35ABF4F2C91D7
:101ED000848D90E001968F739927848FA689B789A6
:101EE0002C93A089B1898C9180648C93938D848D7F
:101EF000981306C00288F389E02D80818F7D80834E
:101F00000895CF93DF93EC01888D8823C9F0EA8987
:101F1000FB89808185FD05C0A889B9898C9186FDE2
:101F20000FC00FB607FCF5CF808185FFF2CFA889DF
:101F3000B9898C9185FFEDCFCE010E94600FE7CF6C
:101F4000DF91CF910895CF92DF92FF920F931F936D
:101F5000CF93DF931F92CDB7DEB76C01DC015B96A8
:101F60009C915B975C968C915C97981307C05096F8
:101F7000ED91FC915197808185FD32C0F601038D72
:101F800010E00F5F1F4F0F731127F02EF601848DA5
:101F9000F81211C00FB607FCF9CFD6015096ED919B
:101FA000FC915197808185FFF1CFC60169830E9422
:101FB000600F6981EBCF838DE80FF11DE35AFF4F6E
:101FC0006083D6015B960C935B975296ED91FC91E2
:101FD000539780818062808381E058968C930DC0F6
:101FE000D6015696ED91FC91579760835096ED91EE
:101FF000FC91519780818064808381E090E00F9014
:10200000DF91CF911F910F91FF90DF90CF900895B6
:10201000BF92CF92DF92EF92FF92CF93DF93EC01CA
:102020006A017B01B22EE889F98982E0808341153B
:1020300081EE580761057105A1F060E079E08DE35C
:1020400090E0A70196010E946016215031094109D4
:1020500051095695479537952795211580E1380701
:1020600098F0E889F989108260E874E88EE190E0E0
:10207000A70196010E9460162150310941095109BA
:102080005695479537952795EC85FD853083EE85E8
:10209000FF852083188EEC89FD89B082EA89FB894F
:1020A000808180618083EA89FB8980818860808368
:1020B000EA89FB89808180688083EA89FB89808145
:1020C0008F7D8083DF91CF91FF90EF90DF90CF9055
:1020D000BF9008951F920F920FB60F9211242F9365
:1020E0008F939F93EF93FF93E091E601F091E701C7
:1020F0008081E091EC01F091ED0182FD12C09081B0
:102100008091EF018F5F8F732091F001821751F062
:10211000E091EF01F0E0EA52FE4F958F8093EF01DE
:1021200001C08081FF91EF919F918F912F910F902E
:102130000FBE0F901F9018951F920F920FB60F921F
:1021400011242F933F934F935F936F937F938F93BC
:102150009F93AF93BF93EF93FF9386ED91E00E941F
:10216000600FFF91EF91BF91AF919F918F917F9100
:102170006F915F914F913F912F910F900FBE0F90F4
:102180001F90189586ED91E00E94250F21E0892B84
:1021900009F420E0822F08951092D9011092D801FD
:1021A00088EE93E0A0E0B0E08093DA019093DB0149
:1021B000A093DC01B093DD0188E691E09093D70114
:1021C0008093D60185EC90E09093E3018093E20147
:1021D00084EC90E09093E5018093E40180EC90E042
:1021E0009093E7018093E60181EC90E09093E90100
:1021F0008093E80182EC90E09093EB018093EA01F8
:1022000086EC90E09093ED018093EC011092EF0149
:102210001092F0011092F1011092F20108950895C8
:102220000E946E0D0E940F110E949103C2E5DFE033
:102230000E94B1062097E1F30E94520FF9CF0C944F
:10224000C1160C94C1160C9459170C945917CF92BF
:10225000DF92EF92FF920F931F93CF93DF936C0166
:102260007A01EB01E60EF71E00E010E0CE15DF0567
:1022700061F06991D601ED91FC910190F081E02D22
:10228000C6010995080F191FF1CFC801DF91CF9141
:102290001F910F91FF90EF90DF90CF9008956115FF
:1022A000710581F0DB010D900020E9F7AD0141508F
:1022B0005109461B570BDC01ED91FC910280F38123
:1022C000E02D099480E090E00895EF92FF920F9343
:1022D0001F93CF93DF938C01FB01C0E0D0E06491AA
:1022E0007F018FEFE81AF80A662361F0D801ED91BB
:1022F000FC910190F081E02DC8010995C80FD91F0C
:10230000F701EDCFCE01DF91CF911F910F91FF909B
:10231000EF900895DC01ED91FC910190F081E02DAA
:1023200009948F929F92AF92BF92CF92DF92EF92D9
:10233000FF920F931F93CF93DF93CDB7DEB7A19793
:102340000FB6F894DEBF0FBECDBF7C01C42EE52FC3
:10235000CB01D22E19A221E02D1510F02AE0D22EA9
:102360008E010F5D1F4F8D2C912CA12CB12C6C2D4B
:102370007E2FA50194010E9460168C2DD29E80199B
:102380001124015011098A3014F4805D01C0895C68
:10239000F8018083211531054105510521F0C22E38
:1023A000E32FCA01E4CFB801C7010E944F11A196E3
:1023B0000FB6F894DEBF0FBECDBFDF91CF911F9156
:1023C0000F91FF90EF90DF90CF90BF90AF909F90D4
:1023D0008F900895CF92DF92EF92FF920F931F9309
:1023E000CF93DF93EC016A017B012115310579F46C
:1023F000E881F9810190F081E02D642FDF91CF9188
:102400001F910F91FF90EF90DF90CF9009942A30A9
:102410003105E9F477FF1AC06DE20E948A118C0140
:1024200044275527BA014C195D096E097F092AE036
:10243000CE010E949111800F911FDF91CF911F91CA
:102440000F91FF90EF90DF90CF9008952AE0B701B1
:10245000A601CE01DF91CF911F910F91FF90EF90D8
:10246000DF90CF900C9491119A01AB01662757FD34
:102470006095762F0C94EA113F924F925F926F9283
:102480007F928F929F92AF92BF92CF92DF92EF9204
:10249000FF920F931F93CF93DF9300D000D0CDB75F
:1024A000DEB78B0129013A0190913B01981721F089
:1024B0009F3F09F0D3C104C0E6E5F1E0349081C04C
:1024C00080933B01E6E5F1E0E491EF3F09F4C6C1FA
:1024D000E13031F1E23009F44BC0E11171C014BCBC
:1024E00015BC94B5926094BD95B5916095BD282FAB
:1024F00030E0F901EC5DFE4FE491F0E0EE0FFF1FDC
:10250000EE5BFE4F459154915093830240938202BB
:10251000F901E05FFE4F249120938102312C53C0DA
:1025200010928000109281009091810098609093A9
:10253000810090918100916090938100282F30E07C
:10254000F901EC5DFE4FE491F0E0EE0FFF1FEE5B52
:10255000FE4F4591549150937C0240937B02F901C8
:10256000E05FFE4F249120937A02332433942BC0F2
:102570001092B0001092B1009091B00092609093D0
:10258000B0009091B10091609093B100282F30E09D
:10259000F901EC5DFE4FE491F0E0EE0FFF1FEE5B02
:1025A000FE4F459154915093750240937402F90186
:1025B000E05FFE4F24912093730252E0352E03C05A
:1025C0003E2E37FC4BC161E00E944E0E4801A12C0B
:1025D000B12C832D8D7F09F0C0C060E072E18AE7E5
:1025E00090E0A50194010E94821629833A834B83CF
:1025F0005C8369017A0181E0C81AD108E108F10819
:102600009FEFC916D104E104F10409F008F49AC05F
:1026100060E472E48FE090E0A50194010E948216CC
:1026200069017A01E1E0CE1AD108E108F108F2E08F
:102630003F1219C08FEFC816D104E104F10409F06C
:1026400008F487C060E970ED83E090E0A501940193
:102650000E94821669017A0191E0C91AD108E10845
:10266000F10883E001C082E0EFEFCE16D104E1046F
:10267000F10409F008F467C068E478EE81E090E0C6
:10268000A50194010E94821669017A01F1E0CF1A36
:10269000D108E108F1083320E1F082E038121BC0D4
:1026A0009FEFC916D104E104F10409F008F4D4C085
:1026B00064E274EF80E090E0A50194010E9482162C
:1026C00069017A01E1E0CE1AD108E108F10885E05C
:1026D00003C083E001C084E0FFEFCF16D104E10422
:1026E000F10489F180F162E17AE780E090E0A501F0
:1026F00094010E94821669017A0181E0C81AD1080A
:10270000E108F108311002C084E001C086E09FEFCB
:10271000C916D104E104F104B1F0A8F0C980DA804F
:10272000EB80FC809AE0F594E794D794C7949A954F
:10273000D1F7E1E0CE1AD108E108F108332031F0F9
:1027400087E008C081E0332011F004C085E085BD3A
:1027500034C082E08093B10030C060E072E18AE76B
:1027600090E0A50194010E94821669017A01F1E0CE
:10277000CF1AD108E108F108C114D10481E0E806BC
:10278000F10488F068E478EE81E090E0A50194011E
:102790000E94821669017A0191E0C91AD108E10804
:1027A000F10893E001C091E0E1E03E1206C08091A3
:1027B0008100887F892B809381004114510461043A
:1027C000710471F0D801AA0FBB1FA30192010E94EE
:1027D000A71628EE33E040E050E00E94601603C0E8
:1027E0002FEF3FEFA901F1E03F16A1F082E038168C
:1027F00019F1311033C0C7BC209384023093850295
:10280000409386025093870280916E00826080938D
:102810006E0024C0D0928900C092880020937D026F
:1028200030937E0240937F025093800280916F002C
:10283000826080936F0012C0C092B3002093760232
:102840003093770240937802509379028091700020
:1028500082608093700002C084E07CCF0F900F9064
:102860000F900F90DF91CF911F910F91FF90EF90FC
:10287000DF90CF90BF90AF909F908F907F906F90A0
:102880005F904F903F900895813039F018F082307A
:1028900051F0089510926E00089580916F008D7F21
:1028A00080936F000895809170008D7F80937000F9
:1028B00081E08093B0008091B100887F8460809334
:1028C000B1001092B3000895CF93C82F80913B01BF
:1028D0008C1307C0E6E5F1E084919FEF90933B01F4
:1028E00001C08FEF0E94441460E08C2FCF910C94B4
:1028F000870E1F920F920FB60F9211242F933F93C2
:102900004F935F936F937F938F939F93AF93BF93F7
:10291000EF93FF938091760290917702A0917802D5
:10292000B0917902892B8A2B8B2B51F190917302F4
:10293000E0917402F09175028081892780838091F3
:10294000760290917702A0917802B09179021816E0
:1029500019061A061B06C4F480917602909177023C
:10296000A0917802B09179020197A109B1098093F1
:10297000760290937702A0937802B093790204C014
:1029800080913B010E946414FF91EF91BF91AF9140
:102990009F918F917F916F915F914F913F912F9177
:1029A0000F900FBE0F901F90189508950CD0EBC09C
:1029B000E3D040F0DAD030F021F45F3F19F0CCC022
:1029C000511115C1CFC0F0D098F39923C9F3552305
:1029D000B1F3951B550BBB27AA2762177307840712
:1029E00038F09F5F5F4F220F331F441FAA1FA9F3C8
:1029F00033D00E2E3AF0E0E830D091505040E695BA
:102A0000001CCAF729D0FE2F27D0660F771F881F1A
:102A1000BB1F261737074807AB07B0E809F0BB0B09
:102A2000802DBF01FF2793585F4F2AF09E3F51052D
:102A300068F092C0DCC05F3FECF3983EDCF3869513
:102A400077956795B795F7959F5FC9F7880F911DA3
:102A50009695879597F90895E1E0660F771F881F8F
:102A6000BB1F621773078407BA0720F0621B730B42
:102A7000840BBA0BEE1F88F7E095089504D0689494
:102A8000B111B5C0089598D088F09F5790F0B92F34
:102A90009927B751A0F0D1F0660F771F881F991FB3
:102AA0001AF0BA95C9F712C0B13081F09FD0B1E0E9
:102AB00008959CC0672F782F8827B85F39F0B93FF9
:102AC000CCF3869577956795B395D9F73EF49095B5
:102AD0008095709561957F4F8F4F9F4F0895E89433
:102AE00009C097FB3EF490958095709561957F4F56
:102AF0008F4F9F4F9923A9F0F92F96E9BB27939504
:102B0000F695879577956795B795F111F8CFFAF413
:102B1000BB0F11F460FF1BC06F5F7F4F8F4F9F4F44
:102B200016C0882311F096E911C0772321F09EE8A2
:102B3000872F762F05C0662371F096E8862F70E008
:102B400060E02AF09A95660F771F881FDAF7880FE2
:102B50009695879597F9089597F99F6780E870E0B3
:102B600060E008959FEF80EC089500240A94161603
:102B7000170618060906089500240A94121613066B
:102B8000140605060895092E0394000C11F48823F9
:102B900052F0BB0F40F4BF2B11F460FF04C06F5F15
:102BA0007F4F8F4F9F4F089557FD9058440F551FEB
:102BB00059F05F3F71F04795880F97FB991F61F0BF
:102BC0009F3F79F087950895121613061406551F36
:102BD000F2CF4695F1DF08C0161617061806991FA2
:102BE000F1CF86957105610508940895E894BB2797
:102BF00066277727CB0197F908950BD0C4CFB5DFAF
:102C000028F0BADF18F0952309F0A6CFABCF112436
:102C1000EECFCADFA0F3959FD1F3950F50E0551F7B
:102C2000629FF001729FBB27F00DB11D639FAA2721
:102C3000F00DB11DAA1F649F6627B00DA11D661F70
:102C4000829F2227B00DA11D621F739FB00DA11D91
:102C5000621F839FA00D611D221F749F3327A00D4B
:102C6000611D231F849F600D211D822F762F6A2FE7
:102C700011249F5750408AF0E1F088234AF0EE0F6C
:102C8000FF1FBB1F661F771F881F91505040A9F779
:102C90009E3F510570F060CFAACF5F3FECF3983EA6
:102CA000DCF3869577956795B795F795E7959F5FE0
:102CB000C1F7FE2B880F911D9695879597F908957A
:102CC000A1E21A2EAA1BBB1BFD010DC0AA1FBB1F30
:102CD000EE1FFF1FA217B307E407F50720F0A21BA2
:102CE000B30BE40BF50B661F771F881F991F1A940F
:102CF00069F760957095809590959B01AC01BD0139
:102D0000CF010895052E97FB1EF400940E9499169A
:102D100057FD07D00E94601607FC03D04EF40C94B8
:102D2000991650954095309521953F4F4F4F5F4FE5
:102D3000089590958095709561957F4F8F4F9F4F27
:102D40000895EE0FFF1F0590F491E02D09940E9465
:102D5000B216A59F900DB49F900DA49F800D911D5C
:102D600011240895A29FB001B39FC001A39F700DCD
:102D7000811D1124911DB29F700D811D1124911D83
:102D80000895CF93DF938230910510F482E090E0B4
:102D9000E0918A02F0918B0220E030E0A0E0B0E008
:102DA000309739F14081518148175907B8F04817D9
:102DB000590771F482819381109729F013969C939F
:102DC0008E9312972CC090938B0280938A0227C017
:102DD0002115310531F04217530718F0A901DB0125
:102DE00001C0EF019A01BD01DF010280F381E02DF6
:102DF000D7CF21153105F9F0281B390B24303105C7
:102E000080F48A819B816115710521F0FB01938318
:102E1000828304C090938B0280938A02FE013296D3
:102E200044C0FE01E20FF31F8193919322503109B8
:102E3000398328833AC02091880230918902232B5C
:102E400041F42091020130910301309389022093D3
:102E5000880220910001309101012115310541F4D2
:102E60002DB73EB74091040150910501241B350B4D
:102E7000E0918802F0918902E217F307A0F42E1B7B
:102E80003F0B2817390778F0AC014E5F5F4F2417CE
:102E9000350748F04E0F5F1F509389024093880218
:102EA0008193919302C0E0E0F0E0CF01DF91CF91F8
:102EB0000895CF93DF93009709F487C0FC01329700
:102EC00013821282C0918A02D0918B02209781F4E2
:102ED00020813181280F391F8091880290918902C9
:102EE0008217930779F5F0938902E09388026DC009
:102EF000DE0120E030E0AE17BF0750F412964D918E
:102F00005C9113979D014115510509F1DA01F3CF49
:102F1000B383A28340815181840F951F8A179B0739
:102F200071F48D919C911197840F951F0296918356
:102F3000808312968D919C911397938382832115A0
:102F4000310529F4F0938B02E0938A023EC0D90147
:102F50001396FC93EE9312974D915D91A40FB51FBC
:102F6000EA17FB0779F480819181840F951F0296FF
:102F7000D90111969C938E938281938113969C9391
:102F80008E931297E0E0F0E08A819B81009719F020
:102F9000FE01EC01F9CFCE01029628813981820F22
:102FA000931F20918802309189022817390769F40C
:102FB000309729F410928B0210928A0202C0138279
:102FC0001282D0938902C0938802DF91CF91089535
:042FD000F894FFCFA3
:102FD40000008C02800006011501260137014A0118
:102FE4005D01720188019F01B801D201EE010B025B
:102FF4002A024B026E029302BA02E40210033F0358
:103004007003A403DC031704000401FF00000000A4
:10301400D800DA00070100000000D9001F014A01AE
:10302400000000006B025B016C0100000000A501C0
:103034007D01910100000000A30F2711250F3E0F11
:04304400300F810FB9
:00000001FF
