:100000000C943D000C9465000C9465000C94650004
:100010000C9465000C9465000C9465000C946500CC
:100020000C9465000C9465000C9465000C946500BC
:100030000C9465000C9465000C9465000C946500AC
:100040000C94EA010C9465000C94FF030C943104A9
:100050000C9465000C9465000C9465000C9465008C
:100060000C9465000C9465002D5200303030303116
:1000700000524F42424F2D00610411241FBECFEFAA
:10008000D8E0DEBFCDBF11E0A0E0B1E0EEE0FCE0E3
:1000900002C005900D92AA31B107D9F722E0AAE17A
:1000A000B1E001C01D92A834B207E1F710E0CAE741
:1000B000D0E004C02297FE010E94F005C837D107A6
:1000C000C9F70E94A5040C9405060C940000DC01FD
:1000D000ED91FC910190F081E02D09940F931F9315
:1000E000CF93DF9300E711E0C0E0D0E0CE010E94A3
:1000F000FD05F80181938F012196C233D105B1F737
:10010000E0E7F1E0CF018057914021912D32D1F706
:100110000196EBE5F1E0DC01A059BE4F2C91019670
:100120002D3211F02193F7CFE6E4F1E0DC01A05984
:10013000BE4F2C9101962D3211F02193F7CFE1E3C0
:10014000F1E0DC01A059BE4F2C912D3219F0219322
:100150000196F7CFCCE1D1E081E090E00196FD017E
:10016000E80FF91F31972081222311F02993F6CF50
:1001700060E071E08BE591E00E94F405892B29F5A0
:1001800062E071E086E491E00E94F405892BE9F4D5
:1001900062E071E081E391E00E94F405892B81F037
:1001A00064E071E081E391E00E94F405892B41F065
:1001B00066E071E081E391E00E94F405892B29F467
:1001C00010921B0110921A013CC068E071E08BE5AF
:1001D00091E00E94F405892B71F562E071E086E4FC
:1001E00091E00E94F405892B59F462E071E081E30B
:1001F00091E00E94F405892B19F481E090E01DC084
:1002000066E071E086E491E00E94F405892B99F4A0
:1002100062E071E081E391E00E94F405892B41F0F6
:1002200064E071E081E391E00E94F405892B19F408
:1002300082E090E002C08FE097E290931B018093F0
:100240001A01DF91CF911F910F9108950E946E00C6
:1002500026E040E052EC61E070E08BEA91E00C9423
:100260009D03CF93DF9361E770E08BEA91E00E94FA
:10027000F20480911A0190911B018031974234F46D
:1002800060E370E08BEA91E00E94670080911A01C0
:1002900090911B01883E934034F460E370E08BEA58
:1002A00091E00E94670080911A0190911B018436B1
:1002B000910534F460E370E08BEA91E00E946700FE
:1002C00080911A0190911B010A9734F460E370E069
:1002D0008BEA91E00E94670060911A0170911B0106
:1002E0004AE050E08BEA91E00E94C3056DE270E0C5
:1002F0008BEA91E00E9467006BE670E08BEA91E088
:100300000E94F20468E670E08BEA91E00E94F20439
:100310006DE28BEA91E00E941905C6E4D1E00990F4
:100320000020E9F72197C654D140C530D10544F4E7
:1003300060E370E08BEA91E00E9467002196F5CFC0
:1003400066E471E08BEA91E00E9417056DE28BEAAA
:1003500091E00E941905C1E3D1E009900020E9F77E
:100360002197C153D140C530D10544F460E370E01A
:100370008BEA91E00E9467002196F5CF61E371E07E
:100380008BEA91E00E9417056DE28BEA91E00E94F2
:100390001905CCE1D1E009900020E9F72197CC5173
:1003A000D140C431D10544F460E370E08BEA91E0C0
:1003B0000E9467002196F5CF6CE171E08BEA91E035
:1003C0000E94170568EE73E080E090E0DF91CF9126
:1003D0000C9457021F920F920FB60F9211242F9375
:1003E0003F938F939F93AF93BF938091A30190917D
:1003F000A401A091A501B091A6013091A20123E032
:10040000230F2D3720F40196A11DB11D05C026E84C
:10041000230F0296A11DB11D2093A2018093A30179
:100420009093A401A093A501B093A6018091A70188
:100430009091A801A091A901B091AA010196A11DD6
:10044000B11D8093A7019093A801A093A901B09337
:10045000AA01BF91AF919F918F913F912F910F90E2
:100460000FBE0F901F9018953FB7F8948091A70189
:100470009091A801A091A901B091AA0126B5A89BCD
:1004800005C02F3F19F00196A11DB11D3FBF662782
:10049000782F892F9A2F620F711D811D911D42E0C7
:1004A000660F771F881F991F4A95D1F70895CF923D
:1004B000DF92EF92FF92CF93DF936B017C010E945A
:1004C0003402EB01C114D104E104F10489F00E946B
:1004D000CB050E9434026C1B7D0B683E734090F389
:1004E00081E0C81AD108E108F108C851DC4FEACF11
:1004F000DF91CF91FF90EF90DF90CF9008957894A7
:1005000084B5826084BD84B5816084BD85B5826018
:1005100085BD85B5816085BDEEE6F0E080818160B6
:100520008083E1E8F0E010828081826080838081B6
:1005300081608083E0E8F0E0808181608083E1EB8E
:10054000F0E0808184608083E0EBF0E08081816076
:100550008083EAE7F0E0808184608083808182602C
:100560008083808181608083808180688083109215
:10057000C1000895FC01818D228D90E0805C9F4F29
:10058000821B91098F7399270895FC01918D828DAB
:10059000981731F0828DE80FF11D858D90E0089558
:1005A0008FEF9FEF0895FC01918D828D981761F078
:1005B000828DDF01A80FB11D5D968C91928D9F5F9A
:1005C0009F73928F90E008958FEF9FEF089587E5D6
:1005D00094E0892B49F080E090E0892B29F00E947B
:1005E000570481110C9400000895FC01848DDF01F3
:1005F000A80FB11DA35ABF4F2C91848D90E0019696
:100600008F739927848FA689B7892C93A089B18984
:100610008C9180648C93938D848D981306C002888E
:10062000F389E02D80818F7D80830895CF93DF93C0
:10063000EC01888D8823C9F0EA89FB89808185FDDA
:1006400005C0A889B9898C9186FD0FC00FB607FC3B
:10065000F5CF808185FFF2CFA889B9898C9185FF7C
:10066000EDCFCE010E94F502E7CFDF91CF91089543
:10067000CF92DF92FF920F931F93CF93DF931F923E
:10068000CDB7DEB76C01DC015B969C915B975C9605
:100690008C915C97981307C05096ED91FC915197FF
:1006A000808185FD32C0F601038D10E00F5F1F4F82
:1006B0000F731127F02EF601848DF81211C00FB6BA
:1006C00007FCF9CFD6015096ED91FC9151978081AE
:1006D00085FFF1CFC60169830E94F5026981EBCFE6
:1006E000838DE80FF11DE35AFF4F6083D6015B96BF
:1006F0000C935B975296ED91FC91539780818062A9
:10070000808381E058968C930DC0D6015696ED916A
:10071000FC91579760835096ED91FC9151978081A1
:100720008064808381E090E00F90DF91CF911F91F2
:100730000F91FF90DF90CF900895BF92CF92DF92FC
:10074000EF92FF92CF93DF93EC016A017B01B22E0F
:10075000E889F98982E08083411581EE58076105B7
:100760007105A1F060E079E08DE390E0A7019601CA
:100770000E94CC05215031094109510956954795F0
:1007800037952795211580E1380798F0E889F98990
:10079000108260E874E88EE190E0A70196010E9463
:1007A000CC05215031094109510956954795379596
:1007B0002795EC85FD853083EE85FF852083188E97
:1007C000EC89FD89B082EA89FB8980818061808320
:1007D000EA89FB89808188608083EA89FB8980813E
:1007E00080688083EA89FB8980818F7D8083DF91A7
:1007F000CF91FF90EF90DF90CF90BF9008951F9220
:100800000F920FB60F9211242F938F939F93EF9314
:10081000FF93E091BB01F091BC018081E091C101A7
:10082000F091C20182FD12C090818091C4018F5F5E
:100830008F732091C501821751F0E091C401F0E05F
:10084000E555FE4F958F8093C40101C08081FF91D3
:10085000EF919F918F912F910F900FBE0F901F904E
:1008600018951F920F920FB60F9211242F933F935A
:100870004F935F936F937F938F939F93AF93BF93A8
:10088000EF93FF938BEA91E00E94F502FF91EF91C5
:10089000BF91AF919F918F917F916F915F914F9198
:1008A0003F912F910F900FBE0F901F9018958BEADC
:1008B00091E00E94BA0221E0892B09F420E0822F06
:1008C00008951092AE011092AD0188EE93E0A0E081
:1008D000B0E08093AF019093B001A093B101B093C9
:1008E000B2018EE091E09093AC018093AB0185EC76
:1008F00090E09093B8018093B70184EC90E09093DE
:10090000BA018093B90180EC90E09093BC01809390
:10091000BB0181EC90E09093BE018093BD0182EC1D
:1009200090E09093C0018093BF0186EC90E090939B
:10093000C2018093C1011092C4011092C5011092AE
:10094000C6011092C701089508950E947F020E9477
:10095000A4040E942601C7EED2E00E943101209734
:10096000E1F30E94E702F9CFCF92DF92EF92FF927C
:100970000F931F93CF93DF936C017A01EB01E60E87
:10098000F71E00E010E0CE15DF0561F06991D60199
:10099000ED91FC910190F081E02DC6010995080FC1
:1009A000191FF1CFC801DF91CF911F910F91FF90D7
:1009B000EF90DF90CF9008956115710581F0DB0114
:1009C0000D900020E9F7AD0141505109461B570B2E
:1009D000DC01ED91FC910280F381E02D099480E02F
:1009E00090E00895EF92FF920F931F93CF93DF93C0
:1009F0008C01FB01C0E0D0E064917F018FEFE81A29
:100A0000F80A662361F0D801ED91FC910190F08124
:100A1000E02DC8010995C80FD91FF701EDCFCE0110
:100A2000DF91CF911F910F91FF90EF9008950C945B
:100A3000DC04DC01ED91FC910190F081E02D099442
:100A40008F929F92AF92BF92CF92DF92EF92FF92DE
:100A50000F931F93CF93DF93CDB7DEB7A1970FB658
:100A6000F894DEBF0FBECDBF7C01C42EE52FCB01B5
:100A7000D22E19A221E02D1510F02AE0D22E8E01DF
:100A80000F5D1F4F8D2C912CA12CB12C6C2D7E2F26
:100A9000A50194010E94CC058C2DD29E80191124B1
:100AA000015011098A3014F4805D01C0895CF8019D
:100AB0008083211531054105510521F0C22EE32F18
:100AC000CA01E4CFB801C7010E94DC04A1960FB6A9
:100AD000F894DEBF0FBECDBFDF91CF911F910F9174
:100AE000FF90EF90DF90CF90BF90AF909F908F904E
:100AF0000895CF92DF92EF92FF920F931F93CF93BF
:100B0000DF93EC016A017B012115310579F4E8815D
:100B1000F9810190F081E02D642FDF91CF911F9139
:100B20000F91FF90EF90DF90CF9009942A3031051C
:100B3000E9F477FF1AC06DE20E9419058C01442781
:100B40005527BA014C195D096E097F092AE0CE01CB
:100B50000E942005800F911FDF91CF911F910F916F
:100B6000FF90EF90DF90CF9008952AE0B701A601A3
:100B7000CE01DF91CF911F910F91FF90EF90DF9009
:100B8000CF900C9420059A01AB01662757FD609524
:100B9000762F0C9479050895A1E21A2EAA1BBB1B8F
:100BA000FD010DC0AA1FBB1FEE1FFF1FA217B30739
:100BB000E407F50720F0A21BB30BE40BF50B661F4F
:100BC000771F881F991F1A9469F760957095809513
:100BD00090959B01AC01BD01CF010895EE0FFF1F61
:100BE0000590F491E02D0994FB01DC018D910190B9
:100BF00080190110D9F3990B0895F999FECF92BD90
:0E0C000081BDF89A992780B50895F894FFCF2A
:100C0E0052003100320033004C0000000000380367
:0A0C1E00B404BA02D302C5021603A3
:00000001FF
