:100000000C946E000C9496000C9496000C94960040
:100010000C9496000C9496000C9496000C94240C6E
:100020000C9496000C9496000C9496000C949600F8
:100030000C9496000C9496000C9496000C949600E8
:100040000C947E040C9496000C941B080C944D08A0
:100050000C9496000C9496000C9496000C949600C8
:100060000C9496000C949600E30388039003CD0350
:10007000E603A6030904524F42424F2D0000000040
:100080000800020100000304070000000000000057
:100090000001020408102040800102040810200121
:1000A00002040810200404040404040404020202EC
:1000B00002020203030303030300000000230026DF
:1000C00000290000000000250028002B000000008F
:1000D00000240027002A0002C5017D0811241FBE4C
:1000E000CFEFD8E0DEBFCDBF11E0A0E0B1E0EAEE97
:1000F000F9E102C005900D92A435B107D9F722E0CD
:10010000A4E5B1E001C01D92A83BB207E1F710E001
:10011000CCEDD0E004C02297FE010E94C40CC83D83
:10012000D107C9F70E94C1080C94F30C0C9400008D
:10013000DC01ED91FC910190F081E02D09940F9389
:100140001F93CF93DF930BEC11E0C0E0D0E0CE0122
:100150000E94EB0CF80181938F012196C233D105E7
:10016000B1F7EBECF1E0CF018B5C914021912D32A6
:10017000D1F70196E6EBF1E0DC01A553BE4F2C91DF
:1001800001962D3211F02193F7CFE1EAF1E0DC0185
:10019000A553BE4F2C9101962D3211F02193F7CF2C
:1001A000ACE8B1E0FC01E553FE4F20812D3219F09F
:1001B0002D930196F7CFA7E7B1E081E090E0EF0142
:1001C000C80FD91F2881019630ED320F3A3010F454
:1001D0002D93F5CF66E371E086EB91E00E94E20C8F
:1001E000892B29F562E471E081EA91E00E94E20C3A
:1001F000892BE9F462E471E08CE891E00E94E20C62
:10020000892B81F068E371E08CE891E00E94E20CB8
:10021000892B41F06AE371E08CE891E00E94E20CE6
:10022000892B29F410927601109275013CC06CE381
:1002300071E086EB91E00E94E20C892B71F562E49B
:1002400071E081EA91E00E94E20C892B59F462E4AA
:1002500071E08CE891E00E94E20C892B19F481E0B6
:1002600090E01DC06AE371E081EA91E00E94E20C37
:10027000892B99F462E471E08CE891E00E94E20C31
:10028000892B41F068E371E08CE891E00E94E20C78
:10029000892B19F482E090E002C08FE097E29093FE
:1002A000760180937501DF91CF911F910F91089591
:1002B000EF92FF920F931F93CF93DF930E949F00C3
:1002C00026E040E052EC61E070E086E092E00E94BF
:1002D000B9071092740161E084E00E94FF0561E0BB
:1002E00082E00E94FF0561E083E10E94FF0561E07A
:1002F00082E00E94FF0561E083E00E94FF0561E06B
:1003000084E00E94FF0561E085E00E94FF0561E056
:1003100086E00E94FF0561E087E00E94FF0561E042
:1003200083E10E94380608EC10E0C0E0D0E0EE2443
:10033000E394F12C97010C2E01C0220F0A94EAF7E6
:1003400041E064E082E00E949706219624E630E0D6
:1003500040E050E0B80183E00E94E70964E670E005
:1003600080E090E00E94F70408531F4FC830D10589
:1003700009F720E041E064E082E0DF91CF911F9136
:100380000F91FF90EF900C9497060E94C804609321
:1003900070017093710180937201909373010895BD
:1003A000CF93DF9363E270E086E092E00E949800D2
:1003B00088E00E946E06C1E0019709F0C0E089E084
:1003C0000E946E06019709F4C2608AE00E946E06E0
:1003D000019709F4C4608BE00E946E06019709F44E
:1003E000C8608CE00E946E06019709F4C0618DE040
:1003F0000E946E06019709F4C0626C2F86E092E0BD
:100400000E94540787E00E945A05EC0160E070E00A
:1004100086E092E00E94980060E070E086E092E062
:100420000E9498006D2F86E092E00E9454076C2F86
:1004300086E092E00E94540781E00E945A05EC0198
:1004400060E070E086E092E00E94980060E070E07A
:1004500086E092E00E9498006D2F86E092E00E9474
:1004600054076C2F86E092E00E94540782E00E94BD
:100470005A05EC0160E070E086E092E00E9498008E
:1004800060E070E086E092E00E9498006D2F86E0C8
:1004900092E00E9454076C2F86E092E00E9454077D
:1004A000C0916E01D0916F0160E070E086E092E053
:1004B0000E94980060E070E086E092E00E94980060
:1004C0006D2F86E092E00E9454076C2F86E092E048
:1004D0000E94540784E00E945A05EC0160E070E03D
:1004E00086E092E00E94980060E070E086E092E092
:1004F0000E9498006D2F86E092E00E9454076C2FB6
:1005000086E092E00E94540785E00E945A05EC01C3
:1005100060E070E086E092E00E94980060E070E0A9
:1005200086E092E00E9498006D2F86E092E00E94A3
:1005300054076C2F86E092E0DF91CF910C94540722
:100540000F931F93CF93DF9386E092E00E94D6062D
:10055000892B09F47AC186E092E00E94EF0620918F
:10056000740121119AC09C0133272336310509F407
:100570008CC054F42136310509F484C00CF085C0D8
:100580002032310581F061C12536310509F47DC085
:100590000CF47BC02636310509F477C027363105C7
:1005A00009F473C052C166E770E086E092E00E94F1
:1005B0000E0980917501909176018031974234F453
:1005C00060E370E086E092E00E94980080917501FF
:1005D00090917601883E934034F460E370E086E0C9
:1005E00092E00E9498008091750190917601843686
:1005F000910534F460E370E086E092E00E94980098
:1006000080917501909176010A9734F460E370E06F
:1006100086E092E00E9498006091750170917601E9
:100620004AE050E086E092E00E94DF096DE270E06F
:1006300086E092E00E9498006EE371E086E092E02E
:100640000E9433096DE270E086E092E00E9498001B
:10065000C7E7D1E009900020E9F72197C757D140BB
:10066000C431D10544F460E370E086E092E00E947A
:1006700098002196F5CF67E771E086E092E00E944E
:100680003309E3C08093540128C08093540182E071
:100690008093740110925501D8C0223029F59091B1
:1006A0005501E92FF0E0EA5AFE4F808381E0890F7F
:1006B0008093550190915401943661F028F492365C
:1006C00049F0933639F0C1C0963621F018F09736CC
:1006D00041F0BBC0882309F4B8C083E08093740163
:1006E000B4C08230D0F7B1C0233009F0AEC084323C
:1006F00009F0A9C08091540190E0FC01E156F10994
:10070000E730F10508F09FC0EC5CFF4F0C94C20C81
:100710002091560141E064E082E00E94970653C0B8
:10072000C0915601C0FF02C061E001C060E085E0F9
:100730000E943806C1FF02C061E001C060E086E0AF
:100740000E943806C2FF24C061E023C0C091560158
:10075000C0FF04C060E082E00E943806C1FF04C010
:1007600060E083E00E943806C2FF04C060E084E0DD
:100770000E943806C3FF04C060E085E00E9438068E
:10078000C4FF04C060E086E00E943806C5FF1BC0BD
:1007900060E087E00E94380616C0E0915601F0E064
:1007A000EE0FFF1FEE5FFE4F6081718124E630E0A7
:1007B00040E050E083E00E94E70964E670E080E0FA
:1007C00090E00E94F7040E94D0013DC0C091560104
:1007D000C0FF04C061E082E00E943806C1FF04C08F
:1007E00061E083E00E943806C2FF04C061E084E05B
:1007F0000E943806C3FF04C061E085E00E9438060D
:10080000C4FF04C061E086E00E943806C5FFDBCF6C
:100810009BCFD0915601C0915701D0FF05C06C2FDE
:1008200070E083E00E947705D1FF05C06C2F70E077
:1008300085E00E947705D2FFC6CF6C2F70E086E07E
:100840000E947705C0CF109274010E94C8040091E5
:100850007001109171012091720130917301601B40
:10086000710B820B930B6233710581059105F8F4CE
:1008700081E10E945A0590936B0180936A01811572
:1008800024E09207B0F520916C0130916D0128179A
:10089000390728F490936D0180936C012AC0209150
:1008A0000001309101018217930718F51EC0809155
:1008B0006C0190916D012091000130910101821B2A
:1008C000930B90936F0180936E010E94C804609314
:1008D0007001709371018093720190937301109273
:1008E0006D0110926C0180E094E09093010180937F
:1008F0000001DF91CF911F910F9108951F920F92E8
:100900000FB60F9211242F933F938F939F93AF9322
:10091000BF938091FE019091FF01A0910002B091E0
:1009200001023091FD0123E0230F2D3720F40196C1
:10093000A11DB11D05C026E8230F0296A11DB11D02
:100940002093FD018093FE019093FF01A09300028C
:10095000B09301028091020290910302A0910402DF
:10096000B09105020196A11DB11D809302029093E2
:100970000302A0930402B0930502BF91AF919F912F
:100980008F913F912F910F900FBE0F901F90189550
:100990002FB7F8946091FE017091FF0180910002E1
:1009A000909101022FBF08953FB7F8948091020201
:1009B00090910302A0910402B091050226B5A89B74
:1009C00005C02F3F19F00196A11DB11D3FBF66273D
:1009D000782F892F9A2F620F711D811D911D42E082
:1009E000660F771F881F991F4A95D1F70895CF92F8
:1009F000DF92EF92FF92CF93DF936B017C010E9415
:100A0000D404EB01C114D104E104F10489F00E9483
:100A1000800C0E94D4046C1B7D0B683E734090F3E5
:100A200081E0C81AD108E108F108C851DC4FEACFCB
:100A3000DF91CF91FF90EF90DF90CF900895789461
:100A400084B5826084BD84B5816084BD85B58260D3
:100A500085BD85B5816085BDEEE6F0E08081816071
:100A60008083E1E8F0E01082808182608083808171
:100A700081608083E0E8F0E0808181608083E1EB49
:100A8000F0E0808184608083E0EBF0E08081816031
:100A90008083EAE7F0E080818460808380818260E7
:100AA00080838081816080838081806880831092D0
:100AB000C10008958E3008F08E5087702091340167
:100AC00090E4299F90011124822B80937C008091D7
:100AD0007A00806480937A0080917A0086FDFCCF52
:100AE000809178002091790090E0922B08951F93D7
:100AF000CF93DF93182FEB0161E00E94FF05209751
:100B000011F460E004C0CF3FD10539F461E0812FDA
:100B1000DF91CF911F910C943806E12FF0E0E3585C
:100B2000FF4FE491E330F9F048F4E130B9F0E230FE
:100B3000A1F584B5806284BDC8BD34C0E730E9F05A
:100B4000E83019F1E43049F58091800080628093AB
:100B50008000D0938B00C0938A0024C084B5806845
:100B600084BDC7BD1FC080918000806880938000D5
:100B7000D0938900C093880015C08091B000806830
:100B80008093B000C093B3000DC08091B00080622C
:100B90008093B000C093B40005C0C038D1050CF0FC
:100BA000B5CFAFCFDF91CF911F910895833081F002
:100BB00028F4813099F08230A1F008958730A9F0AF
:100BC0008830B9F08430D1F4809180008F7D03C0EB
:100BD000809180008F7780938000089584B58F770F
:100BE00002C084B58F7D84BD08958091B0008F7759
:100BF00003C08091B0008F7D8093B0000895CF93A3
:100C0000DF9390E0FC01EF56FF4F2491FC01EB5580
:100C1000FF4F8491882349F190E0880F991FFC01D0
:100C2000E353FF4FA591B4918D539F4FFC01C591A4
:100C3000D4919FB7611108C0F8948C9120958223BC
:100C40008C93888182230AC0623051F4F8948C918D
:100C5000322F309583238C938881822B888304C024
:100C6000F8948C91822B8C939FBFDF91CF91089544
:100C70000F931F93CF93DF931F92CDB7DEB7282F2B
:100C800030E0F901E358FF4F8491F901EF56FF4F2F
:100C90001491F901EB55FF4F04910023C9F088230B
:100CA00021F069830E94D6056981E02FF0E0EE0F04
:100CB000FF1FED53FF4FA591B4919FB7F8948C910E
:100CC000611103C01095812301C0812B8C939FBFBC
:100CD0000F90DF91CF911F910F910895CF93DF93E4
:100CE000282F30E0F901E358FF4F8491F901EF56C6
:100CF000FF4FD491F901EB55FF4FC491CC2391F0F4
:100D000081110E94D605EC2FF0E0EE0FFF1FE75493
:100D1000FF4FA591B4912C912D2381E090E021F417
:100D200080E002C080E090E0DF91CF910895BF9213
:100D3000CF92DF92EF92FF920F931F93CF93DF93A7
:100D4000C82ED62EB42EC7E0D0E0022F10E087E0E8
:100D5000E82EF12CB1100AC0F701EC1BFD0BB80115
:100D600002C075956795EA95E2F707C0B8010C2EA9
:100D700002C0759567950A94E2F7617077278C2D0C
:100D80000E94380661E08D2D0E94380660E08D2DAE
:100D90000E9438062197F0F6DF91CF911F910F91B5
:100DA000FF90EF90DF90CF90BF900895FC01818D70
:100DB000228D90E0805C9F4F821B91098F73992751
:100DC0000895FC01918D828D981731F0828DE80F86
:100DD000F11D858D90E008958FEF9FEF0895FC0140
:100DE000918D828D981761F0828DDF01A80FB11D62
:100DF0005D968C91928D9F5F9F73928F90E0089586
:100E00008FEF9FEF089583E798E0892B49F080E00A
:100E100090E0892B29F00E94730881110C94000046
:100E20000895FC01848DDF01A80FB11DA35ABF4FA7
:100E30002C91848D90E001968F739927848FA689D9
:100E4000B7892C93A089B1898C9180648C93938D00
:100E5000848D981306C00288F389E02D80818F7DF0
:100E600080830895CF93DF93EC01888D8823C9F0A8
:100E7000EA89FB89808185FD05C0A889B9898C91A3
:100E800086FD0FC00FB607FCF5CF808185FFF2CF3E
:100E9000A889B9898C9185FFEDCFCE010E941107F9
:100EA000E7CFDF91CF910895CF92DF92FF920F931A
:100EB0001F93CF93DF931F92CDB7DEB76C01DC0198
:100EC0005B969C915B975C968C915C97981307C09E
:100ED0005096ED91FC915197808185FD32C0F601CD
:100EE000038D10E00F5F1F4F0F731127F02EF601D7
:100EF000848DF81211C00FB607FCF9CFD6015096B9
:100F0000ED91FC915197808185FFF1CFC6016983F6
:100F10000E9411076981EBCF838DE80FF11DE35A21
:100F2000FF4F6083D6015B960C935B975296ED91D1
:100F3000FC91539780818062808381E058968C93E6
:100F40000DC0D6015696ED91FC915797608350964F
:100F5000ED91FC91519780818064808381E090E0E5
:100F60000F90DF91CF911F910F91FF90DF90CF9065
:100F70000895BF92CF92DF92EF92FF92CF93DF93CB
:100F8000EC016A017B01B22EE889F98982E0808355
:100F9000411581EE580761057105A1F060E079E027
:100FA0008DE390E0A70196010E94810C2150310948
:100FB000410951095695479537952795211580E1A7
:100FC000380798F0E889F989108260E874E88EE1C2
:100FD00090E0A70196010E94810C2150310941093E
:100FE00051095695479537952795EC85FD853083B2
:100FF000EE85FF852083188EEC89FD89B082EA8911
:10100000FB89808180618083EA89FB898081886097
:101010008083EA89FB89808180688083EA89FB89F3
:1010200080818F7D8083DF91CF91FF90EF90DF9063
:10103000CF90BF9008951F920F920FB60F92112478
:101040002F938F939F93EF93FF93E0911602F0916C
:1010500017028081E0911C02F0911D0282FD12C0F6
:10106000908180911F028F5F8F73209120028217E1
:1010700051F0E0911F02F0E0EA5FFD4F958F809301
:101080001F0201C08081FF91EF919F918F912F915D
:101090000F900FBE0F901F9018951F920F920FB6D2
:1010A0000F9211242F933F934F935F936F937F93EE
:1010B0008F939F93AF93BF93EF93FF9386E092E05C
:1010C0000E941107FF91EF91BF91AF919F918F9176
:1010D0007F916F915F914F913F912F910F900FBE34
:1010E0000F901F90189586E092E00E94D60621E0AE
:1010F000892B09F420E0822F0895109209021092A2
:10110000080288EE93E0A0E0B0E080930A0290939A
:101110000B02A0930C02B0930D0288E491E090932F
:1011200007028093060285EC90E09093130280936F
:10113000120284EC90E0909315028093140280ECEC
:1011400090E0909317028093160281EC90E09093C8
:1011500019028093180282EC90E090931B02809316
:101160001A0286EC90E090931D0280931C0210926C
:101170001F02109220021092210210922202089562
:1011800008950E941F050E94C0080E945801C3E0F4
:10119000D7E00E94A0022097E1F30E940307F9CF55
:1011A000CF92DF92EF92FF920F931F93CF93DF9333
:1011B0006C017A01EB01E60EF71E00E010E0CE159F
:1011C000DF0561F06991D601ED91FC910190F0810C
:1011D000E02DC6010995080F191FF1CFC801DF9155
:1011E000CF911F910F91FF90EF90DF90CF900895D6
:1011F0006115710581F0DB010D900020E9F7AD016B
:1012000041505109461B570BDC01ED91FC910280C6
:10121000F381E02D099480E090E00895EF92FF9231
:101220000F931F93CF93DF938C01FB01C0E0D0E0BD
:1012300064917F018FEFE81AF80A662361F0D80104
:10124000ED91FC910190F081E02DC8010995C80F46
:10125000D91FF701EDCFCE01DF91CF911F910F91F3
:10126000FF90EF9008950C94F808DC01ED91FC914B
:101270000190F081E02D09948F929F92AF92BF92DE
:10128000CF92DF92EF92FF920F931F93CF93DF9352
:10129000CDB7DEB7A1970FB6F894DEBF0FBECDBFB6
:1012A0007C01C42EE52FCB01D22E19A221E02D15F1
:1012B00010F02AE0D22E8E010F5D1F4F8D2C912C45
:1012C000A12CB12C6C2D7E2FA50194010E94810CC4
:1012D0008C2DD29E80191124015011098A3014F4EA
:1012E000805D01C0895CF8018083211531054105CD
:1012F000510521F0C22EE32FCA01E4CFB801C70186
:101300000E94F808A1960FB6F894DEBF0FBECDBFBD
:10131000DF91CF911F910F91FF90EF90DF90CF90D1
:10132000BF90AF909F908F900895CF92DF92EF92F1
:10133000FF920F931F93CF93DF93EC016A017B0120
:101340002115310579F4E881F9810190F081E02DD2
:10135000642FDF91CF911F910F91FF90EF90DF905D
:10136000CF9009942A303105E9F477FF1AC06DE275
:101370000E9435098C0144275527BA014C195D0993
:101380006E097F092AE0CE010E943C09800F911F5F
:10139000DF91CF911F910F91FF90EF90DF90CF9051
:1013A00008952AE0B701A601CE01DF91CF911F91E8
:1013B0000F91FF90EF90DF90CF900C943C099A0131
:1013C000AB01662757FD6095762F0C9495093F92E7
:1013D0004F925F926F927F928F929F92AF92BF9245
:1013E000CF92DF92EF92FF920F931F93CF93DF93F1
:1013F00000D000D0CDB7DEB78B0129013A01909122
:101400003501981721F09F3F09F0D3C104C0E7EDE3
:10141000F0E0349081C080933501E7EDF0E0E49195
:10142000EF3F09F4C6C1E13031F1E23009F44BC0BD
:10143000E11171C014BC15BC94B5926094BD95B512
:10144000916095BD282F30E0F901EB55FF4FE491F5
:10145000F0E0EE0FFF1FED53FF4F45915491509375
:10146000B3024093B202F901EF56FF4F249120934B
:10147000B102312C53C010928000109281009091E3
:101480008100986090938100909181009160909389
:101490008100282F30E0F901EB55FF4FE491F0E097
:1014A000EE0FFF1FED53FF4F459154915093AC0247
:1014B0004093AB02F901EF56FF4F24912093AA020B
:1014C000332433942BC01092B0001092B10090914D
:1014D000B00092609093B0009091B10091609093B1
:1014E000B100282F30E0F901EB55FF4FE491F0E017
:1014F000EE0FFF1FED53FF4F459154915093A502FE
:101500004093A402F901EF56FF4F24912093A302C8
:1015100052E0352E03C03E2E37FC4BC161E00E94E5
:10152000FF054801A12CB12C832D8D7F09F0C0C08F
:1015300060E072E18AE790E0A50194010E94A30CAB
:1015400029833A834B835C8369017A0181E0C81A5D
:10155000D108E108F1089FEFC916D104E104F104B4
:1015600009F008F49AC060E472E48FE090E0A5010D
:1015700094010E94A30C69017A01E1E0CE1AD1081E
:10158000E108F108F2E03F1219C08FEFC816D1044C
:10159000E104F10409F008F487C060E970ED83E02C
:1015A00090E0A50194010E94A30C69017A0191E0E9
:1015B000C91AD108E108F10883E001C082E0EFEF29
:1015C000CE16D104E104F10409F008F467C068E420
:1015D00078EE81E090E0A50194010E94A30C6901DE
:1015E0007A01F1E0CF1AD108E108F1083320E1F0E7
:1015F00082E038121BC09FEFC916D104E104F10448
:1016000009F008F4D4C064E274EF80E090E0A50132
:1016100094010E94A30C69017A01E1E0CE1AD1087D
:10162000E108F10885E003C083E001C084E0FFEF3A
:10163000CF16D104E104F10489F180F162E17AE787
:1016400080E090E0A50194010E94A30C69017A0159
:1016500081E0C81AD108E108F108311002C084E025
:1016600001C086E09FEFC916D104E104F104B1F096
:10167000A8F0C980DA80EB80FC809AE0F594E794CA
:10168000D794C7949A95D1F7E1E0CE1AD108E10832
:10169000F108332031F087E008C081E0332011F0F9
:1016A00004C085E085BD34C082E08093B10030C0C5
:1016B00060E072E18AE790E0A50194010E94A30C2A
:1016C00069017A01F1E0CF1AD108E108F108C114EB
:1016D000D10481E0E806F10488F068E478EE81E066
:1016E00090E0A50194010E94A30C69017A0191E0A8
:1016F000C91AD108E108F10893E001C091E0E1E0E6
:101700003E1206C080918100887F892B80938100E2
:10171000411451046104710471F0D801AA0FBB1F78
:10172000A30192010E94C80C28EE33E040E050E093
:101730000E94810C03C02FEF3FEFA901F1E03F169B
:10174000A1F082E0381619F1311033C0C7BC2093E4
:10175000B4023093B5024093B6025093B702809121
:101760006E00826080936E0024C0D0928900C09287
:1017700088002093AD023093AE024093AF025093A5
:10178000B00280916F00826080936F0012C0C0929F
:10179000B3002093A6023093A7024093A80250936F
:1017A000A9028091700082608093700002C084E082
:1017B0007CCF0F900F900F900F90DF91CF911F91E2
:1017C0000F91FF90EF90DF90CF90BF90AF909F90E0
:1017D0008F907F906F905F904F903F9008958130F1
:1017E00039F018F0823051F0089510926E0008958B
:1017F00080916F008D7F80936F00089580917000BD
:101800008D7F8093700081E08093B0008091B10063
:10181000887F84608093B1001092B3000895CF93C5
:10182000C82F809135018C1307C0E7EDF0E084915B
:101830009FEF9093350101C08FEF0E94EF0B60E0A6
:101840008C2FCF910C9438061F920F920FB60F92E7
:1018500011242F933F934F935F936F937F938F93B5
:101860009F93AF93BF93EF93FF938091A6029091C4
:10187000A702A091A802B091A902892B8A2B8B2BD9
:1018800051F19091A302E091A402F091A502808110
:10189000892780838091A6029091A702A091A80237
:1018A000B091A902181619061A061B06C4F48091F5
:1018B000A6029091A702A091A802B091A902019757
:1018C000A109B1098093A6029093A702A093A80250
:1018D000B093A90204C0809135010E940F0CFF91C2
:1018E000EF91BF91AF919F918F917F916F915F9198
:1018F0004F913F912F910F900FBE0F901F90189511
:101900000895A1E21A2EAA1BBB1BFD010DC0AA1F40
:10191000BB1FEE1FFF1FA217B307E407F50720F058
:10192000A21BB30BE40BF50B661F771F881F991FD3
:101930001A9469F760957095809590959B01AC011C
:10194000BD01CF010895052E97FB1EF400940E945F
:10195000BA0C57FD07D00E94810C07FC03D04EF44F
:101960000C94BA0C50954095309521953F4F4F4FB0
:101970005F4F089590958095709561957F4F8F4F3B
:101980009F4F0895EE0FFF1F0590F491E02D0994ED
:101990000E94D30CA59F900DB49F900DA49F800D25
:1019A000911D11240895A29FB001B39FC001A39F70
:1019B000700D811D1124911DB29F700D811D112488
:1019C000911D0895FB01DC018D910190801901109A
:1019D000D9F3990B0895F999FECF92BD81BDF89A7C
:0A19E000992780B50895F894FFCF11
:1019EA00000406011501260137014A015D01720151
:1019FA0088019F01B801D201EE010B022A024B02B3
:101A0A006E029302BA02E40210033F037003A403B6
:101A1A00DC03170401FF5200320033004C0030305F
:101A2A0030303100000000005407D008D606EF0617
:041A3A00E106320788
:00000001FF
