:100000000C9471000C9499000C9499000C94990034
:100010000C9499000C9499000C9499000C94880C01
:100020000C9499000C9499000C9499000C949900EC
:100030000C9499000C9499000C9499000C949900DC
:100040000C94E2040C9499000C947F080C94B10871
:100050000C9499000C9499000C9499000C949900BC
:100060000C9499000C9499004704EC03F4033104B8
:100070004A040A046D04303030303100524F42429D
:100080004F2D0000000008000201000003040700DB
:100090000000000000000001020408102040800160
:1000A00002040810200102040810200404040404BF
:1000B0000404040202020202020303030303030016
:1000C0000000002300260029000000000025002871
:1000D000002B0000000000240027002A0002C801B5
:1000E000E10811241FBECFEFD8E0DEBFCDBF11E085
:1000F000A0E0B1E0E2EBFAE102C005900D92A0357C
:10010000B107D9F722E0A0E5B1E001C01D92A43B00
:10011000B207E1F710E0C2EED0E004C02297FE0182
:100120000E94280DCE3DD107C9F70E9425090C94E5
:10013000570D0C940000DC01ED91FC910190F081D1
:10014000E02D09940F931F93CF93DF9307EC11E0F9
:10015000C0E0D0E0CE010E944F0DF80181938F01E5
:100160002196C233D105B1F7E7ECF1E0CF01875C0E
:10017000914021912D32D1F70196E2EBF1E0DC01C3
:10018000A953BE4F2C9101962D3211F02193F7CF38
:10019000EDE9F1E0DC01A953BE4F2C9101962D321F
:1001A00011F02193F7CFA8E8B1E0FC01E953FE4F2D
:1001B00020812D3219F02D930196F7CFA3E7B1E0FE
:1001C00081E090E0EF01C80FD91F2881019630ED42
:1001D000320F3A3010F42D93F5CF66E371E082EBE5
:1001E00091E00E94460D892B29F568E371E08DE9C5
:1001F00091E00E94460D892BE9F468E371E088E8FC
:1002000091E00E94460D892B81F06AE371E088E855
:1002100091E00E94460D892B41F06CE371E088E883
:1002200091E00E94460D892B29F4109272011092E0
:1002300071013CC06EE371E082EB91E00E94460DDB
:10024000892B71F568E371E08DE991E00E94460D1C
:10025000892B59F468E371E088E891E00E94460D2B
:10026000892B19F481E090E01DC06CE371E08DE909
:1002700091E00E94460D892B99F468E371E088E8CB
:1002800091E00E94460D892B41F06AE371E088E815
:1002900091E00E94460D892B19F482E090E002C0A3
:1002A0008FE097E29093720180937101DF91CF917B
:1002B0001F910F910895EF92FF920F931F93CF9389
:1002C000DF930E94A20026E040E052EC61E070E083
:1002D00082E092E00E941D081092700161E084E0CB
:1002E0000E94630661E082E00E94630661E083E1B0
:1002F0000E94630661E082E00E94630661E083E0A1
:100300000E94630661E084E00E94630661E085E08C
:100310000E94630661E086E00E94630661E087E078
:100320000E94630661E083E10E949C0608EC10E0F5
:10033000C0E0D0E0EE24E394F12C97010C2E01C034
:10034000220F0A94EAF741E064E082E00E94FB0693
:10035000219624E630E040E050E0B80183E00E94BE
:100360004B0A64E670E080E090E00E945B05085371
:100370001F4FC830D10509F720E041E064E082E07A
:10038000DF91CF911F910F91FF90EF900C94FB069E
:100390000E942C0560936C0170936D0180936E0137
:1003A00090936F010895CF93DF9363E270E082E052
:1003B00092E00E949B0088E00E94D206C1E0019773
:1003C00009F0C0E089E00E94D206019709F4C260FA
:1003D0008AE00E94D206019709F4C4608BE00E9473
:1003E000D206019709F4C8608CE00E94D2060197FA
:1003F00009F4C0618DE00E94D206019709F4C06241
:100400006C2F82E092E00E94B80780E00E94BE0557
:10041000EC0160E070E082E092E00E949B0060E00E
:1004200070E082E092E00E949B006D2F82E092E0FB
:100430000E94B8076C2F82E092E00E94B80781E02A
:100440000E94BE05EC0160E070E082E092E00E9454
:100450009B0060E070E082E092E00E949B006D2FC4
:1004600082E092E00E94B8076C2F82E092E00E9446
:10047000B80782E00E94BE05EC0160E070E082E017
:1004800092E00E949B0060E070E082E092E00E94B7
:100490009B006D2F82E092E00E94B8076C2F82E0F3
:1004A00092E00E94B807C0916A01D0916B0160E0B0
:1004B00070E082E092E00E949B0060E070E082E0E9
:1004C00092E00E949B006D2F82E092E00E94B807AC
:1004D0006C2F82E092E00E94B80784E00E94BE0583
:1004E000EC0160E070E082E092E00E949B0060E03E
:1004F00070E082E092E00E949B006D2F82E092E02B
:100500000E94B8076C2F82E092E00E94B80785E055
:100510000E94BE05EC0160E070E082E092E00E9483
:100520009B0060E070E082E092E00E949B006D2FF3
:1005300082E092E00E94B8076C2F82E092E00E9475
:10054000B80787E00E94BE05EC0160E070E082E041
:1005500092E00E949B0060E070E082E092E00E94E6
:100560009B006D2F82E092E00E94B8076C2F82E022
:1005700092E0DF91CF910C94B8070F931F93CF9324
:10058000DF9382E092E00E943A07892B09F4C1C10F
:1005900082E092E00E945307209170012111E1C096
:1005A0009C0133272336310509F4D3C054F4213696
:1005B000310509F4CBC00CF0CCC02032310581F0FC
:1005C000A8C12536310509F4C4C00CF4C2C02636D2
:1005D000310509F4BEC02736310509F4BAC099C106
:1005E0006CE770E082E092E00E94720980917101F4
:1005F000909172018031974234F460E370E082E0C0
:1006000092E00E949B008091710190917201883E5E
:10061000934034F460E370E082E092E00E949B003B
:1006200080917101909172018436910534F460E3F8
:1006300070E082E092E00E949B00809171019091B5
:1006400072010A9734F460E370E082E092E00E9465
:100650009B0060917101709172014AE050E082E06C
:1006600092E00E94430A6DE270E082E092E00E9414
:100670009B0066E770E082E092E00E9472096DE202
:1006800070E082E092E00E949B0062EB71E082E009
:1006900092E00E9497096DE282E092E00E9499093F
:1006A000CDE9D1E009900020E9F72197CD59D1405B
:1006B000C530D10544F460E370E082E092E00E942E
:1006C0009B002196F5CF6DE971E082E092E00E94F7
:1006D00097096DE282E092E00E949909C8E8D1E0B2
:1006E00009900020E9F72197C858D140C530D105BD
:1006F00044F460E370E082E092E00E949B00219667
:10070000F5CF68E871E082E092E00E9497096DE21F
:1007100082E092E00E949909C3E7D1E009900020AD
:10072000E9F72197C357D140C431D10544F460E3C0
:1007300070E082E092E00E949B002196F5CF63E793
:1007400071E082E092E00E949709E3C0809350013B
:1007500028C08093500182E0809370011092510173
:10076000D8C0223029F590915101E92FF0E0EE5ADE
:10077000FE4F808381E0890F809351019091500159
:10078000943661F028F4923649F0933639F0C1C0BE
:10079000963621F018F0973641F0BBC0882309F453
:1007A000B8C083E080937001B4C08230D0F7B1C08C
:1007B000233009F0AEC0843209F0A9C08091500105
:1007C00090E0FC01E156F109E730F10508F09FC027
:1007D000EC5CFF4F0C94260D2091520141E064E047
:1007E00082E00E94FB0653C0C0915201C0FF02C0CC
:1007F00061E001C060E085E00E949C06C1FF02C08C
:1008000061E001C060E086E00E949C06C2FF24C057
:1008100061E023C0C0915201C0FF04C060E082E0EB
:100820000E949C06C1FF04C060E083E00E949C0619
:10083000C2FF04C060E084E00E949C06C3FF04C0C5
:1008400060E085E00E949C06C4FF04C060E086E092
:100850000E949C06C5FF1BC060E087E00E949C06CA
:1008600016C0E0915201F0E0EE0FFF1FEE5FFE4F69
:100870006081718124E630E040E050E083E00E9436
:100880004B0A64E670E080E090E00E945B050E9405
:10089000D3013DC0C0915201C0FF04C061E082E0BD
:1008A0000E949C06C1FF04C061E083E00E949C0698
:1008B000C2FF04C061E084E00E949C06C3FF04C044
:1008C00061E085E00E949C06C4FF04C061E086E010
:1008D0000E949C06C5FFDBCF9BCFD0915201C091F7
:1008E0005301D0FF05C06C2F70E083E00E94DB0550
:1008F000D1FF05C06C2F70E085E00E94DB05D2FFC0
:10090000C6CF6C2F70E086E00E94DB05C0CF10924E
:1009100070010E942C0500916C0110916D012091D5
:100920006E0130916F01601B710B820B930B623370
:10093000710581059105F8F481E10E94BE0590934F
:10094000670180936601811524E09207B0F520913C
:100950006801309169012817390728F490936901DB
:10096000809368012AC02091000130910101821713
:10097000930718F51EC0809168019091690120913C
:10098000000130910101821B930B90936B018093C6
:100990006A010E942C0560936C0170936D01809335
:1009A0006E0190936F01109269011092680180E0CE
:1009B00094E09093010180930001DF91CF911F910A
:1009C0000F9108951F920F920FB60F9211242F933B
:1009D0003F938F939F93AF93BF938091FA01909130
:1009E000FB01A091FC01B091FD013091F90123E0E0
:1009F000230F2D3720F40196A11DB11D05C026E857
:100A0000230F0296A11DB11D2093F9018093FA01D5
:100A10009093FB01A093FC01B093FD018091FE0136
:100A20009091FF01A0910002B09101020196A11DD9
:100A3000B11D8093FE019093FF01A0930002B0933B
:100A40000102BF91AF919F918F913F912F910F9094
:100A50000FBE0F901F9018952FB7F8946091FA0170
:100A60007091FB018091FC019091FD012FBF0895D1
:100A70003FB7F8948091FE019091FF01A091000290
:100A8000B091010226B5A89B05C02F3F19F0019631
:100A9000A11DB11D3FBF6627782F892F9A2F620FA6
:100AA000711D811D911D42E0660F771F881F991FE0
:100AB0004A95D1F70895CF92DF92EF92FF92CF93AC
:100AC000DF936B017C010E943805EB01C114D10456
:100AD000E104F10489F00E94E40C0E9438056C1BCB
:100AE0007D0B683E734090F381E0C81AD108E1089D
:100AF000F108C851DC4FEACFDF91CF91FF90EF9022
:100B0000DF90CF900895789484B5826084BD84B5D9
:100B1000816084BD85B5826085BD85B5816085BDF8
:100B2000EEE6F0E0808181608083E1E8F0E0108211
:100B3000808182608083808181608083E0E8F0E052
:100B4000808181608083E1EBF0E08081846080833C
:100B5000E0EBF0E0808181608083EAE7F0E0808173
:100B600084608083808182608083808181608083D3
:100B70008081806880831092C10008958E3008F0D3
:100B80008E5087702091340190E4299F90011124A8
:100B9000822B80937C0080917A00806480937A001D
:100BA00080917A0086FDFCCF8091780020917900B9
:100BB00090E0922B08951F93CF93DF93182FEB01B2
:100BC00061E00E946306209711F460E004C0CF3F0B
:100BD000D10539F461E0812FDF91CF911F910C9401
:100BE0009C06E12FF0E0ED57FF4FE491E330F9F080
:100BF00048F4E130B9F0E230A1F584B5806284BDFB
:100C0000C8BD34C0E730E9F0E83019F1E43049F507
:100C100080918000806280938000D0938B00C0938D
:100C20008A0024C084B5806884BDC7BD1FC0809180
:100C30008000806880938000D0938900C0938800F2
:100C400015C08091B00080688093B000C093B3005D
:100C50000DC08091B00080628093B000C093B4005A
:100C600005C0C038D1050CF0B5CFAFCFDF91CF9123
:100C70001F910895833081F028F4813099F08230FB
:100C8000A1F008958730A9F08830B9F08430D1F40C
:100C9000809180008F7D03C0809180008F7780934A
:100CA0008000089584B58F7702C084B58F7D84BDA0
:100CB00008958091B0008F7703C08091B0008F7D40
:100CC0008093B0000895CF93DF9390E0FC01E95644
:100CD000FF4F2491FC01E555FF4F8491882349F192
:100CE00090E0880F991FFC01ED52FF4FA591B49140
:100CF00087539F4FFC01C591D4919FB7611108C0E4
:100D0000F8948C91209582238C93888182230AC049
:100D1000623051F4F8948C91322F309583238C9368
:100D20008881822B888304C0F8948C91822B8C93C9
:100D30009FBFDF91CF9108950F931F93CF93DF93C0
:100D40001F92CDB7DEB7282F30E0F901ED57FF4FE6
:100D50008491F901E956FF4F1491F901E555FF4FD0
:100D600004910023C9F0882321F069830E943A0688
:100D70006981E02FF0E0EE0FFF1FE753FF4FA591D1
:100D8000B4919FB7F8948C91611103C010958123A1
:100D900001C0812B8C939FBF0F90DF91CF911F914A
:100DA0000F910895CF93DF93282F30E0F901ED578D
:100DB000FF4F8491F901E956FF4FD491F901E555B0
:100DC000FF4FC491CC2391F081110E943A06EC2F81
:100DD000F0E0EE0FFF1FE154FF4FA591B4912C916D
:100DE0002D2381E090E021F480E002C080E090E0DB
:100DF000DF91CF910895BF92CF92DF92EF92FF9251
:100E00000F931F93CF93DF93C82ED62EB42EC7E037
:100E1000D0E0022F10E087E0E82EF12CB1100AC0DC
:100E2000F701EC1BFD0BB80102C075956795EA95BB
:100E3000E2F707C0B8010C2E02C0759567950A94B9
:100E4000E2F7617077278C2D0E949C0661E08D2D62
:100E50000E949C0660E08D2D0E949C062197F0F672
:100E6000DF91CF911F910F91FF90EF90DF90CF9086
:100E7000BF900895FC01818D228D90E0805C9F4F92
:100E8000821B91098F7399270895FC01918D828DA2
:100E9000981731F0828DE80FF11D858D90E008954F
:100EA0008FEF9FEF0895FC01918D828D981761F06F
:100EB000828DDF01A80FB11D5D968C91928D9F5F91
:100EC0009F73928F90E008958FEF9FEF089587EDC5
:100ED00098E0892B49F080E090E0892B29F00E946E
:100EE000D70881110C9400000895FC01848DDF0166
:100EF000A80FB11DA35ABF4F2C91848D90E001968D
:100F00008F739927848FA689B7892C93A089B1897B
:100F10008C9180648C93938D848D981306C0028885
:100F2000F389E02D80818F7D80830895CF93DF93B7
:100F3000EC01888D8823C9F0EA89FB89808185FDD1
:100F400005C0A889B9898C9186FD0FC00FB607FC32
:100F5000F5CF808185FFF2CFA889B9898C9185FF73
:100F6000EDCFCE010E947507E7CFDF91CF910895B5
:100F7000CF92DF92FF920F931F93CF93DF931F9235
:100F8000CDB7DEB76C01DC015B969C915B975C96FC
:100F90008C915C97981307C05096ED91FC915197F6
:100FA000808185FD32C0F601038D10E00F5F1F4F79
:100FB0000F731127F02EF601848DF81211C00FB6B1
:100FC00007FCF9CFD6015096ED91FC9151978081A5
:100FD00085FFF1CFC60169830E9475076981EBCF58
:100FE000838DE80FF11DE35AFF4F6083D6015B96B6
:100FF0000C935B975296ED91FC91539780818062A0
:10100000808381E058968C930DC0D6015696ED9161
:10101000FC91579760835096ED91FC915197808198
:101020008064808381E090E00F90DF91CF911F91E9
:101030000F91FF90DF90CF900895BF92CF92DF92F3
:10104000EF92FF92CF93DF93EC016A017B01B22E06
:10105000E889F98982E08083411581EE58076105AE
:101060007105A1F060E079E08DE390E0A7019601C1
:101070000E94E50C215031094109510956954795C7
:1010800037952795211580E1380798F0E889F98987
:10109000108260E874E88EE190E0A70196010E945A
:1010A000E50C21503109410951095695479537956D
:1010B0002795EC85FD853083EE85FF852083188E8E
:1010C000EC89FD89B082EA89FB8980818061808317
:1010D000EA89FB89808188608083EA89FB89808135
:1010E00080688083EA89FB8980818F7D8083DF919E
:1010F000CF91FF90EF90DF90CF90BF9008951F9217
:101100000F920FB60F9211242F938F939F93EF930B
:10111000FF93E0911202F09113028081E091180296
:10112000F091190282FD12C0908180911B028F5FA5
:101130008F7320911C02821751F0E0911B02F0E0A6
:10114000EE5FFD4F958F80931B0201C08081FF9160
:10115000EF919F918F912F910F900FBE0F901F9045
:1011600018951F920F920FB60F9211242F933F9351
:101170004F935F936F937F938F939F93AF93BF939F
:10118000EF93FF9382E092E00E947507FF91EF9149
:10119000BF91AF919F918F917F916F915F914F918F
:1011A0003F912F910F900FBE0F901F90189582E0E6
:1011B00092E00E943A0721E0892B09F420E0822F77
:1011C0000895109205021092040288EE93E0A0E0C8
:1011D000B0E08093060290930702A0930802B093B8
:1011E000090284E491E0909303028093020285EC6B
:1011F00090E090930F0280930E0284EC90E0909325
:1012000011028093100280EC90E09093130280937F
:10121000120281EC90E0909315028093140282EC0C
:1012200090E0909317028093160286EC90E09093E2
:1012300019028093180210921B0210921C02109245
:101240001D0210921E02089508950E9483050E94B7
:1012500024090E945B01C7E6D7E00E94BD022097E7
:10126000E1F30E946707F9CFCF92DF92EF92FF92EE
:101270000F931F93CF93DF936C017A01EB01E60E7E
:10128000F71E00E010E0CE15DF0561F06991D60190
:10129000ED91FC910190F081E02DC6010995080FB8
:1012A000191FF1CFC801DF91CF911F910F91FF90CE
:1012B000EF90DF90CF9008956115710581F0DB010B
:1012C0000D900020E9F7AD0141505109461B570B25
:1012D000DC01ED91FC910280F381E02D099480E026
:1012E00090E00895EF92FF920F931F93CF93DF93B7
:1012F0008C01FB01C0E0D0E064917F018FEFE81A20
:10130000F80A662361F0D801ED91FC910190F0811B
:10131000E02DC8010995C80FD91FF701EDCFCE0107
:10132000DF91CF911F910F91FF90EF9008950C9452
:101330005C09DC01ED91FC910190F081E02D0994B4
:101340008F929F92AF92BF92CF92DF92EF92FF92D5
:101350000F931F93CF93DF93CDB7DEB7A1970FB64F
:10136000F894DEBF0FBECDBF7C01C42EE52FCB01AC
:10137000D22E19A221E02D1510F02AE0D22E8E01D6
:101380000F5D1F4F8D2C912CA12CB12C6C2D7E2F1D
:10139000A50194010E94E50C8C2DD29E8019112488
:1013A000015011098A3014F4805D01C0895CF80194
:1013B0008083211531054105510521F0C22EE32F0F
:1013C000CA01E4CFB801C7010E945C09A1960FB61B
:1013D000F894DEBF0FBECDBFDF91CF911F910F916B
:1013E000FF90EF90DF90CF90BF90AF909F908F9045
:1013F0000895CF92DF92EF92FF920F931F93CF93B6
:10140000DF93EC016A017B012115310579F4E88154
:10141000F9810190F081E02D642FDF91CF911F9130
:101420000F91FF90EF90DF90CF9009942A30310513
:10143000E9F477FF1AC06DE20E9499098C014427F4
:101440005527BA014C195D096E097F092AE0CE01C2
:101450000E94A009800F911FDF91CF911F910F91E2
:10146000FF90EF90DF90CF9008952AE0B701A6019A
:10147000CE01DF91CF911F910F91FF90EF90DF9000
:10148000CF900C94A0099A01AB01662757FD609597
:10149000762F0C94F9093F924F925F926F927F9250
:1014A0008F929F92AF92BF92CF92DF92EF92FF9274
:1014B0000F931F93CF93DF9300D000D0CDB7DEB74B
:1014C0008B0129013A0190913501981721F09F3F36
:1014D00009F0D3C104C0EDEDF0E0349081C08093F9
:1014E0003501EDEDF0E0E491EF3F09F4C6C1E130E4
:1014F00031F1E23009F44BC0E11171C014BC15BCEC
:1015000094B5926094BD95B5916095BD282F30E05B
:10151000F901E555FF4FE491F0E0EE0FFF1FE753AF
:10152000FF4F459154915093AF024093AE02F901A1
:10153000E956FF4F24912093AD02312C53C01092F5
:1015400080001092810090918100986090938100BA
:1015500090918100916090938100282F30E0F901F3
:10156000E555FF4FE491F0E0EE0FFF1FE753FF4F0B
:10157000459154915093A8024093A702F901E9566E
:10158000FF4F24912093A602332433942BC0109252
:10159000B0001092B1009091B00092609093B000B2
:1015A0009091B10091609093B100282F30E0F90143
:1015B000E555FF4FE491F0E0EE0FFF1FE753FF4FBB
:1015C000459154915093A1024093A002F901E9562C
:1015D000FF4F249120939F0252E0352E03C03E2EF0
:1015E00037FC4BC161E00E9463064801A12CB12C7D
:1015F000832D8D7F09F0C0C060E072E18AE790E042
:10160000A50194010E94070D29833A834B835C83D3
:1016100069017A0181E0C81AD108E108F1089FEF59
:10162000C916D104E104F10409F008F49AC060E499
:1016300072E48FE090E0A50194010E94070D69011A
:101640007A01E1E0CE1AD108E108F108F2E03F1298
:1016500019C08FEFC816D104E104F10409F008F4B1
:1016600087C060E970ED83E090E0A50194010E94DD
:10167000070D69017A0191E0C91AD108E108F10862
:1016800083E001C082E0EFEFCE16D104E104F10463
:1016900009F008F467C068E478EE81E090E0A50105
:1016A00094010E94070D69017A01F1E0CF1AD10877
:1016B000E108F1083320E1F082E038121BC09FEF0F
:1016C000C916D104E104F10409F008F4D4C064E2BD
:1016D00074EF80E090E0A50194010E94070D69017C
:1016E0007A01E1E0CE1AD108E108F10885E003C0F3
:1016F00083E001C084E0FFEFCF16D104E104F104E0
:1017000089F180F162E17AE780E090E0A50194013F
:101710000E94070D69017A0181E0C81AD108E10829
:10172000F108311002C084E001C086E09FEFC916C5
:10173000D104E104F104B1F0A8F0C980DA80EB80B3
:10174000FC809AE0F594E794D794C7949A95D1F7E2
:10175000E1E0CE1AD108E108F108332031F087E04A
:1017600008C081E0332011F004C085E085BD34C09D
:1017700082E08093B10030C060E072E18AE790E0DF
:10178000A50194010E94070D69017A01F1E0CF1AC9
:10179000D108E108F108C114D10481E0E806F104A0
:1017A00088F068E478EE81E090E0A50194010E9461
:1017B000070D69017A0191E0C91AD108E108F10821
:1017C00093E001C091E0E1E03E1206C0809181000B
:1017D000887F892B80938100411451046104710436
:1017E00071F0D801AA0FBB1FA30192010E942C0D1A
:1017F00028EE33E040E050E00E94E50C03C02FEFFC
:101800003FEFA901F1E03F16A1F082E0381619F18F
:10181000311033C0C7BC2093B0023093B102409363
:10182000B2025093B30280916E00826080936E008A
:1018300024C0D0928900C09288002093A9023093DE
:10184000AA024093AB025093AC0280916F00826079
:1018500080936F0012C0C092B3002093A202309315
:10186000A3024093A4025093A5028091700082606D
:101870008093700002C084E07CCF0F900F900F9097
:101880000F90DF91CF911F910F91FF90EF90DF901C
:10189000CF90BF90AF909F908F907F906F905F9010
:1018A0004F903F900895813039F018F0823051F018
:1018B000089510926E00089580916F008D7F80933F
:1018C0006F000895809170008D7F8093700081E09B
:1018D0008093B0008091B100887F84608093B100D4
:1018E0001092B3000895CF93C82F809135018C13C7
:1018F00007C0EDEDF0E084919FEF9093350101C0BA
:101900008FEF0E94530C60E08C2FCF910C949C06BB
:101910001F920F920FB60F9211242F933F934F9364
:101920005F936F937F938F939F93AF93BF93EF9347
:10193000FF938091A2029091A302A091A402B09182
:10194000A502892B8A2B8B2B51F190919F02E0915C
:10195000A002F091A1028081892780838091A20258
:101960009091A302A091A402B091A50218161906A5
:101970001A061B06C4F48091A2029091A302A091C2
:10198000A402B091A5020197A109B1098093A20216
:101990009093A302A093A402B093A50204C08091E7
:1019A00035010E94730CFF91EF91BF91AF919F9110
:1019B0008F917F916F915F914F913F912F910F90F8
:1019C0000FBE0F901F9018950895A1E21A2EAA1B22
:1019D000BB1BFD010DC0AA1FBB1FEE1FFF1FA217DF
:1019E000B307E407F50720F0A21BB30BE40BF50BDC
:1019F000661F771F881F991F1A9469F76095709565
:101A0000809590959B01AC01BD01CF010895052EF5
:101A100097FB1EF400940E941E0D57FD07D00E94F4
:101A2000E50C07FC03D04EF40C941E0D5095409528
:101A3000309521953F4F4F4F5F4F0895909580957A
:101A4000709561957F4F8F4F9F4F0895EE0FFF1F49
:101A50000590F491E02D09940E94370DA59F900DFB
:101A6000B49F900DA49F800D911D11240895A29FF5
:101A7000B001B39FC001A39F700D811D1124911D62
:101A8000B29F700D811D1124911D0895FB01DC0191
:101A90008D91019080190110D9F3990B0895F9994E
:101AA000FECF92BD81BDF89A992780B50895F8942C
:021AB000FFCF66
:101AB200000406011501260137014A015D01720188
:101AC20088019F01B801D201EE010B022A024B02EA
:101AD2006E029302BA02E40210033F037003A403EE
:101AE200DC03170401FF52003100320033004C00C6
:101AF20000000000B80734093A0753074507960764
:00000001FF
