:100000000C9471000C9499000C9499000C94990034
:100010000C9499000C9499000C9499000C94530C36
:100020000C9499000C9499000C9499000C949900EC
:100030000C9499000C9499000C9499000C949900DC
:100040000C94AD040C9499000C944A080C947C0810
:100050000C9499000C9499000C9499000C949900BC
:100060000C9499000C9499001204B703BF03FC038D
:100070001504D5033804303030303200524F42423C
:100080004F2D0000000008000201000003040700DB
:100090000000000000000001020408102040800160
:1000A00002040810200102040810200404040404BF
:1000B0000404040202020202020303030303030016
:1000C0000000002300260029000000000025002871
:1000D000002B0000000000240027002A0002DC01A1
:1000E000AC0811241FBECFEFD8E0DEBFCDBF11E0BA
:1000F000A0E0B1E0E8E4FAE102C005900D92A2357B
:10010000B107D9F722E0A2E5B1E001C01D92A63BFC
:10011000B207E1F710E0C2EED0E004C02297FE0182
:100120000E94F30CCE3DD107C9F70E94F0080C9451
:10013000220D0C940000DC01ED91FC910190F08106
:10014000E02D09940F931F93CF93DF9309EC11E0F7
:10015000C0E0D0E0CE010E941A0DF80181938F011A
:100160002196C233D105B1F7E9ECF1E0CF01895C0A
:10017000914021912D32D1F70196E4EBF1E0DC01C1
:10018000A753BE4F2C9101962D3211F02193F7CF3A
:10019000EFE9F1E0DC01A753BE4F2C9101962D321F
:1001A00011F02193F7CFAAE8B1E0FC01E753FE4F2D
:1001B00020812D3219F02D930196F7CFA5E7B1E0FC
:1001C00081E090E0EF01C80FD91F2881019630ED42
:1001D000320F3A3010F42D93F5CF66E371E084EBE3
:1001E00091E00E94110D892B69F568E371E08FE9B8
:1001F00091E00E94110D892B29F568E371E08AE8EE
:1002000091E00E94110D892BC1F06AE371E08AE848
:1002100091E00E94110D892B81F06CE371E08AE876
:1002200091E00E94110D892B41F06EE371E08AE8A4
:1002300091E00E94110D892B29F410927401109203
:10024000730144C060E471E084EB91E00E94110D01
:10025000892BB1F568E371E08FE991E00E94110DFF
:10026000892B59F468E371E08AE891E00E94110D4E
:10027000892B19F481E090E025C06CE371E08FE9EF
:1002800091E00E94110D892BD9F468E371E08AE8AE
:1002900091E00E94110D892B81F06AE371E08AE8F8
:1002A00091E00E94110D892B41F06CE371E08AE826
:1002B00091E00E94110D892B19F482E090E002C0B8
:1002C0008FE097E29093740180937301DF91CF9157
:1002D0001F910F910895EF92FF920F931F93CF9369
:1002E000DF930E94A20026E040E052EC61E070E063
:1002F00084E092E00E94E8071092720161E084E0DD
:100300000E942E0661E082E00E942E0661E083E1F9
:100310000E942E0661E082E00E942E0661E083E0EA
:100320000E942E0661E084E00E942E0661E085E0D6
:100330000E942E0661E086E00E942E0661E087E0C2
:100340000E942E0660E08DE00E942E0661E083E1AF
:100350000E94670608EC10E0C0E0D0E0EE24E394D1
:10036000F12C97010C2E01C0220F0A94EAF741E00C
:1003700064E082E00E94C606219624E630E040E078
:1003800050E0B80183E00E94160A64E670E080E065
:1003900090E00E94260508531F4FC830D10509F789
:1003A00020E041E064E082E0DF91CF911F910F9166
:1003B000FF90EF900C94C6060E94F70460936E01C4
:1003C00070936F0180937001909371010895CF93A2
:1003D00063E270E084E092E00E949B0088E00E946B
:1003E0009D06C1E0019709F0C0E089E00E949D06EA
:1003F000019709F4C2608AE00E949D06019709F402
:10040000C4608BE00E949D06019709F4C8608CE0EF
:100410000E949D06019709F4C0618DE00E949D062F
:10042000019709F4C0626C2F84E092E00E94830778
:1004300080E00E948905C82F692F84E092E00E9425
:1004400083076C2F84E092E00E94830781E00E9482
:100450008905C82F692F84E092E00E9483076C2FE2
:1004600084E092E00E94830782E00E948905C82F01
:10047000692F84E092E00E9483076C2F84E092E071
:100480000E948307C0916C0160916D0184E092E04D
:100490000E9483076C2F84E092E00E94830784E02F
:1004A0000E948905C82F692F84E092E00E9483078B
:1004B0006C2F84E092E00E94830785E00E9489050A
:1004C000C82F692F84E092E00E9483076C2F84E09C
:1004D00092E00E94830786E00E948905C82F692F59
:1004E00084E092E00E9483076C2F84E092E00E94F7
:1004F000830787E00E948905C82F692F84E092E076
:100500000E9483076C2F84E092E0CF910C948307C4
:100510000F931F93CF93DF9384E092E00E9405072F
:10052000892B09F4C1C184E092E00E941E0720914A
:1005300072012111E1C09C0133272336310509F4F2
:10054000D3C054F42136310509F4CBC00CF0CCC033
:100550002032310581F0A8C12536310509F4C4C027
:100560000CF4C2C02636310509F4BEC02736310569
:1005700009F4BAC099C16CE770E084E092E00E948F
:100580003D0980917301909174018031974234F458
:1005900060E370E084E092E00E949B008091730130
:1005A00090917401883E934034F460E370E084E0FD
:1005B00092E00E949B0080917301909174018436B7
:1005C000910534F460E370E084E092E00E949B00C7
:1005D00080917301909174010A9734F460E370E0A4
:1005E00084E092E00E949B0060917301709174011D
:1005F0004AE050E084E092E00E940E0A6DE270E072
:1006000084E092E00E949B0066E770E084E092E064
:100610000E943D096DE270E084E092E00E949B0040
:1006200064EB71E084E092E00E9462096DE284E094
:1006300092E00E946409CFE9D1E009900020E9F737
:100640002197CF59D140C530D10544F460E370E023
:1006500084E092E00E949B002196F5CF6FE971E063
:1006600084E092E00E9462096DE284E092E00E94E0
:100670006409CAE8D1E009900020E9F72197CA5837
:10068000D140C530D10544F460E370E084E092E0ED
:100690000E949B002196F5CF6AE871E084E092E029
:1006A0000E9462096DE284E092E00E946409C5E75D
:1006B000D1E009900020E9F72197C557D140C43116
:1006C000D10544F460E370E084E092E00E949B0076
:1006D0002196F5CF65E771E084E092E00E9462091F
:1006E000E3C08093520128C08093520182E080933E
:1006F000720110925301D8C0223029F59091530114
:10070000E92FF0E0EC5AFE4F808381E0890F80935F
:10071000530190915201943661F028F4923649F0D9
:10072000933639F0C1C0963621F018F0973641F073
:10073000BBC0882309F4B8C083E080937201B4C0C1
:100740008230D0F7B1C0233009F0AEC0843209F056
:10075000A9C08091520190E0FC01E156F109E73017
:10076000F10508F09FC0EC5CFF4F0C94F10C209158
:10077000540141E064E082E00E94C60653C0C0918B
:100780005401C0FF02C061E001C060E085E00E944A
:100790006706C1FF02C061E001C060E086E00E9420
:1007A0006706C2FF24C061E023C0C0915401C0FFAE
:1007B00004C060E082E00E946706C1FF04C060E000
:1007C00083E00E946706C2FF04C060E084E00E94EC
:1007D0006706C3FF04C060E085E00E946706C4FFAF
:1007E00004C060E086E00E946706C5FF1BC060E0B1
:1007F00087E00E94670616C0E0915401F0E0EE0F1A
:10080000FF1FEE5FFE4F6081718124E630E040E023
:1008100050E083E00E94160A64E670E080E090E019
:100820000E9426050E94E7013DC0C0915401C0FF0F
:1008300004C061E082E00E946706C1FF04C061E07D
:1008400083E00E946706C2FF04C061E084E00E946A
:100850006706C3FF04C061E085E00E946706C4FF2D
:1008600004C061E086E00E946706C5FFDBCF9BCF36
:10087000D0915401C0915501D0FF05C06C2F70E09C
:1008800083E00E94A605D1FF05C06C2F70E085E0D3
:100890000E94A605D2FFC6CF6C2F70E086E00E94B2
:1008A000A605C0CF109272010E94F70400916E015C
:1008B00010916F012091700130917101601B710BDB
:1008C000820B930B6233710581059105F8F481E188
:1008D0000E9489059093690180936801811524E045
:1008E0009207B0F520916A0130916B012817390702
:1008F00028F490936B0180936A012AC02091000133
:10090000309101018217930718F51EC080916A018A
:1009100090916B012091000130910101821B930B9A
:1009200090936D0180936C010E94F70460936E01B7
:1009300070936F01809370019093710110926B011D
:1009400010926A0180E094E090930101809300018D
:10095000DF91CF911F910F9108951F920F920FB6C3
:100960000F9211242F933F938F939F93AF93BF9335
:100970008091FC019091FD01A091FE01B091FF01D9
:100980003091FB0123E0230F2D3720F40196A11DA8
:10099000B11D05C026E8230F0296A11DB11D2093AD
:1009A000FB018093FC019093FD01A093FE01B093A5
:1009B000FF018091000290910102A0910202B0918A
:1009C00003020196A11DB11D8093000290930102C4
:1009D000A0930202B0930302BF91AF919F918F91B8
:1009E0003F912F910F900FBE0F901F9018952FB72A
:1009F000F8946091FC017091FD018091FE0190914D
:100A0000FF012FBF08953FB7F894809100029091A5
:100A10000102A0910202B091030226B5A89B05C075
:100A20002F3F19F00196A11DB11D3FBF6627782FFA
:100A3000892F9A2F620F711D811D911D42E0660F53
:100A4000771F881F991F4A95D1F70895CF92DF929B
:100A5000EF92FF92CF93DF936B017C010E9403051D
:100A6000EB01C114D104E104F10489F00E94AF0C40
:100A70000E9403056C1B7D0B683E734090F381E080
:100A8000C81AD108E108F108C851DC4FEACFDF915C
:100A9000CF91FF90EF90DF90CF900895789484B538
:100AA000826084BD84B5816084BD85B5826085BD6A
:100AB00085B5816085BDEEE6F0E080818160808350
:100AC000E1E8F0E010828081826080838081816033
:100AD0008083E0E8F0E0808181608083E1EBF0E0FA
:100AE000808184608083E0EBF0E08081816080839E
:100AF000EAE7F0E080818460808380818260808387
:100B00008081816080838081806880831092C100B1
:100B100008958E3008F08E5087702091340190E453
:100B2000299F90011124822B80937C0080917A0070
:100B3000806480937A0080917A0086FDFCCF80915A
:100B400078002091790090E0922B08951F93CF9325
:100B5000DF93182FEB0161E00E942E06209711F41D
:100B600060E004C0CF3FD10539F461E0812FDF910F
:100B7000CF911F910C946706E12FF0E0ED57FF4FE6
:100B8000E491E330F9F048F4E130B9F0E230A1F556
:100B900084B5806284BDC8BD34C0E730E9F0E83078
:100BA00019F1E43049F580918000806280938000E3
:100BB000D0938B00C0938A0024C084B5806884BD24
:100BC000C7BD1FC080918000806880938000D09353
:100BD0008900C093880015C08091B0008068809320
:100BE000B000C093B3000DC08091B00080628093CC
:100BF000B000C093B40005C0C038D1050CF0B5CF2B
:100C0000AFCFDF91CF911F910895833081F028F409
:100C1000813099F08230A1F008958730A9F08830B2
:100C2000B9F08430D1F4809180008F7D03C0809131
:100C300080008F7780938000089584B58F7702C0FD
:100C400084B58F7D84BD08958091B0008F7703C0F7
:100C50008091B0008F7D8093B0000895CF93DF9393
:100C600090E0FC01E956FF4F2491FC01E555FF4F50
:100C70008491882349F190E0880F991FFC01ED527F
:100C8000FF4FA591B49187539F4FFC01C591D4911B
:100C90009FB7611108C0F8948C91209582238C93A2
:100CA000888182230AC0623051F4F8948C91322FEB
:100CB000309583238C938881822B888304C0F89499
:100CC0008C91822B8C939FBFDF91CF9108950F93CE
:100CD0001F93CF93DF931F92CDB7DEB7282F30E05D
:100CE000F901ED57FF4F8491F901E956FF4F149137
:100CF000F901E555FF4F04910023C9F0882321F045
:100D000069830E9405066981E02FF0E0EE0FFF1F66
:100D1000E753FF4FA591B4919FB7F8948C9161115F
:100D200003C01095812301C0812B8C939FBF0F902E
:100D3000DF91CF911F910F910895CF93DF93282FCB
:100D400030E0F901ED57FF4F8491F901E956FF4F6B
:100D5000D491F901E555FF4FC491CC2391F0811155
:100D60000E940506EC2FF0E0EE0FFF1FE154FF4F4D
:100D7000A591B4912C912D2381E090E021F480E0A5
:100D800002C080E090E0DF91CF910895BF92CF92B2
:100D9000DF92EF92FF920F931F93CF93DF93C82EB2
:100DA000D62EB42EC7E0D0E0022F10E087E0E82E68
:100DB000F12CB1100AC0F701EC1BFD0BB80102C009
:100DC00075956795EA95E2F707C0B8010C2E02C049
:100DD000759567950A94E2F7617077278C2D0E94CC
:100DE000670661E08D2D0E94670660E08D2D0E94F0
:100DF00067062197F0F6DF91CF911F910F91FF9039
:100E0000EF90DF90CF90BF900895FC01818D228DEF
:100E100090E0805C9F4F821B91098F739927089502
:100E2000FC01918D828D981731F0828DE80FF11DB4
:100E3000858D90E008958FEF9FEF0895FC01918DCF
:100E4000828D981761F0828DDF01A80FB11D5D962C
:100E50008C91928D9F5F9F73928F90E008958FEF9A
:100E60009FEF089582EA98E0892B49F080E090E0B6
:100E7000892B29F00E94A20881110C94000008958A
:100E8000FC01848DDF01A80FB11DA35ABF4F2C9127
:100E9000848D90E001968F739927848FA689B789F6
:100EA0002C93A089B1898C9180648C93938D848DCF
:100EB000981306C00288F389E02D80818F7D80839E
:100EC0000895CF93DF93EC01888D8823C9F0EA89D8
:100ED000FB89808185FD05C0A889B9898C9186FD33
:100EE0000FC00FB607FCF5CF808185FFF2CFA88930
:100EF000B9898C9185FFEDCFCE010E944007E7CFE5
:100F0000DF91CF910895CF92DF92FF920F931F93BD
:100F1000CF93DF931F92CDB7DEB76C01DC015B96F8
:100F20009C915B975C968C915C97981307C0509648
:100F3000ED91FC915197808185FD32C0F601038DC2
:100F400010E00F5F1F4F0F731127F02EF601848DF5
:100F5000F81211C00FB607FCF9CFD6015096ED91EB
:100F6000FC915197808185FFF1CFC60169830E9472
:100F700040076981EBCF838DE80FF11DE35AFF4FE6
:100F80006083D6015B960C935B975296ED91FC9132
:100F9000539780818062808381E058968C930DC046
:100FA000D6015696ED91FC91579760835096ED913E
:100FB000FC91519780818064808381E090E00F9064
:100FC000DF91CF911F910F91FF90DF90CF90089507
:100FD000BF92CF92DF92EF92FF92CF93DF93EC011B
:100FE0006A017B01B22EE889F98982E0808341158C
:100FF00081EE580761057105A1F060E079E08DE3AD
:1010000090E0A70196010E94B00C215031094109DE
:1010100051095695479537952795211580E1380751
:1010200098F0E889F989108260E874E88EE190E030
:10103000A70196010E94B00C2150310941095109C4
:101040005695479537952795EC85FD853083EE8538
:10105000FF852083188EEC89FD89B082EA89FB899F
:10106000808180618083EA89FB89808188608083B8
:10107000EA89FB89808180688083EA89FB89808195
:101080008F7D8083DF91CF91FF90EF90DF90CF90A5
:10109000BF9008951F920F920FB60F9211242F93B5
:1010A0008F939F93EF93FF93E0911402F0911502B9
:1010B0008081E0911A02F0911B0282FD12C09081A2
:1010C00080911D028F5F8F7320911E02821751F055
:1010D000E0911D02F0E0EC5FFD4F958F80931D02C3
:1010E00001C08081FF91EF919F918F912F910F907F
:1010F0000FBE0F901F9018951F920F920FB60F9270
:1011000011242F933F934F935F936F937F938F930C
:101110009F93AF93BF93EF93FF9384E092E00E947D
:101120004007FF91EF91BF91AF919F918F917F9178
:101130006F915F914F913F912F910F900FBE0F9044
:101140001F90189584E092E00E94050721E0892B0A
:1011500009F420E0822F08951092070210920602EF
:1011600088EE93E0A0E0B0E080930802909309023B
:10117000A0930A02B0930B0286E491E090930502DB
:101180008093040285EC90E090931102809310020A
:1011900084EC90E0909313028093120280EC90E034
:1011A000909315028093140281EC90E090931702C3
:1011B0008093160282EC90E09093190280931802BB
:1011C00086EC90E090931B0280931A0210921D020D
:1011D00010921E0210921F0210922002089508958C
:1011E0000E944E050E94EF080E946B01C2E3D7E007
:1011F0000E9488022097E1F30E943207F9CFCF9234
:10120000DF92EF92FF920F931F93CF93DF936C01C6
:101210007A01EB01E60EF71E00E010E0CE15DF05C7
:1012200061F06991D601ED91FC910190F081E02D82
:10123000C6010995080F191FF1CFC801DF91CF91A1
:101240001F910F91FF90EF90DF90CF90089561155F
:10125000710581F0DB010D900020E9F7AD014150EF
:101260005109461B570BDC01ED91FC910280F38183
:10127000E02D099480E090E00895EF92FF920F93A3
:101280001F93CF93DF938C01FB01C0E0D0E064910A
:101290007F018FEFE81AF80A662361F0D801ED911B
:1012A000FC910190F081E02DC8010995C80FD91F6C
:1012B000F701EDCFCE01DF91CF911F910F91FF90FC
:1012C000EF9008950C942709DC01ED91FC910190B9
:1012D000F081E02D09948F929F92AF92BF92CF92AE
:1012E000DF92EF92FF920F931F93CF93DF93CDB7CF
:1012F000DEB7A1970FB6F894DEBF0FBECDBF7C015D
:10130000C42EE52FCB01D22E19A221E02D1510F00D
:101310002AE0D22E8E010F5D1F4F8D2C912CA12C17
:10132000B12C6C2D7E2FA50194010E94B00C8C2D48
:10133000D29E80191124015011098A3014F4805D65
:1013400001C0895CF80180832115310541055105F3
:1013500021F0C22EE32FCA01E4CFB801C7010E94D9
:101360002709A1960FB6F894DEBF0FBECDBFDF915F
:10137000CF911F910F91FF90EF90DF90CF90BF9092
:10138000AF909F908F900895CF92DF92EF92FF924F
:101390000F931F93CF93DF93EC016A017B0121151B
:1013A000310579F4E881F9810190F081E02D642F15
:1013B000DF91CF911F910F91FF90EF90DF90CF9031
:1013C00009942A303105E9F477FF1AC06DE20E94D2
:1013D00064098C0144275527BA014C195D096E092F
:1013E0007F092AE0CE010E946B09800F911FDF91D7
:1013F000CF911F910F91FF90EF90DF90CF900895C4
:101400002AE0B701A601CE01DF91CF911F910F9184
:10141000FF90EF90DF90CF900C946B099A01AB0195
:10142000662757FD6095762F0C94C4093F924F9222
:101430005F926F927F928F929F92AF92BF92CF9264
:10144000DF92EF92FF920F931F93CF93DF9300D021
:1014500000D0CDB7DEB78B0129013A01909135015B
:10146000981721F09F3F09F0D3C104C0EDEDF0E0E3
:10147000349081C080933501EDEDF0E0E491EF3FD1
:1014800009F4C6C1E13031F1E23009F44BC0E11199
:1014900071C014BC15BC94B5926094BD95B59160B3
:1014A00095BD282F30E0F901E555FF4FE491F0E0BC
:1014B000EE0FFF1FE753FF4F459154915093B10238
:1014C0004093B002F901E956FF4F24912093AF02F7
:1014D000312C53C0109280001092810090918100B5
:1014E0009860909381009091810091609093810029
:1014F000282F30E0F901E555FF4FE491F0E0EE0FC1
:10150000FF1FE753FF4F459154915093AA02409318
:10151000A902F901E956FF4F24912093A802332430
:1015200033942BC01092B0001092B1009091B00093
:1015300092609093B0009091B10091609093B1004F
:10154000282F30E0F901E555FF4FE491F0E0EE0F70
:10155000FF1FE753FF4F459154915093A3024093CF
:10156000A202F901E956FF4F24912093A10252E013
:10157000352E03C03E2E37FC4BC161E00E942E0683
:101580004801A12CB12C832D8D7F09F0C0C060E0F3
:1015900072E18AE790E0A50194010E94D20C2983B0
:1015A0003A834B835C8369017A0181E0C81AD108D0
:1015B000E108F1089FEFC916D104E104F10409F034
:1015C00008F49AC060E472E48FE090E0A501940111
:1015D0000E94D20C69017A01E1E0CE1AD108E1083B
:1015E000F108F2E03F1219C08FEFC816D104E104F0
:1015F000F10409F008F487C060E970ED83E090E041
:10160000A50194010E94D20C69017A0191E0C91AE6
:10161000D108E108F10883E001C082E0EFEFCE16C7
:10162000D104E104F10409F008F467C068E478EE3D
:1016300081E090E0A50194010E94D20C69017A0139
:10164000F1E0CF1AD108E108F1083320E1F082E09F
:1016500038121BC09FEFC916D104E104F10409F050
:1016600008F4D4C064E274EF80E090E0A501940136
:101670000E94D20C69017A01E1E0CE1AD108E1089A
:10168000F10885E003C083E001C084E0FFEFCF16DE
:10169000D104E104F10489F180F162E17AE780E0AC
:1016A00090E0A50194010E94D20C69017A0181E0C9
:1016B000C81AD108E108F108311002C084E001C065
:1016C00086E09FEFC916D104E104F104B1F0A8F05F
:1016D000C980DA80EB80FC809AE0F594E794D79497
:1016E000C7949A95D1F7E1E0CE1AD108E108F10844
:1016F000332031F087E008C081E0332011F004C0CE
:1017000085E085BD34C082E08093B10030C060E0E8
:1017100072E18AE790E0A50194010E94D20C690170
:101720007A01F1E0CF1AD108E108F108C114D1041F
:1017300081E0E806F10488F068E478EE81E090E06A
:10174000A50194010E94D20C69017A0191E0C91AA5
:10175000D108E108F10893E001C091E0E1E03E1218
:1017600006C080918100887F892B8093810041147D
:1017700051046104710471F0D801AA0FBB1FA301C9
:1017800092010E94F70C28EE33E040E050E00E9406
:10179000B00C03C02FEF3FEFA901F1E03F16A1F01D
:1017A00082E0381619F1311033C0C7BC2093B20261
:1017B0003093B3024093B4025093B50280916E000F
:1017C000826080936E0024C0D0928900C09288000D
:1017D0002093AB023093AC024093AD025093AE0223
:1017E00080916F00826080936F0012C0C092B3003E
:1017F0002093A4023093A5024093A6025093A7021F
:101800008091700082608093700002C084E07CCF81
:101810000F900F900F900F90DF91CF911F910F912C
:10182000FF90EF90DF90CF90BF90AF909F908F9000
:101830007F906F905F904F903F900895813039F086
:1018400018F0823051F0089510926E000895809142
:101850006F008D7F80936F000895809170008D7F61
:101860008093700081E08093B0008091B100887F08
:1018700084608093B1001092B3000895CF93C82F75
:10188000809135018C1307C0EDEDF0E084919FEF5E
:101890009093350101C08FEF0E941E0C60E08C2FE9
:1018A000CF910C9467061F920F920FB60F921124DE
:1018B0002F933F934F935F936F937F938F939F9358
:1018C000AF93BF93EF93FF938091A4029091A502F1
:1018D000A091A602B091A702892B8A2B8B2B51F1E4
:1018E0009091A102E091A202F091A3028081892748
:1018F00080838091A4029091A502A091A602B0914C
:10190000A702181619061A061B06C4F48091A40231
:101910009091A502A091A602B091A7020197A109FA
:10192000B1098093A4029093A502A093A602B0935C
:10193000A70204C0809135010E943E0CFF91EF91F7
:10194000BF91AF919F918F917F916F915F914F91D7
:101950003F912F910F900FBE0F901F9018950895F3
:10196000A1E21A2EAA1BBB1BFD010DC0AA1FBB1FA3
:10197000EE1FFF1FA217B307E407F50720F0A21B15
:10198000B30BE40BF50B661F771F881F991F1A9482
:1019900069F760957095809590959B01AC01BD01AC
:1019A000CF010895052E97FB1EF400940E94E90CC8
:1019B00057FD07D00E94B00C07FC03D04EF40C94E6
:1019C000E90C50954095309521953F4F4F4F5F4F13
:1019D000089590958095709561957F4F8F4F9F4F9B
:1019E0000895EE0FFF1F0590F491E02D09940E94D9
:1019F000020DA59F900DB49F900DA49F800D911D89
:101A000011240895A29FB001B39FC001A39F700D40
:101A1000811D1124911DB29F700D811D1124911DF6
:101A20000895FB01DC018D91019080190110D9F31B
:101A3000990B0895F999FECF92BD81BDF89A992727
:081A400080B50895F894FFCF72
:101A4800000406011501260137014A015D017201F2
:101A580088019F01B801D201EE010B022A024B0254
:101A68006E029302BA02E40210033F037003A40358
:101A7800DC03170401FF5200310032003300340048
:101A88004C00000000008307FF0805071E07100729
:021A98006107E4
:00000001FF
